{
  "_format": "hh-sol-artifact-1",
  "contractName": "Tabenomics",
  "sourceName": "contracts/Tabenomics.sol",
  "abi": [
    {
      "inputs": [],
      "stateMutability": "nonpayable",
      "type": "constructor"
    },
    {
      "inputs": [],
      "name": "ApprovalCallerNotOwnerNorApproved",
      "type": "error"
    },
    {
      "inputs": [],
      "name": "ApprovalQueryForNonexistentToken",
      "type": "error"
    },
    {
      "inputs": [],
      "name": "BalanceQueryForZeroAddress",
      "type": "error"
    },
    {
      "inputs": [],
      "name": "InvalidQueryRange",
      "type": "error"
    },
    {
      "inputs": [],
      "name": "MintERC2309QuantityExceedsLimit",
      "type": "error"
    },
    {
      "inputs": [],
      "name": "MintToZeroAddress",
      "type": "error"
    },
    {
      "inputs": [],
      "name": "MintZeroQuantity",
      "type": "error"
    },
    {
      "inputs": [],
      "name": "OwnerQueryForNonexistentToken",
      "type": "error"
    },
    {
      "inputs": [],
      "name": "OwnershipNotInitializedForExtraData",
      "type": "error"
    },
    {
      "inputs": [],
      "name": "TransferCallerNotOwnerNorApproved",
      "type": "error"
    },
    {
      "inputs": [],
      "name": "TransferFromIncorrectOwner",
      "type": "error"
    },
    {
      "inputs": [],
      "name": "TransferToNonERC721ReceiverImplementer",
      "type": "error"
    },
    {
      "inputs": [],
      "name": "TransferToZeroAddress",
      "type": "error"
    },
    {
      "inputs": [],
      "name": "URIQueryForNonexistentToken",
      "type": "error"
    },
    {
      "anonymous": false,
      "inputs": [
        {
          "indexed": true,
          "internalType": "address",
          "name": "owner",
          "type": "address"
        },
        {
          "indexed": true,
          "internalType": "address",
          "name": "approved",
          "type": "address"
        },
        {
          "indexed": true,
          "internalType": "uint256",
          "name": "tokenId",
          "type": "uint256"
        }
      ],
      "name": "Approval",
      "type": "event"
    },
    {
      "anonymous": false,
      "inputs": [
        {
          "indexed": true,
          "internalType": "address",
          "name": "owner",
          "type": "address"
        },
        {
          "indexed": true,
          "internalType": "address",
          "name": "operator",
          "type": "address"
        },
        {
          "indexed": false,
          "internalType": "bool",
          "name": "approved",
          "type": "bool"
        }
      ],
      "name": "ApprovalForAll",
      "type": "event"
    },
    {
      "anonymous": false,
      "inputs": [
        {
          "indexed": true,
          "internalType": "uint256",
          "name": "fromTokenId",
          "type": "uint256"
        },
        {
          "indexed": false,
          "internalType": "uint256",
          "name": "toTokenId",
          "type": "uint256"
        },
        {
          "indexed": true,
          "internalType": "address",
          "name": "from",
          "type": "address"
        },
        {
          "indexed": true,
          "internalType": "address",
          "name": "to",
          "type": "address"
        }
      ],
      "name": "ConsecutiveTransfer",
      "type": "event"
    },
    {
      "anonymous": false,
      "inputs": [
        {
          "indexed": false,
          "internalType": "address",
          "name": "to",
          "type": "address"
        },
        {
          "indexed": false,
          "internalType": "uint256",
          "name": "quantity",
          "type": "uint256"
        }
      ],
      "name": "MintLog",
      "type": "event"
    },
    {
      "anonymous": false,
      "inputs": [
        {
          "indexed": true,
          "internalType": "address",
          "name": "previousOwner",
          "type": "address"
        },
        {
          "indexed": true,
          "internalType": "address",
          "name": "newOwner",
          "type": "address"
        }
      ],
      "name": "OwnershipTransferred",
      "type": "event"
    },
    {
      "anonymous": false,
      "inputs": [
        {
          "indexed": false,
          "internalType": "address",
          "name": "from",
          "type": "address"
        },
        {
          "indexed": false,
          "internalType": "address",
          "name": "receiver",
          "type": "address"
        },
        {
          "indexed": false,
          "internalType": "uint256",
          "name": "amount",
          "type": "uint256"
        }
      ],
      "name": "TokenTransfer",
      "type": "event"
    },
    {
      "anonymous": false,
      "inputs": [
        {
          "indexed": true,
          "internalType": "address",
          "name": "from",
          "type": "address"
        },
        {
          "indexed": true,
          "internalType": "address",
          "name": "to",
          "type": "address"
        },
        {
          "indexed": true,
          "internalType": "uint256",
          "name": "tokenId",
          "type": "uint256"
        }
      ],
      "name": "Transfer",
      "type": "event"
    },
    {
      "anonymous": false,
      "inputs": [
        {
          "indexed": false,
          "internalType": "address",
          "name": "from",
          "type": "address"
        },
        {
          "indexed": false,
          "internalType": "address",
          "name": "to",
          "type": "address"
        },
        {
          "indexed": false,
          "internalType": "uint256",
          "name": "tokenId",
          "type": "uint256"
        }
      ],
      "name": "TransferLog",
      "type": "event"
    },
    {
      "inputs": [
        {
          "internalType": "address",
          "name": "from",
          "type": "address"
        },
        {
          "internalType": "uint256",
          "name": "stratId",
          "type": "uint256"
        },
        {
          "internalType": "uint256",
          "name": "quantity",
          "type": "uint256"
        }
      ],
      "name": "AfterTokenTransfers",
      "outputs": [],
      "stateMutability": "nonpayable",
      "type": "function"
    },
    {
      "inputs": [
        {
          "internalType": "address",
          "name": "from",
          "type": "address"
        },
        {
          "internalType": "uint256",
          "name": "stratId",
          "type": "uint256"
        },
        {
          "internalType": "uint256",
          "name": "quantity",
          "type": "uint256"
        }
      ],
      "name": "BeforeTokenTransfers",
      "outputs": [],
      "stateMutability": "nonpayable",
      "type": "function"
    },
    {
      "inputs": [
        {
          "internalType": "address",
          "name": "to",
          "type": "address"
        },
        {
          "internalType": "uint256",
          "name": "tokenId",
          "type": "uint256"
        }
      ],
      "name": "OwnerTransfer",
      "outputs": [],
      "stateMutability": "nonpayable",
      "type": "function"
    },
    {
      "inputs": [
        {
          "internalType": "bool",
          "name": "sale",
          "type": "bool"
        }
      ],
      "name": "PriceCange",
      "outputs": [],
      "stateMutability": "nonpayable",
      "type": "function"
    },
    {
      "inputs": [
        {
          "internalType": "uint256",
          "name": "quantity",
          "type": "uint256"
        }
      ],
      "name": "UserTransfer",
      "outputs": [],
      "stateMutability": "nonpayable",
      "type": "function"
    },
    {
      "inputs": [
        {
          "internalType": "address",
          "name": "",
          "type": "address"
        }
      ],
      "name": "WhitelistAddressMintedBalance",
      "outputs": [
        {
          "internalType": "uint256",
          "name": "",
          "type": "uint256"
        }
      ],
      "stateMutability": "view",
      "type": "function"
    },
    {
      "inputs": [
        {
          "internalType": "address",
          "name": "",
          "type": "address"
        }
      ],
      "name": "addressMintedBalance",
      "outputs": [
        {
          "internalType": "uint256",
          "name": "",
          "type": "uint256"
        }
      ],
      "stateMutability": "view",
      "type": "function"
    },
    {
      "inputs": [
        {
          "internalType": "address",
          "name": "to",
          "type": "address"
        },
        {
          "internalType": "uint256",
          "name": "tokenId",
          "type": "uint256"
        }
      ],
      "name": "approve",
      "outputs": [],
      "stateMutability": "payable",
      "type": "function"
    },
    {
      "inputs": [
        {
          "internalType": "address",
          "name": "owner",
          "type": "address"
        }
      ],
      "name": "balanceOf",
      "outputs": [
        {
          "internalType": "uint256",
          "name": "",
          "type": "uint256"
        }
      ],
      "stateMutability": "view",
      "type": "function"
    },
    {
      "inputs": [],
      "name": "baseURI",
      "outputs": [
        {
          "internalType": "string",
          "name": "",
          "type": "string"
        }
      ],
      "stateMutability": "view",
      "type": "function"
    },
    {
      "inputs": [
        {
          "internalType": "uint256",
          "name": "tokenId",
          "type": "uint256"
        }
      ],
      "name": "burn",
      "outputs": [],
      "stateMutability": "nonpayable",
      "type": "function"
    },
    {
      "inputs": [
        {
          "internalType": "uint256",
          "name": "tokenId",
          "type": "uint256"
        }
      ],
      "name": "explicitOwnershipOf",
      "outputs": [
        {
          "components": [
            {
              "internalType": "address",
              "name": "addr",
              "type": "address"
            },
            {
              "internalType": "uint64",
              "name": "startTimestamp",
              "type": "uint64"
            },
            {
              "internalType": "bool",
              "name": "burned",
              "type": "bool"
            },
            {
              "internalType": "uint24",
              "name": "extraData",
              "type": "uint24"
            }
          ],
          "internalType": "struct IERC721A.TokenOwnership",
          "name": "",
          "type": "tuple"
        }
      ],
      "stateMutability": "view",
      "type": "function"
    },
    {
      "inputs": [
        {
          "internalType": "uint256[]",
          "name": "tokenIds",
          "type": "uint256[]"
        }
      ],
      "name": "explicitOwnershipsOf",
      "outputs": [
        {
          "components": [
            {
              "internalType": "address",
              "name": "addr",
              "type": "address"
            },
            {
              "internalType": "uint64",
              "name": "startTimestamp",
              "type": "uint64"
            },
            {
              "internalType": "bool",
              "name": "burned",
              "type": "bool"
            },
            {
              "internalType": "uint24",
              "name": "extraData",
              "type": "uint24"
            }
          ],
          "internalType": "struct IERC721A.TokenOwnership[]",
          "name": "",
          "type": "tuple[]"
        }
      ],
      "stateMutability": "view",
      "type": "function"
    },
    {
      "inputs": [
        {
          "internalType": "uint256",
          "name": "quantity",
          "type": "uint256"
        }
      ],
      "name": "freemint",
      "outputs": [],
      "stateMutability": "nonpayable",
      "type": "function"
    },
    {
      "inputs": [
        {
          "internalType": "uint256",
          "name": "tokenId",
          "type": "uint256"
        }
      ],
      "name": "getApproved",
      "outputs": [
        {
          "internalType": "address",
          "name": "",
          "type": "address"
        }
      ],
      "stateMutability": "view",
      "type": "function"
    },
    {
      "inputs": [],
      "name": "getBalance",
      "outputs": [
        {
          "internalType": "uint256",
          "name": "",
          "type": "uint256"
        }
      ],
      "stateMutability": "view",
      "type": "function"
    },
    {
      "inputs": [
        {
          "internalType": "address",
          "name": "owner",
          "type": "address"
        },
        {
          "internalType": "address",
          "name": "operator",
          "type": "address"
        }
      ],
      "name": "isApprovedForAll",
      "outputs": [
        {
          "internalType": "bool",
          "name": "",
          "type": "bool"
        }
      ],
      "stateMutability": "view",
      "type": "function"
    },
    {
      "inputs": [
        {
          "internalType": "address",
          "name": "_user",
          "type": "address"
        }
      ],
      "name": "isWhitelisted",
      "outputs": [
        {
          "internalType": "bool",
          "name": "",
          "type": "bool"
        }
      ],
      "stateMutability": "view",
      "type": "function"
    },
    {
      "inputs": [
        {
          "internalType": "address",
          "name": "_to",
          "type": "address"
        },
        {
          "internalType": "uint256",
          "name": "quantity",
          "type": "uint256"
        }
      ],
      "name": "mintOwner",
      "outputs": [],
      "stateMutability": "nonpayable",
      "type": "function"
    },
    {
      "inputs": [
        {
          "internalType": "uint256",
          "name": "quantity",
          "type": "uint256"
        }
      ],
      "name": "mintUser",
      "outputs": [],
      "stateMutability": "payable",
      "type": "function"
    },
    {
      "inputs": [],
      "name": "name",
      "outputs": [
        {
          "internalType": "string",
          "name": "",
          "type": "string"
        }
      ],
      "stateMutability": "view",
      "type": "function"
    },
    {
      "inputs": [],
      "name": "onlyWhitelisted",
      "outputs": [
        {
          "internalType": "bool",
          "name": "",
          "type": "bool"
        }
      ],
      "stateMutability": "view",
      "type": "function"
    },
    {
      "inputs": [],
      "name": "owner",
      "outputs": [
        {
          "internalType": "address",
          "name": "",
          "type": "address"
        }
      ],
      "stateMutability": "view",
      "type": "function"
    },
    {
      "inputs": [
        {
          "internalType": "uint256",
          "name": "tokenId",
          "type": "uint256"
        }
      ],
      "name": "ownerOf",
      "outputs": [
        {
          "internalType": "address",
          "name": "",
          "type": "address"
        }
      ],
      "stateMutability": "view",
      "type": "function"
    },
    {
      "inputs": [],
      "name": "renounceOwnership",
      "outputs": [],
      "stateMutability": "nonpayable",
      "type": "function"
    },
    {
      "inputs": [
        {
          "internalType": "address",
          "name": "from",
          "type": "address"
        },
        {
          "internalType": "address",
          "name": "to",
          "type": "address"
        },
        {
          "internalType": "uint256",
          "name": "tokenId",
          "type": "uint256"
        }
      ],
      "name": "safeTransferFrom",
      "outputs": [],
      "stateMutability": "payable",
      "type": "function"
    },
    {
      "inputs": [
        {
          "internalType": "address",
          "name": "from",
          "type": "address"
        },
        {
          "internalType": "address",
          "name": "to",
          "type": "address"
        },
        {
          "internalType": "uint256",
          "name": "tokenId",
          "type": "uint256"
        },
        {
          "internalType": "bytes",
          "name": "_data",
          "type": "bytes"
        }
      ],
      "name": "safeTransferFrom",
      "outputs": [],
      "stateMutability": "payable",
      "type": "function"
    },
    {
      "inputs": [
        {
          "internalType": "address",
          "name": "operator",
          "type": "address"
        },
        {
          "internalType": "bool",
          "name": "approved",
          "type": "bool"
        }
      ],
      "name": "setApprovalForAll",
      "outputs": [],
      "stateMutability": "nonpayable",
      "type": "function"
    },
    {
      "inputs": [
        {
          "internalType": "bytes4",
          "name": "interfaceId",
          "type": "bytes4"
        }
      ],
      "name": "supportsInterface",
      "outputs": [
        {
          "internalType": "bool",
          "name": "",
          "type": "bool"
        }
      ],
      "stateMutability": "view",
      "type": "function"
    },
    {
      "inputs": [],
      "name": "symbol",
      "outputs": [
        {
          "internalType": "string",
          "name": "",
          "type": "string"
        }
      ],
      "stateMutability": "view",
      "type": "function"
    },
    {
      "inputs": [
        {
          "internalType": "uint256",
          "name": "tokenId",
          "type": "uint256"
        }
      ],
      "name": "tokenURI",
      "outputs": [
        {
          "internalType": "string",
          "name": "",
          "type": "string"
        }
      ],
      "stateMutability": "view",
      "type": "function"
    },
    {
      "inputs": [
        {
          "internalType": "address",
          "name": "owner",
          "type": "address"
        }
      ],
      "name": "tokensOfOwner",
      "outputs": [
        {
          "internalType": "uint256[]",
          "name": "",
          "type": "uint256[]"
        }
      ],
      "stateMutability": "view",
      "type": "function"
    },
    {
      "inputs": [
        {
          "internalType": "address",
          "name": "owner",
          "type": "address"
        },
        {
          "internalType": "uint256",
          "name": "start",
          "type": "uint256"
        },
        {
          "internalType": "uint256",
          "name": "stop",
          "type": "uint256"
        }
      ],
      "name": "tokensOfOwnerIn",
      "outputs": [
        {
          "internalType": "uint256[]",
          "name": "",
          "type": "uint256[]"
        }
      ],
      "stateMutability": "view",
      "type": "function"
    },
    {
      "inputs": [],
      "name": "totalSupply",
      "outputs": [
        {
          "internalType": "uint256",
          "name": "",
          "type": "uint256"
        }
      ],
      "stateMutability": "view",
      "type": "function"
    },
    {
      "inputs": [
        {
          "internalType": "address",
          "name": "from",
          "type": "address"
        },
        {
          "internalType": "address",
          "name": "to",
          "type": "address"
        },
        {
          "internalType": "uint256",
          "name": "tokenId",
          "type": "uint256"
        }
      ],
      "name": "transferFrom",
      "outputs": [],
      "stateMutability": "payable",
      "type": "function"
    },
    {
      "inputs": [
        {
          "internalType": "address",
          "name": "newOwner",
          "type": "address"
        }
      ],
      "name": "transferOwnership",
      "outputs": [],
      "stateMutability": "nonpayable",
      "type": "function"
    },
    {
      "inputs": [
        {
          "internalType": "address[]",
          "name": "_users",
          "type": "address[]"
        }
      ],
      "name": "whitelistUsers",
      "outputs": [],
      "stateMutability": "nonpayable",
      "type": "function"
    },
    {
      "inputs": [
        {
          "internalType": "uint256",
          "name": "",
          "type": "uint256"
        }
      ],
      "name": "whitelistedAddresses",
      "outputs": [
        {
          "internalType": "address",
          "name": "",
          "type": "address"
        }
      ],
      "stateMutability": "view",
      "type": "function"
    },
    {
      "inputs": [],
      "name": "withdraw",
      "outputs": [],
      "stateMutability": "payable",
      "type": "function"
    }
  ],
  "bytecode": "0x60806040526040518060800160405280604b815260200162004869604b91396009908051906020019062000035929190620002d1565b5066b1a2bc2ec50000600a556000600b556000600c5573ebd831aa0343789150cdffce067479bb848c5ac8600d60006101000a81548173ffffffffffffffffffffffffffffffffffffffff021916908373ffffffffffffffffffffffffffffffffffffffff160217905550734cfafbce67942e79edb1dd67eccc271a536d202d600e60006101000a81548173ffffffffffffffffffffffffffffffffffffffff021916908373ffffffffffffffffffffffffffffffffffffffff1602179055506000601260006101000a81548160ff0219169083151502179055503480156200011d57600080fd5b506040518060400160405280600a81526020017f546162656e6f6d696373000000000000000000000000000000000000000000008152506040518060400160405280600381526020017f54424d00000000000000000000000000000000000000000000000000000000008152508160029080519060200190620001a2929190620002d1565b508060039080519060200190620001bb929190620002d1565b50620001cc620001fa60201b60201c565b6000819055505050620001f4620001e86200020360201b60201c565b6200020b60201b60201c565b620003e6565b60006001905090565b600033905090565b6000600860009054906101000a900473ffffffffffffffffffffffffffffffffffffffff16905081600860006101000a81548173ffffffffffffffffffffffffffffffffffffffff021916908373ffffffffffffffffffffffffffffffffffffffff1602179055508173ffffffffffffffffffffffffffffffffffffffff168173ffffffffffffffffffffffffffffffffffffffff167f8be0079c531659141344cd1fd0a4f28419497f9722a3daafe3b4186f6b6457e060405160405180910390a35050565b828054620002df9062000381565b90600052602060002090601f0160209004810192826200030357600085556200034f565b82601f106200031e57805160ff19168380011785556200034f565b828001600101855582156200034f579182015b828111156200034e57825182559160200191906001019062000331565b5b5090506200035e919062000362565b5090565b5b808211156200037d57600081600090555060010162000363565b5090565b600060028204905060018216806200039a57607f821691505b60208210811415620003b157620003b0620003b7565b5b50919050565b7f4e487b7100000000000000000000000000000000000000000000000000000000600052602260045260246000fd5b61447380620003f66000396000f3fe6080604052600436106102305760003560e01c8063602fb1291161012e57806399a2557a116100ab578063c23dc68f1161006f578063c23dc68f1461081f578063c87b56dd1461085c578063e985e9c514610899578063edec5f27146108d6578063f2fde38b146108ff57610230565b806399a2557a146107355780639c70b51214610772578063a22cb4651461079d578063b88d4fde146107c6578063ba4e5c49146107e257610230565b8063715018a6116100f2578063715018a6146106625780638462151c146106795780638a653939146106b65780638da5cb5b146106df57806395d89b411461070a57610230565b8063602fb1291461057857806362963ca9146105a15780636352211e146105bd5780636c0360eb146105fa57806370a082311461062557610230565b806318cae269116101bc5780633ccfd60b116101805780633ccfd60b146104c3578063408cbf94146104cd57806342842e0e146104f657806342966c68146105125780635bbb21771461053b57610230565b806318cae269146103db57806323b872dd14610418578063311ab6081461043457806332fceb831461045d5780633af32abf1461048657610230565b8063095ea7b311610203578063095ea7b3146103175780630fbe4fe21461033357806312065fe01461035c578063145987961461038757806318160ddd146103b057610230565b806301ffc9a71461023557806306fdde0314610272578063081812fc1461029d57806308b28fa3146102da575b600080fd5b34801561024157600080fd5b5061025c600480360381019061025791906136c9565b610928565b6040516102699190613c97565b60405180910390f35b34801561027e57600080fd5b506102876109ba565b6040516102949190613cb2565b60405180910390f35b3480156102a957600080fd5b506102c460048036038101906102bf919061371b565b610a4c565b6040516102d19190613b8c565b60405180910390f35b3480156102e657600080fd5b5061030160048036038101906102fc9190613420565b610acb565b60405161030e9190613e0f565b60405180910390f35b610331600480360381019061032c919061358b565b610ae3565b005b34801561033f57600080fd5b5061035a6004803603810190610355919061371b565b610c27565b005b34801561036857600080fd5b50610371610e05565b60405161037e9190613e0f565b60405180910390f35b34801561039357600080fd5b506103ae60048036038101906103a991906135c7565b610e24565b005b3480156103bc57600080fd5b506103c5610e35565b6040516103d29190613e0f565b60405180910390f35b3480156103e757600080fd5b5061040260048036038101906103fd9190613420565b610e4c565b60405161040f9190613e0f565b60405180910390f35b610432600480360381019061042d9190613485565b610e64565b005b34801561044057600080fd5b5061045b600480360381019061045691906136a0565b611189565b005b34801561046957600080fd5b50610484600480360381019061047f919061371b565b6111f7565b005b34801561049257600080fd5b506104ad60048036038101906104a89190613420565b611345565b6040516104ba9190613c97565b60405180910390f35b6104cb61141a565b005b3480156104d957600080fd5b506104f460048036038101906104ef919061358b565b61149a565b005b610510600480360381019061050b9190613485565b611597565b005b34801561051e57600080fd5b506105396004803603810190610534919061371b565b6115b7565b005b34801561054757600080fd5b50610562600480360381019061055d919061365b565b6115c5565b60405161056f9190613c53565b60405180910390f35b34801561058457600080fd5b5061059f600480360381019061059a919061358b565b6116fa565b005b6105bb60048036038101906105b6919061371b565b61175a565b005b3480156105c957600080fd5b506105e460048036038101906105df919061371b565b611afb565b6040516105f19190613b8c565b60405180910390f35b34801561060657600080fd5b5061060f611b0d565b60405161061c9190613cb2565b60405180910390f35b34801561063157600080fd5b5061064c60048036038101906106479190613420565b611b9b565b6040516106599190613e0f565b60405180910390f35b34801561066e57600080fd5b50610677611c54565b005b34801561068557600080fd5b506106a0600480360381019061069b9190613420565b611c68565b6040516106ad9190613c75565b60405180910390f35b3480156106c257600080fd5b506106dd60048036038101906106d891906135c7565b611dfe565b005b3480156106eb57600080fd5b506106f4611e0f565b6040516107019190613b8c565b60405180910390f35b34801561071657600080fd5b5061071f611e39565b60405161072c9190613cb2565b60405180910390f35b34801561074157600080fd5b5061075c600480360381019061075791906135c7565b611ecb565b6040516107699190613c75565b60405180910390f35b34801561077e57600080fd5b5061078761212b565b6040516107949190613c97565b60405180910390f35b3480156107a957600080fd5b506107c460048036038101906107bf919061354f565b61213e565b005b6107e060048036038101906107db91906134d4565b612249565b005b3480156107ee57600080fd5b506108096004803603810190610804919061371b565b6122bc565b6040516108169190613b8c565b60405180910390f35b34801561082b57600080fd5b506108466004803603810190610841919061371b565b6122fb565b6040516108539190613df4565b60405180910390f35b34801561086857600080fd5b50610883600480360381019061087e919061371b565b612365565b6040516108909190613cb2565b60405180910390f35b3480156108a557600080fd5b506108c060048036038101906108bb9190613449565b612404565b6040516108cd9190613c97565b60405180910390f35b3480156108e257600080fd5b506108fd60048036038101906108f89190613616565b612498565b005b34801561090b57600080fd5b5061092660048036038101906109219190613420565b6124c4565b005b60006301ffc9a760e01b827bffffffffffffffffffffffffffffffffffffffffffffffffffffffff1916148061098357506380ac58cd60e01b827bffffffffffffffffffffffffffffffffffffffffffffffffffffffff1916145b806109b35750635b5e139f60e01b827bffffffffffffffffffffffffffffffffffffffffffffffffffffffff1916145b9050919050565b6060600280546109c9906140fd565b80601f01602080910402602001604051908101604052809291908181526020018280546109f5906140fd565b8015610a425780601f10610a1757610100808354040283529160200191610a42565b820191906000526020600020905b815481529060010190602001808311610a2557829003601f168201915b5050505050905090565b6000610a5782612548565b610a8d576040517fcf4700e400000000000000000000000000000000000000000000000000000000815260040160405180910390fd5b6006600083815260200190815260200160002060000160009054906101000a900473ffffffffffffffffffffffffffffffffffffffff169050919050565b60136020528060005260406000206000915090505481565b6000610aee82611afb565b90508073ffffffffffffffffffffffffffffffffffffffff16610b0f6125a7565b73ffffffffffffffffffffffffffffffffffffffff1614610b7257610b3b81610b366125a7565b612404565b610b71576040517fcfb3b94200000000000000000000000000000000000000000000000000000000815260040160405180910390fd5b5b826006600084815260200190815260200160002060000160006101000a81548173ffffffffffffffffffffffffffffffffffffffff021916908373ffffffffffffffffffffffffffffffffffffffff160217905550818373ffffffffffffffffffffffffffffffffffffffff168273ffffffffffffffffffffffffffffffffffffffff167f8c5be1e5ebec7d5bd14f71427d1e84f3dd0314c0f7b2291e5b200ac8c7c3b92560405160405180910390a4505050565b610c2f610e35565b610bb81015610c73576040517f08c379a0000000000000000000000000000000000000000000000000000000008152600401610c6a90613d54565b60405180910390fd5b80610c7c610e35565b610bb8610c899190613ff0565b811115610ccb576040517f08c379a0000000000000000000000000000000000000000000000000000000008152600401610cc290613cd4565b60405180910390fd5b338073ffffffffffffffffffffffffffffffffffffffff16600d60009054906101000a900473ffffffffffffffffffffffffffffffffffffffff1673ffffffffffffffffffffffffffffffffffffffff161480610d7557508073ffffffffffffffffffffffffffffffffffffffff16600e60009054906101000a900473ffffffffffffffffffffffffffffffffffffffff1673ffffffffffffffffffffffffffffffffffffffff16145b610db4576040517f08c379a0000000000000000000000000000000000000000000000000000000008152600401610dab90613dd4565b60405180910390fd5b610dbc6125af565b50610dc733846125b9565b7fd1d3d8a67ea3222e190a25cd89ce4613287a3f3d1272268cfd5639d6bad416b33384604051610df8929190613c2a565b60405180910390a1505050565b60003373ffffffffffffffffffffffffffffffffffffffff1631905090565b610e3033848484612776565b505050565b6000610e3f61277c565b6001546000540303905090565b60146020528060005260406000206000915090505481565b6000610e6f82612785565b90508373ffffffffffffffffffffffffffffffffffffffff168173ffffffffffffffffffffffffffffffffffffffff1614610ed6576040517fa114810000000000000000000000000000000000000000000000000000000000815260040160405180910390fd5b600080610ee284612853565b91509150610ef88187610ef36125a7565b61287a565b610f4457610f0d86610f086125a7565b612404565b610f43576040517f59c896be00000000000000000000000000000000000000000000000000000000815260040160405180910390fd5b5b600073ffffffffffffffffffffffffffffffffffffffff168573ffffffffffffffffffffffffffffffffffffffff161415610fab576040517fea553b3400000000000000000000000000000000000000000000000000000000815260040160405180910390fd5b610fb88686866001612776565b8015610fc357600082555b600560008773ffffffffffffffffffffffffffffffffffffffff1673ffffffffffffffffffffffffffffffffffffffff168152602001908152602001600020600081546001900391905081905550600560008673ffffffffffffffffffffffffffffffffffffffff1673ffffffffffffffffffffffffffffffffffffffff16815260200190815260200160002060008154600101919050819055506110918561106d8888876128be565b7c0200000000000000000000000000000000000000000000000000000000176128e6565b600460008681526020019081526020016000208190555060007c020000000000000000000000000000000000000000000000000000000084161415611119576000600185019050600060046000838152602001908152602001600020541415611117576000548114611116578360046000838152602001908152602001600020819055505b5b505b838573ffffffffffffffffffffffffffffffffffffffff168773ffffffffffffffffffffffffffffffffffffffff167fddf252ad1be2c89b69c2b068fc378daa952ba7f163c4a11628f55a4df523b3ef60405160405180910390a46111818686866001612911565b505050505050565b611191612917565b6001151581151514156111cb57666a94d74f430000600a8190555080601260006101000a81548160ff0219169083151502179055506111f4565b66b1a2bc2ec50000600a8190555080601260006101000a81548160ff0219169083151502179055505b50565b6000611201612995565b905060008151905060008382101561124e576040517f08c379a000000000000000000000000000000000000000000000000000000000815260040161124590613d34565b60405180910390fd5b5b8084111561133f576112a933611263611e0f565b85848151811061129c577f4e487b7100000000000000000000000000000000000000000000000000000000600052603260045260246000fd5b6020026020010151610e64565b7f21425341546d2023146851fb583db9b7c6be5fed0d287293c85a8ede5193c6ea336112d3611e0f565b85848151811061130c577f4e487b7100000000000000000000000000000000000000000000000000000000600052603260045260246000fd5b602002602001015160405161132393929190613ba7565b60405180910390a16001816113389190613f40565b905061124f565b50505050565b600080600090505b60118054905081101561140f578273ffffffffffffffffffffffffffffffffffffffff16601182815481106113ab577f4e487b7100000000000000000000000000000000000000000000000000000000600052603260045260246000fd5b9060005260206000200160009054906101000a900473ffffffffffffffffffffffffffffffffffffffff1673ffffffffffffffffffffffffffffffffffffffff1614156113fc576001915050611415565b808061140790614160565b91505061134d565b50600090505b919050565b6000611424611e0f565b73ffffffffffffffffffffffffffffffffffffffff164760405161144790613b77565b60006040518083038185875af1925050503d8060008114611484576040519150601f19603f3d011682016040523d82523d6000602084013e611489565b606091505b505090508061149757600080fd5b50565b6114a2612917565b6114aa610e35565b610bb810156114ee576040517f08c379a00000000000000000000000000000000000000000000000000000000081526004016114e590613d54565b60405180910390fd5b806114f7610e35565b610bb86115049190613ff0565b811115611546576040517f08c379a000000000000000000000000000000000000000000000000000000000815260040161153d90613cd4565b60405180910390fd5b61154e6125af565b5061155983836125b9565b7fd1d3d8a67ea3222e190a25cd89ce4613287a3f3d1272268cfd5639d6bad416b3838360405161158a929190613c2a565b60405180910390a1505050565b6115b283838360405180602001604052806000815250612249565b505050565b6115c2816001612b07565b50565b6060600083839050905060008167ffffffffffffffff811115611611577f4e487b7100000000000000000000000000000000000000000000000000000000600052604160045260246000fd5b60405190808252806020026020018201604052801561164a57816020015b61163761318e565b81526020019060019003908161162f5790505b50905060005b8281146116ee5761169f868683818110611693577f4e487b7100000000000000000000000000000000000000000000000000000000600052603260045260246000fd5b905060200201356122fb565b8282815181106116d8577f4e487b7100000000000000000000000000000000000000000000000000000000600052603260045260246000fd5b6020026020010181905250806001019050611650565b50809250505092915050565b611702612917565b61171461170d611e0f565b8383610e64565b7f21425341546d2023146851fb583db9b7c6be5fed0d287293c85a8ede5193c6ea61173d611e0f565b838360405161174e93929190613ba7565b60405180910390a15050565b611762610e35565b610bb810156117a6576040517f08c379a000000000000000000000000000000000000000000000000000000000815260040161179d90613d54565b60405180910390fd5b806117af610e35565b610bb86117bc9190613ff0565b8111156117fe576040517f08c379a00000000000000000000000000000000000000000000000000000000081526004016117f590613cd4565b60405180910390fd5b6000601460003373ffffffffffffffffffffffffffffffffffffffff1673ffffffffffffffffffffffffffffffffffffffff168152602001908152602001600020549050600383826118509190613f40565b1115611891576040517f08c379a000000000000000000000000000000000000000000000000000000000815260040161188890613d74565b60405180910390fd5b600a548361189f9190613f96565b3410156118e1576040517f08c379a00000000000000000000000000000000000000000000000000000000081526004016118d890613cf4565b60405180910390fd5b60011515601260009054906101000a900460ff16151514156119da5761190633611345565b611945576040517f08c379a000000000000000000000000000000000000000000000000000000000815260040161193c90613db4565b60405180910390fd5b6000601360003373ffffffffffffffffffffffffffffffffffffffff1673ffffffffffffffffffffffffffffffffffffffff168152602001908152602001600020549050600384826119979190613f40565b11156119d8576040517f08c379a00000000000000000000000000000000000000000000000000000000081526004016119cf90613d74565b60405180910390fd5b505b6119e26125af565b506119ed33846125b9565b6119f561141a565b60011515601260009054906101000a900460ff16151514611a675782601460003373ffffffffffffffffffffffffffffffffffffffff1673ffffffffffffffffffffffffffffffffffffffff1681526020019081526020016000206000828254611a5f9190613f40565b925050819055505b82601360003373ffffffffffffffffffffffffffffffffffffffff1673ffffffffffffffffffffffffffffffffffffffff1681526020019081526020016000206000828254611ab69190613f40565b925050819055507fd1d3d8a67ea3222e190a25cd89ce4613287a3f3d1272268cfd5639d6bad416b33384604051611aee929190613c2a565b60405180910390a1505050565b6000611b0682612785565b9050919050565b60098054611b1a906140fd565b80601f0160208091040260200160405190810160405280929190818152602001828054611b46906140fd565b8015611b935780601f10611b6857610100808354040283529160200191611b93565b820191906000526020600020905b815481529060010190602001808311611b7657829003601f168201915b505050505081565b60008073ffffffffffffffffffffffffffffffffffffffff168273ffffffffffffffffffffffffffffffffffffffff161415611c03576040517f8f4eb60400000000000000000000000000000000000000000000000000000000815260040160405180910390fd5b67ffffffffffffffff600560008473ffffffffffffffffffffffffffffffffffffffff1673ffffffffffffffffffffffffffffffffffffffff16815260200190815260200160002054169050919050565b611c5c612917565b611c666000612d5b565b565b60606000806000611c7885611b9b565b905060008167ffffffffffffffff811115611cbc577f4e487b7100000000000000000000000000000000000000000000000000000000600052604160045260246000fd5b604051908082528060200260200182016040528015611cea5781602001602082028036833780820191505090505b509050611cf561318e565b6000611cff61277c565b90505b838614611df057611d1281612e21565b9150816040015115611d2357611de5565b600073ffffffffffffffffffffffffffffffffffffffff16826000015173ffffffffffffffffffffffffffffffffffffffff1614611d6357816000015194505b8773ffffffffffffffffffffffffffffffffffffffff168573ffffffffffffffffffffffffffffffffffffffff161415611de45780838780600101985081518110611dd7577f4e487b7100000000000000000000000000000000000000000000000000000000600052603260045260246000fd5b6020026020010181815250505b5b806001019050611d02565b508195505050505050919050565b611e0a33848484612911565b505050565b6000600860009054906101000a900473ffffffffffffffffffffffffffffffffffffffff16905090565b606060038054611e48906140fd565b80601f0160208091040260200160405190810160405280929190818152602001828054611e74906140fd565b8015611ec15780601f10611e9657610100808354040283529160200191611ec1565b820191906000526020600020905b815481529060010190602001808311611ea457829003601f168201915b5050505050905090565b6060818310611f06576040517f32c1995a00000000000000000000000000000000000000000000000000000000815260040160405180910390fd5b600080611f116125af565b9050611f1b61277c565b851015611f2d57611f2a61277c565b94505b80841115611f39578093505b6000611f4487611b9b565b905084861015611f67576000868603905081811015611f61578091505b50611f6c565b600090505b60008167ffffffffffffffff811115611fae577f4e487b7100000000000000000000000000000000000000000000000000000000600052604160045260246000fd5b604051908082528060200260200182016040528015611fdc5781602001602082028036833780820191505090505b5090506000821415611ff45780945050505050612124565b6000611fff886122fb565b90506000816040015161201457816000015190505b60008990505b88811415801561202a5750848714155b156121165761203881612e21565b92508260400151156120495761210b565b600073ffffffffffffffffffffffffffffffffffffffff16836000015173ffffffffffffffffffffffffffffffffffffffff161461208957826000015191505b8a73ffffffffffffffffffffffffffffffffffffffff168273ffffffffffffffffffffffffffffffffffffffff16141561210a57808488806001019950815181106120fd577f4e487b7100000000000000000000000000000000000000000000000000000000600052603260045260246000fd5b6020026020010181815250505b5b80600101905061201a565b508583528296505050505050505b9392505050565b601260009054906101000a900460ff1681565b806007600061214b6125a7565b73ffffffffffffffffffffffffffffffffffffffff1673ffffffffffffffffffffffffffffffffffffffff16815260200190815260200160002060008473ffffffffffffffffffffffffffffffffffffffff1673ffffffffffffffffffffffffffffffffffffffff16815260200190815260200160002060006101000a81548160ff0219169083151502179055508173ffffffffffffffffffffffffffffffffffffffff166121f86125a7565b73ffffffffffffffffffffffffffffffffffffffff167f17307eab39ab6107e8899845ad3d59bd9653f200f220920489ca2b5937696c318360405161223d9190613c97565b60405180910390a35050565b612254848484610e64565b60008373ffffffffffffffffffffffffffffffffffffffff163b146122b65761227f84848484612e4c565b6122b5576040517fd1a57ed600000000000000000000000000000000000000000000000000000000815260040160405180910390fd5b5b50505050565b601181815481106122cc57600080fd5b906000526020600020016000915054906101000a900473ffffffffffffffffffffffffffffffffffffffff1681565b61230361318e565b61230b61318e565b61231361277c565b83108061232757506123236125af565b8310155b156123355780915050612360565b61233e83612e21565b90508060400151156123535780915050612360565b61235c83612fac565b9150505b919050565b606061237082612548565b6123a6576040517fa14c4b5000000000000000000000000000000000000000000000000000000000815260040160405180910390fd5b60006123b0612fcc565b90506000815114156123d157604051806020016040528060008152506123fc565b806123db8461305e565b6040516020016123ec929190613b53565b6040516020818303038152906040525b915050919050565b6000600760008473ffffffffffffffffffffffffffffffffffffffff1673ffffffffffffffffffffffffffffffffffffffff16815260200190815260200160002060008373ffffffffffffffffffffffffffffffffffffffff1673ffffffffffffffffffffffffffffffffffffffff16815260200190815260200160002060009054906101000a900460ff16905092915050565b6124a0612917565b601160006124ae91906131dd565b8181601191906124bf9291906131fe565b505050565b6124cc612917565b600073ffffffffffffffffffffffffffffffffffffffff168173ffffffffffffffffffffffffffffffffffffffff16141561253c576040517f08c379a000000000000000000000000000000000000000000000000000000000815260040161253390613d14565b60405180910390fd5b61254581612d5b565b50565b60008161255361277c565b11158015612562575060005482105b80156125a0575060007c0100000000000000000000000000000000000000000000000000000000600460008581526020019081526020016000205416145b9050919050565b600033905090565b6000600b54905090565b60008054905060008214156125fa576040517fb562e8dd00000000000000000000000000000000000000000000000000000000815260040160405180910390fd5b6126076000848385612776565b600160406001901b178202600560008573ffffffffffffffffffffffffffffffffffffffff1673ffffffffffffffffffffffffffffffffffffffff1681526020019081526020016000206000828254019250508190555061267e8361266f60008660006128be565b612678856130b7565b176128e6565b6004600083815260200190815260200160002081905550600080838301905073ffffffffffffffffffffffffffffffffffffffff85169150828260007fddf252ad1be2c89b69c2b068fc378daa952ba7f163c4a11628f55a4df523b3ef600080a4600183015b81811461271f57808360007fddf252ad1be2c89b69c2b068fc378daa952ba7f163c4a11628f55a4df523b3ef600080a46001810190506126e4565b50600082141561275b576040517f2e07630000000000000000000000000000000000000000000000000000000000815260040160405180910390fd5b8060008190555050506127716000848385612911565b505050565b50505050565b60006001905090565b6000808290508061279461277c565b1161281c5760005481101561281b5760006004600083815260200190815260200160002054905060007c010000000000000000000000000000000000000000000000000000000082161415612819575b600081141561280f5760046000836001900393508381526020019081526020016000205490506127e4565b809250505061284e565b505b5b6040517fdf2d9b4200000000000000000000000000000000000000000000000000000000815260040160405180910390fd5b919050565b60008060006006600085815260200190815260200160002090508092508254915050915091565b600073ffffffffffffffffffffffffffffffffffffffff8316925073ffffffffffffffffffffffffffffffffffffffff821691508382148383141790509392505050565b60008060e883901c905060e86128d58686846130c7565b62ffffff16901b9150509392505050565b600073ffffffffffffffffffffffffffffffffffffffff83169250814260a01b178317905092915050565b50505050565b61291f6130d0565b73ffffffffffffffffffffffffffffffffffffffff1661293d611e0f565b73ffffffffffffffffffffffffffffffffffffffff1614612993576040517f08c379a000000000000000000000000000000000000000000000000000000000815260040161298a90613d94565b60405180910390fd5b565b606060006001905060008080600090506129ad610e35565b600f8190555060108054905090505b80831015612a265760108054806129fc577f4e487b7100000000000000000000000000000000000000000000000000000000600052603160045260246000fd5b60019003818190600052602060002001600090559055600183612a1f9190613f40565b92506129bc565b5b600f548411612aad57612a3984611afb565b91503373ffffffffffffffffffffffffffffffffffffffff168273ffffffffffffffffffffffffffffffffffffffff161415612a995760108490806001815401808255809150506001900390600052602060002001600090919091909150555b600184612aa69190613f40565b9350612a27565b6010805480602002602001604051908101604052809291908181526020018280548015612af957602002820191906000526020600020905b815481526020019060010190808311612ae5575b505050505094505050505090565b6000612b1283612785565b90506000819050600080612b2586612853565b915091508415612b8e57612b418184612b3c6125a7565b61287a565b612b8d57612b5683612b516125a7565b612404565b612b8c576040517f59c896be00000000000000000000000000000000000000000000000000000000815260040160405180910390fd5b5b5b612b9c836000886001612776565b8015612ba757600082555b600160806001901b03600560008573ffffffffffffffffffffffffffffffffffffffff1673ffffffffffffffffffffffffffffffffffffffff16815260200190815260200160002060008282540192505081905550612c4f83612c0c856000886128be565b7c02000000000000000000000000000000000000000000000000000000007c010000000000000000000000000000000000000000000000000000000017176128e6565b600460008881526020019081526020016000208190555060007c020000000000000000000000000000000000000000000000000000000085161415612cd7576000600187019050600060046000838152602001908152602001600020541415612cd5576000548114612cd4578460046000838152602001908152602001600020819055505b5b505b85600073ffffffffffffffffffffffffffffffffffffffff168473ffffffffffffffffffffffffffffffffffffffff167fddf252ad1be2c89b69c2b068fc378daa952ba7f163c4a11628f55a4df523b3ef60405160405180910390a4612d41836000886001612911565b600160008154809291906001019190505550505050505050565b6000600860009054906101000a900473ffffffffffffffffffffffffffffffffffffffff16905081600860006101000a81548173ffffffffffffffffffffffffffffffffffffffff021916908373ffffffffffffffffffffffffffffffffffffffff1602179055508173ffffffffffffffffffffffffffffffffffffffff168173ffffffffffffffffffffffffffffffffffffffff167f8be0079c531659141344cd1fd0a4f28419497f9722a3daafe3b4186f6b6457e060405160405180910390a35050565b612e2961318e565b612e4560046000848152602001908152602001600020546130d8565b9050919050565b60008373ffffffffffffffffffffffffffffffffffffffff1663150b7a02612e726125a7565b8786866040518563ffffffff1660e01b8152600401612e949493929190613bde565b602060405180830381600087803b158015612eae57600080fd5b505af1925050508015612edf57506040513d601f19601f82011682018060405250810190612edc91906136f2565b60015b612f59573d8060008114612f0f576040519150601f19603f3d011682016040523d82523d6000602084013e612f14565b606091505b50600081511415612f51576040517fd1a57ed600000000000000000000000000000000000000000000000000000000815260040160405180910390fd5b805181602001fd5b63150b7a0260e01b7bffffffffffffffffffffffffffffffffffffffffffffffffffffffff1916817bffffffffffffffffffffffffffffffffffffffffffffffffffffffff191614915050949350505050565b612fb461318e565b612fc5612fc083612785565b6130d8565b9050919050565b606060098054612fdb906140fd565b80601f0160208091040260200160405190810160405280929190818152602001828054613007906140fd565b80156130545780601f1061302957610100808354040283529160200191613054565b820191906000526020600020905b81548152906001019060200180831161303757829003601f168201915b5050505050905090565b606060a060405101806040526020810391506000825281835b6001156130a257600184039350600a81066030018453600a810490508061309d576130a2565b613077565b50828103602084039350808452505050919050565b60006001821460e11b9050919050565b60009392505050565b600033905090565b6130e061318e565b81816000019073ffffffffffffffffffffffffffffffffffffffff16908173ffffffffffffffffffffffffffffffffffffffff168152505060a082901c816020019067ffffffffffffffff16908167ffffffffffffffff168152505060007c01000000000000000000000000000000000000000000000000000000008316141581604001901515908115158152505060e882901c816060019062ffffff16908162ffffff1681525050919050565b6040518060800160405280600073ffffffffffffffffffffffffffffffffffffffff168152602001600067ffffffffffffffff168152602001600015158152602001600062ffffff1681525090565b50805460008255906000526020600020908101906131fb919061329e565b50565b82805482825590600052602060002090810192821561328d579160200282015b8281111561328c57823573ffffffffffffffffffffffffffffffffffffffff168260006101000a81548173ffffffffffffffffffffffffffffffffffffffff021916908373ffffffffffffffffffffffffffffffffffffffff1602179055509160200191906001019061321e565b5b50905061329a919061329e565b5090565b5b808211156132b757600081600090555060010161329f565b5090565b60006132ce6132c984613e4f565b613e2a565b9050828152602081018484840111156132e657600080fd5b6132f18482856140bb565b509392505050565b600081359050613308816143e1565b92915050565b60008083601f84011261332057600080fd5b8235905067ffffffffffffffff81111561333957600080fd5b60208301915083602082028301111561335157600080fd5b9250929050565b60008083601f84011261336a57600080fd5b8235905067ffffffffffffffff81111561338357600080fd5b60208301915083602082028301111561339b57600080fd5b9250929050565b6000813590506133b1816143f8565b92915050565b6000813590506133c68161440f565b92915050565b6000815190506133db8161440f565b92915050565b600082601f8301126133f257600080fd5b81356134028482602086016132bb565b91505092915050565b60008135905061341a81614426565b92915050565b60006020828403121561343257600080fd5b6000613440848285016132f9565b91505092915050565b6000806040838503121561345c57600080fd5b600061346a858286016132f9565b925050602061347b858286016132f9565b9150509250929050565b60008060006060848603121561349a57600080fd5b60006134a8868287016132f9565b93505060206134b9868287016132f9565b92505060406134ca8682870161340b565b9150509250925092565b600080600080608085870312156134ea57600080fd5b60006134f8878288016132f9565b9450506020613509878288016132f9565b935050604061351a8782880161340b565b925050606085013567ffffffffffffffff81111561353757600080fd5b613543878288016133e1565b91505092959194509250565b6000806040838503121561356257600080fd5b6000613570858286016132f9565b9250506020613581858286016133a2565b9150509250929050565b6000806040838503121561359e57600080fd5b60006135ac858286016132f9565b92505060206135bd8582860161340b565b9150509250929050565b6000806000606084860312156135dc57600080fd5b60006135ea868287016132f9565b93505060206135fb8682870161340b565b925050604061360c8682870161340b565b9150509250925092565b6000806020838503121561362957600080fd5b600083013567ffffffffffffffff81111561364357600080fd5b61364f8582860161330e565b92509250509250929050565b6000806020838503121561366e57600080fd5b600083013567ffffffffffffffff81111561368857600080fd5b61369485828601613358565b92509250509250929050565b6000602082840312156136b257600080fd5b60006136c0848285016133a2565b91505092915050565b6000602082840312156136db57600080fd5b60006136e9848285016133b7565b91505092915050565b60006020828403121561370457600080fd5b6000613712848285016133cc565b91505092915050565b60006020828403121561372d57600080fd5b600061373b8482850161340b565b91505092915050565b60006137508383613a6d565b60808301905092915050565b60006137688383613b26565b60208301905092915050565b61377d81614024565b82525050565b61378c81614024565b82525050565b600061379d82613ea0565b6137a78185613ee6565b93506137b283613e80565b8060005b838110156137e35781516137ca8882613744565b97506137d583613ecc565b9250506001810190506137b6565b5085935050505092915050565b60006137fb82613eab565b6138058185613ef7565b935061381083613e90565b8060005b83811015613841578151613828888261375c565b975061383383613ed9565b925050600181019050613814565b5085935050505092915050565b61385781614036565b82525050565b61386681614036565b82525050565b600061387782613eb6565b6138818185613f08565b93506138918185602086016140ca565b61389a81614236565b840191505092915050565b60006138b082613ec1565b6138ba8185613f24565b93506138ca8185602086016140ca565b6138d381614236565b840191505092915050565b60006138e982613ec1565b6138f38185613f35565b93506139038185602086016140ca565b80840191505092915050565b600061391c601183613f24565b915061392782614247565b602082019050919050565b600061393f601083613f24565b915061394a82614270565b602082019050919050565b6000613962602683613f24565b915061396d82614299565b604082019050919050565b6000613985600883613f24565b9150613990826142e8565b602082019050919050565b60006139a8600883613f24565b91506139b382614311565b602082019050919050565b60006139cb600c83613f24565b91506139d68261433a565b602082019050919050565b60006139ee602083613f24565b91506139f982614363565b602082019050919050565b6000613a11600083613f19565b9150613a1c8261438c565b600082019050919050565b6000613a34601783613f24565b9150613a3f8261438f565b602082019050919050565b6000613a57601783613f24565b9150613a62826143b8565b602082019050919050565b608082016000820151613a836000850182613774565b506020820151613a966020850182613b44565b506040820151613aa9604085018261384e565b506060820151613abc6060850182613b17565b50505050565b608082016000820151613ad86000850182613774565b506020820151613aeb6020850182613b44565b506040820151613afe604085018261384e565b506060820151613b116060850182613b17565b50505050565b613b208161408e565b82525050565b613b2f8161409d565b82525050565b613b3e8161409d565b82525050565b613b4d816140a7565b82525050565b6000613b5f82856138de565b9150613b6b82846138de565b91508190509392505050565b6000613b8282613a04565b9150819050919050565b6000602082019050613ba16000830184613783565b92915050565b6000606082019050613bbc6000830186613783565b613bc96020830185613783565b613bd66040830184613b35565b949350505050565b6000608082019050613bf36000830187613783565b613c006020830186613783565b613c0d6040830185613b35565b8181036060830152613c1f818461386c565b905095945050505050565b6000604082019050613c3f6000830185613783565b613c4c6020830184613b35565b9392505050565b60006020820190508181036000830152613c6d8184613792565b905092915050565b60006020820190508181036000830152613c8f81846137f0565b905092915050565b6000602082019050613cac600083018461385d565b92915050565b60006020820190508181036000830152613ccc81846138a5565b905092915050565b60006020820190508181036000830152613ced8161390f565b9050919050565b60006020820190508181036000830152613d0d81613932565b9050919050565b60006020820190508181036000830152613d2d81613955565b9050919050565b60006020820190508181036000830152613d4d81613978565b9050919050565b60006020820190508181036000830152613d6d8161399b565b9050919050565b60006020820190508181036000830152613d8d816139be565b9050919050565b60006020820190508181036000830152613dad816139e1565b9050919050565b60006020820190508181036000830152613dcd81613a27565b9050919050565b60006020820190508181036000830152613ded81613a4a565b9050919050565b6000608082019050613e096000830184613ac2565b92915050565b6000602082019050613e246000830184613b35565b92915050565b6000613e34613e45565b9050613e40828261412f565b919050565b6000604051905090565b600067ffffffffffffffff821115613e6a57613e69614207565b5b613e7382614236565b9050602081019050919050565b6000819050602082019050919050565b6000819050602082019050919050565b600081519050919050565b600081519050919050565b600081519050919050565b600081519050919050565b6000602082019050919050565b6000602082019050919050565b600082825260208201905092915050565b600082825260208201905092915050565b600082825260208201905092915050565b600081905092915050565b600082825260208201905092915050565b600081905092915050565b6000613f4b8261409d565b9150613f568361409d565b9250827fffffffffffffffffffffffffffffffffffffffffffffffffffffffffffffffff03821115613f8b57613f8a6141a9565b5b828201905092915050565b6000613fa18261409d565b9150613fac8361409d565b9250817fffffffffffffffffffffffffffffffffffffffffffffffffffffffffffffffff0483118215151615613fe557613fe46141a9565b5b828202905092915050565b6000613ffb8261409d565b91506140068361409d565b925082821015614019576140186141a9565b5b828203905092915050565b600061402f8261406e565b9050919050565b60008115159050919050565b60007fffffffff0000000000000000000000000000000000000000000000000000000082169050919050565b600073ffffffffffffffffffffffffffffffffffffffff82169050919050565b600062ffffff82169050919050565b6000819050919050565b600067ffffffffffffffff82169050919050565b82818337600083830152505050565b60005b838110156140e85780820151818401526020810190506140cd565b838111156140f7576000848401525b50505050565b6000600282049050600182168061411557607f821691505b60208210811415614129576141286141d8565b5b50919050565b61413882614236565b810181811067ffffffffffffffff8211171561415757614156614207565b5b80604052505050565b600061416b8261409d565b91507fffffffffffffffffffffffffffffffffffffffffffffffffffffffffffffffff82141561419e5761419d6141a9565b5b600182019050919050565b7f4e487b7100000000000000000000000000000000000000000000000000000000600052601160045260246000fd5b7f4e487b7100000000000000000000000000000000000000000000000000000000600052602260045260246000fd5b7f4e487b7100000000000000000000000000000000000000000000000000000000600052604160045260246000fd5b6000601f19601f8301169050919050565b7f4d696e7473206c65737320706c65617365000000000000000000000000000000600082015250565b7f4e6f7420656e6f756768206d6f6e657900000000000000000000000000000000600082015250565b7f4f776e61626c653a206e6577206f776e657220697320746865207a65726f206160008201527f6464726573730000000000000000000000000000000000000000000000000000602082015250565b7f4e4654204e6f6e73000000000000000000000000000000000000000000000000600082015250565b7f736f6c64206f7574000000000000000000000000000000000000000000000000600082015250565b7f4d61784d696e74204f7665720000000000000000000000000000000000000000600082015250565b7f4f776e61626c653a2063616c6c6572206973206e6f7420746865206f776e6572600082015250565b50565b7f75736572206973206e6f742077686974656c6973746564000000000000000000600082015250565b7f4e6f2046726565204d696e742041646472657373204974000000000000000000600082015250565b6143ea81614024565b81146143f557600080fd5b50565b61440181614036565b811461440c57600080fd5b50565b61441881614042565b811461442357600080fd5b50565b61442f8161409d565b811461443a57600080fd5b5056fea2646970667358221220cc9afad597396e50b33256bc45336c88ce3f6c3a4fe1b767b1b3f13978cff09764736f6c63430008040033697066733a2f2f62616679626569626b6877367375357161686333776173687a7134737861347277736a7961706568656a7637763568376962376f7662616a6834712f6d65746164617461",
  "linkReferences": {},
  "deployedLinkReferences": {}
}