{
  "_format": "hh-sol-artifact-1",
  "contractName": "Tabenomics",
  "sourceName": "contracts/Tabenomics.sol",
  "abi": [
    {
      "inputs": [],
      "stateMutability": "nonpayable",
      "type": "constructor"
    },
    {
      "inputs": [],
      "name": "ApprovalCallerNotOwnerNorApproved",
      "type": "error"
    },
    {
      "inputs": [],
      "name": "ApprovalQueryForNonexistentToken",
      "type": "error"
    },
    {
      "inputs": [],
      "name": "BalanceQueryForZeroAddress",
      "type": "error"
    },
    {
      "inputs": [],
      "name": "InvalidQueryRange",
      "type": "error"
    },
    {
      "inputs": [],
      "name": "MintERC2309QuantityExceedsLimit",
      "type": "error"
    },
    {
      "inputs": [],
      "name": "MintToZeroAddress",
      "type": "error"
    },
    {
      "inputs": [],
      "name": "MintZeroQuantity",
      "type": "error"
    },
    {
      "inputs": [],
      "name": "OwnerQueryForNonexistentToken",
      "type": "error"
    },
    {
      "inputs": [],
      "name": "OwnershipNotInitializedForExtraData",
      "type": "error"
    },
    {
      "inputs": [],
      "name": "TransferCallerNotOwnerNorApproved",
      "type": "error"
    },
    {
      "inputs": [],
      "name": "TransferFromIncorrectOwner",
      "type": "error"
    },
    {
      "inputs": [],
      "name": "TransferToNonERC721ReceiverImplementer",
      "type": "error"
    },
    {
      "inputs": [],
      "name": "TransferToZeroAddress",
      "type": "error"
    },
    {
      "inputs": [],
      "name": "URIQueryForNonexistentToken",
      "type": "error"
    },
    {
      "anonymous": false,
      "inputs": [
        {
          "indexed": true,
          "internalType": "address",
          "name": "owner",
          "type": "address"
        },
        {
          "indexed": true,
          "internalType": "address",
          "name": "approved",
          "type": "address"
        },
        {
          "indexed": true,
          "internalType": "uint256",
          "name": "tokenId",
          "type": "uint256"
        }
      ],
      "name": "Approval",
      "type": "event"
    },
    {
      "anonymous": false,
      "inputs": [
        {
          "indexed": true,
          "internalType": "address",
          "name": "owner",
          "type": "address"
        },
        {
          "indexed": true,
          "internalType": "address",
          "name": "operator",
          "type": "address"
        },
        {
          "indexed": false,
          "internalType": "bool",
          "name": "approved",
          "type": "bool"
        }
      ],
      "name": "ApprovalForAll",
      "type": "event"
    },
    {
      "anonymous": false,
      "inputs": [
        {
          "indexed": true,
          "internalType": "uint256",
          "name": "fromTokenId",
          "type": "uint256"
        },
        {
          "indexed": false,
          "internalType": "uint256",
          "name": "toTokenId",
          "type": "uint256"
        },
        {
          "indexed": true,
          "internalType": "address",
          "name": "from",
          "type": "address"
        },
        {
          "indexed": true,
          "internalType": "address",
          "name": "to",
          "type": "address"
        }
      ],
      "name": "ConsecutiveTransfer",
      "type": "event"
    },
    {
      "anonymous": false,
      "inputs": [
        {
          "indexed": false,
          "internalType": "address",
          "name": "to",
          "type": "address"
        },
        {
          "indexed": false,
          "internalType": "uint256",
          "name": "quantity",
          "type": "uint256"
        }
      ],
      "name": "MintLog",
      "type": "event"
    },
    {
      "anonymous": false,
      "inputs": [
        {
          "indexed": true,
          "internalType": "address",
          "name": "previousOwner",
          "type": "address"
        },
        {
          "indexed": true,
          "internalType": "address",
          "name": "newOwner",
          "type": "address"
        }
      ],
      "name": "OwnershipTransferred",
      "type": "event"
    },
    {
      "anonymous": false,
      "inputs": [
        {
          "indexed": false,
          "internalType": "address",
          "name": "from",
          "type": "address"
        },
        {
          "indexed": false,
          "internalType": "address",
          "name": "receiver",
          "type": "address"
        },
        {
          "indexed": false,
          "internalType": "uint256",
          "name": "amount",
          "type": "uint256"
        }
      ],
      "name": "TokenTransfer",
      "type": "event"
    },
    {
      "anonymous": false,
      "inputs": [
        {
          "indexed": true,
          "internalType": "address",
          "name": "from",
          "type": "address"
        },
        {
          "indexed": true,
          "internalType": "address",
          "name": "to",
          "type": "address"
        },
        {
          "indexed": true,
          "internalType": "uint256",
          "name": "tokenId",
          "type": "uint256"
        }
      ],
      "name": "Transfer",
      "type": "event"
    },
    {
      "anonymous": false,
      "inputs": [
        {
          "indexed": false,
          "internalType": "address",
          "name": "from",
          "type": "address"
        },
        {
          "indexed": false,
          "internalType": "address",
          "name": "to",
          "type": "address"
        },
        {
          "indexed": false,
          "internalType": "uint256",
          "name": "tokenId",
          "type": "uint256"
        }
      ],
      "name": "TransferLog",
      "type": "event"
    },
    {
      "inputs": [],
      "name": "FirstSale",
      "outputs": [],
      "stateMutability": "nonpayable",
      "type": "function"
    },
    {
      "inputs": [
        {
          "internalType": "address",
          "name": "_to",
          "type": "address"
        },
        {
          "internalType": "uint256",
          "name": "quantity",
          "type": "uint256"
        }
      ],
      "name": "MintOwnerToCredit",
      "outputs": [],
      "stateMutability": "nonpayable",
      "type": "function"
    },
    {
      "inputs": [
        {
          "internalType": "address",
          "name": "_to",
          "type": "address"
        },
        {
          "internalType": "uint256",
          "name": "quantity",
          "type": "uint256"
        }
      ],
      "name": "MintOwnerToGive",
      "outputs": [],
      "stateMutability": "nonpayable",
      "type": "function"
    },
    {
      "inputs": [
        {
          "internalType": "uint256",
          "name": "quantity",
          "type": "uint256"
        }
      ],
      "name": "MintUser",
      "outputs": [],
      "stateMutability": "payable",
      "type": "function"
    },
    {
      "inputs": [],
      "name": "NomalSale",
      "outputs": [],
      "stateMutability": "nonpayable",
      "type": "function"
    },
    {
      "inputs": [
        {
          "internalType": "address",
          "name": "to",
          "type": "address"
        },
        {
          "internalType": "uint256",
          "name": "tokenId",
          "type": "uint256"
        }
      ],
      "name": "OwnerTransfer",
      "outputs": [],
      "stateMutability": "nonpayable",
      "type": "function"
    },
    {
      "inputs": [],
      "name": "SecondSale",
      "outputs": [],
      "stateMutability": "nonpayable",
      "type": "function"
    },
    {
      "inputs": [
        {
          "internalType": "uint256",
          "name": "quantity",
          "type": "uint256"
        }
      ],
      "name": "UserBurn",
      "outputs": [],
      "stateMutability": "nonpayable",
      "type": "function"
    },
    {
      "inputs": [
        {
          "internalType": "address",
          "name": "",
          "type": "address"
        }
      ],
      "name": "UserBurnBalance",
      "outputs": [
        {
          "internalType": "uint256",
          "name": "",
          "type": "uint256"
        }
      ],
      "stateMutability": "view",
      "type": "function"
    },
    {
      "inputs": [
        {
          "internalType": "address",
          "name": "to",
          "type": "address"
        },
        {
          "internalType": "uint256",
          "name": "quantity",
          "type": "uint256"
        }
      ],
      "name": "UserBurnReset",
      "outputs": [],
      "stateMutability": "nonpayable",
      "type": "function"
    },
    {
      "inputs": [
        {
          "internalType": "uint256[]",
          "name": "quantity",
          "type": "uint256[]"
        }
      ],
      "name": "UserBurnSelect",
      "outputs": [],
      "stateMutability": "nonpayable",
      "type": "function"
    },
    {
      "inputs": [
        {
          "internalType": "address",
          "name": "to",
          "type": "address"
        }
      ],
      "name": "UserBurnView",
      "outputs": [
        {
          "internalType": "uint256",
          "name": "",
          "type": "uint256"
        }
      ],
      "stateMutability": "view",
      "type": "function"
    },
    {
      "inputs": [
        {
          "internalType": "address",
          "name": "",
          "type": "address"
        }
      ],
      "name": "WhitelistAddressMaxmint",
      "outputs": [
        {
          "internalType": "uint256",
          "name": "",
          "type": "uint256"
        }
      ],
      "stateMutability": "view",
      "type": "function"
    },
    {
      "inputs": [
        {
          "internalType": "address",
          "name": "",
          "type": "address"
        }
      ],
      "name": "WhitelistAddressMintedBalance",
      "outputs": [
        {
          "internalType": "uint256",
          "name": "",
          "type": "uint256"
        }
      ],
      "stateMutability": "view",
      "type": "function"
    },
    {
      "inputs": [
        {
          "internalType": "address",
          "name": "",
          "type": "address"
        }
      ],
      "name": "WhitelistAddressRemainingmint",
      "outputs": [
        {
          "internalType": "uint256",
          "name": "",
          "type": "uint256"
        }
      ],
      "stateMutability": "view",
      "type": "function"
    },
    {
      "inputs": [
        {
          "internalType": "address",
          "name": "",
          "type": "address"
        }
      ],
      "name": "addressMintedBalance",
      "outputs": [
        {
          "internalType": "uint256",
          "name": "",
          "type": "uint256"
        }
      ],
      "stateMutability": "view",
      "type": "function"
    },
    {
      "inputs": [
        {
          "internalType": "address",
          "name": "to",
          "type": "address"
        },
        {
          "internalType": "uint256",
          "name": "tokenId",
          "type": "uint256"
        }
      ],
      "name": "approve",
      "outputs": [],
      "stateMutability": "payable",
      "type": "function"
    },
    {
      "inputs": [
        {
          "internalType": "address",
          "name": "owner",
          "type": "address"
        }
      ],
      "name": "balanceOf",
      "outputs": [
        {
          "internalType": "uint256",
          "name": "",
          "type": "uint256"
        }
      ],
      "stateMutability": "view",
      "type": "function"
    },
    {
      "inputs": [],
      "name": "baseURI",
      "outputs": [
        {
          "internalType": "string",
          "name": "",
          "type": "string"
        }
      ],
      "stateMutability": "view",
      "type": "function"
    },
    {
      "inputs": [
        {
          "internalType": "uint256",
          "name": "tokenId",
          "type": "uint256"
        }
      ],
      "name": "burn",
      "outputs": [],
      "stateMutability": "nonpayable",
      "type": "function"
    },
    {
      "inputs": [
        {
          "internalType": "address",
          "name": "_user",
          "type": "address"
        }
      ],
      "name": "checker",
      "outputs": [
        {
          "internalType": "uint256",
          "name": "",
          "type": "uint256"
        }
      ],
      "stateMutability": "view",
      "type": "function"
    },
    {
      "inputs": [
        {
          "internalType": "string",
          "name": "uri",
          "type": "string"
        }
      ],
      "name": "chngebaseURI",
      "outputs": [],
      "stateMutability": "nonpayable",
      "type": "function"
    },
    {
      "inputs": [
        {
          "internalType": "address",
          "name": "",
          "type": "address"
        }
      ],
      "name": "confirmWhitelistAddressMaxmint",
      "outputs": [
        {
          "internalType": "uint256",
          "name": "",
          "type": "uint256"
        }
      ],
      "stateMutability": "view",
      "type": "function"
    },
    {
      "inputs": [
        {
          "internalType": "address",
          "name": "",
          "type": "address"
        }
      ],
      "name": "confirmWhitelistAddressMintedBalance",
      "outputs": [
        {
          "internalType": "uint256",
          "name": "",
          "type": "uint256"
        }
      ],
      "stateMutability": "view",
      "type": "function"
    },
    {
      "inputs": [
        {
          "internalType": "address",
          "name": "",
          "type": "address"
        }
      ],
      "name": "confirmWhitelistAddressRemainingmint",
      "outputs": [
        {
          "internalType": "uint256",
          "name": "",
          "type": "uint256"
        }
      ],
      "stateMutability": "view",
      "type": "function"
    },
    {
      "inputs": [
        {
          "internalType": "address",
          "name": "_user",
          "type": "address"
        }
      ],
      "name": "confirmisWhitelisted",
      "outputs": [
        {
          "internalType": "bool",
          "name": "",
          "type": "bool"
        }
      ],
      "stateMutability": "view",
      "type": "function"
    },
    {
      "inputs": [
        {
          "internalType": "address[]",
          "name": "_users",
          "type": "address[]"
        }
      ],
      "name": "confirmwhitelistUsers",
      "outputs": [],
      "stateMutability": "nonpayable",
      "type": "function"
    },
    {
      "inputs": [
        {
          "internalType": "uint256",
          "name": "",
          "type": "uint256"
        }
      ],
      "name": "confirmwhitelistedAddresses",
      "outputs": [
        {
          "internalType": "address",
          "name": "",
          "type": "address"
        }
      ],
      "stateMutability": "view",
      "type": "function"
    },
    {
      "inputs": [
        {
          "internalType": "uint256",
          "name": "tokenId",
          "type": "uint256"
        }
      ],
      "name": "explicitOwnershipOf",
      "outputs": [
        {
          "components": [
            {
              "internalType": "address",
              "name": "addr",
              "type": "address"
            },
            {
              "internalType": "uint64",
              "name": "startTimestamp",
              "type": "uint64"
            },
            {
              "internalType": "bool",
              "name": "burned",
              "type": "bool"
            },
            {
              "internalType": "uint24",
              "name": "extraData",
              "type": "uint24"
            }
          ],
          "internalType": "struct IERC721A.TokenOwnership",
          "name": "",
          "type": "tuple"
        }
      ],
      "stateMutability": "view",
      "type": "function"
    },
    {
      "inputs": [
        {
          "internalType": "uint256[]",
          "name": "tokenIds",
          "type": "uint256[]"
        }
      ],
      "name": "explicitOwnershipsOf",
      "outputs": [
        {
          "components": [
            {
              "internalType": "address",
              "name": "addr",
              "type": "address"
            },
            {
              "internalType": "uint64",
              "name": "startTimestamp",
              "type": "uint64"
            },
            {
              "internalType": "bool",
              "name": "burned",
              "type": "bool"
            },
            {
              "internalType": "uint24",
              "name": "extraData",
              "type": "uint24"
            }
          ],
          "internalType": "struct IERC721A.TokenOwnership[]",
          "name": "",
          "type": "tuple[]"
        }
      ],
      "stateMutability": "view",
      "type": "function"
    },
    {
      "inputs": [
        {
          "internalType": "uint256",
          "name": "tokenId",
          "type": "uint256"
        }
      ],
      "name": "getApproved",
      "outputs": [
        {
          "internalType": "address",
          "name": "",
          "type": "address"
        }
      ],
      "stateMutability": "view",
      "type": "function"
    },
    {
      "inputs": [],
      "name": "getBalance",
      "outputs": [
        {
          "internalType": "uint256",
          "name": "",
          "type": "uint256"
        }
      ],
      "stateMutability": "view",
      "type": "function"
    },
    {
      "inputs": [],
      "name": "getTime",
      "outputs": [
        {
          "internalType": "uint256",
          "name": "",
          "type": "uint256"
        }
      ],
      "stateMutability": "view",
      "type": "function"
    },
    {
      "inputs": [
        {
          "internalType": "address",
          "name": "owner",
          "type": "address"
        },
        {
          "internalType": "address",
          "name": "operator",
          "type": "address"
        }
      ],
      "name": "isApprovedForAll",
      "outputs": [
        {
          "internalType": "bool",
          "name": "",
          "type": "bool"
        }
      ],
      "stateMutability": "view",
      "type": "function"
    },
    {
      "inputs": [
        {
          "internalType": "address",
          "name": "_user",
          "type": "address"
        }
      ],
      "name": "isWhitelisted",
      "outputs": [
        {
          "internalType": "bool",
          "name": "",
          "type": "bool"
        }
      ],
      "stateMutability": "view",
      "type": "function"
    },
    {
      "inputs": [],
      "name": "name",
      "outputs": [
        {
          "internalType": "string",
          "name": "",
          "type": "string"
        }
      ],
      "stateMutability": "view",
      "type": "function"
    },
    {
      "inputs": [
        {
          "internalType": "address",
          "name": "",
          "type": "address"
        }
      ],
      "name": "oglist",
      "outputs": [
        {
          "internalType": "bool",
          "name": "",
          "type": "bool"
        }
      ],
      "stateMutability": "view",
      "type": "function"
    },
    {
      "inputs": [],
      "name": "onlyWhitelisted",
      "outputs": [
        {
          "internalType": "bool",
          "name": "",
          "type": "bool"
        }
      ],
      "stateMutability": "view",
      "type": "function"
    },
    {
      "inputs": [],
      "name": "onlyconfirmWhitelisted",
      "outputs": [
        {
          "internalType": "bool",
          "name": "",
          "type": "bool"
        }
      ],
      "stateMutability": "view",
      "type": "function"
    },
    {
      "inputs": [],
      "name": "owner",
      "outputs": [
        {
          "internalType": "address",
          "name": "",
          "type": "address"
        }
      ],
      "stateMutability": "view",
      "type": "function"
    },
    {
      "inputs": [
        {
          "internalType": "uint256",
          "name": "tokenId",
          "type": "uint256"
        }
      ],
      "name": "ownerOf",
      "outputs": [
        {
          "internalType": "address",
          "name": "",
          "type": "address"
        }
      ],
      "stateMutability": "view",
      "type": "function"
    },
    {
      "inputs": [],
      "name": "renounceOwnership",
      "outputs": [],
      "stateMutability": "nonpayable",
      "type": "function"
    },
    {
      "inputs": [
        {
          "internalType": "address",
          "name": "from",
          "type": "address"
        },
        {
          "internalType": "address",
          "name": "to",
          "type": "address"
        },
        {
          "internalType": "uint256",
          "name": "tokenId",
          "type": "uint256"
        }
      ],
      "name": "safeTransferFrom",
      "outputs": [],
      "stateMutability": "payable",
      "type": "function"
    },
    {
      "inputs": [
        {
          "internalType": "address",
          "name": "from",
          "type": "address"
        },
        {
          "internalType": "address",
          "name": "to",
          "type": "address"
        },
        {
          "internalType": "uint256",
          "name": "tokenId",
          "type": "uint256"
        },
        {
          "internalType": "bytes",
          "name": "_data",
          "type": "bytes"
        }
      ],
      "name": "safeTransferFrom",
      "outputs": [],
      "stateMutability": "payable",
      "type": "function"
    },
    {
      "inputs": [],
      "name": "saleFinish",
      "outputs": [
        {
          "internalType": "uint256",
          "name": "",
          "type": "uint256"
        }
      ],
      "stateMutability": "view",
      "type": "function"
    },
    {
      "inputs": [],
      "name": "saleStartTime1st",
      "outputs": [
        {
          "internalType": "uint256",
          "name": "",
          "type": "uint256"
        }
      ],
      "stateMutability": "view",
      "type": "function"
    },
    {
      "inputs": [],
      "name": "saleStartTime2nd",
      "outputs": [
        {
          "internalType": "uint256",
          "name": "",
          "type": "uint256"
        }
      ],
      "stateMutability": "view",
      "type": "function"
    },
    {
      "inputs": [],
      "name": "saleStartTimePublic",
      "outputs": [
        {
          "internalType": "uint256",
          "name": "",
          "type": "uint256"
        }
      ],
      "stateMutability": "view",
      "type": "function"
    },
    {
      "inputs": [
        {
          "internalType": "address",
          "name": "operator",
          "type": "address"
        },
        {
          "internalType": "bool",
          "name": "approved",
          "type": "bool"
        }
      ],
      "name": "setApprovalForAll",
      "outputs": [],
      "stateMutability": "nonpayable",
      "type": "function"
    },
    {
      "inputs": [
        {
          "internalType": "address",
          "name": "",
          "type": "address"
        }
      ],
      "name": "stertWhitelistAddressMaxmint",
      "outputs": [
        {
          "internalType": "uint256",
          "name": "",
          "type": "uint256"
        }
      ],
      "stateMutability": "view",
      "type": "function"
    },
    {
      "inputs": [
        {
          "internalType": "bytes4",
          "name": "interfaceId",
          "type": "bytes4"
        }
      ],
      "name": "supportsInterface",
      "outputs": [
        {
          "internalType": "bool",
          "name": "",
          "type": "bool"
        }
      ],
      "stateMutability": "view",
      "type": "function"
    },
    {
      "inputs": [],
      "name": "symbol",
      "outputs": [
        {
          "internalType": "string",
          "name": "",
          "type": "string"
        }
      ],
      "stateMutability": "view",
      "type": "function"
    },
    {
      "inputs": [
        {
          "internalType": "uint256",
          "name": "tokenId",
          "type": "uint256"
        }
      ],
      "name": "tokenURI",
      "outputs": [
        {
          "internalType": "string",
          "name": "",
          "type": "string"
        }
      ],
      "stateMutability": "view",
      "type": "function"
    },
    {
      "inputs": [
        {
          "internalType": "address",
          "name": "owner",
          "type": "address"
        }
      ],
      "name": "tokensOfOwner",
      "outputs": [
        {
          "internalType": "uint256[]",
          "name": "",
          "type": "uint256[]"
        }
      ],
      "stateMutability": "view",
      "type": "function"
    },
    {
      "inputs": [
        {
          "internalType": "address",
          "name": "owner",
          "type": "address"
        },
        {
          "internalType": "uint256",
          "name": "start",
          "type": "uint256"
        },
        {
          "internalType": "uint256",
          "name": "stop",
          "type": "uint256"
        }
      ],
      "name": "tokensOfOwnerIn",
      "outputs": [
        {
          "internalType": "uint256[]",
          "name": "",
          "type": "uint256[]"
        }
      ],
      "stateMutability": "view",
      "type": "function"
    },
    {
      "inputs": [],
      "name": "totalSupply",
      "outputs": [
        {
          "internalType": "uint256",
          "name": "",
          "type": "uint256"
        }
      ],
      "stateMutability": "view",
      "type": "function"
    },
    {
      "inputs": [
        {
          "internalType": "address",
          "name": "from",
          "type": "address"
        },
        {
          "internalType": "address",
          "name": "to",
          "type": "address"
        },
        {
          "internalType": "uint256",
          "name": "tokenId",
          "type": "uint256"
        }
      ],
      "name": "transferFrom",
      "outputs": [],
      "stateMutability": "payable",
      "type": "function"
    },
    {
      "inputs": [
        {
          "internalType": "address",
          "name": "newOwner",
          "type": "address"
        }
      ],
      "name": "transferOwnership",
      "outputs": [],
      "stateMutability": "nonpayable",
      "type": "function"
    },
    {
      "inputs": [],
      "name": "viewOGaddress",
      "outputs": [
        {
          "internalType": "address[]",
          "name": "",
          "type": "address[]"
        }
      ],
      "stateMutability": "view",
      "type": "function"
    },
    {
      "inputs": [],
      "name": "viewWLaddress",
      "outputs": [
        {
          "internalType": "address[]",
          "name": "",
          "type": "address[]"
        }
      ],
      "stateMutability": "view",
      "type": "function"
    },
    {
      "inputs": [
        {
          "internalType": "address",
          "name": "",
          "type": "address"
        }
      ],
      "name": "whitelist",
      "outputs": [
        {
          "internalType": "bool",
          "name": "",
          "type": "bool"
        }
      ],
      "stateMutability": "view",
      "type": "function"
    },
    {
      "inputs": [
        {
          "internalType": "address[]",
          "name": "_users",
          "type": "address[]"
        }
      ],
      "name": "whitelistUsers",
      "outputs": [],
      "stateMutability": "nonpayable",
      "type": "function"
    },
    {
      "inputs": [
        {
          "internalType": "uint256",
          "name": "",
          "type": "uint256"
        }
      ],
      "name": "whitelistedAddresses",
      "outputs": [
        {
          "internalType": "address",
          "name": "",
          "type": "address"
        }
      ],
      "stateMutability": "view",
      "type": "function"
    },
    {
      "inputs": [],
      "name": "withdraw",
      "outputs": [],
      "stateMutability": "payable",
      "type": "function"
    }
  ],
  "bytecode": "0x60806040526040518060800160405280604b81526020016200627b604b9139600990816200002e9190620004bc565b506000600a556000600b556363fcc570600c556363fde5b8600d556363fe08e0600e556363ff5a60600f556000601460006101000a81548160ff0219169083151502179055506000601460016101000a81548160ff0219169083151502179055503480156200009c57600080fd5b506040518060400160405280600a81526020017f546162656e6f6d696373000000000000000000000000000000000000000000008152506040518060400160405280600381526020017f4e4841000000000000000000000000000000000000000000000000000000000081525081600290816200011a9190620004bc565b5080600390816200012c9190620004bc565b506200013d6200016b60201b60201c565b600081905550505062000165620001596200017460201b60201c565b6200017c60201b60201c565b620005a3565b60006001905090565b600033905090565b6000600860009054906101000a900473ffffffffffffffffffffffffffffffffffffffff16905081600860006101000a81548173ffffffffffffffffffffffffffffffffffffffff021916908373ffffffffffffffffffffffffffffffffffffffff1602179055508173ffffffffffffffffffffffffffffffffffffffff168173ffffffffffffffffffffffffffffffffffffffff167f8be0079c531659141344cd1fd0a4f28419497f9722a3daafe3b4186f6b6457e060405160405180910390a35050565b600081519050919050565b7f4e487b7100000000000000000000000000000000000000000000000000000000600052604160045260246000fd5b7f4e487b7100000000000000000000000000000000000000000000000000000000600052602260045260246000fd5b60006002820490506001821680620002c457607f821691505b602082108103620002da57620002d96200027c565b5b50919050565b60008190508160005260206000209050919050565b60006020601f8301049050919050565b600082821b905092915050565b600060088302620003447fffffffffffffffffffffffffffffffffffffffffffffffffffffffffffffffff8262000305565b62000350868362000305565b95508019841693508086168417925050509392505050565b6000819050919050565b6000819050919050565b60006200039d62000397620003918462000368565b62000372565b62000368565b9050919050565b6000819050919050565b620003b9836200037c565b620003d1620003c882620003a4565b84845462000312565b825550505050565b600090565b620003e8620003d9565b620003f5818484620003ae565b505050565b5b818110156200041d5762000411600082620003de565b600181019050620003fb565b5050565b601f8211156200046c576200043681620002e0565b6200044184620002f5565b8101602085101562000451578190505b620004696200046085620002f5565b830182620003fa565b50505b505050565b600082821c905092915050565b6000620004916000198460080262000471565b1980831691505092915050565b6000620004ac83836200047e565b9150826002028217905092915050565b620004c78262000242565b67ffffffffffffffff811115620004e357620004e26200024d565b5b620004ef8254620002ab565b620004fc82828562000421565b600060209050601f8311600181146200053457600084156200051f578287015190505b6200052b85826200049e565b8655506200059b565b601f1984166200054486620002e0565b60005b828110156200056e5784890151825560018201915060208501945060208101905062000547565b868310156200058e57848901516200058a601f8916826200047e565b8355505b6001600288020188555050505b505050505050565b615cc880620005b36000396000f3fe6080604052600436106103c35760003560e01c80636352211e116101f2578063b3e8c8d21161010d578063c87b56dd116100a0578063e985e9c51161006f578063e985e9c514610ef4578063edec5f2714610f31578063f1553e9914610f5a578063f2fde38b14610f71576103c3565b8063c87b56dd14610e28578063ce9ea7a014610e65578063dc8924e314610ea2578063e0505b4a14610ecb576103c3565b8063bf33fe07116100dc578063bf33fe0714610d70578063c03516c314610d99578063c23dc68f14610dc2578063c6992d8f14610dff576103c3565b8063b3e8c8d214610caf578063b7ac562b14610cda578063b88d4fde14610d17578063ba4e5c4914610d33576103c3565b806395d89b41116101855780639d54be12116101545780639d54be1214610bcf5780639ecc40a814610c0c5780639fe93e5314610c49578063a22cb46514610c86576103c3565b806395d89b4114610aff57806399a2557a14610b2a5780639b19251a14610b675780639c70b51214610ba4576103c3565b80637c5ba235116101c15780637c5ba23514610a415780638462151c14610a6c5780638520593314610aa95780638da5cb5b14610ad4576103c3565b80636352211e146109855780636c0360eb146109c257806370a08231146109ed578063715018a614610a2a576103c3565b80633af32abf116102e2578063557ed1ba116102755780635dec6b17116102445780635dec6b17146108cb5780635e5c78a4146109085780635f13341e14610945578063602fb1291461095c576103c3565b8063557ed1ba146107e95780635778742b146108145780635a650257146108515780635bbb21771461088e576103c3565b806342966c68116102b157806342966c681461073c57806344d27c7314610765578063483baa571461078157806350f04664146107ac576103c3565b80633af32abf1461069c5780633bcc0756146106d95780633ccfd60b1461071657806342842e0e14610720576103c3565b806310c08c981161035a57806323b872dd1161032957806323b872dd14610601578063292830191461061d5780632ccfc6b614610646578063369ae7e514610671576103c3565b806310c08c981461054557806312065fe01461056e57806318160ddd1461059957806318cae269146105c4576103c3565b8063081812fc11610396578063081812fc1461048457806308b28fa3146104c1578063095ea7b3146104fe5780630bbd35111461051a576103c3565b8063016c683c146103c857806301ffc9a7146104055780630521c6f01461044257806306fdde0314610459575b600080fd5b3480156103d457600080fd5b506103ef60048036038101906103ea91906145d3565b610f9a565b6040516103fc9190614619565b60405180910390f35b34801561041157600080fd5b5061042c6004803603810190610427919061468c565b61104b565b60405161043991906146d4565b60405180910390f35b34801561044e57600080fd5b506104576110dd565b005b34801561046557600080fd5b5061046e61111d565b60405161047b919061477f565b60405180910390f35b34801561049057600080fd5b506104ab60048036038101906104a691906147cd565b6111af565b6040516104b89190614809565b60405180910390f35b3480156104cd57600080fd5b506104e860048036038101906104e391906145d3565b61122e565b6040516104f59190614619565b60405180910390f35b61051860048036038101906105139190614824565b611246565b005b34801561052657600080fd5b5061052f61138a565b60405161053c9190614619565b60405180910390f35b34801561055157600080fd5b5061056c600480360381019061056791906147cd565b611390565b005b34801561057a57600080fd5b50610583611484565b6040516105909190614619565b60405180910390f35b3480156105a557600080fd5b506105ae6114a3565b6040516105bb9190614619565b60405180910390f35b3480156105d057600080fd5b506105eb60048036038101906105e691906145d3565b6114ba565b6040516105f89190614619565b60405180910390f35b61061b60048036038101906106169190614864565b6114d2565b005b34801561062957600080fd5b50610644600480360381019061063f9190614824565b6117f4565b005b34801561065257600080fd5b5061065b611982565b6040516106689190614975565b60405180910390f35b34801561067d57600080fd5b50610686611a10565b6040516106939190614619565b60405180910390f35b3480156106a857600080fd5b506106c360048036038101906106be91906145d3565b611a16565b6040516106d091906146d4565b60405180910390f35b3480156106e557600080fd5b5061070060048036038101906106fb91906145d3565b611a83565b60405161070d91906146d4565b60405180910390f35b61071e611aa3565b005b61073a60048036038101906107359190614864565b611b23565b005b34801561074857600080fd5b50610763600480360381019061075e91906147cd565b611b43565b005b61077f600480360381019061077a91906147cd565b611b51565b005b34801561078d57600080fd5b506107966122e4565b6040516107a391906146d4565b60405180910390f35b3480156107b857600080fd5b506107d360048036038101906107ce91906145d3565b6122f7565b6040516107e09190614619565b60405180910390f35b3480156107f557600080fd5b506107fe61230f565b60405161080b9190614619565b60405180910390f35b34801561082057600080fd5b5061083b600480360381019061083691906145d3565b612317565b6040516108489190614619565b60405180910390f35b34801561085d57600080fd5b50610878600480360381019061087391906145d3565b61232f565b6040516108859190614619565b60405180910390f35b34801561089a57600080fd5b506108b560048036038101906108b091906149fc565b612347565b6040516108c29190614b9d565b60405180910390f35b3480156108d757600080fd5b506108f260048036038101906108ed91906145d3565b61240a565b6040516108ff91906146d4565b60405180910390f35b34801561091457600080fd5b5061092f600480360381019061092a91906147cd565b612477565b60405161093c9190614809565b60405180910390f35b34801561095157600080fd5b5061095a6124b6565b005b34801561096857600080fd5b50610983600480360381019061097e9190614824565b6124f6565b005b34801561099157600080fd5b506109ac60048036038101906109a791906147cd565b612556565b6040516109b99190614809565b60405180910390f35b3480156109ce57600080fd5b506109d7612568565b6040516109e4919061477f565b60405180910390f35b3480156109f957600080fd5b50610a146004803603810190610a0f91906145d3565b6125f6565b604051610a219190614619565b60405180910390f35b348015610a3657600080fd5b50610a3f6126ae565b005b348015610a4d57600080fd5b50610a566126c2565b604051610a639190614975565b60405180910390f35b348015610a7857600080fd5b50610a936004803603810190610a8e91906145d3565b612750565b604051610aa09190614c7d565b60405180910390f35b348015610ab557600080fd5b50610abe612893565b604051610acb9190614619565b60405180910390f35b348015610ae057600080fd5b50610ae9612899565b604051610af69190614809565b60405180910390f35b348015610b0b57600080fd5b50610b146128c3565b604051610b21919061477f565b60405180910390f35b348015610b3657600080fd5b50610b516004803603810190610b4c9190614c9f565b612955565b604051610b5e9190614c7d565b60405180910390f35b348015610b7357600080fd5b50610b8e6004803603810190610b8991906145d3565b612b61565b604051610b9b91906146d4565b60405180910390f35b348015610bb057600080fd5b50610bb9612b81565b604051610bc691906146d4565b60405180910390f35b348015610bdb57600080fd5b50610bf66004803603810190610bf191906145d3565b612b94565b604051610c039190614619565b60405180910390f35b348015610c1857600080fd5b50610c336004803603810190610c2e91906145d3565b612bac565b604051610c409190614619565b60405180910390f35b348015610c5557600080fd5b50610c706004803603810190610c6b91906145d3565b612bc4565b604051610c7d9190614619565b60405180910390f35b348015610c9257600080fd5b50610cad6004803603810190610ca89190614d1e565b612bdc565b005b348015610cbb57600080fd5b50610cc4612ce7565b604051610cd19190614619565b60405180910390f35b348015610ce657600080fd5b50610d016004803603810190610cfc91906145d3565b612ced565b604051610d0e9190614619565b60405180910390f35b610d316004803603810190610d2c9190614e8e565b612d05565b005b348015610d3f57600080fd5b50610d5a6004803603810190610d5591906147cd565b612d78565b604051610d679190614809565b60405180910390f35b348015610d7c57600080fd5b50610d976004803603810190610d929190614f67565b612db7565b005b348015610da557600080fd5b50610dc06004803603810190610dbb9190615055565b612ee2565b005b348015610dce57600080fd5b50610de96004803603810190610de491906147cd565b612efd565b604051610df691906150f3565b60405180910390f35b348015610e0b57600080fd5b50610e266004803603810190610e2191906151d1565b612f67565b005b348015610e3457600080fd5b50610e4f6004803603810190610e4a91906147cd565b613121565b604051610e5c919061477f565b60405180910390f35b348015610e7157600080fd5b50610e8c6004803603810190610e8791906145d3565b6131bf565b604051610e999190614619565b60405180910390f35b348015610eae57600080fd5b50610ec96004803603810190610ec49190614824565b613208565b005b348015610ed757600080fd5b50610ef26004803603810190610eed9190614824565b613305565b005b348015610f0057600080fd5b50610f1b6004803603810190610f16919061521a565b61339f565b604051610f2891906146d4565b60405180910390f35b348015610f3d57600080fd5b50610f586004803603810190610f539190614f67565b613433565b005b348015610f6657600080fd5b50610f6f6135dc565b005b348015610f7d57600080fd5b50610f986004803603810190610f9391906145d3565b61361c565b005b60008060009050601a60008473ffffffffffffffffffffffffffffffffffffffff1673ffffffffffffffffffffffffffffffffffffffff1681526020019081526020016000205481610fec9190615289565b9050600881901b9050601960008473ffffffffffffffffffffffffffffffffffffffff1673ffffffffffffffffffffffffffffffffffffffff16815260200190815260200160002054816110409190615289565b905080915050919050565b60006301ffc9a760e01b827bffffffffffffffffffffffffffffffffffffffffffffffffffffffff191614806110a657506380ac58cd60e01b827bffffffffffffffffffffffffffffffffffffffffffffffffffffffff1916145b806110d65750635b5e139f60e01b827bffffffffffffffffffffffffffffffffffffffffffffffffffffffff1916145b9050919050565b6110e561369f565b6000601460006101000a81548160ff0219169083151502179055506000601460016101000a81548160ff021916908315150217905550565b60606002805461112c906152ec565b80601f0160208091040260200160405190810160405280929190818152602001828054611158906152ec565b80156111a55780601f1061117a576101008083540402835291602001916111a5565b820191906000526020600020905b81548152906001019060200180831161118857829003601f168201915b5050505050905090565b60006111ba8261371d565b6111f0576040517fcf4700e400000000000000000000000000000000000000000000000000000000815260040160405180910390fd5b6006600083815260200190815260200160002060000160009054906101000a900473ffffffffffffffffffffffffffffffffffffffff169050919050565b60176020528060005260406000206000915090505481565b600061125182612556565b90508073ffffffffffffffffffffffffffffffffffffffff1661127261377c565b73ffffffffffffffffffffffffffffffffffffffff16146112d55761129e8161129961377c565b61339f565b6112d4576040517fcfb3b94200000000000000000000000000000000000000000000000000000000815260040160405180910390fd5b5b826006600084815260200190815260200160002060000160006101000a81548173ffffffffffffffffffffffffffffffffffffffff021916908373ffffffffffffffffffffffffffffffffffffffff160217905550818373ffffffffffffffffffffffffffffffffffffffff168273ffffffffffffffffffffffffffffffffffffffff167f8c5be1e5ebec7d5bd14f71427d1e84f3dd0314c0f7b2291e5b200ac8c7c3b92560405160405180910390a4505050565b600f5481565b600061139a613784565b90506000815190506000838210156113e7576040517f08c379a00000000000000000000000000000000000000000000000000000000081526004016113de90615369565b60405180910390fd5b5b8084111561147e5761141583828151811061140657611405615389565b5b602002602001015160016138cf565b601f60003373ffffffffffffffffffffffffffffffffffffffff1673ffffffffffffffffffffffffffffffffffffffff1681526020019081526020016000206000815480929190611465906153b8565b91905055506001816114779190615289565b90506113e8565b50505050565b60003373ffffffffffffffffffffffffffffffffffffffff1631905090565b60006114ad613b21565b6001546000540303905090565b601e6020528060005260406000206000915090505481565b60006114dd82613b2a565b90508373ffffffffffffffffffffffffffffffffffffffff168173ffffffffffffffffffffffffffffffffffffffff1614611544576040517fa114810000000000000000000000000000000000000000000000000000000000815260040160405180910390fd5b60008061155084613bf6565b91509150611566818761156161377c565b613c1d565b6115b25761157b8661157661377c565b61339f565b6115b1576040517f59c896be00000000000000000000000000000000000000000000000000000000815260040160405180910390fd5b5b600073ffffffffffffffffffffffffffffffffffffffff168573ffffffffffffffffffffffffffffffffffffffff1603611618576040517fea553b3400000000000000000000000000000000000000000000000000000000815260040160405180910390fd5b6116258686866001613c61565b801561163057600082555b600560008773ffffffffffffffffffffffffffffffffffffffff1673ffffffffffffffffffffffffffffffffffffffff168152602001908152602001600020600081546001900391905081905550600560008673ffffffffffffffffffffffffffffffffffffffff1673ffffffffffffffffffffffffffffffffffffffff16815260200190815260200160002060008154600101919050819055506116fe856116da888887613c67565b7c020000000000000000000000000000000000000000000000000000000017613c8f565b600460008681526020019081526020016000208190555060007c02000000000000000000000000000000000000000000000000000000008416036117845760006001850190506000600460008381526020019081526020016000205403611782576000548114611781578360046000838152602001908152602001600020819055505b5b505b838573ffffffffffffffffffffffffffffffffffffffff168773ffffffffffffffffffffffffffffffffffffffff167fddf252ad1be2c89b69c2b068fc378daa952ba7f163c4a11628f55a4df523b3ef60405160405180910390a46117ec8686866001613cba565b505050505050565b6117fc61369f565b6118046114a3565b6107d01015611848576040517f08c379a000000000000000000000000000000000000000000000000000000000815260040161183f9061544c565b60405180910390fd5b806118516114a3565b6105dc61185e919061546c565b8111156118a0576040517f08c379a0000000000000000000000000000000000000000000000000000000008152600401611897906154ec565b60405180910390fd5b6118a8612899565b73ffffffffffffffffffffffffffffffffffffffff168373ffffffffffffffffffffffffffffffffffffffff16146119315781601e60008573ffffffffffffffffffffffffffffffffffffffff1673ffffffffffffffffffffffffffffffffffffffff16815260200190815260200160002060008282546119299190615289565b925050819055505b611939613cc0565b506119448383613cca565b7fd1d3d8a67ea3222e190a25cd89ce4613287a3f3d1272268cfd5639d6bad416b3838360405161197592919061550c565b60405180910390a1505050565b60606013805480602002602001604051908101604052809291908181526020018280548015611a0657602002820191906000526020600020905b8160009054906101000a900473ffffffffffffffffffffffffffffffffffffffff1673ffffffffffffffffffffffffffffffffffffffff16815260200190600101908083116119bc575b5050505050905090565b600c5481565b600060011515601560008473ffffffffffffffffffffffffffffffffffffffff1673ffffffffffffffffffffffffffffffffffffffff16815260200190815260200160002060009054906101000a900460ff16151503611a795760019050611a7e565b600090505b919050565b60166020528060005260406000206000915054906101000a900460ff1681565b6000611aad612899565b73ffffffffffffffffffffffffffffffffffffffff1647604051611ad090615566565b60006040518083038185875af1925050503d8060008114611b0d576040519150601f19603f3d011682016040523d82523d6000602084013e611b12565b606091505b5050905080611b2057600080fd5b50565b611b3e83838360405180602001604052806000815250612d05565b505050565b611b4e8160016138cf565b50565b611b596114a3565b6105dc1015611b9d576040517f08c379a0000000000000000000000000000000000000000000000000000000008152600401611b949061544c565b60405180910390fd5b80611ba66114a3565b6105dc611bb3919061546c565b811115611bf5576040517f08c379a0000000000000000000000000000000000000000000000000000000008152600401611bec906154ec565b60405180910390fd5b60011515601460009054906101000a900460ff1615151480611c275750600c544210158015611c265750600d544211155b5b15611e73576658d15e1762800082611c3f919061557b565b341015611c81576040517f08c379a0000000000000000000000000000000000000000000000000000000008152600401611c7890615609565b60405180910390fd5b611c8a3361240a565b611cc9576040517f08c379a0000000000000000000000000000000000000000000000000000000008152600401611cc090615675565b60405180910390fd5b6000601860003373ffffffffffffffffffffffffffffffffffffffff1673ffffffffffffffffffffffffffffffffffffffff1681526020019081526020016000205490506000601a60003373ffffffffffffffffffffffffffffffffffffffff1673ffffffffffffffffffffffffffffffffffffffff168152602001908152602001600020549050808483611d5e9190615289565b1115611d9f576040517f08c379a0000000000000000000000000000000000000000000000000000000008152600401611d96906156e1565b60405180910390fd5b611da93385613ce8565b8382611db59190615289565b81611dc0919061546c565b601c60003373ffffffffffffffffffffffffffffffffffffffff1673ffffffffffffffffffffffffffffffffffffffff16815260200190815260200160002081905550611e0b613cc0565b50611e163385613cca565b83601860003373ffffffffffffffffffffffffffffffffffffffff1673ffffffffffffffffffffffffffffffffffffffff1681526020019081526020016000206000828254611e659190615289565b92505081905550505061229f565b60011515601460019054906101000a900460ff1615151480611ea55750600d544210158015611ea45750600e544211155b5b156120e7576658d15e1762800082611ebd919061557b565b341015611eff576040517f08c379a0000000000000000000000000000000000000000000000000000000008152600401611ef690615609565b60405180910390fd5b611f0833611a16565b611f47576040517f08c379a0000000000000000000000000000000000000000000000000000000008152600401611f3e9061574d565b60405180910390fd5b6000601760003373ffffffffffffffffffffffffffffffffffffffff1673ffffffffffffffffffffffffffffffffffffffff1681526020019081526020016000205490506000601960003373ffffffffffffffffffffffffffffffffffffffff1673ffffffffffffffffffffffffffffffffffffffff168152602001908152602001600020549050808483611fdc9190615289565b111561201d576040517f08c379a0000000000000000000000000000000000000000000000000000000008152600401612014906156e1565b60405180910390fd5b83826120299190615289565b81612034919061546c565b601d60003373ffffffffffffffffffffffffffffffffffffffff1673ffffffffffffffffffffffffffffffffffffffff1681526020019081526020016000208190555061207f613cc0565b5061208a3385613cca565b83601760003373ffffffffffffffffffffffffffffffffffffffff1673ffffffffffffffffffffffffffffffffffffffff16815260200190815260200160002060008282546120d99190615289565b92505081905550505061229e565b600e5442101580156120fb5750600f544211155b1561229d57666a94d74f43000082612113919061557b565b341015612155576040517f08c379a000000000000000000000000000000000000000000000000000000000815260040161214c90615609565b60405180910390fd5b6000601e60003373ffffffffffffffffffffffffffffffffffffffff1673ffffffffffffffffffffffffffffffffffffffff168152602001908152602001600020549050601d60003373ffffffffffffffffffffffffffffffffffffffff1673ffffffffffffffffffffffffffffffffffffffff1681526020019081526020016000205460036121e59190615289565b83826121f19190615289565b1115612232576040517f08c379a0000000000000000000000000000000000000000000000000000000008152600401612229906156e1565b60405180910390fd5b61223a613cc0565b506122453384613cca565b82601e60003373ffffffffffffffffffffffffffffffffffffffff1673ffffffffffffffffffffffffffffffffffffffff16815260200190815260200160002060008282546122949190615289565b92505081905550505b5b5b7fd1d3d8a67ea3222e190a25cd89ce4613287a3f3d1272268cfd5639d6bad416b333836040516122d092919061550c565b60405180910390a16122e0611aa3565b5050565b601460009054906101000a900460ff1681565b60186020528060005260406000206000915090505481565b600042905090565b60196020528060005260406000206000915090505481565b601a6020528060005260406000206000915090505481565b6060600083839050905060008167ffffffffffffffff81111561236d5761236c614d63565b5b6040519080825280602002602001820160405280156123a657816020015b612393614512565b81526020019060019003908161238b5790505b50905060005b8281146123fe576123d58686838181106123c9576123c8615389565b5b90506020020135612efd565b8282815181106123e8576123e7615389565b5b60200260200101819052508060010190506123ac565b50809250505092915050565b600060011515601660008473ffffffffffffffffffffffffffffffffffffffff1673ffffffffffffffffffffffffffffffffffffffff16815260200190815260200160002060009054906101000a900460ff1615150361246d5760019050612472565b600090505b919050565b6013818154811061248757600080fd5b906000526020600020016000915054906101000a900473ffffffffffffffffffffffffffffffffffffffff1681565b6124be61369f565b6000601460006101000a81548160ff0219169083151502179055506001601460016101000a81548160ff021916908315150217905550565b6124fe61369f565b612510612509612899565b83836114d2565b7f21425341546d2023146851fb583db9b7c6be5fed0d287293c85a8ede5193c6ea612539612899565b838360405161254a9392919061576d565b60405180910390a15050565b600061256182613b2a565b9050919050565b60098054612575906152ec565b80601f01602080910402602001604051908101604052809291908181526020018280546125a1906152ec565b80156125ee5780601f106125c3576101008083540402835291602001916125ee565b820191906000526020600020905b8154815290600101906020018083116125d157829003601f168201915b505050505081565b60008073ffffffffffffffffffffffffffffffffffffffff168273ffffffffffffffffffffffffffffffffffffffff160361265d576040517f8f4eb60400000000000000000000000000000000000000000000000000000000815260040160405180910390fd5b67ffffffffffffffff600560008473ffffffffffffffffffffffffffffffffffffffff1673ffffffffffffffffffffffffffffffffffffffff16815260200190815260200160002054169050919050565b6126b661369f565b6126c06000613ea0565b565b6060601280548060200260200160405190810160405280929190818152602001828054801561274657602002820191906000526020600020905b8160009054906101000a900473ffffffffffffffffffffffffffffffffffffffff1673ffffffffffffffffffffffffffffffffffffffff16815260200190600101908083116126fc575b5050505050905090565b60606000806000612760856125f6565b905060008167ffffffffffffffff81111561277e5761277d614d63565b5b6040519080825280602002602001820160405280156127ac5781602001602082028036833780820191505090505b5090506127b7614512565b60006127c1613b21565b90505b838614612885576127d481613f66565b9150816040015161287a57600073ffffffffffffffffffffffffffffffffffffffff16826000015173ffffffffffffffffffffffffffffffffffffffff161461281f57816000015194505b8773ffffffffffffffffffffffffffffffffffffffff168573ffffffffffffffffffffffffffffffffffffffff1603612879578083878060010198508151811061286c5761286b615389565b5b6020026020010181815250505b5b8060010190506127c4565b508195505050505050919050565b600e5481565b6000600860009054906101000a900473ffffffffffffffffffffffffffffffffffffffff16905090565b6060600380546128d2906152ec565b80601f01602080910402602001604051908101604052809291908181526020018280546128fe906152ec565b801561294b5780601f106129205761010080835404028352916020019161294b565b820191906000526020600020905b81548152906001019060200180831161292e57829003601f168201915b5050505050905090565b6060818310612990576040517f32c1995a00000000000000000000000000000000000000000000000000000000815260040160405180910390fd5b60008061299b613cc0565b90506129a5613b21565b8510156129b7576129b4613b21565b94505b808411156129c3578093505b60006129ce876125f6565b9050848610156129f15760008686039050818110156129eb578091505b506129f6565b600090505b60008167ffffffffffffffff811115612a1257612a11614d63565b5b604051908082528060200260200182016040528015612a405781602001602082028036833780820191505090505b50905060008203612a575780945050505050612b5a565b6000612a6288612efd565b905060008160400151612a7757816000015190505b60008990505b888114158015612a8d5750848714155b15612b4c57612a9b81613f66565b92508260400151612b4157600073ffffffffffffffffffffffffffffffffffffffff16836000015173ffffffffffffffffffffffffffffffffffffffff1614612ae657826000015191505b8a73ffffffffffffffffffffffffffffffffffffffff168273ffffffffffffffffffffffffffffffffffffffff1603612b405780848880600101995081518110612b3357612b32615389565b5b6020026020010181815250505b5b806001019050612a7d565b508583528296505050505050505b9392505050565b60156020528060005260406000206000915054906101000a900460ff1681565b601460019054906101000a900460ff1681565b601b6020528060005260406000206000915090505481565b601f6020528060005260406000206000915090505481565b601c6020528060005260406000206000915090505481565b8060076000612be961377c565b73ffffffffffffffffffffffffffffffffffffffff1673ffffffffffffffffffffffffffffffffffffffff16815260200190815260200160002060008473ffffffffffffffffffffffffffffffffffffffff1673ffffffffffffffffffffffffffffffffffffffff16815260200190815260200160002060006101000a81548160ff0219169083151502179055508173ffffffffffffffffffffffffffffffffffffffff16612c9661377c565b73ffffffffffffffffffffffffffffffffffffffff167f17307eab39ab6107e8899845ad3d59bd9653f200f220920489ca2b5937696c3183604051612cdb91906146d4565b60405180910390a35050565b600d5481565b601d6020528060005260406000206000915090505481565b612d108484846114d2565b60008373ffffffffffffffffffffffffffffffffffffffff163b14612d7257612d3b84848484613f91565b612d71576040517fd1a57ed600000000000000000000000000000000000000000000000000000000815260040160405180910390fd5b5b50505050565b60128181548110612d8857600080fd5b906000526020600020016000915054906101000a900473ffffffffffffffffffffffffffffffffffffffff1681565b612dbf61369f565b60005b82829050811015612edd57600160166000858585818110612de657612de5615389565b5b9050602002016020810190612dfb91906145d3565b73ffffffffffffffffffffffffffffffffffffffff1673ffffffffffffffffffffffffffffffffffffffff16815260200190815260200160002060006101000a81548160ff0219169083151502179055506002601a6000858585818110612e6557612e64615389565b5b9050602002016020810190612e7a91906145d3565b73ffffffffffffffffffffffffffffffffffffffff1673ffffffffffffffffffffffffffffffffffffffff1681526020019081526020016000206000828254612ec39190615289565b925050819055508080612ed5906153b8565b915050612dc2565b505050565b612eea61369f565b8060099081612ef99190615950565b5050565b612f05614512565b612f0d614512565b612f15613b21565b831080612f295750612f25613cc0565b8310155b15612f375780915050612f62565b612f4083613f66565b9050806040015115612f555780915050612f62565b612f5e836140e1565b9150505b919050565b6000612f71613784565b905060008151905060008351905080821015612fc2576040517f08c379a0000000000000000000000000000000000000000000000000000000008152600401612fb990615369565b60405180910390fd5b60005b81811015613081576000805b8481101561302c57858181518110612fec57612feb615389565b5b602002602001015187848151811061300757613006615389565b5b60200260200101510361301957600191505b8080613024906153b8565b915050612fd1565b508061306d576040517f08c379a000000000000000000000000000000000000000000000000000000000815260040161306490615369565b60405180910390fd5b508080613079906153b8565b915050612fc5565b5060005b8181101561311a576130b28582815181106130a3576130a2615389565b5b602002602001015160016138cf565b601f60003373ffffffffffffffffffffffffffffffffffffffff1673ffffffffffffffffffffffffffffffffffffffff1681526020019081526020016000206000815480929190613102906153b8565b91905055508080613112906153b8565b915050613085565b5050505050565b606061312c8261371d565b613162576040517fa14c4b5000000000000000000000000000000000000000000000000000000000815260040160405180910390fd5b600061316c614101565b9050600081510361318c57604051806020016040528060008152506131b7565b8061319684614193565b6040516020016131a7929190615a5e565b6040516020818303038152906040525b915050919050565b6000601f60008373ffffffffffffffffffffffffffffffffffffffff1673ffffffffffffffffffffffffffffffffffffffff168152602001908152602001600020549050919050565b61321061369f565b6132186114a3565b6107d0101561325c576040517f08c379a00000000000000000000000000000000000000000000000000000000081526004016132539061544c565b60405180910390fd5b806132656114a3565b6105dc613272919061546c565b8111156132b4576040517f08c379a00000000000000000000000000000000000000000000000000000000081526004016132ab906154ec565b60405180910390fd5b6132bc613cc0565b506132c78383613cca565b7fd1d3d8a67ea3222e190a25cd89ce4613287a3f3d1272268cfd5639d6bad416b383836040516132f892919061550c565b60405180910390a1505050565b61330d61369f565b80601f60008473ffffffffffffffffffffffffffffffffffffffff1673ffffffffffffffffffffffffffffffffffffffff16815260200190815260200160002054613358919061546c565b601f60008473ffffffffffffffffffffffffffffffffffffffff1673ffffffffffffffffffffffffffffffffffffffff168152602001908152602001600020819055505050565b6000600760008473ffffffffffffffffffffffffffffffffffffffff1673ffffffffffffffffffffffffffffffffffffffff16815260200190815260200160002060008373ffffffffffffffffffffffffffffffffffffffff1673ffffffffffffffffffffffffffffffffffffffff16815260200190815260200160002060009054906101000a900460ff16905092915050565b61343b61369f565b60005b828290508110156135d75760016015600085858581811061346257613461615389565b5b905060200201602081019061347791906145d3565b73ffffffffffffffffffffffffffffffffffffffff1673ffffffffffffffffffffffffffffffffffffffff16815260200190815260200160002060006101000a81548160ff0219169083151502179055506002601960008585858181106134e1576134e0615389565b5b90506020020160208101906134f691906145d3565b73ffffffffffffffffffffffffffffffffffffffff1673ffffffffffffffffffffffffffffffffffffffff168152602001908152602001600020600082825461353f9190615289565b925050819055506002601b600085858581811061355f5761355e615389565b5b905060200201602081019061357491906145d3565b73ffffffffffffffffffffffffffffffffffffffff1673ffffffffffffffffffffffffffffffffffffffff16815260200190815260200160002060008282546135bd9190615289565b9250508190555080806135cf906153b8565b91505061343e565b505050565b6135e461369f565b6001601460006101000a81548160ff0219169083151502179055506000601460016101000a81548160ff021916908315150217905550565b61362461369f565b600073ffffffffffffffffffffffffffffffffffffffff168173ffffffffffffffffffffffffffffffffffffffff1603613693576040517f08c379a000000000000000000000000000000000000000000000000000000000815260040161368a90615af4565b60405180910390fd5b61369c81613ea0565b50565b6136a76141e3565b73ffffffffffffffffffffffffffffffffffffffff166136c5612899565b73ffffffffffffffffffffffffffffffffffffffff161461371b576040517f08c379a000000000000000000000000000000000000000000000000000000000815260040161371290615b60565b60405180910390fd5b565b600081613728613b21565b11158015613737575060005482105b8015613775575060007c0100000000000000000000000000000000000000000000000000000000600460008581526020019081526020016000205416145b9050919050565b600033905090565b6060600060019050600080806000905061379c6114a3565b60108190555060118054905090505b808310156137ef5760118054806137c5576137c4615b80565b5b600190038181906000526020600020016000905590556001836137e89190615289565b92506137ab565b5b60105484116138755761380284612556565b91503373ffffffffffffffffffffffffffffffffffffffff168273ffffffffffffffffffffffffffffffffffffffff16036138615760118490806001815401808255809150506001900390600052602060002001600090919091909150555b60018461386e9190615289565b93506137f0565b60118054806020026020016040519081016040528092919081815260200182805480156138c157602002820191906000526020600020905b8154815260200190600101908083116138ad575b505050505094505050505090565b60006138da83613b2a565b905060008190506000806138ed86613bf6565b91509150841561395657613909818461390461377c565b613c1d565b6139555761391e8361391961377c565b61339f565b613954576040517f59c896be00000000000000000000000000000000000000000000000000000000815260040160405180910390fd5b5b5b613964836000886001613c61565b801561396f57600082555b600160806001901b03600560008573ffffffffffffffffffffffffffffffffffffffff1673ffffffffffffffffffffffffffffffffffffffff16815260200190815260200160002060008282540192505081905550613a17836139d485600088613c67565b7c02000000000000000000000000000000000000000000000000000000007c01000000000000000000000000000000000000000000000000000000001717613c8f565b600460008881526020019081526020016000208190555060007c0200000000000000000000000000000000000000000000000000000000851603613a9d5760006001870190506000600460008381526020019081526020016000205403613a9b576000548114613a9a578460046000838152602001908152602001600020819055505b5b505b85600073ffffffffffffffffffffffffffffffffffffffff168473ffffffffffffffffffffffffffffffffffffffff167fddf252ad1be2c89b69c2b068fc378daa952ba7f163c4a11628f55a4df523b3ef60405160405180910390a4613b07836000886001613cba565b600160008154809291906001019190505550505050505050565b60006001905090565b60008082905080613b39613b21565b11613bbf57600054811015613bbe5760006004600083815260200190815260200160002054905060007c0100000000000000000000000000000000000000000000000000000000821603613bbc575b60008103613bb2576004600083600190039350838152602001908152602001600020549050613b88565b8092505050613bf1565b505b5b6040517fdf2d9b4200000000000000000000000000000000000000000000000000000000815260040160405180910390fd5b919050565b60008060006006600085815260200190815260200160002090508092508254915050915091565b600073ffffffffffffffffffffffffffffffffffffffff8316925073ffffffffffffffffffffffffffffffffffffffff821691508382148383141790509392505050565b50505050565b60008060e883901c905060e8613c7e8686846141eb565b62ffffff16901b9150509392505050565b600073ffffffffffffffffffffffffffffffffffffffff83169250814260a01b178317905092915050565b50505050565b6000600a54905090565b613ce48282604051806020016040528060008152506141f4565b5050565b60011515601560008473ffffffffffffffffffffffffffffffffffffffff1673ffffffffffffffffffffffffffffffffffffffff16815260200190815260200160002060009054906101000a900460ff16151503613e9c57601b60008373ffffffffffffffffffffffffffffffffffffffff1673ffffffffffffffffffffffffffffffffffffffff16815260200190815260200160002054601960008473ffffffffffffffffffffffffffffffffffffffff1673ffffffffffffffffffffffffffffffffffffffff1681526020019081526020016000208190555080601a60008473ffffffffffffffffffffffffffffffffffffffff1673ffffffffffffffffffffffffffffffffffffffff16815260200190815260200160002054601960008573ffffffffffffffffffffffffffffffffffffffff1673ffffffffffffffffffffffffffffffffffffffff16815260200190815260200160002054613e4e9190615289565b613e58919061546c565b601960008473ffffffffffffffffffffffffffffffffffffffff1673ffffffffffffffffffffffffffffffffffffffff168152602001908152602001600020819055505b5050565b6000600860009054906101000a900473ffffffffffffffffffffffffffffffffffffffff16905081600860006101000a81548173ffffffffffffffffffffffffffffffffffffffff021916908373ffffffffffffffffffffffffffffffffffffffff1602179055508173ffffffffffffffffffffffffffffffffffffffff168173ffffffffffffffffffffffffffffffffffffffff167f8be0079c531659141344cd1fd0a4f28419497f9722a3daafe3b4186f6b6457e060405160405180910390a35050565b613f6e614512565b613f8a6004600084815260200190815260200160002054614291565b9050919050565b60008373ffffffffffffffffffffffffffffffffffffffff1663150b7a02613fb761377c565b8786866040518563ffffffff1660e01b8152600401613fd99493929190615c04565b6020604051808303816000875af192505050801561401557506040513d601f19601f820116820180604052508101906140129190615c65565b60015b61408e573d8060008114614045576040519150601f19603f3d011682016040523d82523d6000602084013e61404a565b606091505b506000815103614086576040517fd1a57ed600000000000000000000000000000000000000000000000000000000815260040160405180910390fd5b805181602001fd5b63150b7a0260e01b7bffffffffffffffffffffffffffffffffffffffffffffffffffffffff1916817bffffffffffffffffffffffffffffffffffffffffffffffffffffffff191614915050949350505050565b6140e9614512565b6140fa6140f583613b2a565b614291565b9050919050565b606060098054614110906152ec565b80601f016020809104026020016040519081016040528092919081815260200182805461413c906152ec565b80156141895780601f1061415e57610100808354040283529160200191614189565b820191906000526020600020905b81548152906001019060200180831161416c57829003601f168201915b5050505050905090565b606060a060405101806040526020810391506000825281835b6001156141ce57600184039350600a81066030018453600a81049050806141ac575b50828103602084039350808452505050919050565b600033905090565b60009392505050565b6141fe8383614347565b60008373ffffffffffffffffffffffffffffffffffffffff163b1461428c57600080549050600083820390505b61423e6000868380600101945086613f91565b614274576040517fd1a57ed600000000000000000000000000000000000000000000000000000000815260040160405180910390fd5b81811061422b57816000541461428957600080fd5b50505b505050565b614299614512565b81816000019073ffffffffffffffffffffffffffffffffffffffff16908173ffffffffffffffffffffffffffffffffffffffff168152505060a082901c816020019067ffffffffffffffff16908167ffffffffffffffff168152505060007c01000000000000000000000000000000000000000000000000000000008316141581604001901515908115158152505060e882901c816060019062ffffff16908162ffffff1681525050919050565b60008054905060008203614387576040517fb562e8dd00000000000000000000000000000000000000000000000000000000815260040160405180910390fd5b6143946000848385613c61565b600160406001901b178202600560008573ffffffffffffffffffffffffffffffffffffffff1673ffffffffffffffffffffffffffffffffffffffff1681526020019081526020016000206000828254019250508190555061440b836143fc6000866000613c67565b61440585614502565b17613c8f565b6004600083815260200190815260200160002081905550600080838301905073ffffffffffffffffffffffffffffffffffffffff85169150828260007fddf252ad1be2c89b69c2b068fc378daa952ba7f163c4a11628f55a4df523b3ef600080a4600183015b8181146144ac57808360007fddf252ad1be2c89b69c2b068fc378daa952ba7f163c4a11628f55a4df523b3ef600080a4600181019050614471565b50600082036144e7576040517f2e07630000000000000000000000000000000000000000000000000000000000815260040160405180910390fd5b8060008190555050506144fd6000848385613cba565b505050565b60006001821460e11b9050919050565b6040518060800160405280600073ffffffffffffffffffffffffffffffffffffffff168152602001600067ffffffffffffffff168152602001600015158152602001600062ffffff1681525090565b6000604051905090565b600080fd5b600080fd5b600073ffffffffffffffffffffffffffffffffffffffff82169050919050565b60006145a082614575565b9050919050565b6145b081614595565b81146145bb57600080fd5b50565b6000813590506145cd816145a7565b92915050565b6000602082840312156145e9576145e861456b565b5b60006145f7848285016145be565b91505092915050565b6000819050919050565b61461381614600565b82525050565b600060208201905061462e600083018461460a565b92915050565b60007fffffffff0000000000000000000000000000000000000000000000000000000082169050919050565b61466981614634565b811461467457600080fd5b50565b60008135905061468681614660565b92915050565b6000602082840312156146a2576146a161456b565b5b60006146b084828501614677565b91505092915050565b60008115159050919050565b6146ce816146b9565b82525050565b60006020820190506146e960008301846146c5565b92915050565b600081519050919050565b600082825260208201905092915050565b60005b8381101561472957808201518184015260208101905061470e565b60008484015250505050565b6000601f19601f8301169050919050565b6000614751826146ef565b61475b81856146fa565b935061476b81856020860161470b565b61477481614735565b840191505092915050565b600060208201905081810360008301526147998184614746565b905092915050565b6147aa81614600565b81146147b557600080fd5b50565b6000813590506147c7816147a1565b92915050565b6000602082840312156147e3576147e261456b565b5b60006147f1848285016147b8565b91505092915050565b61480381614595565b82525050565b600060208201905061481e60008301846147fa565b92915050565b6000806040838503121561483b5761483a61456b565b5b6000614849858286016145be565b925050602061485a858286016147b8565b9150509250929050565b60008060006060848603121561487d5761487c61456b565b5b600061488b868287016145be565b935050602061489c868287016145be565b92505060406148ad868287016147b8565b9150509250925092565b600081519050919050565b600082825260208201905092915050565b6000819050602082019050919050565b6148ec81614595565b82525050565b60006148fe83836148e3565b60208301905092915050565b6000602082019050919050565b6000614922826148b7565b61492c81856148c2565b9350614937836148d3565b8060005b8381101561496857815161494f88826148f2565b975061495a8361490a565b92505060018101905061493b565b5085935050505092915050565b6000602082019050818103600083015261498f8184614917565b905092915050565b600080fd5b600080fd5b600080fd5b60008083601f8401126149bc576149bb614997565b5b8235905067ffffffffffffffff8111156149d9576149d861499c565b5b6020830191508360208202830111156149f5576149f46149a1565b5b9250929050565b60008060208385031215614a1357614a1261456b565b5b600083013567ffffffffffffffff811115614a3157614a30614570565b5b614a3d858286016149a6565b92509250509250929050565b600081519050919050565b600082825260208201905092915050565b6000819050602082019050919050565b600067ffffffffffffffff82169050919050565b614a9281614a75565b82525050565b614aa1816146b9565b82525050565b600062ffffff82169050919050565b614abf81614aa7565b82525050565b608082016000820151614adb60008501826148e3565b506020820151614aee6020850182614a89565b506040820151614b016040850182614a98565b506060820151614b146060850182614ab6565b50505050565b6000614b268383614ac5565b60808301905092915050565b6000602082019050919050565b6000614b4a82614a49565b614b548185614a54565b9350614b5f83614a65565b8060005b83811015614b90578151614b778882614b1a565b9750614b8283614b32565b925050600181019050614b63565b5085935050505092915050565b60006020820190508181036000830152614bb78184614b3f565b905092915050565b600081519050919050565b600082825260208201905092915050565b6000819050602082019050919050565b614bf481614600565b82525050565b6000614c068383614beb565b60208301905092915050565b6000602082019050919050565b6000614c2a82614bbf565b614c348185614bca565b9350614c3f83614bdb565b8060005b83811015614c70578151614c578882614bfa565b9750614c6283614c12565b925050600181019050614c43565b5085935050505092915050565b60006020820190508181036000830152614c978184614c1f565b905092915050565b600080600060608486031215614cb857614cb761456b565b5b6000614cc6868287016145be565b9350506020614cd7868287016147b8565b9250506040614ce8868287016147b8565b9150509250925092565b614cfb816146b9565b8114614d0657600080fd5b50565b600081359050614d1881614cf2565b92915050565b60008060408385031215614d3557614d3461456b565b5b6000614d43858286016145be565b9250506020614d5485828601614d09565b9150509250929050565b600080fd5b7f4e487b7100000000000000000000000000000000000000000000000000000000600052604160045260246000fd5b614d9b82614735565b810181811067ffffffffffffffff82111715614dba57614db9614d63565b5b80604052505050565b6000614dcd614561565b9050614dd98282614d92565b919050565b600067ffffffffffffffff821115614df957614df8614d63565b5b614e0282614735565b9050602081019050919050565b82818337600083830152505050565b6000614e31614e2c84614dde565b614dc3565b905082815260208101848484011115614e4d57614e4c614d5e565b5b614e58848285614e0f565b509392505050565b600082601f830112614e7557614e74614997565b5b8135614e85848260208601614e1e565b91505092915050565b60008060008060808587031215614ea857614ea761456b565b5b6000614eb6878288016145be565b9450506020614ec7878288016145be565b9350506040614ed8878288016147b8565b925050606085013567ffffffffffffffff811115614ef957614ef8614570565b5b614f0587828801614e60565b91505092959194509250565b60008083601f840112614f2757614f26614997565b5b8235905067ffffffffffffffff811115614f4457614f4361499c565b5b602083019150836020820283011115614f6057614f5f6149a1565b5b9250929050565b60008060208385031215614f7e57614f7d61456b565b5b600083013567ffffffffffffffff811115614f9c57614f9b614570565b5b614fa885828601614f11565b92509250509250929050565b600067ffffffffffffffff821115614fcf57614fce614d63565b5b614fd882614735565b9050602081019050919050565b6000614ff8614ff384614fb4565b614dc3565b90508281526020810184848401111561501457615013614d5e565b5b61501f848285614e0f565b509392505050565b600082601f83011261503c5761503b614997565b5b813561504c848260208601614fe5565b91505092915050565b60006020828403121561506b5761506a61456b565b5b600082013567ffffffffffffffff81111561508957615088614570565b5b61509584828501615027565b91505092915050565b6080820160008201516150b460008501826148e3565b5060208201516150c76020850182614a89565b5060408201516150da6040850182614a98565b5060608201516150ed6060850182614ab6565b50505050565b6000608082019050615108600083018461509e565b92915050565b600067ffffffffffffffff82111561512957615128614d63565b5b602082029050602081019050919050565b600061514d6151488461510e565b614dc3565b905080838252602082019050602084028301858111156151705761516f6149a1565b5b835b81811015615199578061518588826147b8565b845260208401935050602081019050615172565b5050509392505050565b600082601f8301126151b8576151b7614997565b5b81356151c884826020860161513a565b91505092915050565b6000602082840312156151e7576151e661456b565b5b600082013567ffffffffffffffff81111561520557615204614570565b5b615211848285016151a3565b91505092915050565b600080604083850312156152315761523061456b565b5b600061523f858286016145be565b9250506020615250858286016145be565b9150509250929050565b7f4e487b7100000000000000000000000000000000000000000000000000000000600052601160045260246000fd5b600061529482614600565b915061529f83614600565b92508282019050808211156152b7576152b661525a565b5b92915050565b7f4e487b7100000000000000000000000000000000000000000000000000000000600052602260045260246000fd5b6000600282049050600182168061530457607f821691505b602082108103615317576153166152bd565b5b50919050565b7f4e4654204e6f6e73000000000000000000000000000000000000000000000000600082015250565b60006153536008836146fa565b915061535e8261531d565b602082019050919050565b6000602082019050818103600083015261538281615346565b9050919050565b7f4e487b7100000000000000000000000000000000000000000000000000000000600052603260045260246000fd5b60006153c382614600565b91507fffffffffffffffffffffffffffffffffffffffffffffffffffffffffffffffff82036153f5576153f461525a565b5b600182019050919050565b7f736f6c64206f7574000000000000000000000000000000000000000000000000600082015250565b60006154366008836146fa565b915061544182615400565b602082019050919050565b6000602082019050818103600083015261546581615429565b9050919050565b600061547782614600565b915061548283614600565b925082820390508181111561549a5761549961525a565b5b92915050565b7f4d696e7473206c65737320706c65617365000000000000000000000000000000600082015250565b60006154d66011836146fa565b91506154e1826154a0565b602082019050919050565b60006020820190508181036000830152615505816154c9565b9050919050565b600060408201905061552160008301856147fa565b61552e602083018461460a565b9392505050565b600081905092915050565b50565b6000615550600083615535565b915061555b82615540565b600082019050919050565b600061557182615543565b9150819050919050565b600061558682614600565b915061559183614600565b925082820261559f81614600565b915082820484148315176155b6576155b561525a565b5b5092915050565b7f4e6f7420656e6f756768206d6f6e657900000000000000000000000000000000600082015250565b60006155f36010836146fa565b91506155fe826155bd565b602082019050919050565b60006020820190508181036000830152615622816155e6565b9050919050565b7f75736572206973206e6f74204f47000000000000000000000000000000000000600082015250565b600061565f600e836146fa565b915061566a82615629565b602082019050919050565b6000602082019050818103600083015261568e81615652565b9050919050565b7f4d61784d696e74204f7665720000000000000000000000000000000000000000600082015250565b60006156cb600c836146fa565b91506156d682615695565b602082019050919050565b600060208201905081810360008301526156fa816156be565b9050919050565b7f75736572206973206e6f7420574c000000000000000000000000000000000000600082015250565b6000615737600e836146fa565b915061574282615701565b602082019050919050565b600060208201905081810360008301526157668161572a565b9050919050565b600060608201905061578260008301866147fa565b61578f60208301856147fa565b61579c604083018461460a565b949350505050565b60008190508160005260206000209050919050565b60006020601f8301049050919050565b600082821b905092915050565b6000600883026158067fffffffffffffffffffffffffffffffffffffffffffffffffffffffffffffffff826157c9565b61581086836157c9565b95508019841693508086168417925050509392505050565b6000819050919050565b600061584d61584861584384614600565b615828565b614600565b9050919050565b6000819050919050565b61586783615832565b61587b61587382615854565b8484546157d6565b825550505050565b600090565b615890615883565b61589b81848461585e565b505050565b5b818110156158bf576158b4600082615888565b6001810190506158a1565b5050565b601f821115615904576158d5816157a4565b6158de846157b9565b810160208510156158ed578190505b6159016158f9856157b9565b8301826158a0565b50505b505050565b600082821c905092915050565b600061592760001984600802615909565b1980831691505092915050565b60006159408383615916565b9150826002028217905092915050565b615959826146ef565b67ffffffffffffffff81111561597257615971614d63565b5b61597c82546152ec565b6159878282856158c3565b600060209050601f8311600181146159ba57600084156159a8578287015190505b6159b28582615934565b865550615a1a565b601f1984166159c8866157a4565b60005b828110156159f0578489015182556001820191506020850194506020810190506159cb565b86831015615a0d5784890151615a09601f891682615916565b8355505b6001600288020188555050505b505050505050565b600081905092915050565b6000615a38826146ef565b615a428185615a22565b9350615a5281856020860161470b565b80840191505092915050565b6000615a6a8285615a2d565b9150615a768284615a2d565b91508190509392505050565b7f4f776e61626c653a206e6577206f776e657220697320746865207a65726f206160008201527f6464726573730000000000000000000000000000000000000000000000000000602082015250565b6000615ade6026836146fa565b9150615ae982615a82565b604082019050919050565b60006020820190508181036000830152615b0d81615ad1565b9050919050565b7f4f776e61626c653a2063616c6c6572206973206e6f7420746865206f776e6572600082015250565b6000615b4a6020836146fa565b9150615b5582615b14565b602082019050919050565b60006020820190508181036000830152615b7981615b3d565b9050919050565b7f4e487b7100000000000000000000000000000000000000000000000000000000600052603160045260246000fd5b600081519050919050565b600082825260208201905092915050565b6000615bd682615baf565b615be08185615bba565b9350615bf081856020860161470b565b615bf981614735565b840191505092915050565b6000608082019050615c1960008301876147fa565b615c2660208301866147fa565b615c33604083018561460a565b8181036060830152615c458184615bcb565b905095945050505050565b600081519050615c5f81614660565b92915050565b600060208284031215615c7b57615c7a61456b565b5b6000615c8984828501615c50565b9150509291505056fea2646970667358221220aad83ee49ada3602016827c161d31aa5e84799e7284f035737870f044ebdf00064736f6c63430008110033697066733a2f2f6261667962656964636c726e6f6771767470326168667934747134746736786a377936617862376e673475617661706273716a6d3479736d3665612f6d65746164617461",
  "linkReferences": {},
  "deployedLinkReferences": {}
}