{
  "_format": "hh-sol-artifact-1",
  "contractName": "Tabenomics",
  "sourceName": "contracts/Tabenomics.sol",
  "abi": [
    {
      "inputs": [],
      "stateMutability": "nonpayable",
      "type": "constructor"
    },
    {
      "inputs": [],
      "name": "ApprovalCallerNotOwnerNorApproved",
      "type": "error"
    },
    {
      "inputs": [],
      "name": "ApprovalQueryForNonexistentToken",
      "type": "error"
    },
    {
      "inputs": [],
      "name": "BalanceQueryForZeroAddress",
      "type": "error"
    },
    {
      "inputs": [],
      "name": "InvalidQueryRange",
      "type": "error"
    },
    {
      "inputs": [],
      "name": "MintERC2309QuantityExceedsLimit",
      "type": "error"
    },
    {
      "inputs": [],
      "name": "MintToZeroAddress",
      "type": "error"
    },
    {
      "inputs": [],
      "name": "MintZeroQuantity",
      "type": "error"
    },
    {
      "inputs": [],
      "name": "OwnerQueryForNonexistentToken",
      "type": "error"
    },
    {
      "inputs": [],
      "name": "OwnershipNotInitializedForExtraData",
      "type": "error"
    },
    {
      "inputs": [],
      "name": "TransferCallerNotOwnerNorApproved",
      "type": "error"
    },
    {
      "inputs": [],
      "name": "TransferFromIncorrectOwner",
      "type": "error"
    },
    {
      "inputs": [],
      "name": "TransferToNonERC721ReceiverImplementer",
      "type": "error"
    },
    {
      "inputs": [],
      "name": "TransferToZeroAddress",
      "type": "error"
    },
    {
      "inputs": [],
      "name": "URIQueryForNonexistentToken",
      "type": "error"
    },
    {
      "anonymous": false,
      "inputs": [
        {
          "indexed": true,
          "internalType": "address",
          "name": "owner",
          "type": "address"
        },
        {
          "indexed": true,
          "internalType": "address",
          "name": "approved",
          "type": "address"
        },
        {
          "indexed": true,
          "internalType": "uint256",
          "name": "tokenId",
          "type": "uint256"
        }
      ],
      "name": "Approval",
      "type": "event"
    },
    {
      "anonymous": false,
      "inputs": [
        {
          "indexed": true,
          "internalType": "address",
          "name": "owner",
          "type": "address"
        },
        {
          "indexed": true,
          "internalType": "address",
          "name": "operator",
          "type": "address"
        },
        {
          "indexed": false,
          "internalType": "bool",
          "name": "approved",
          "type": "bool"
        }
      ],
      "name": "ApprovalForAll",
      "type": "event"
    },
    {
      "anonymous": false,
      "inputs": [
        {
          "indexed": true,
          "internalType": "uint256",
          "name": "fromTokenId",
          "type": "uint256"
        },
        {
          "indexed": false,
          "internalType": "uint256",
          "name": "toTokenId",
          "type": "uint256"
        },
        {
          "indexed": true,
          "internalType": "address",
          "name": "from",
          "type": "address"
        },
        {
          "indexed": true,
          "internalType": "address",
          "name": "to",
          "type": "address"
        }
      ],
      "name": "ConsecutiveTransfer",
      "type": "event"
    },
    {
      "anonymous": false,
      "inputs": [
        {
          "indexed": false,
          "internalType": "address",
          "name": "to",
          "type": "address"
        },
        {
          "indexed": false,
          "internalType": "uint256",
          "name": "quantity",
          "type": "uint256"
        }
      ],
      "name": "MintLog",
      "type": "event"
    },
    {
      "anonymous": false,
      "inputs": [
        {
          "indexed": true,
          "internalType": "address",
          "name": "previousOwner",
          "type": "address"
        },
        {
          "indexed": true,
          "internalType": "address",
          "name": "newOwner",
          "type": "address"
        }
      ],
      "name": "OwnershipTransferred",
      "type": "event"
    },
    {
      "anonymous": false,
      "inputs": [
        {
          "indexed": false,
          "internalType": "address",
          "name": "from",
          "type": "address"
        },
        {
          "indexed": false,
          "internalType": "address",
          "name": "receiver",
          "type": "address"
        },
        {
          "indexed": false,
          "internalType": "uint256",
          "name": "amount",
          "type": "uint256"
        }
      ],
      "name": "TokenTransfer",
      "type": "event"
    },
    {
      "anonymous": false,
      "inputs": [
        {
          "indexed": true,
          "internalType": "address",
          "name": "from",
          "type": "address"
        },
        {
          "indexed": true,
          "internalType": "address",
          "name": "to",
          "type": "address"
        },
        {
          "indexed": true,
          "internalType": "uint256",
          "name": "tokenId",
          "type": "uint256"
        }
      ],
      "name": "Transfer",
      "type": "event"
    },
    {
      "anonymous": false,
      "inputs": [
        {
          "indexed": false,
          "internalType": "address",
          "name": "from",
          "type": "address"
        },
        {
          "indexed": false,
          "internalType": "address",
          "name": "to",
          "type": "address"
        },
        {
          "indexed": false,
          "internalType": "uint256",
          "name": "tokenId",
          "type": "uint256"
        }
      ],
      "name": "TransferLog",
      "type": "event"
    },
    {
      "inputs": [],
      "name": "FirstSale",
      "outputs": [],
      "stateMutability": "nonpayable",
      "type": "function"
    },
    {
      "inputs": [
        {
          "internalType": "address",
          "name": "_to",
          "type": "address"
        },
        {
          "internalType": "uint256",
          "name": "quantity",
          "type": "uint256"
        }
      ],
      "name": "MintOwnerToCredit",
      "outputs": [],
      "stateMutability": "nonpayable",
      "type": "function"
    },
    {
      "inputs": [
        {
          "internalType": "address",
          "name": "_to",
          "type": "address"
        },
        {
          "internalType": "uint256",
          "name": "quantity",
          "type": "uint256"
        }
      ],
      "name": "MintOwnerToGive",
      "outputs": [],
      "stateMutability": "nonpayable",
      "type": "function"
    },
    {
      "inputs": [
        {
          "internalType": "uint256",
          "name": "quantity",
          "type": "uint256"
        }
      ],
      "name": "MintUser",
      "outputs": [],
      "stateMutability": "payable",
      "type": "function"
    },
    {
      "inputs": [],
      "name": "NomalSale",
      "outputs": [],
      "stateMutability": "nonpayable",
      "type": "function"
    },
    {
      "inputs": [
        {
          "internalType": "address",
          "name": "to",
          "type": "address"
        },
        {
          "internalType": "uint256",
          "name": "tokenId",
          "type": "uint256"
        }
      ],
      "name": "OwnerTransfer",
      "outputs": [],
      "stateMutability": "nonpayable",
      "type": "function"
    },
    {
      "inputs": [],
      "name": "SecondSale",
      "outputs": [],
      "stateMutability": "nonpayable",
      "type": "function"
    },
    {
      "inputs": [
        {
          "internalType": "uint256",
          "name": "quantity",
          "type": "uint256"
        }
      ],
      "name": "UserBurn",
      "outputs": [],
      "stateMutability": "nonpayable",
      "type": "function"
    },
    {
      "inputs": [
        {
          "internalType": "address",
          "name": "",
          "type": "address"
        }
      ],
      "name": "UserBurnBalance",
      "outputs": [
        {
          "internalType": "uint256",
          "name": "",
          "type": "uint256"
        }
      ],
      "stateMutability": "view",
      "type": "function"
    },
    {
      "inputs": [
        {
          "internalType": "address",
          "name": "to",
          "type": "address"
        },
        {
          "internalType": "uint256",
          "name": "quantity",
          "type": "uint256"
        }
      ],
      "name": "UserBurnReset",
      "outputs": [],
      "stateMutability": "nonpayable",
      "type": "function"
    },
    {
      "inputs": [
        {
          "internalType": "uint256[]",
          "name": "quantity",
          "type": "uint256[]"
        }
      ],
      "name": "UserBurnSelect",
      "outputs": [],
      "stateMutability": "nonpayable",
      "type": "function"
    },
    {
      "inputs": [
        {
          "internalType": "address",
          "name": "to",
          "type": "address"
        }
      ],
      "name": "UserBurnView",
      "outputs": [
        {
          "internalType": "uint256",
          "name": "",
          "type": "uint256"
        }
      ],
      "stateMutability": "view",
      "type": "function"
    },
    {
      "inputs": [
        {
          "internalType": "address",
          "name": "",
          "type": "address"
        }
      ],
      "name": "WhitelistAddressMaxmint",
      "outputs": [
        {
          "internalType": "uint256",
          "name": "",
          "type": "uint256"
        }
      ],
      "stateMutability": "view",
      "type": "function"
    },
    {
      "inputs": [
        {
          "internalType": "address",
          "name": "",
          "type": "address"
        }
      ],
      "name": "WhitelistAddressMintedBalance",
      "outputs": [
        {
          "internalType": "uint256",
          "name": "",
          "type": "uint256"
        }
      ],
      "stateMutability": "view",
      "type": "function"
    },
    {
      "inputs": [
        {
          "internalType": "address",
          "name": "",
          "type": "address"
        }
      ],
      "name": "addressMintedBalance",
      "outputs": [
        {
          "internalType": "uint256",
          "name": "",
          "type": "uint256"
        }
      ],
      "stateMutability": "view",
      "type": "function"
    },
    {
      "inputs": [
        {
          "internalType": "address",
          "name": "to",
          "type": "address"
        },
        {
          "internalType": "uint256",
          "name": "tokenId",
          "type": "uint256"
        }
      ],
      "name": "approve",
      "outputs": [],
      "stateMutability": "payable",
      "type": "function"
    },
    {
      "inputs": [
        {
          "internalType": "address",
          "name": "owner",
          "type": "address"
        }
      ],
      "name": "balanceOf",
      "outputs": [
        {
          "internalType": "uint256",
          "name": "",
          "type": "uint256"
        }
      ],
      "stateMutability": "view",
      "type": "function"
    },
    {
      "inputs": [],
      "name": "baseURI",
      "outputs": [
        {
          "internalType": "string",
          "name": "",
          "type": "string"
        }
      ],
      "stateMutability": "view",
      "type": "function"
    },
    {
      "inputs": [
        {
          "internalType": "uint256",
          "name": "tokenId",
          "type": "uint256"
        }
      ],
      "name": "burn",
      "outputs": [],
      "stateMutability": "nonpayable",
      "type": "function"
    },
    {
      "inputs": [
        {
          "internalType": "address",
          "name": "_user",
          "type": "address"
        }
      ],
      "name": "checker",
      "outputs": [
        {
          "internalType": "uint256",
          "name": "",
          "type": "uint256"
        }
      ],
      "stateMutability": "view",
      "type": "function"
    },
    {
      "inputs": [
        {
          "internalType": "string",
          "name": "uri",
          "type": "string"
        }
      ],
      "name": "chngebaseURI",
      "outputs": [],
      "stateMutability": "nonpayable",
      "type": "function"
    },
    {
      "inputs": [
        {
          "internalType": "address",
          "name": "",
          "type": "address"
        }
      ],
      "name": "confirmWhitelistAddressMaxmint",
      "outputs": [
        {
          "internalType": "uint256",
          "name": "",
          "type": "uint256"
        }
      ],
      "stateMutability": "view",
      "type": "function"
    },
    {
      "inputs": [
        {
          "internalType": "address",
          "name": "",
          "type": "address"
        }
      ],
      "name": "confirmWhitelistAddressMintedBalance",
      "outputs": [
        {
          "internalType": "uint256",
          "name": "",
          "type": "uint256"
        }
      ],
      "stateMutability": "view",
      "type": "function"
    },
    {
      "inputs": [
        {
          "internalType": "address",
          "name": "",
          "type": "address"
        }
      ],
      "name": "confirmWhitelistAddressRemainingmint",
      "outputs": [
        {
          "internalType": "uint256",
          "name": "",
          "type": "uint256"
        }
      ],
      "stateMutability": "view",
      "type": "function"
    },
    {
      "inputs": [
        {
          "internalType": "address",
          "name": "_user",
          "type": "address"
        }
      ],
      "name": "confirmisWhitelisted",
      "outputs": [
        {
          "internalType": "bool",
          "name": "",
          "type": "bool"
        }
      ],
      "stateMutability": "view",
      "type": "function"
    },
    {
      "inputs": [
        {
          "internalType": "address[]",
          "name": "_users",
          "type": "address[]"
        }
      ],
      "name": "confirmwhitelistUsers",
      "outputs": [],
      "stateMutability": "nonpayable",
      "type": "function"
    },
    {
      "inputs": [
        {
          "internalType": "uint256",
          "name": "",
          "type": "uint256"
        }
      ],
      "name": "confirmwhitelistedAddresses",
      "outputs": [
        {
          "internalType": "address",
          "name": "",
          "type": "address"
        }
      ],
      "stateMutability": "view",
      "type": "function"
    },
    {
      "inputs": [
        {
          "internalType": "uint256",
          "name": "tokenId",
          "type": "uint256"
        }
      ],
      "name": "explicitOwnershipOf",
      "outputs": [
        {
          "components": [
            {
              "internalType": "address",
              "name": "addr",
              "type": "address"
            },
            {
              "internalType": "uint64",
              "name": "startTimestamp",
              "type": "uint64"
            },
            {
              "internalType": "bool",
              "name": "burned",
              "type": "bool"
            },
            {
              "internalType": "uint24",
              "name": "extraData",
              "type": "uint24"
            }
          ],
          "internalType": "struct IERC721A.TokenOwnership",
          "name": "",
          "type": "tuple"
        }
      ],
      "stateMutability": "view",
      "type": "function"
    },
    {
      "inputs": [
        {
          "internalType": "uint256[]",
          "name": "tokenIds",
          "type": "uint256[]"
        }
      ],
      "name": "explicitOwnershipsOf",
      "outputs": [
        {
          "components": [
            {
              "internalType": "address",
              "name": "addr",
              "type": "address"
            },
            {
              "internalType": "uint64",
              "name": "startTimestamp",
              "type": "uint64"
            },
            {
              "internalType": "bool",
              "name": "burned",
              "type": "bool"
            },
            {
              "internalType": "uint24",
              "name": "extraData",
              "type": "uint24"
            }
          ],
          "internalType": "struct IERC721A.TokenOwnership[]",
          "name": "",
          "type": "tuple[]"
        }
      ],
      "stateMutability": "view",
      "type": "function"
    },
    {
      "inputs": [
        {
          "internalType": "uint256",
          "name": "tokenId",
          "type": "uint256"
        }
      ],
      "name": "getApproved",
      "outputs": [
        {
          "internalType": "address",
          "name": "",
          "type": "address"
        }
      ],
      "stateMutability": "view",
      "type": "function"
    },
    {
      "inputs": [],
      "name": "getBalance",
      "outputs": [
        {
          "internalType": "uint256",
          "name": "",
          "type": "uint256"
        }
      ],
      "stateMutability": "view",
      "type": "function"
    },
    {
      "inputs": [],
      "name": "getTime",
      "outputs": [
        {
          "internalType": "uint256",
          "name": "",
          "type": "uint256"
        }
      ],
      "stateMutability": "view",
      "type": "function"
    },
    {
      "inputs": [
        {
          "internalType": "address",
          "name": "owner",
          "type": "address"
        },
        {
          "internalType": "address",
          "name": "operator",
          "type": "address"
        }
      ],
      "name": "isApprovedForAll",
      "outputs": [
        {
          "internalType": "bool",
          "name": "",
          "type": "bool"
        }
      ],
      "stateMutability": "view",
      "type": "function"
    },
    {
      "inputs": [
        {
          "internalType": "address",
          "name": "_user",
          "type": "address"
        }
      ],
      "name": "isWhitelisted",
      "outputs": [
        {
          "internalType": "bool",
          "name": "",
          "type": "bool"
        }
      ],
      "stateMutability": "view",
      "type": "function"
    },
    {
      "inputs": [
        {
          "internalType": "address",
          "name": "_user",
          "type": "address"
        }
      ],
      "name": "isWhitelistedonly",
      "outputs": [
        {
          "internalType": "bool",
          "name": "",
          "type": "bool"
        }
      ],
      "stateMutability": "view",
      "type": "function"
    },
    {
      "inputs": [],
      "name": "name",
      "outputs": [
        {
          "internalType": "string",
          "name": "",
          "type": "string"
        }
      ],
      "stateMutability": "view",
      "type": "function"
    },
    {
      "inputs": [],
      "name": "onlyWhitelisted",
      "outputs": [
        {
          "internalType": "bool",
          "name": "",
          "type": "bool"
        }
      ],
      "stateMutability": "view",
      "type": "function"
    },
    {
      "inputs": [],
      "name": "onlyconfirmWhitelisted",
      "outputs": [
        {
          "internalType": "bool",
          "name": "",
          "type": "bool"
        }
      ],
      "stateMutability": "view",
      "type": "function"
    },
    {
      "inputs": [],
      "name": "owner",
      "outputs": [
        {
          "internalType": "address",
          "name": "",
          "type": "address"
        }
      ],
      "stateMutability": "view",
      "type": "function"
    },
    {
      "inputs": [
        {
          "internalType": "uint256",
          "name": "tokenId",
          "type": "uint256"
        }
      ],
      "name": "ownerOf",
      "outputs": [
        {
          "internalType": "address",
          "name": "",
          "type": "address"
        }
      ],
      "stateMutability": "view",
      "type": "function"
    },
    {
      "inputs": [],
      "name": "renounceOwnership",
      "outputs": [],
      "stateMutability": "nonpayable",
      "type": "function"
    },
    {
      "inputs": [
        {
          "internalType": "address",
          "name": "from",
          "type": "address"
        },
        {
          "internalType": "address",
          "name": "to",
          "type": "address"
        },
        {
          "internalType": "uint256",
          "name": "tokenId",
          "type": "uint256"
        }
      ],
      "name": "safeTransferFrom",
      "outputs": [],
      "stateMutability": "payable",
      "type": "function"
    },
    {
      "inputs": [
        {
          "internalType": "address",
          "name": "from",
          "type": "address"
        },
        {
          "internalType": "address",
          "name": "to",
          "type": "address"
        },
        {
          "internalType": "uint256",
          "name": "tokenId",
          "type": "uint256"
        },
        {
          "internalType": "bytes",
          "name": "_data",
          "type": "bytes"
        }
      ],
      "name": "safeTransferFrom",
      "outputs": [],
      "stateMutability": "payable",
      "type": "function"
    },
    {
      "inputs": [],
      "name": "saleFinish",
      "outputs": [
        {
          "internalType": "uint256",
          "name": "",
          "type": "uint256"
        }
      ],
      "stateMutability": "view",
      "type": "function"
    },
    {
      "inputs": [],
      "name": "saleStartTime1st",
      "outputs": [
        {
          "internalType": "uint256",
          "name": "",
          "type": "uint256"
        }
      ],
      "stateMutability": "view",
      "type": "function"
    },
    {
      "inputs": [],
      "name": "saleStartTime2nd",
      "outputs": [
        {
          "internalType": "uint256",
          "name": "",
          "type": "uint256"
        }
      ],
      "stateMutability": "view",
      "type": "function"
    },
    {
      "inputs": [],
      "name": "saleStartTimePublic",
      "outputs": [
        {
          "internalType": "uint256",
          "name": "",
          "type": "uint256"
        }
      ],
      "stateMutability": "view",
      "type": "function"
    },
    {
      "inputs": [
        {
          "internalType": "address",
          "name": "operator",
          "type": "address"
        },
        {
          "internalType": "bool",
          "name": "approved",
          "type": "bool"
        }
      ],
      "name": "setApprovalForAll",
      "outputs": [],
      "stateMutability": "nonpayable",
      "type": "function"
    },
    {
      "inputs": [
        {
          "internalType": "bytes4",
          "name": "interfaceId",
          "type": "bytes4"
        }
      ],
      "name": "supportsInterface",
      "outputs": [
        {
          "internalType": "bool",
          "name": "",
          "type": "bool"
        }
      ],
      "stateMutability": "view",
      "type": "function"
    },
    {
      "inputs": [],
      "name": "symbol",
      "outputs": [
        {
          "internalType": "string",
          "name": "",
          "type": "string"
        }
      ],
      "stateMutability": "view",
      "type": "function"
    },
    {
      "inputs": [
        {
          "internalType": "uint256",
          "name": "tokenId",
          "type": "uint256"
        }
      ],
      "name": "tokenURI",
      "outputs": [
        {
          "internalType": "string",
          "name": "",
          "type": "string"
        }
      ],
      "stateMutability": "view",
      "type": "function"
    },
    {
      "inputs": [
        {
          "internalType": "address",
          "name": "owner",
          "type": "address"
        }
      ],
      "name": "tokensOfOwner",
      "outputs": [
        {
          "internalType": "uint256[]",
          "name": "",
          "type": "uint256[]"
        }
      ],
      "stateMutability": "view",
      "type": "function"
    },
    {
      "inputs": [
        {
          "internalType": "address",
          "name": "owner",
          "type": "address"
        },
        {
          "internalType": "uint256",
          "name": "start",
          "type": "uint256"
        },
        {
          "internalType": "uint256",
          "name": "stop",
          "type": "uint256"
        }
      ],
      "name": "tokensOfOwnerIn",
      "outputs": [
        {
          "internalType": "uint256[]",
          "name": "",
          "type": "uint256[]"
        }
      ],
      "stateMutability": "view",
      "type": "function"
    },
    {
      "inputs": [],
      "name": "totalSupply",
      "outputs": [
        {
          "internalType": "uint256",
          "name": "",
          "type": "uint256"
        }
      ],
      "stateMutability": "view",
      "type": "function"
    },
    {
      "inputs": [
        {
          "internalType": "address",
          "name": "from",
          "type": "address"
        },
        {
          "internalType": "address",
          "name": "to",
          "type": "address"
        },
        {
          "internalType": "uint256",
          "name": "tokenId",
          "type": "uint256"
        }
      ],
      "name": "transferFrom",
      "outputs": [],
      "stateMutability": "payable",
      "type": "function"
    },
    {
      "inputs": [
        {
          "internalType": "address",
          "name": "newOwner",
          "type": "address"
        }
      ],
      "name": "transferOwnership",
      "outputs": [],
      "stateMutability": "nonpayable",
      "type": "function"
    },
    {
      "inputs": [],
      "name": "viewOGaddress",
      "outputs": [
        {
          "internalType": "address[]",
          "name": "",
          "type": "address[]"
        }
      ],
      "stateMutability": "view",
      "type": "function"
    },
    {
      "inputs": [],
      "name": "viewWLaddress",
      "outputs": [
        {
          "internalType": "address[]",
          "name": "",
          "type": "address[]"
        }
      ],
      "stateMutability": "view",
      "type": "function"
    },
    {
      "inputs": [
        {
          "internalType": "address[]",
          "name": "_users",
          "type": "address[]"
        }
      ],
      "name": "whitelistUsers",
      "outputs": [],
      "stateMutability": "nonpayable",
      "type": "function"
    },
    {
      "inputs": [
        {
          "internalType": "uint256",
          "name": "",
          "type": "uint256"
        }
      ],
      "name": "whitelistedAddresses",
      "outputs": [
        {
          "internalType": "address",
          "name": "",
          "type": "address"
        }
      ],
      "stateMutability": "view",
      "type": "function"
    },
    {
      "inputs": [],
      "name": "withdraw",
      "outputs": [],
      "stateMutability": "payable",
      "type": "function"
    }
  ],
  "bytecode": "0x60806040526040518060800160405280604b8152602001620062f1604b9139600990816200002e9190620004bc565b506000600a556000600b556363fddeb0600c556363fde5b8600d556363fe08e0600e556363ff5a60600f556000601460006101000a81548160ff0219169083151502179055506000601460016101000a81548160ff0219169083151502179055503480156200009c57600080fd5b506040518060400160405280600a81526020017f546162656e6f6d696373000000000000000000000000000000000000000000008152506040518060400160405280600381526020017f54424d000000000000000000000000000000000000000000000000000000000081525081600290816200011a9190620004bc565b5080600390816200012c9190620004bc565b506200013d6200016b60201b60201c565b600081905550505062000165620001596200017460201b60201c565b6200017c60201b60201c565b620005a3565b60006001905090565b600033905090565b6000600860009054906101000a900473ffffffffffffffffffffffffffffffffffffffff16905081600860006101000a81548173ffffffffffffffffffffffffffffffffffffffff021916908373ffffffffffffffffffffffffffffffffffffffff1602179055508173ffffffffffffffffffffffffffffffffffffffff168173ffffffffffffffffffffffffffffffffffffffff167f8be0079c531659141344cd1fd0a4f28419497f9722a3daafe3b4186f6b6457e060405160405180910390a35050565b600081519050919050565b7f4e487b7100000000000000000000000000000000000000000000000000000000600052604160045260246000fd5b7f4e487b7100000000000000000000000000000000000000000000000000000000600052602260045260246000fd5b60006002820490506001821680620002c457607f821691505b602082108103620002da57620002d96200027c565b5b50919050565b60008190508160005260206000209050919050565b60006020601f8301049050919050565b600082821b905092915050565b600060088302620003447fffffffffffffffffffffffffffffffffffffffffffffffffffffffffffffffff8262000305565b62000350868362000305565b95508019841693508086168417925050509392505050565b6000819050919050565b6000819050919050565b60006200039d62000397620003918462000368565b62000372565b62000368565b9050919050565b6000819050919050565b620003b9836200037c565b620003d1620003c882620003a4565b84845462000312565b825550505050565b600090565b620003e8620003d9565b620003f5818484620003ae565b505050565b5b818110156200041d5762000411600082620003de565b600181019050620003fb565b5050565b601f8211156200046c576200043681620002e0565b6200044184620002f5565b8101602085101562000451578190505b620004696200046085620002f5565b830182620003fa565b50505b505050565b600082821c905092915050565b6000620004916000198460080262000471565b1980831691505092915050565b6000620004ac83836200047e565b9150826002028217905092915050565b620004c78262000242565b67ffffffffffffffff811115620004e357620004e26200024d565b5b620004ef8254620002ab565b620004fc82828562000421565b600060209050601f8311600181146200053457600084156200051f578287015190505b6200052b85826200049e565b8655506200059b565b601f1984166200054486620002e0565b60005b828110156200056e5784890151825560018201915060208501945060208101905062000547565b868310156200058e57848901516200058a601f8916826200047e565b8355505b6001600288020188555050505b505050505050565b615d3e80620005b36000396000f3fe6080604052600436106103a25760003560e01c80635f13341e116101e7578063a22cb4651161010d578063c87b56dd116100a0578063e985e9c51161006f578063e985e9c514610e1c578063edec5f2714610e59578063f1553e9914610e82578063f2fde38b14610e99576103a2565b8063c87b56dd14610d50578063ce9ea7a014610d8d578063dc8924e314610dca578063e0505b4a14610df3576103a2565b8063bf33fe07116100dc578063bf33fe0714610c98578063c03516c314610cc1578063c23dc68f14610cea578063c6992d8f14610d27576103a2565b8063a22cb46514610beb578063b3e8c8d214610c14578063b88d4fde14610c3f578063ba4e5c4914610c5b576103a2565b80638462151c1161018557806399a2557a1161015457806399a2557a14610b095780639c70b51214610b465780639ecc40a814610b715780639fe93e5314610bae576103a2565b80638462151c14610a4b5780638520593314610a885780638da5cb5b14610ab357806395d89b4114610ade576103a2565b80636c0360eb116101c15780636c0360eb146109a157806370a08231146109cc578063715018a614610a095780637c5ba23514610a20576103a2565b80635f13341e14610924578063602fb1291461093b5780636352211e14610964576103a2565b8063369ae7e5116102cc5780634b45e87a1161026a5780635a650257116102395780635a650257146108305780635bbb21771461086d5780635dec6b17146108aa5780635e5c78a4146108e7576103a2565b80634b45e87a1461074e57806350f046641461078b578063557ed1ba146107c85780635778742b146107f3576103a2565b806342842e0e116102a657806342842e0e146106c257806342966c68146106de57806344d27c7314610707578063483baa5714610723576103a2565b8063369ae7e5146106505780633af32abf1461067b5780633ccfd60b146106b8576103a2565b80630bbd35111161034457806318cae2691161031357806318cae269146105a357806323b872dd146105e057806329283019146105fc5780632ccfc6b614610625576103a2565b80630bbd3511146104f957806310c08c981461052457806312065fe01461054d57806318160ddd14610578576103a2565b806306fdde031161038057806306fdde0314610438578063081812fc1461046357806308b28fa3146104a0578063095ea7b3146104dd576103a2565b8063016c683c146103a757806301ffc9a7146103e45780630521c6f014610421575b600080fd5b3480156103b357600080fd5b506103ce60048036038101906103c99190614649565b610ec2565b6040516103db919061468f565b60405180910390f35b3480156103f057600080fd5b5061040b60048036038101906104069190614702565b610f78565b604051610418919061474a565b60405180910390f35b34801561042d57600080fd5b5061043661100a565b005b34801561044457600080fd5b5061044d61104a565b60405161045a91906147f5565b60405180910390f35b34801561046f57600080fd5b5061048a60048036038101906104859190614843565b6110dc565b604051610497919061487f565b60405180910390f35b3480156104ac57600080fd5b506104c760048036038101906104c29190614649565b61115b565b6040516104d4919061468f565b60405180910390f35b6104f760048036038101906104f2919061489a565b611173565b005b34801561050557600080fd5b5061050e6112b7565b60405161051b919061468f565b60405180910390f35b34801561053057600080fd5b5061054b60048036038101906105469190614843565b6112bd565b005b34801561055957600080fd5b506105626113b1565b60405161056f919061468f565b60405180910390f35b34801561058457600080fd5b5061058d6113d0565b60405161059a919061468f565b60405180910390f35b3480156105af57600080fd5b506105ca60048036038101906105c59190614649565b6113e7565b6040516105d7919061468f565b60405180910390f35b6105fa60048036038101906105f591906148da565b6113ff565b005b34801561060857600080fd5b50610623600480360381019061061e919061489a565b611721565b005b34801561063157600080fd5b5061063a6118af565b60405161064791906149eb565b60405180910390f35b34801561065c57600080fd5b5061066561193d565b604051610672919061468f565b60405180910390f35b34801561068757600080fd5b506106a2600480360381019061069d9190614649565b611943565b6040516106af919061474a565b60405180910390f35b6106c0611a66565b005b6106dc60048036038101906106d791906148da565b611ae6565b005b3480156106ea57600080fd5b5061070560048036038101906107009190614843565b611b06565b005b610721600480360381019061071c9190614843565b611b14565b005b34801561072f57600080fd5b50610738612279565b604051610745919061474a565b60405180910390f35b34801561075a57600080fd5b5061077560048036038101906107709190614649565b61228c565b604051610782919061474a565b60405180910390f35b34801561079757600080fd5b506107b260048036038101906107ad9190614649565b61233a565b6040516107bf919061468f565b60405180910390f35b3480156107d457600080fd5b506107dd612352565b6040516107ea919061468f565b60405180910390f35b3480156107ff57600080fd5b5061081a60048036038101906108159190614649565b61235a565b604051610827919061468f565b60405180910390f35b34801561083c57600080fd5b5061085760048036038101906108529190614649565b612372565b604051610864919061468f565b60405180910390f35b34801561087957600080fd5b50610894600480360381019061088f9190614a72565b61238a565b6040516108a19190614c13565b60405180910390f35b3480156108b657600080fd5b506108d160048036038101906108cc9190614649565b61244d565b6040516108de919061474a565b60405180910390f35b3480156108f357600080fd5b5061090e60048036038101906109099190614843565b6124fb565b60405161091b919061487f565b60405180910390f35b34801561093057600080fd5b5061093961253a565b005b34801561094757600080fd5b50610962600480360381019061095d919061489a565b61257a565b005b34801561097057600080fd5b5061098b60048036038101906109869190614843565b6125da565b604051610998919061487f565b60405180910390f35b3480156109ad57600080fd5b506109b66125ec565b6040516109c391906147f5565b60405180910390f35b3480156109d857600080fd5b506109f360048036038101906109ee9190614649565b61267a565b604051610a00919061468f565b60405180910390f35b348015610a1557600080fd5b50610a1e612732565b005b348015610a2c57600080fd5b50610a35612746565b604051610a4291906149eb565b60405180910390f35b348015610a5757600080fd5b50610a726004803603810190610a6d9190614649565b6127d4565b604051610a7f9190614cf3565b60405180910390f35b348015610a9457600080fd5b50610a9d612917565b604051610aaa919061468f565b60405180910390f35b348015610abf57600080fd5b50610ac861291d565b604051610ad5919061487f565b60405180910390f35b348015610aea57600080fd5b50610af3612947565b604051610b0091906147f5565b60405180910390f35b348015610b1557600080fd5b50610b306004803603810190610b2b9190614d15565b6129d9565b604051610b3d9190614cf3565b60405180910390f35b348015610b5257600080fd5b50610b5b612be5565b604051610b68919061474a565b60405180910390f35b348015610b7d57600080fd5b50610b986004803603810190610b939190614649565b612bf8565b604051610ba5919061468f565b60405180910390f35b348015610bba57600080fd5b50610bd56004803603810190610bd09190614649565b612c10565b604051610be2919061468f565b60405180910390f35b348015610bf757600080fd5b50610c126004803603810190610c0d9190614d94565b612c28565b005b348015610c2057600080fd5b50610c29612d33565b604051610c36919061468f565b60405180910390f35b610c596004803603810190610c549190614f04565b612d39565b005b348015610c6757600080fd5b50610c826004803603810190610c7d9190614843565b612dac565b604051610c8f919061487f565b60405180910390f35b348015610ca457600080fd5b50610cbf6004803603810190610cba9190614fdd565b612deb565b005b348015610ccd57600080fd5b50610ce86004803603810190610ce391906150cb565b612ed0565b005b348015610cf657600080fd5b50610d116004803603810190610d0c9190614843565b612eeb565b604051610d1e9190615169565b60405180910390f35b348015610d3357600080fd5b50610d4e6004803603810190610d499190615247565b612f55565b005b348015610d5c57600080fd5b50610d776004803603810190610d729190614843565b61310f565b604051610d8491906147f5565b60405180910390f35b348015610d9957600080fd5b50610db46004803603810190610daf9190614649565b6131ad565b604051610dc1919061468f565b60405180910390f35b348015610dd657600080fd5b50610df16004803603810190610dec919061489a565b6131f6565b005b348015610dff57600080fd5b50610e1a6004803603810190610e15919061489a565b6132f3565b005b348015610e2857600080fd5b50610e436004803603810190610e3e9190615290565b61338d565b604051610e50919061474a565b60405180910390f35b348015610e6557600080fd5b50610e806004803603810190610e7b9190614fdd565b613421565b005b348015610e8e57600080fd5b50610e97613506565b005b348015610ea557600080fd5b50610ec06004803603810190610ebb9190614649565b613546565b005b60008060009050601660008473ffffffffffffffffffffffffffffffffffffffff1673ffffffffffffffffffffffffffffffffffffffff1681526020019081526020016000205481610f1491906152ff565b90506064601560008573ffffffffffffffffffffffffffffffffffffffff1673ffffffffffffffffffffffffffffffffffffffff16815260200190815260200160002054610f629190615333565b81610f6d91906152ff565b905080915050919050565b60006301ffc9a760e01b827bffffffffffffffffffffffffffffffffffffffffffffffffffffffff19161480610fd357506380ac58cd60e01b827bffffffffffffffffffffffffffffffffffffffffffffffffffffffff1916145b806110035750635b5e139f60e01b827bffffffffffffffffffffffffffffffffffffffffffffffffffffffff1916145b9050919050565b6110126135c9565b6000601460006101000a81548160ff0219169083151502179055506000601460016101000a81548160ff021916908315150217905550565b606060028054611059906153a4565b80601f0160208091040260200160405190810160405280929190818152602001828054611085906153a4565b80156110d25780601f106110a7576101008083540402835291602001916110d2565b820191906000526020600020905b8154815290600101906020018083116110b557829003601f168201915b5050505050905090565b60006110e782613647565b61111d576040517fcf4700e400000000000000000000000000000000000000000000000000000000815260040160405180910390fd5b6006600083815260200190815260200160002060000160009054906101000a900473ffffffffffffffffffffffffffffffffffffffff169050919050565b60156020528060005260406000206000915090505481565b600061117e826125da565b90508073ffffffffffffffffffffffffffffffffffffffff1661119f6136a6565b73ffffffffffffffffffffffffffffffffffffffff1614611202576111cb816111c66136a6565b61338d565b611201576040517fcfb3b94200000000000000000000000000000000000000000000000000000000815260040160405180910390fd5b5b826006600084815260200190815260200160002060000160006101000a81548173ffffffffffffffffffffffffffffffffffffffff021916908373ffffffffffffffffffffffffffffffffffffffff160217905550818373ffffffffffffffffffffffffffffffffffffffff168273ffffffffffffffffffffffffffffffffffffffff167f8c5be1e5ebec7d5bd14f71427d1e84f3dd0314c0f7b2291e5b200ac8c7c3b92560405160405180910390a4505050565b600f5481565b60006112c76136ae565b9050600081519050600083821015611314576040517f08c379a000000000000000000000000000000000000000000000000000000000815260040161130b90615421565b60405180910390fd5b5b808411156113ab5761134283828151811061133357611332615441565b5b602002602001015160016137f9565b601b60003373ffffffffffffffffffffffffffffffffffffffff1673ffffffffffffffffffffffffffffffffffffffff168152602001908152602001600020600081548092919061139290615470565b91905055506001816113a491906152ff565b9050611315565b50505050565b60003373ffffffffffffffffffffffffffffffffffffffff1631905090565b60006113da613a4b565b6001546000540303905090565b601a6020528060005260406000206000915090505481565b600061140a82613a54565b90508373ffffffffffffffffffffffffffffffffffffffff168173ffffffffffffffffffffffffffffffffffffffff1614611471576040517fa114810000000000000000000000000000000000000000000000000000000000815260040160405180910390fd5b60008061147d84613b20565b91509150611493818761148e6136a6565b613b47565b6114df576114a8866114a36136a6565b61338d565b6114de576040517f59c896be00000000000000000000000000000000000000000000000000000000815260040160405180910390fd5b5b600073ffffffffffffffffffffffffffffffffffffffff168573ffffffffffffffffffffffffffffffffffffffff1603611545576040517fea553b3400000000000000000000000000000000000000000000000000000000815260040160405180910390fd5b6115528686866001613b8b565b801561155d57600082555b600560008773ffffffffffffffffffffffffffffffffffffffff1673ffffffffffffffffffffffffffffffffffffffff168152602001908152602001600020600081546001900391905081905550600560008673ffffffffffffffffffffffffffffffffffffffff1673ffffffffffffffffffffffffffffffffffffffff168152602001908152602001600020600081546001019190508190555061162b85611607888887613b91565b7c020000000000000000000000000000000000000000000000000000000017613bb9565b600460008681526020019081526020016000208190555060007c02000000000000000000000000000000000000000000000000000000008416036116b157600060018501905060006004600083815260200190815260200160002054036116af5760005481146116ae578360046000838152602001908152602001600020819055505b5b505b838573ffffffffffffffffffffffffffffffffffffffff168773ffffffffffffffffffffffffffffffffffffffff167fddf252ad1be2c89b69c2b068fc378daa952ba7f163c4a11628f55a4df523b3ef60405160405180910390a46117198686866001613be4565b505050505050565b6117296135c9565b6117316113d0565b6107d01015611775576040517f08c379a000000000000000000000000000000000000000000000000000000000815260040161176c90615504565b60405180910390fd5b8061177e6113d0565b6107d061178b9190615524565b8111156117cd576040517f08c379a00000000000000000000000000000000000000000000000000000000081526004016117c4906155a4565b60405180910390fd5b6117d561291d565b73ffffffffffffffffffffffffffffffffffffffff168373ffffffffffffffffffffffffffffffffffffffff161461185e5781601a60008573ffffffffffffffffffffffffffffffffffffffff1673ffffffffffffffffffffffffffffffffffffffff168152602001908152602001600020600082825461185691906152ff565b925050819055505b611866613bea565b506118718383613bf4565b7fd1d3d8a67ea3222e190a25cd89ce4613287a3f3d1272268cfd5639d6bad416b383836040516118a29291906155c4565b60405180910390a1505050565b6060601380548060200260200160405190810160405280929190818152602001828054801561193357602002820191906000526020600020905b8160009054906101000a900473ffffffffffffffffffffffffffffffffffffffff1673ffffffffffffffffffffffffffffffffffffffff16815260200190600101908083116118e9575b5050505050905090565b600c5481565b600080600090505b601280549050811015611a5b578273ffffffffffffffffffffffffffffffffffffffff166012828154811061198357611982615441565b5b9060005260206000200160009054906101000a900473ffffffffffffffffffffffffffffffffffffffff1673ffffffffffffffffffffffffffffffffffffffff161480611a3957508273ffffffffffffffffffffffffffffffffffffffff16601382815481106119f6576119f5615441565b5b9060005260206000200160009054906101000a900473ffffffffffffffffffffffffffffffffffffffff1673ffffffffffffffffffffffffffffffffffffffff16145b15611a48576001915050611a61565b8080611a5390615470565b91505061194b565b50600090505b919050565b6000611a7061291d565b73ffffffffffffffffffffffffffffffffffffffff1647604051611a939061561e565b60006040518083038185875af1925050503d8060008114611ad0576040519150601f19603f3d011682016040523d82523d6000602084013e611ad5565b606091505b5050905080611ae357600080fd5b50565b611b0183838360405180602001604052806000815250612d39565b505050565b611b118160016137f9565b50565b611b1c6113d0565b6107d01015611b60576040517f08c379a0000000000000000000000000000000000000000000000000000000008152600401611b5790615504565b60405180910390fd5b80611b696113d0565b6107d0611b769190615524565b811115611bb8576040517f08c379a0000000000000000000000000000000000000000000000000000000008152600401611baf906155a4565b60405180910390fd5b60011515601460009054906101000a900460ff1615151480611bea5750600c544210158015611be95750600d544211155b5b15611dcc576658d15e1762800082611c029190615333565b341015611c44576040517f08c379a0000000000000000000000000000000000000000000000000000000008152600401611c3b9061567f565b60405180910390fd5b611c4d3361244d565b611c8c576040517f08c379a0000000000000000000000000000000000000000000000000000000008152600401611c83906156eb565b60405180910390fd5b6000601660003373ffffffffffffffffffffffffffffffffffffffff1673ffffffffffffffffffffffffffffffffffffffff168152602001908152602001600020549050611cd933613c12565b6000601860003373ffffffffffffffffffffffffffffffffffffffff1673ffffffffffffffffffffffffffffffffffffffff168152602001908152602001600020549050808483611d2a91906152ff565b1115611d6b576040517f08c379a0000000000000000000000000000000000000000000000000000000008152600401611d6290615757565b60405180910390fd5b8382611d7791906152ff565b81611d829190615524565b601960003373ffffffffffffffffffffffffffffffffffffffff1673ffffffffffffffffffffffffffffffffffffffff16815260200190815260200160002081905550505061208b565b60011515601460019054906101000a900460ff1615151480611dfe5750600d544210158015611dfd5750600e544211155b5b15611f86576658d15e1762800082611e169190615333565b341015611e58576040517f08c379a0000000000000000000000000000000000000000000000000000000008152600401611e4f9061567f565b60405180910390fd5b611e6133611943565b611ea0576040517f08c379a0000000000000000000000000000000000000000000000000000000008152600401611e97906157c3565b60405180910390fd5b6000601560003373ffffffffffffffffffffffffffffffffffffffff1673ffffffffffffffffffffffffffffffffffffffff168152602001908152602001600020549050611eed33613d00565b6000601760003373ffffffffffffffffffffffffffffffffffffffff1673ffffffffffffffffffffffffffffffffffffffff168152602001908152602001600020549050808483611f3e91906152ff565b1115611f7f576040517f08c379a0000000000000000000000000000000000000000000000000000000008152600401611f7690615757565b60405180910390fd5b505061208a565b600e544210158015611f9a5750600f544211155b1561208957666a94d74f43000082611fb29190615333565b341015611ff4576040517f08c379a0000000000000000000000000000000000000000000000000000000008152600401611feb9061567f565b60405180910390fd5b6000601a60003373ffffffffffffffffffffffffffffffffffffffff1673ffffffffffffffffffffffffffffffffffffffff1681526020019081526020016000205490506003838261204691906152ff565b1115612087576040517f08c379a000000000000000000000000000000000000000000000000000000000815260040161207e90615757565b60405180910390fd5b505b5b5b612093613bea565b5061209e3383613bf4565b6120a6611a66565b60011515601460009054906101000a900460ff16151514806120d85750600c5442101580156120d75750600d544211155b5b156121385781601660003373ffffffffffffffffffffffffffffffffffffffff1673ffffffffffffffffffffffffffffffffffffffff168152602001908152602001600020600082825461212c91906152ff565b9250508190555061223c565b60011515601460019054906101000a900460ff161515148061216a5750600d5442101580156121695750600e544211155b5b156121ca5781601560003373ffffffffffffffffffffffffffffffffffffffff1673ffffffffffffffffffffffffffffffffffffffff16815260200190815260200160002060008282546121be91906152ff565b9250508190555061223b565b600e5442101580156121de5750600f544211155b1561223a5781601a60003373ffffffffffffffffffffffffffffffffffffffff1673ffffffffffffffffffffffffffffffffffffffff168152602001908152602001600020600082825461223291906152ff565b925050819055505b5b5b7fd1d3d8a67ea3222e190a25cd89ce4613287a3f3d1272268cfd5639d6bad416b3338360405161226d9291906155c4565b60405180910390a15050565b601460009054906101000a900460ff1681565b600080600090505b60128054905081101561232f578273ffffffffffffffffffffffffffffffffffffffff16601282815481106122cc576122cb615441565b5b9060005260206000200160009054906101000a900473ffffffffffffffffffffffffffffffffffffffff1673ffffffffffffffffffffffffffffffffffffffff160361231c576001915050612335565b808061232790615470565b915050612294565b50600090505b919050565b60166020528060005260406000206000915090505481565b600042905090565b60176020528060005260406000206000915090505481565b60186020528060005260406000206000915090505481565b6060600083839050905060008167ffffffffffffffff8111156123b0576123af614dd9565b5b6040519080825280602002602001820160405280156123e957816020015b6123d66144aa565b8152602001906001900390816123ce5790505b50905060005b8281146124415761241886868381811061240c5761240b615441565b5b90506020020135612eeb565b82828151811061242b5761242a615441565b5b60200260200101819052508060010190506123ef565b50809250505092915050565b600080600090505b6013805490508110156124f0578273ffffffffffffffffffffffffffffffffffffffff166013828154811061248d5761248c615441565b5b9060005260206000200160009054906101000a900473ffffffffffffffffffffffffffffffffffffffff1673ffffffffffffffffffffffffffffffffffffffff16036124dd5760019150506124f6565b80806124e890615470565b915050612455565b50600090505b919050565b6013818154811061250b57600080fd5b906000526020600020016000915054906101000a900473ffffffffffffffffffffffffffffffffffffffff1681565b6125426135c9565b6000601460006101000a81548160ff0219169083151502179055506001601460016101000a81548160ff021916908315150217905550565b6125826135c9565b61259461258d61291d565b83836113ff565b7f21425341546d2023146851fb583db9b7c6be5fed0d287293c85a8ede5193c6ea6125bd61291d565b83836040516125ce939291906157e3565b60405180910390a15050565b60006125e582613a54565b9050919050565b600980546125f9906153a4565b80601f0160208091040260200160405190810160405280929190818152602001828054612625906153a4565b80156126725780601f1061264757610100808354040283529160200191612672565b820191906000526020600020905b81548152906001019060200180831161265557829003601f168201915b505050505081565b60008073ffffffffffffffffffffffffffffffffffffffff168273ffffffffffffffffffffffffffffffffffffffff16036126e1576040517f8f4eb60400000000000000000000000000000000000000000000000000000000815260040160405180910390fd5b67ffffffffffffffff600560008473ffffffffffffffffffffffffffffffffffffffff1673ffffffffffffffffffffffffffffffffffffffff16815260200190815260200160002054169050919050565b61273a6135c9565b6127446000613e38565b565b606060128054806020026020016040519081016040528092919081815260200182805480156127ca57602002820191906000526020600020905b8160009054906101000a900473ffffffffffffffffffffffffffffffffffffffff1673ffffffffffffffffffffffffffffffffffffffff1681526020019060010190808311612780575b5050505050905090565b606060008060006127e48561267a565b905060008167ffffffffffffffff81111561280257612801614dd9565b5b6040519080825280602002602001820160405280156128305781602001602082028036833780820191505090505b50905061283b6144aa565b6000612845613a4b565b90505b8386146129095761285881613efe565b915081604001516128fe57600073ffffffffffffffffffffffffffffffffffffffff16826000015173ffffffffffffffffffffffffffffffffffffffff16146128a357816000015194505b8773ffffffffffffffffffffffffffffffffffffffff168573ffffffffffffffffffffffffffffffffffffffff16036128fd57808387806001019850815181106128f0576128ef615441565b5b6020026020010181815250505b5b806001019050612848565b508195505050505050919050565b600e5481565b6000600860009054906101000a900473ffffffffffffffffffffffffffffffffffffffff16905090565b606060038054612956906153a4565b80601f0160208091040260200160405190810160405280929190818152602001828054612982906153a4565b80156129cf5780601f106129a4576101008083540402835291602001916129cf565b820191906000526020600020905b8154815290600101906020018083116129b257829003601f168201915b5050505050905090565b6060818310612a14576040517f32c1995a00000000000000000000000000000000000000000000000000000000815260040160405180910390fd5b600080612a1f613bea565b9050612a29613a4b565b851015612a3b57612a38613a4b565b94505b80841115612a47578093505b6000612a528761267a565b905084861015612a75576000868603905081811015612a6f578091505b50612a7a565b600090505b60008167ffffffffffffffff811115612a9657612a95614dd9565b5b604051908082528060200260200182016040528015612ac45781602001602082028036833780820191505090505b50905060008203612adb5780945050505050612bde565b6000612ae688612eeb565b905060008160400151612afb57816000015190505b60008990505b888114158015612b115750848714155b15612bd057612b1f81613efe565b92508260400151612bc557600073ffffffffffffffffffffffffffffffffffffffff16836000015173ffffffffffffffffffffffffffffffffffffffff1614612b6a57826000015191505b8a73ffffffffffffffffffffffffffffffffffffffff168273ffffffffffffffffffffffffffffffffffffffff1603612bc45780848880600101995081518110612bb757612bb6615441565b5b6020026020010181815250505b5b806001019050612b01565b508583528296505050505050505b9392505050565b601460019054906101000a900460ff1681565b601b6020528060005260406000206000915090505481565b60196020528060005260406000206000915090505481565b8060076000612c356136a6565b73ffffffffffffffffffffffffffffffffffffffff1673ffffffffffffffffffffffffffffffffffffffff16815260200190815260200160002060008473ffffffffffffffffffffffffffffffffffffffff1673ffffffffffffffffffffffffffffffffffffffff16815260200190815260200160002060006101000a81548160ff0219169083151502179055508173ffffffffffffffffffffffffffffffffffffffff16612ce26136a6565b73ffffffffffffffffffffffffffffffffffffffff167f17307eab39ab6107e8899845ad3d59bd9653f200f220920489ca2b5937696c3183604051612d27919061474a565b60405180910390a35050565b600d5481565b612d448484846113ff565b60008373ffffffffffffffffffffffffffffffffffffffff163b14612da657612d6f84848484613f29565b612da5576040517fd1a57ed600000000000000000000000000000000000000000000000000000000815260040160405180910390fd5b5b50505050565b60128181548110612dbc57600080fd5b906000526020600020016000915054906101000a900473ffffffffffffffffffffffffffffffffffffffff1681565b612df36135c9565b60136000612e0191906144f9565b818160139190612e1292919061451a565b5060005b601380549050811015612ecb5760026018600060138481548110612e3d57612e3c615441565b5b9060005260206000200160009054906101000a900473ffffffffffffffffffffffffffffffffffffffff1673ffffffffffffffffffffffffffffffffffffffff1673ffffffffffffffffffffffffffffffffffffffff1681526020019081526020016000206000828254612eb191906152ff565b925050819055508080612ec390615470565b915050612e16565b505050565b612ed86135c9565b8060099081612ee791906159c6565b5050565b612ef36144aa565b612efb6144aa565b612f03613a4b565b831080612f175750612f13613bea565b8310155b15612f255780915050612f50565b612f2e83613efe565b9050806040015115612f435780915050612f50565b612f4c83614079565b9150505b919050565b6000612f5f6136ae565b905060008151905060008351905080821015612fb0576040517f08c379a0000000000000000000000000000000000000000000000000000000008152600401612fa790615421565b60405180910390fd5b60005b8181101561306f576000805b8481101561301a57858181518110612fda57612fd9615441565b5b6020026020010151878481518110612ff557612ff4615441565b5b60200260200101510361300757600191505b808061301290615470565b915050612fbf565b508061305b576040517f08c379a000000000000000000000000000000000000000000000000000000000815260040161305290615421565b60405180910390fd5b50808061306790615470565b915050612fb3565b5060005b81811015613108576130a085828151811061309157613090615441565b5b602002602001015160016137f9565b601b60003373ffffffffffffffffffffffffffffffffffffffff1673ffffffffffffffffffffffffffffffffffffffff16815260200190815260200160002060008154809291906130f090615470565b9190505550808061310090615470565b915050613073565b5050505050565b606061311a82613647565b613150576040517fa14c4b5000000000000000000000000000000000000000000000000000000000815260040160405180910390fd5b600061315a614099565b9050600081510361317a57604051806020016040528060008152506131a5565b806131848461412b565b604051602001613195929190615ad4565b6040516020818303038152906040525b915050919050565b6000601b60008373ffffffffffffffffffffffffffffffffffffffff1673ffffffffffffffffffffffffffffffffffffffff168152602001908152602001600020549050919050565b6131fe6135c9565b6132066113d0565b6107d0101561324a576040517f08c379a000000000000000000000000000000000000000000000000000000000815260040161324190615504565b60405180910390fd5b806132536113d0565b6107d06132609190615524565b8111156132a2576040517f08c379a0000000000000000000000000000000000000000000000000000000008152600401613299906155a4565b60405180910390fd5b6132aa613bea565b506132b58383613bf4565b7fd1d3d8a67ea3222e190a25cd89ce4613287a3f3d1272268cfd5639d6bad416b383836040516132e69291906155c4565b60405180910390a1505050565b6132fb6135c9565b80601b60008473ffffffffffffffffffffffffffffffffffffffff1673ffffffffffffffffffffffffffffffffffffffff168152602001908152602001600020546133469190615524565b601b60008473ffffffffffffffffffffffffffffffffffffffff1673ffffffffffffffffffffffffffffffffffffffff168152602001908152602001600020819055505050565b6000600760008473ffffffffffffffffffffffffffffffffffffffff1673ffffffffffffffffffffffffffffffffffffffff16815260200190815260200160002060008373ffffffffffffffffffffffffffffffffffffffff1673ffffffffffffffffffffffffffffffffffffffff16815260200190815260200160002060009054906101000a900460ff16905092915050565b6134296135c9565b6012600061343791906144f9565b81816012919061344892919061451a565b5060005b601280549050811015613501576003601760006012848154811061347357613472615441565b5b9060005260206000200160009054906101000a900473ffffffffffffffffffffffffffffffffffffffff1673ffffffffffffffffffffffffffffffffffffffff1673ffffffffffffffffffffffffffffffffffffffff16815260200190815260200160002060008282546134e791906152ff565b9250508190555080806134f990615470565b91505061344c565b505050565b61350e6135c9565b6001601460006101000a81548160ff0219169083151502179055506000601460016101000a81548160ff021916908315150217905550565b61354e6135c9565b600073ffffffffffffffffffffffffffffffffffffffff168173ffffffffffffffffffffffffffffffffffffffff16036135bd576040517f08c379a00000000000000000000000000000000000000000000000000000000081526004016135b490615b6a565b60405180910390fd5b6135c681613e38565b50565b6135d161417b565b73ffffffffffffffffffffffffffffffffffffffff166135ef61291d565b73ffffffffffffffffffffffffffffffffffffffff1614613645576040517f08c379a000000000000000000000000000000000000000000000000000000000815260040161363c90615bd6565b60405180910390fd5b565b600081613652613a4b565b11158015613661575060005482105b801561369f575060007c0100000000000000000000000000000000000000000000000000000000600460008581526020019081526020016000205416145b9050919050565b600033905090565b606060006001905060008080600090506136c66113d0565b60108190555060118054905090505b808310156137195760118054806136ef576136ee615bf6565b5b6001900381819060005260206000200160009055905560018361371291906152ff565b92506136d5565b5b601054841161379f5761372c846125da565b91503373ffffffffffffffffffffffffffffffffffffffff168273ffffffffffffffffffffffffffffffffffffffff160361378b5760118490806001815401808255809150506001900390600052602060002001600090919091909150555b60018461379891906152ff565b935061371a565b60118054806020026020016040519081016040528092919081815260200182805480156137eb57602002820191906000526020600020905b8154815260200190600101908083116137d7575b505050505094505050505090565b600061380483613a54565b9050600081905060008061381786613b20565b91509150841561388057613833818461382e6136a6565b613b47565b61387f57613848836138436136a6565b61338d565b61387e576040517f59c896be00000000000000000000000000000000000000000000000000000000815260040160405180910390fd5b5b5b61388e836000886001613b8b565b801561389957600082555b600160806001901b03600560008573ffffffffffffffffffffffffffffffffffffffff1673ffffffffffffffffffffffffffffffffffffffff16815260200190815260200160002060008282540192505081905550613941836138fe85600088613b91565b7c02000000000000000000000000000000000000000000000000000000007c01000000000000000000000000000000000000000000000000000000001717613bb9565b600460008881526020019081526020016000208190555060007c02000000000000000000000000000000000000000000000000000000008516036139c757600060018701905060006004600083815260200190815260200160002054036139c55760005481146139c4578460046000838152602001908152602001600020819055505b5b505b85600073ffffffffffffffffffffffffffffffffffffffff168473ffffffffffffffffffffffffffffffffffffffff167fddf252ad1be2c89b69c2b068fc378daa952ba7f163c4a11628f55a4df523b3ef60405160405180910390a4613a31836000886001613be4565b600160008154809291906001019190505550505050505050565b60006001905090565b60008082905080613a63613a4b565b11613ae957600054811015613ae85760006004600083815260200190815260200160002054905060007c0100000000000000000000000000000000000000000000000000000000821603613ae6575b60008103613adc576004600083600190039350838152602001908152602001600020549050613ab2565b8092505050613b1b565b505b5b6040517fdf2d9b4200000000000000000000000000000000000000000000000000000000815260040160405180910390fd5b919050565b60008060006006600085815260200190815260200160002090508092508254915050915091565b600073ffffffffffffffffffffffffffffffffffffffff8316925073ffffffffffffffffffffffffffffffffffffffff821691508382148383141790509392505050565b50505050565b60008060e883901c905060e8613ba8868684614183565b62ffffff16901b9150509392505050565b600073ffffffffffffffffffffffffffffffffffffffff83169250814260a01b178317905092915050565b50505050565b6000600a54905090565b613c0e82826040518060200160405280600081525061418c565b5050565b6000805b601380549050811015613cb7578273ffffffffffffffffffffffffffffffffffffffff1660138281548110613c4e57613c4d615441565b5b9060005260206000200160009054906101000a900473ffffffffffffffffffffffffffffffffffffffff1673ffffffffffffffffffffffffffffffffffffffff1603613ca457600282613ca191906152ff565b91505b8080613caf90615470565b915050613c16565b5080601860008473ffffffffffffffffffffffffffffffffffffffff1673ffffffffffffffffffffffffffffffffffffffff168152602001908152602001600020819055505050565b6000805b601280549050811015613da5578273ffffffffffffffffffffffffffffffffffffffff1660128281548110613d3c57613d3b615441565b5b9060005260206000200160009054906101000a900473ffffffffffffffffffffffffffffffffffffffff1673ffffffffffffffffffffffffffffffffffffffff1603613d9257600382613d8f91906152ff565b91505b8080613d9d90615470565b915050613d04565b50601960008373ffffffffffffffffffffffffffffffffffffffff1673ffffffffffffffffffffffffffffffffffffffff1681526020019081526020016000205481613df191906152ff565b601760008473ffffffffffffffffffffffffffffffffffffffff1673ffffffffffffffffffffffffffffffffffffffff168152602001908152602001600020819055505050565b6000600860009054906101000a900473ffffffffffffffffffffffffffffffffffffffff16905081600860006101000a81548173ffffffffffffffffffffffffffffffffffffffff021916908373ffffffffffffffffffffffffffffffffffffffff1602179055508173ffffffffffffffffffffffffffffffffffffffff168173ffffffffffffffffffffffffffffffffffffffff167f8be0079c531659141344cd1fd0a4f28419497f9722a3daafe3b4186f6b6457e060405160405180910390a35050565b613f066144aa565b613f226004600084815260200190815260200160002054614229565b9050919050565b60008373ffffffffffffffffffffffffffffffffffffffff1663150b7a02613f4f6136a6565b8786866040518563ffffffff1660e01b8152600401613f719493929190615c7a565b6020604051808303816000875af1925050508015613fad57506040513d601f19601f82011682018060405250810190613faa9190615cdb565b60015b614026573d8060008114613fdd576040519150601f19603f3d011682016040523d82523d6000602084013e613fe2565b606091505b50600081510361401e576040517fd1a57ed600000000000000000000000000000000000000000000000000000000815260040160405180910390fd5b805181602001fd5b63150b7a0260e01b7bffffffffffffffffffffffffffffffffffffffffffffffffffffffff1916817bffffffffffffffffffffffffffffffffffffffffffffffffffffffff191614915050949350505050565b6140816144aa565b61409261408d83613a54565b614229565b9050919050565b6060600980546140a8906153a4565b80601f01602080910402602001604051908101604052809291908181526020018280546140d4906153a4565b80156141215780601f106140f657610100808354040283529160200191614121565b820191906000526020600020905b81548152906001019060200180831161410457829003601f168201915b5050505050905090565b606060a060405101806040526020810391506000825281835b60011561416657600184039350600a81066030018453600a8104905080614144575b50828103602084039350808452505050919050565b600033905090565b60009392505050565b61419683836142df565b60008373ffffffffffffffffffffffffffffffffffffffff163b1461422457600080549050600083820390505b6141d66000868380600101945086613f29565b61420c576040517fd1a57ed600000000000000000000000000000000000000000000000000000000815260040160405180910390fd5b8181106141c357816000541461422157600080fd5b50505b505050565b6142316144aa565b81816000019073ffffffffffffffffffffffffffffffffffffffff16908173ffffffffffffffffffffffffffffffffffffffff168152505060a082901c816020019067ffffffffffffffff16908167ffffffffffffffff168152505060007c01000000000000000000000000000000000000000000000000000000008316141581604001901515908115158152505060e882901c816060019062ffffff16908162ffffff1681525050919050565b6000805490506000820361431f576040517fb562e8dd00000000000000000000000000000000000000000000000000000000815260040160405180910390fd5b61432c6000848385613b8b565b600160406001901b178202600560008573ffffffffffffffffffffffffffffffffffffffff1673ffffffffffffffffffffffffffffffffffffffff168152602001908152602001600020600082825401925050819055506143a3836143946000866000613b91565b61439d8561449a565b17613bb9565b6004600083815260200190815260200160002081905550600080838301905073ffffffffffffffffffffffffffffffffffffffff85169150828260007fddf252ad1be2c89b69c2b068fc378daa952ba7f163c4a11628f55a4df523b3ef600080a4600183015b81811461444457808360007fddf252ad1be2c89b69c2b068fc378daa952ba7f163c4a11628f55a4df523b3ef600080a4600181019050614409565b506000820361447f576040517f2e07630000000000000000000000000000000000000000000000000000000000815260040160405180910390fd5b8060008190555050506144956000848385613be4565b505050565b60006001821460e11b9050919050565b6040518060800160405280600073ffffffffffffffffffffffffffffffffffffffff168152602001600067ffffffffffffffff168152602001600015158152602001600062ffffff1681525090565b508054600082559060005260206000209081019061451791906145ba565b50565b8280548282559060005260206000209081019282156145a9579160200282015b828111156145a857823573ffffffffffffffffffffffffffffffffffffffff168260006101000a81548173ffffffffffffffffffffffffffffffffffffffff021916908373ffffffffffffffffffffffffffffffffffffffff1602179055509160200191906001019061453a565b5b5090506145b691906145ba565b5090565b5b808211156145d35760008160009055506001016145bb565b5090565b6000604051905090565b600080fd5b600080fd5b600073ffffffffffffffffffffffffffffffffffffffff82169050919050565b6000614616826145eb565b9050919050565b6146268161460b565b811461463157600080fd5b50565b6000813590506146438161461d565b92915050565b60006020828403121561465f5761465e6145e1565b5b600061466d84828501614634565b91505092915050565b6000819050919050565b61468981614676565b82525050565b60006020820190506146a46000830184614680565b92915050565b60007fffffffff0000000000000000000000000000000000000000000000000000000082169050919050565b6146df816146aa565b81146146ea57600080fd5b50565b6000813590506146fc816146d6565b92915050565b600060208284031215614718576147176145e1565b5b6000614726848285016146ed565b91505092915050565b60008115159050919050565b6147448161472f565b82525050565b600060208201905061475f600083018461473b565b92915050565b600081519050919050565b600082825260208201905092915050565b60005b8381101561479f578082015181840152602081019050614784565b60008484015250505050565b6000601f19601f8301169050919050565b60006147c782614765565b6147d18185614770565b93506147e1818560208601614781565b6147ea816147ab565b840191505092915050565b6000602082019050818103600083015261480f81846147bc565b905092915050565b61482081614676565b811461482b57600080fd5b50565b60008135905061483d81614817565b92915050565b600060208284031215614859576148586145e1565b5b60006148678482850161482e565b91505092915050565b6148798161460b565b82525050565b60006020820190506148946000830184614870565b92915050565b600080604083850312156148b1576148b06145e1565b5b60006148bf85828601614634565b92505060206148d08582860161482e565b9150509250929050565b6000806000606084860312156148f3576148f26145e1565b5b600061490186828701614634565b935050602061491286828701614634565b92505060406149238682870161482e565b9150509250925092565b600081519050919050565b600082825260208201905092915050565b6000819050602082019050919050565b6149628161460b565b82525050565b60006149748383614959565b60208301905092915050565b6000602082019050919050565b60006149988261492d565b6149a28185614938565b93506149ad83614949565b8060005b838110156149de5781516149c58882614968565b97506149d083614980565b9250506001810190506149b1565b5085935050505092915050565b60006020820190508181036000830152614a05818461498d565b905092915050565b600080fd5b600080fd5b600080fd5b60008083601f840112614a3257614a31614a0d565b5b8235905067ffffffffffffffff811115614a4f57614a4e614a12565b5b602083019150836020820283011115614a6b57614a6a614a17565b5b9250929050565b60008060208385031215614a8957614a886145e1565b5b600083013567ffffffffffffffff811115614aa757614aa66145e6565b5b614ab385828601614a1c565b92509250509250929050565b600081519050919050565b600082825260208201905092915050565b6000819050602082019050919050565b600067ffffffffffffffff82169050919050565b614b0881614aeb565b82525050565b614b178161472f565b82525050565b600062ffffff82169050919050565b614b3581614b1d565b82525050565b608082016000820151614b516000850182614959565b506020820151614b646020850182614aff565b506040820151614b776040850182614b0e565b506060820151614b8a6060850182614b2c565b50505050565b6000614b9c8383614b3b565b60808301905092915050565b6000602082019050919050565b6000614bc082614abf565b614bca8185614aca565b9350614bd583614adb565b8060005b83811015614c06578151614bed8882614b90565b9750614bf883614ba8565b925050600181019050614bd9565b5085935050505092915050565b60006020820190508181036000830152614c2d8184614bb5565b905092915050565b600081519050919050565b600082825260208201905092915050565b6000819050602082019050919050565b614c6a81614676565b82525050565b6000614c7c8383614c61565b60208301905092915050565b6000602082019050919050565b6000614ca082614c35565b614caa8185614c40565b9350614cb583614c51565b8060005b83811015614ce6578151614ccd8882614c70565b9750614cd883614c88565b925050600181019050614cb9565b5085935050505092915050565b60006020820190508181036000830152614d0d8184614c95565b905092915050565b600080600060608486031215614d2e57614d2d6145e1565b5b6000614d3c86828701614634565b9350506020614d4d8682870161482e565b9250506040614d5e8682870161482e565b9150509250925092565b614d718161472f565b8114614d7c57600080fd5b50565b600081359050614d8e81614d68565b92915050565b60008060408385031215614dab57614daa6145e1565b5b6000614db985828601614634565b9250506020614dca85828601614d7f565b9150509250929050565b600080fd5b7f4e487b7100000000000000000000000000000000000000000000000000000000600052604160045260246000fd5b614e11826147ab565b810181811067ffffffffffffffff82111715614e3057614e2f614dd9565b5b80604052505050565b6000614e436145d7565b9050614e4f8282614e08565b919050565b600067ffffffffffffffff821115614e6f57614e6e614dd9565b5b614e78826147ab565b9050602081019050919050565b82818337600083830152505050565b6000614ea7614ea284614e54565b614e39565b905082815260208101848484011115614ec357614ec2614dd4565b5b614ece848285614e85565b509392505050565b600082601f830112614eeb57614eea614a0d565b5b8135614efb848260208601614e94565b91505092915050565b60008060008060808587031215614f1e57614f1d6145e1565b5b6000614f2c87828801614634565b9450506020614f3d87828801614634565b9350506040614f4e8782880161482e565b925050606085013567ffffffffffffffff811115614f6f57614f6e6145e6565b5b614f7b87828801614ed6565b91505092959194509250565b60008083601f840112614f9d57614f9c614a0d565b5b8235905067ffffffffffffffff811115614fba57614fb9614a12565b5b602083019150836020820283011115614fd657614fd5614a17565b5b9250929050565b60008060208385031215614ff457614ff36145e1565b5b600083013567ffffffffffffffff811115615012576150116145e6565b5b61501e85828601614f87565b92509250509250929050565b600067ffffffffffffffff82111561504557615044614dd9565b5b61504e826147ab565b9050602081019050919050565b600061506e6150698461502a565b614e39565b90508281526020810184848401111561508a57615089614dd4565b5b615095848285614e85565b509392505050565b600082601f8301126150b2576150b1614a0d565b5b81356150c284826020860161505b565b91505092915050565b6000602082840312156150e1576150e06145e1565b5b600082013567ffffffffffffffff8111156150ff576150fe6145e6565b5b61510b8482850161509d565b91505092915050565b60808201600082015161512a6000850182614959565b50602082015161513d6020850182614aff565b5060408201516151506040850182614b0e565b5060608201516151636060850182614b2c565b50505050565b600060808201905061517e6000830184615114565b92915050565b600067ffffffffffffffff82111561519f5761519e614dd9565b5b602082029050602081019050919050565b60006151c36151be84615184565b614e39565b905080838252602082019050602084028301858111156151e6576151e5614a17565b5b835b8181101561520f57806151fb888261482e565b8452602084019350506020810190506151e8565b5050509392505050565b600082601f83011261522e5761522d614a0d565b5b813561523e8482602086016151b0565b91505092915050565b60006020828403121561525d5761525c6145e1565b5b600082013567ffffffffffffffff81111561527b5761527a6145e6565b5b61528784828501615219565b91505092915050565b600080604083850312156152a7576152a66145e1565b5b60006152b585828601614634565b92505060206152c685828601614634565b9150509250929050565b7f4e487b7100000000000000000000000000000000000000000000000000000000600052601160045260246000fd5b600061530a82614676565b915061531583614676565b925082820190508082111561532d5761532c6152d0565b5b92915050565b600061533e82614676565b915061534983614676565b925082820261535781614676565b9150828204841483151761536e5761536d6152d0565b5b5092915050565b7f4e487b7100000000000000000000000000000000000000000000000000000000600052602260045260246000fd5b600060028204905060018216806153bc57607f821691505b6020821081036153cf576153ce615375565b5b50919050565b7f4e4654204e6f6e73000000000000000000000000000000000000000000000000600082015250565b600061540b600883614770565b9150615416826153d5565b602082019050919050565b6000602082019050818103600083015261543a816153fe565b9050919050565b7f4e487b7100000000000000000000000000000000000000000000000000000000600052603260045260246000fd5b600061547b82614676565b91507fffffffffffffffffffffffffffffffffffffffffffffffffffffffffffffffff82036154ad576154ac6152d0565b5b600182019050919050565b7f736f6c64206f7574000000000000000000000000000000000000000000000000600082015250565b60006154ee600883614770565b91506154f9826154b8565b602082019050919050565b6000602082019050818103600083015261551d816154e1565b9050919050565b600061552f82614676565b915061553a83614676565b9250828203905081811115615552576155516152d0565b5b92915050565b7f4d696e7473206c65737320706c65617365000000000000000000000000000000600082015250565b600061558e601183614770565b915061559982615558565b602082019050919050565b600060208201905081810360008301526155bd81615581565b9050919050565b60006040820190506155d96000830185614870565b6155e66020830184614680565b9392505050565b600081905092915050565b50565b60006156086000836155ed565b9150615613826155f8565b600082019050919050565b6000615629826155fb565b9150819050919050565b7f4e6f7420656e6f756768206d6f6e657900000000000000000000000000000000600082015250565b6000615669601083614770565b915061567482615633565b602082019050919050565b600060208201905081810360008301526156988161565c565b9050919050565b7f75736572206973206e6f74204f47000000000000000000000000000000000000600082015250565b60006156d5600e83614770565b91506156e08261569f565b602082019050919050565b60006020820190508181036000830152615704816156c8565b9050919050565b7f4d61784d696e74204f7665720000000000000000000000000000000000000000600082015250565b6000615741600c83614770565b915061574c8261570b565b602082019050919050565b6000602082019050818103600083015261577081615734565b9050919050565b7f75736572206973206e6f7420574c000000000000000000000000000000000000600082015250565b60006157ad600e83614770565b91506157b882615777565b602082019050919050565b600060208201905081810360008301526157dc816157a0565b9050919050565b60006060820190506157f86000830186614870565b6158056020830185614870565b6158126040830184614680565b949350505050565b60008190508160005260206000209050919050565b60006020601f8301049050919050565b600082821b905092915050565b60006008830261587c7fffffffffffffffffffffffffffffffffffffffffffffffffffffffffffffffff8261583f565b615886868361583f565b95508019841693508086168417925050509392505050565b6000819050919050565b60006158c36158be6158b984614676565b61589e565b614676565b9050919050565b6000819050919050565b6158dd836158a8565b6158f16158e9826158ca565b84845461584c565b825550505050565b600090565b6159066158f9565b6159118184846158d4565b505050565b5b818110156159355761592a6000826158fe565b600181019050615917565b5050565b601f82111561597a5761594b8161581a565b6159548461582f565b81016020851015615963578190505b61597761596f8561582f565b830182615916565b50505b505050565b600082821c905092915050565b600061599d6000198460080261597f565b1980831691505092915050565b60006159b6838361598c565b9150826002028217905092915050565b6159cf82614765565b67ffffffffffffffff8111156159e8576159e7614dd9565b5b6159f282546153a4565b6159fd828285615939565b600060209050601f831160018114615a305760008415615a1e578287015190505b615a2885826159aa565b865550615a90565b601f198416615a3e8661581a565b60005b82811015615a6657848901518255600182019150602085019450602081019050615a41565b86831015615a835784890151615a7f601f89168261598c565b8355505b6001600288020188555050505b505050505050565b600081905092915050565b6000615aae82614765565b615ab88185615a98565b9350615ac8818560208601614781565b80840191505092915050565b6000615ae08285615aa3565b9150615aec8284615aa3565b91508190509392505050565b7f4f776e61626c653a206e6577206f776e657220697320746865207a65726f206160008201527f6464726573730000000000000000000000000000000000000000000000000000602082015250565b6000615b54602683614770565b9150615b5f82615af8565b604082019050919050565b60006020820190508181036000830152615b8381615b47565b9050919050565b7f4f776e61626c653a2063616c6c6572206973206e6f7420746865206f776e6572600082015250565b6000615bc0602083614770565b9150615bcb82615b8a565b602082019050919050565b60006020820190508181036000830152615bef81615bb3565b9050919050565b7f4e487b7100000000000000000000000000000000000000000000000000000000600052603160045260246000fd5b600081519050919050565b600082825260208201905092915050565b6000615c4c82615c25565b615c568185615c30565b9350615c66818560208601614781565b615c6f816147ab565b840191505092915050565b6000608082019050615c8f6000830187614870565b615c9c6020830186614870565b615ca96040830185614680565b8181036060830152615cbb8184615c41565b905095945050505050565b600081519050615cd5816146d6565b92915050565b600060208284031215615cf157615cf06145e1565b5b6000615cff84828501615cc6565b9150509291505056fea2646970667358221220adbd6b9b539895ed7bc540d0c6ee91c05b2eabd77c88de829dd7361afdb880b064736f6c63430008110033697066733a2f2f62616679626569626b6877367375357161686333776173687a7134737861347277736a7961706568656a7637763568376962376f7662616a6834712f6d65746164617461",
  "linkReferences": {},
  "deployedLinkReferences": {}
}