{
  "_format": "hh-sol-artifact-1",
  "contractName": "Tabenomics",
  "sourceName": "contracts/Tabenomics.sol",
  "abi": [
    {
      "inputs": [],
      "stateMutability": "nonpayable",
      "type": "constructor"
    },
    {
      "inputs": [],
      "name": "ApprovalCallerNotOwnerNorApproved",
      "type": "error"
    },
    {
      "inputs": [],
      "name": "ApprovalQueryForNonexistentToken",
      "type": "error"
    },
    {
      "inputs": [],
      "name": "BalanceQueryForZeroAddress",
      "type": "error"
    },
    {
      "inputs": [],
      "name": "InvalidQueryRange",
      "type": "error"
    },
    {
      "inputs": [],
      "name": "MintERC2309QuantityExceedsLimit",
      "type": "error"
    },
    {
      "inputs": [],
      "name": "MintToZeroAddress",
      "type": "error"
    },
    {
      "inputs": [],
      "name": "MintZeroQuantity",
      "type": "error"
    },
    {
      "inputs": [],
      "name": "OwnerQueryForNonexistentToken",
      "type": "error"
    },
    {
      "inputs": [],
      "name": "OwnershipNotInitializedForExtraData",
      "type": "error"
    },
    {
      "inputs": [],
      "name": "TransferCallerNotOwnerNorApproved",
      "type": "error"
    },
    {
      "inputs": [],
      "name": "TransferFromIncorrectOwner",
      "type": "error"
    },
    {
      "inputs": [],
      "name": "TransferToNonERC721ReceiverImplementer",
      "type": "error"
    },
    {
      "inputs": [],
      "name": "TransferToZeroAddress",
      "type": "error"
    },
    {
      "inputs": [],
      "name": "URIQueryForNonexistentToken",
      "type": "error"
    },
    {
      "anonymous": false,
      "inputs": [
        {
          "indexed": true,
          "internalType": "address",
          "name": "owner",
          "type": "address"
        },
        {
          "indexed": true,
          "internalType": "address",
          "name": "approved",
          "type": "address"
        },
        {
          "indexed": true,
          "internalType": "uint256",
          "name": "tokenId",
          "type": "uint256"
        }
      ],
      "name": "Approval",
      "type": "event"
    },
    {
      "anonymous": false,
      "inputs": [
        {
          "indexed": true,
          "internalType": "address",
          "name": "owner",
          "type": "address"
        },
        {
          "indexed": true,
          "internalType": "address",
          "name": "operator",
          "type": "address"
        },
        {
          "indexed": false,
          "internalType": "bool",
          "name": "approved",
          "type": "bool"
        }
      ],
      "name": "ApprovalForAll",
      "type": "event"
    },
    {
      "anonymous": false,
      "inputs": [
        {
          "indexed": true,
          "internalType": "uint256",
          "name": "fromTokenId",
          "type": "uint256"
        },
        {
          "indexed": false,
          "internalType": "uint256",
          "name": "toTokenId",
          "type": "uint256"
        },
        {
          "indexed": true,
          "internalType": "address",
          "name": "from",
          "type": "address"
        },
        {
          "indexed": true,
          "internalType": "address",
          "name": "to",
          "type": "address"
        }
      ],
      "name": "ConsecutiveTransfer",
      "type": "event"
    },
    {
      "anonymous": false,
      "inputs": [
        {
          "indexed": false,
          "internalType": "address",
          "name": "to",
          "type": "address"
        },
        {
          "indexed": false,
          "internalType": "uint256",
          "name": "quantity",
          "type": "uint256"
        }
      ],
      "name": "MintLog",
      "type": "event"
    },
    {
      "anonymous": false,
      "inputs": [
        {
          "indexed": true,
          "internalType": "address",
          "name": "previousOwner",
          "type": "address"
        },
        {
          "indexed": true,
          "internalType": "address",
          "name": "newOwner",
          "type": "address"
        }
      ],
      "name": "OwnershipTransferred",
      "type": "event"
    },
    {
      "anonymous": false,
      "inputs": [
        {
          "indexed": true,
          "internalType": "address",
          "name": "from",
          "type": "address"
        },
        {
          "indexed": true,
          "internalType": "address",
          "name": "to",
          "type": "address"
        },
        {
          "indexed": true,
          "internalType": "uint256",
          "name": "tokenId",
          "type": "uint256"
        }
      ],
      "name": "Transfer",
      "type": "event"
    },
    {
      "anonymous": false,
      "inputs": [
        {
          "indexed": false,
          "internalType": "address",
          "name": "from",
          "type": "address"
        },
        {
          "indexed": false,
          "internalType": "address",
          "name": "to",
          "type": "address"
        },
        {
          "indexed": false,
          "internalType": "uint256",
          "name": "tokenId",
          "type": "uint256"
        }
      ],
      "name": "TransferLog",
      "type": "event"
    },
    {
      "inputs": [
        {
          "internalType": "address",
          "name": "from",
          "type": "address"
        },
        {
          "internalType": "uint256",
          "name": "stratId",
          "type": "uint256"
        },
        {
          "internalType": "uint256",
          "name": "quantity",
          "type": "uint256"
        }
      ],
      "name": "AfterTokenTransfers",
      "outputs": [],
      "stateMutability": "nonpayable",
      "type": "function"
    },
    {
      "inputs": [
        {
          "internalType": "address",
          "name": "from",
          "type": "address"
        },
        {
          "internalType": "uint256",
          "name": "stratId",
          "type": "uint256"
        },
        {
          "internalType": "uint256",
          "name": "quantity",
          "type": "uint256"
        }
      ],
      "name": "BeforeTokenTransfers",
      "outputs": [],
      "stateMutability": "nonpayable",
      "type": "function"
    },
    {
      "inputs": [],
      "name": "MyTokenId",
      "outputs": [
        {
          "internalType": "uint256[]",
          "name": "",
          "type": "uint256[]"
        }
      ],
      "stateMutability": "nonpayable",
      "type": "function"
    },
    {
      "inputs": [],
      "name": "NumberMinted",
      "outputs": [
        {
          "internalType": "uint256",
          "name": "",
          "type": "uint256"
        }
      ],
      "stateMutability": "nonpayable",
      "type": "function"
    },
    {
      "inputs": [
        {
          "internalType": "address",
          "name": "to",
          "type": "address"
        },
        {
          "internalType": "uint256",
          "name": "tokenId",
          "type": "uint256"
        }
      ],
      "name": "OwnerTransfer",
      "outputs": [],
      "stateMutability": "nonpayable",
      "type": "function"
    },
    {
      "inputs": [
        {
          "internalType": "uint256",
          "name": "tokenId",
          "type": "uint256"
        }
      ],
      "name": "UserTransfer",
      "outputs": [],
      "stateMutability": "nonpayable",
      "type": "function"
    },
    {
      "inputs": [
        {
          "internalType": "address",
          "name": "to",
          "type": "address"
        },
        {
          "internalType": "uint256",
          "name": "tokenId",
          "type": "uint256"
        }
      ],
      "name": "approve",
      "outputs": [],
      "stateMutability": "payable",
      "type": "function"
    },
    {
      "inputs": [
        {
          "internalType": "address",
          "name": "owner",
          "type": "address"
        }
      ],
      "name": "balanceOf",
      "outputs": [
        {
          "internalType": "uint256",
          "name": "",
          "type": "uint256"
        }
      ],
      "stateMutability": "view",
      "type": "function"
    },
    {
      "inputs": [],
      "name": "baseURI",
      "outputs": [
        {
          "internalType": "string",
          "name": "",
          "type": "string"
        }
      ],
      "stateMutability": "view",
      "type": "function"
    },
    {
      "inputs": [
        {
          "internalType": "uint256",
          "name": "tokenId",
          "type": "uint256"
        }
      ],
      "name": "burn",
      "outputs": [],
      "stateMutability": "nonpayable",
      "type": "function"
    },
    {
      "inputs": [],
      "name": "deposit",
      "outputs": [],
      "stateMutability": "payable",
      "type": "function"
    },
    {
      "inputs": [
        {
          "internalType": "uint256",
          "name": "tokenId",
          "type": "uint256"
        }
      ],
      "name": "explicitOwnershipOf",
      "outputs": [
        {
          "components": [
            {
              "internalType": "address",
              "name": "addr",
              "type": "address"
            },
            {
              "internalType": "uint64",
              "name": "startTimestamp",
              "type": "uint64"
            },
            {
              "internalType": "bool",
              "name": "burned",
              "type": "bool"
            },
            {
              "internalType": "uint24",
              "name": "extraData",
              "type": "uint24"
            }
          ],
          "internalType": "struct IERC721A.TokenOwnership",
          "name": "",
          "type": "tuple"
        }
      ],
      "stateMutability": "view",
      "type": "function"
    },
    {
      "inputs": [
        {
          "internalType": "uint256[]",
          "name": "tokenIds",
          "type": "uint256[]"
        }
      ],
      "name": "explicitOwnershipsOf",
      "outputs": [
        {
          "components": [
            {
              "internalType": "address",
              "name": "addr",
              "type": "address"
            },
            {
              "internalType": "uint64",
              "name": "startTimestamp",
              "type": "uint64"
            },
            {
              "internalType": "bool",
              "name": "burned",
              "type": "bool"
            },
            {
              "internalType": "uint24",
              "name": "extraData",
              "type": "uint24"
            }
          ],
          "internalType": "struct IERC721A.TokenOwnership[]",
          "name": "",
          "type": "tuple[]"
        }
      ],
      "stateMutability": "view",
      "type": "function"
    },
    {
      "inputs": [
        {
          "internalType": "uint256",
          "name": "quantity",
          "type": "uint256"
        }
      ],
      "name": "freemint",
      "outputs": [],
      "stateMutability": "nonpayable",
      "type": "function"
    },
    {
      "inputs": [
        {
          "internalType": "uint256",
          "name": "tokenId",
          "type": "uint256"
        }
      ],
      "name": "getApproved",
      "outputs": [
        {
          "internalType": "address",
          "name": "",
          "type": "address"
        }
      ],
      "stateMutability": "view",
      "type": "function"
    },
    {
      "inputs": [],
      "name": "getBalance",
      "outputs": [
        {
          "internalType": "uint256",
          "name": "",
          "type": "uint256"
        }
      ],
      "stateMutability": "view",
      "type": "function"
    },
    {
      "inputs": [
        {
          "internalType": "address",
          "name": "owner",
          "type": "address"
        },
        {
          "internalType": "address",
          "name": "operator",
          "type": "address"
        }
      ],
      "name": "isApprovedForAll",
      "outputs": [
        {
          "internalType": "bool",
          "name": "",
          "type": "bool"
        }
      ],
      "stateMutability": "view",
      "type": "function"
    },
    {
      "inputs": [
        {
          "internalType": "uint256",
          "name": "quantity",
          "type": "uint256"
        }
      ],
      "name": "mintOwner",
      "outputs": [],
      "stateMutability": "nonpayable",
      "type": "function"
    },
    {
      "inputs": [
        {
          "internalType": "uint256",
          "name": "quantity",
          "type": "uint256"
        }
      ],
      "name": "mintUser",
      "outputs": [],
      "stateMutability": "nonpayable",
      "type": "function"
    },
    {
      "inputs": [],
      "name": "name",
      "outputs": [
        {
          "internalType": "string",
          "name": "",
          "type": "string"
        }
      ],
      "stateMutability": "view",
      "type": "function"
    },
    {
      "inputs": [],
      "name": "owner",
      "outputs": [
        {
          "internalType": "address",
          "name": "",
          "type": "address"
        }
      ],
      "stateMutability": "view",
      "type": "function"
    },
    {
      "inputs": [
        {
          "internalType": "uint256",
          "name": "tokenId",
          "type": "uint256"
        }
      ],
      "name": "ownerOf",
      "outputs": [
        {
          "internalType": "address",
          "name": "",
          "type": "address"
        }
      ],
      "stateMutability": "view",
      "type": "function"
    },
    {
      "inputs": [],
      "name": "quantity",
      "outputs": [
        {
          "internalType": "uint256",
          "name": "",
          "type": "uint256"
        }
      ],
      "stateMutability": "view",
      "type": "function"
    },
    {
      "inputs": [],
      "name": "renounceOwnership",
      "outputs": [],
      "stateMutability": "nonpayable",
      "type": "function"
    },
    {
      "inputs": [
        {
          "internalType": "address",
          "name": "from",
          "type": "address"
        },
        {
          "internalType": "address",
          "name": "to",
          "type": "address"
        },
        {
          "internalType": "uint256",
          "name": "tokenId",
          "type": "uint256"
        }
      ],
      "name": "safeTransferFrom",
      "outputs": [],
      "stateMutability": "payable",
      "type": "function"
    },
    {
      "inputs": [
        {
          "internalType": "address",
          "name": "from",
          "type": "address"
        },
        {
          "internalType": "address",
          "name": "to",
          "type": "address"
        },
        {
          "internalType": "uint256",
          "name": "tokenId",
          "type": "uint256"
        },
        {
          "internalType": "bytes",
          "name": "_data",
          "type": "bytes"
        }
      ],
      "name": "safeTransferFrom",
      "outputs": [],
      "stateMutability": "payable",
      "type": "function"
    },
    {
      "inputs": [
        {
          "internalType": "address",
          "name": "operator",
          "type": "address"
        },
        {
          "internalType": "bool",
          "name": "approved",
          "type": "bool"
        }
      ],
      "name": "setApprovalForAll",
      "outputs": [],
      "stateMutability": "nonpayable",
      "type": "function"
    },
    {
      "inputs": [
        {
          "internalType": "bytes4",
          "name": "interfaceId",
          "type": "bytes4"
        }
      ],
      "name": "supportsInterface",
      "outputs": [
        {
          "internalType": "bool",
          "name": "",
          "type": "bool"
        }
      ],
      "stateMutability": "view",
      "type": "function"
    },
    {
      "inputs": [],
      "name": "symbol",
      "outputs": [
        {
          "internalType": "string",
          "name": "",
          "type": "string"
        }
      ],
      "stateMutability": "view",
      "type": "function"
    },
    {
      "inputs": [
        {
          "internalType": "uint256",
          "name": "tokenId",
          "type": "uint256"
        }
      ],
      "name": "tokenURI",
      "outputs": [
        {
          "internalType": "string",
          "name": "",
          "type": "string"
        }
      ],
      "stateMutability": "view",
      "type": "function"
    },
    {
      "inputs": [
        {
          "internalType": "address",
          "name": "owner",
          "type": "address"
        }
      ],
      "name": "tokensOfOwner",
      "outputs": [
        {
          "internalType": "uint256[]",
          "name": "",
          "type": "uint256[]"
        }
      ],
      "stateMutability": "view",
      "type": "function"
    },
    {
      "inputs": [
        {
          "internalType": "address",
          "name": "owner",
          "type": "address"
        },
        {
          "internalType": "uint256",
          "name": "start",
          "type": "uint256"
        },
        {
          "internalType": "uint256",
          "name": "stop",
          "type": "uint256"
        }
      ],
      "name": "tokensOfOwnerIn",
      "outputs": [
        {
          "internalType": "uint256[]",
          "name": "",
          "type": "uint256[]"
        }
      ],
      "stateMutability": "view",
      "type": "function"
    },
    {
      "inputs": [],
      "name": "totalSupply",
      "outputs": [
        {
          "internalType": "uint256",
          "name": "",
          "type": "uint256"
        }
      ],
      "stateMutability": "view",
      "type": "function"
    },
    {
      "inputs": [
        {
          "internalType": "address",
          "name": "from",
          "type": "address"
        },
        {
          "internalType": "address",
          "name": "to",
          "type": "address"
        },
        {
          "internalType": "uint256",
          "name": "tokenId",
          "type": "uint256"
        }
      ],
      "name": "transferFrom",
      "outputs": [],
      "stateMutability": "payable",
      "type": "function"
    },
    {
      "inputs": [
        {
          "internalType": "address",
          "name": "newOwner",
          "type": "address"
        }
      ],
      "name": "transferOwnership",
      "outputs": [],
      "stateMutability": "nonpayable",
      "type": "function"
    },
    {
      "inputs": [
        {
          "internalType": "uint256",
          "name": "_amount",
          "type": "uint256"
        }
      ],
      "name": "withdraw",
      "outputs": [],
      "stateMutability": "payable",
      "type": "function"
    }
  ],
  "bytecode": "0x60806040526040518060800160405280604b815260200162003efc604b91396009908051906020019062000035929190620002ab565b506000600a556000600b5573ebd831aa0343789150cdffce067479bb848c5ac8600d60006101000a81548173ffffffffffffffffffffffffffffffffffffffff021916908373ffffffffffffffffffffffffffffffffffffffff160217905550734cfafbce67942e79edb1dd67eccc271a536d202d600e60006101000a81548173ffffffffffffffffffffffffffffffffffffffff021916908373ffffffffffffffffffffffffffffffffffffffff160217905550348015620000f757600080fd5b506040518060400160405280600a81526020017f546162656e6f6d696373000000000000000000000000000000000000000000008152506040518060400160405280600381526020017f54424d000000000000000000000000000000000000000000000000000000000081525081600290805190602001906200017c929190620002ab565b50806003908051906020019062000195929190620002ab565b50620001a6620001d460201b60201c565b6000819055505050620001ce620001c2620001dd60201b60201c565b620001e560201b60201c565b620003c0565b60006001905090565b600033905090565b6000600860009054906101000a900473ffffffffffffffffffffffffffffffffffffffff16905081600860006101000a81548173ffffffffffffffffffffffffffffffffffffffff021916908373ffffffffffffffffffffffffffffffffffffffff1602179055508173ffffffffffffffffffffffffffffffffffffffff168173ffffffffffffffffffffffffffffffffffffffff167f8be0079c531659141344cd1fd0a4f28419497f9722a3daafe3b4186f6b6457e060405160405180910390a35050565b828054620002b9906200035b565b90600052602060002090601f016020900481019282620002dd576000855562000329565b82601f10620002f857805160ff191683800117855562000329565b8280016001018555821562000329579182015b82811115620003285782518255916020019190600101906200030b565b5b5090506200033891906200033c565b5090565b5b80821115620003575760008160009055506001016200033d565b5090565b600060028204905060018216806200037457607f821691505b602082108114156200038b576200038a62000391565b5b50919050565b7f4e487b7100000000000000000000000000000000000000000000000000000000600052602260045260246000fd5b613b2c80620003d06000396000f3fe60806040526004361061020f5760003560e01c80636352211e1161011857806399a2557a116100a0578063c87b56dd1161006f578063c87b56dd14610768578063d0e30db0146107a5578063d5b2d354146107af578063e985e9c5146107da578063f2fde38b146108175761020f565b806399a2557a146106a9578063a22cb465146106e6578063b88d4fde1461070f578063c23dc68f1461072b5761020f565b8063715018a6116100e7578063715018a6146105d65780638462151c146105ed5780638a6539391461062a5780638da5cb5b1461065357806395d89b411461067e5761020f565b80636352211e146105065780636976e7fe146105435780636c0360eb1461056e57806370a08231146105995761020f565b806323b872dd1161019b57806342842e0e1161016a57806342842e0e1461043257806342966c681461044e5780635bbb217714610477578063602fb129146104b457806362963ca9146104dd5761020f565b806323b872dd146103a85780632e1a7d4d146103c457806332fceb83146103e057806333f88d22146104095761020f565b80630fbe4fe2116101e25780630fbe4fe2146102d557806312065fe0146102fe578063145987961461032957806317fc45e21461035257806318160ddd1461037d5761020f565b806301ffc9a71461021457806306fdde0314610251578063081812fc1461027c578063095ea7b3146102b9575b600080fd5b34801561022057600080fd5b5061023b60048036038101906102369190612f69565b610840565b60405161024891906134ce565b60405180910390f35b34801561025d57600080fd5b506102666108d2565b60405161027391906134e9565b60405180910390f35b34801561028857600080fd5b506102a3600480360381019061029e9190612fbb565b610964565b6040516102b091906133c3565b60405180910390f35b6102d360048036038101906102ce9190612e99565b6109e3565b005b3480156102e157600080fd5b506102fc60048036038101906102f79190612fbb565b610b27565b005b34801561030a57600080fd5b50610313610d05565b60405161032091906135e6565b60405180910390f35b34801561033557600080fd5b50610350600480360381019061034b9190612ed5565b610d24565b005b34801561035e57600080fd5b50610367610d35565b60405161037491906135e6565b60405180910390f35b34801561038957600080fd5b50610392610d3b565b60405161039f91906135e6565b60405180910390f35b6103c260048036038101906103bd9190612d93565b610d52565b005b6103de60048036038101906103d99190612fbb565b611077565b005b3480156103ec57600080fd5b5061040760048036038101906104029190612fbb565b6110f8565b005b34801561041557600080fd5b50610430600480360381019061042b9190612fbb565b61114f565b005b61044c60048036038101906104479190612d93565b61124b565b005b34801561045a57600080fd5b5061047560048036038101906104709190612fbb565b61126b565b005b34801561048357600080fd5b5061049e60048036038101906104999190612f24565b611279565b6040516104ab919061348a565b60405180910390f35b3480156104c057600080fd5b506104db60048036038101906104d69190612e99565b6113ae565b005b3480156104e957600080fd5b5061050460048036038101906104ff9190612fbb565b61140e565b005b34801561051257600080fd5b5061052d60048036038101906105289190612fbb565b611546565b60405161053a91906133c3565b60405180910390f35b34801561054f57600080fd5b50610558611558565b60405161056591906135e6565b60405180910390f35b34801561057a57600080fd5b50610583611568565b60405161059091906134e9565b60405180910390f35b3480156105a557600080fd5b506105c060048036038101906105bb9190612d2e565b6115f6565b6040516105cd91906135e6565b60405180910390f35b3480156105e257600080fd5b506105eb6116af565b005b3480156105f957600080fd5b50610614600480360381019061060f9190612d2e565b6116c3565b60405161062191906134ac565b60405180910390f35b34801561063657600080fd5b50610651600480360381019061064c9190612ed5565b611859565b005b34801561065f57600080fd5b5061066861186a565b60405161067591906133c3565b60405180910390f35b34801561068a57600080fd5b50610693611894565b6040516106a091906134e9565b60405180910390f35b3480156106b557600080fd5b506106d060048036038101906106cb9190612ed5565b611926565b6040516106dd91906134ac565b60405180910390f35b3480156106f257600080fd5b5061070d60048036038101906107089190612e5d565b611b86565b005b61072960048036038101906107249190612de2565b611c91565b005b34801561073757600080fd5b50610752600480360381019061074d9190612fbb565b611d04565b60405161075f91906135cb565b60405180910390f35b34801561077457600080fd5b5061078f600480360381019061078a9190612fbb565b611d6e565b60405161079c91906134e9565b60405180910390f35b6107ad611e0d565b005b3480156107bb57600080fd5b506107c4611e0f565b6040516107d191906134ac565b60405180910390f35b3480156107e657600080fd5b5061080160048036038101906107fc9190612d57565b611f81565b60405161080e91906134ce565b60405180910390f35b34801561082357600080fd5b5061083e60048036038101906108399190612d2e565b612015565b005b60006301ffc9a760e01b827bffffffffffffffffffffffffffffffffffffffffffffffffffffffff1916148061089b57506380ac58cd60e01b827bffffffffffffffffffffffffffffffffffffffffffffffffffffffff1916145b806108cb5750635b5e139f60e01b827bffffffffffffffffffffffffffffffffffffffffffffffffffffffff1916145b9050919050565b6060600280546108e19061387a565b80601f016020809104026020016040519081016040528092919081815260200182805461090d9061387a565b801561095a5780601f1061092f5761010080835404028352916020019161095a565b820191906000526020600020905b81548152906001019060200180831161093d57829003601f168201915b5050505050905090565b600061096f82612099565b6109a5576040517fcf4700e400000000000000000000000000000000000000000000000000000000815260040160405180910390fd5b6006600083815260200190815260200160002060000160009054906101000a900473ffffffffffffffffffffffffffffffffffffffff169050919050565b60006109ee82611546565b90508073ffffffffffffffffffffffffffffffffffffffff16610a0f6120f8565b73ffffffffffffffffffffffffffffffffffffffff1614610a7257610a3b81610a366120f8565b611f81565b610a71576040517fcfb3b94200000000000000000000000000000000000000000000000000000000815260040160405180910390fd5b5b826006600084815260200190815260200160002060000160006101000a81548173ffffffffffffffffffffffffffffffffffffffff021916908373ffffffffffffffffffffffffffffffffffffffff160217905550818373ffffffffffffffffffffffffffffffffffffffff168273ffffffffffffffffffffffffffffffffffffffff167f8c5be1e5ebec7d5bd14f71427d1e84f3dd0314c0f7b2291e5b200ac8c7c3b92560405160405180910390a4505050565b610b2f610d3b565b610bb81015610b73576040517f08c379a0000000000000000000000000000000000000000000000000000000008152600401610b6a9061354b565b60405180910390fd5b80610b7c610d3b565b610bb8610b89919061376d565b811115610bcb576040517f08c379a0000000000000000000000000000000000000000000000000000000008152600401610bc29061350b565b60405180910390fd5b338073ffffffffffffffffffffffffffffffffffffffff16600d60009054906101000a900473ffffffffffffffffffffffffffffffffffffffff1673ffffffffffffffffffffffffffffffffffffffff161480610c7557508073ffffffffffffffffffffffffffffffffffffffff16600e60009054906101000a900473ffffffffffffffffffffffffffffffffffffffff1673ffffffffffffffffffffffffffffffffffffffff16145b610cb4576040517f08c379a0000000000000000000000000000000000000000000000000000000008152600401610cab906135ab565b60405180910390fd5b610cbc612100565b50610cc7338461210a565b7fd1d3d8a67ea3222e190a25cd89ce4613287a3f3d1272268cfd5639d6bad416b33384604051610cf8929190613461565b60405180910390a1505050565b60003373ffffffffffffffffffffffffffffffffffffffff1631905090565b610d30338484846122c7565b505050565b600c5481565b6000610d456122cd565b6001546000540303905090565b6000610d5d826122d6565b90508373ffffffffffffffffffffffffffffffffffffffff168173ffffffffffffffffffffffffffffffffffffffff1614610dc4576040517fa114810000000000000000000000000000000000000000000000000000000000815260040160405180910390fd5b600080610dd0846123a4565b91509150610de68187610de16120f8565b6123cb565b610e3257610dfb86610df66120f8565b611f81565b610e31576040517f59c896be00000000000000000000000000000000000000000000000000000000815260040160405180910390fd5b5b600073ffffffffffffffffffffffffffffffffffffffff168573ffffffffffffffffffffffffffffffffffffffff161415610e99576040517fea553b3400000000000000000000000000000000000000000000000000000000815260040160405180910390fd5b610ea686868660016122c7565b8015610eb157600082555b600560008773ffffffffffffffffffffffffffffffffffffffff1673ffffffffffffffffffffffffffffffffffffffff168152602001908152602001600020600081546001900391905081905550600560008673ffffffffffffffffffffffffffffffffffffffff1673ffffffffffffffffffffffffffffffffffffffff1681526020019081526020016000206000815460010191905081905550610f7f85610f5b88888761240f565b7c020000000000000000000000000000000000000000000000000000000017612437565b600460008681526020019081526020016000208190555060007c020000000000000000000000000000000000000000000000000000000084161415611007576000600185019050600060046000838152602001908152602001600020541415611005576000548114611004578360046000838152602001908152602001600020819055505b5b505b838573ffffffffffffffffffffffffffffffffffffffff168773ffffffffffffffffffffffffffffffffffffffff167fddf252ad1be2c89b69c2b068fc378daa952ba7f163c4a11628f55a4df523b3ef60405160405180910390a461106f8686866001612462565b505050505050565b600061108161186a565b73ffffffffffffffffffffffffffffffffffffffff16826040516110a4906133ae565b60006040518083038185875af1925050503d80600081146110e1576040519150601f19603f3d011682016040523d82523d6000602084013e6110e6565b606091505b50509050806110f457600080fd5b5050565b61110a3361110461186a565b83610d52565b7f21425341546d2023146851fb583db9b7c6be5fed0d287293c85a8ede5193c6ea3361113461186a565b83604051611144939291906133de565b60405180910390a150565b611157612468565b61115f610d3b565b610bb810156111a3576040517f08c379a000000000000000000000000000000000000000000000000000000000815260040161119a9061354b565b60405180910390fd5b806111ac610d3b565b610bb86111b9919061376d565b8111156111fb576040517f08c379a00000000000000000000000000000000000000000000000000000000081526004016111f29061350b565b60405180910390fd5b611203612100565b5061120e338361210a565b7fd1d3d8a67ea3222e190a25cd89ce4613287a3f3d1272268cfd5639d6bad416b3338360405161123f929190613461565b60405180910390a15050565b61126683838360405180602001604052806000815250611c91565b505050565b6112768160016124e6565b50565b6060600083839050905060008167ffffffffffffffff8111156112c5577f4e487b7100000000000000000000000000000000000000000000000000000000600052604160045260246000fd5b6040519080825280602002602001820160405280156112fe57816020015b6112eb612bc4565b8152602001906001900390816112e35790505b50905060005b8281146113a257611353868683818110611347577f4e487b7100000000000000000000000000000000000000000000000000000000600052603260045260246000fd5b90506020020135611d04565b82828151811061138c577f4e487b7100000000000000000000000000000000000000000000000000000000600052603260045260246000fd5b6020026020010181905250806001019050611304565b50809250505092915050565b6113b6612468565b6113c86113c161186a565b8383610d52565b7f21425341546d2023146851fb583db9b7c6be5fed0d287293c85a8ede5193c6ea6113f161186a565b8383604051611402939291906133de565b60405180910390a15050565b611416610d3b565b610bb8101561145a576040517f08c379a00000000000000000000000000000000000000000000000000000000081526004016114519061354b565b60405180910390fd5b80611463610d3b565b610bb8611470919061376d565b8111156114b2576040517f08c379a00000000000000000000000000000000000000000000000000000000081526004016114a99061350b565b60405180910390fd5b81600310156114f6576040517f08c379a00000000000000000000000000000000000000000000000000000000081526004016114ed9061356b565b60405180910390fd5b6114fe612100565b50611509338361210a565b7fd1d3d8a67ea3222e190a25cd89ce4613287a3f3d1272268cfd5639d6bad416b3338360405161153a929190613461565b60405180910390a15050565b6000611551826122d6565b9050919050565b60006115633361273a565b905090565b600980546115759061387a565b80601f01602080910402602001604051908101604052809291908181526020018280546115a19061387a565b80156115ee5780601f106115c3576101008083540402835291602001916115ee565b820191906000526020600020905b8154815290600101906020018083116115d157829003601f168201915b505050505081565b60008073ffffffffffffffffffffffffffffffffffffffff168273ffffffffffffffffffffffffffffffffffffffff16141561165e576040517f8f4eb60400000000000000000000000000000000000000000000000000000000815260040160405180910390fd5b67ffffffffffffffff600560008473ffffffffffffffffffffffffffffffffffffffff1673ffffffffffffffffffffffffffffffffffffffff16815260200190815260200160002054169050919050565b6116b7612468565b6116c16000612791565b565b606060008060006116d3856115f6565b905060008167ffffffffffffffff811115611717577f4e487b7100000000000000000000000000000000000000000000000000000000600052604160045260246000fd5b6040519080825280602002602001820160405280156117455781602001602082028036833780820191505090505b509050611750612bc4565b600061175a6122cd565b90505b83861461184b5761176d81612857565b915081604001511561177e57611840565b600073ffffffffffffffffffffffffffffffffffffffff16826000015173ffffffffffffffffffffffffffffffffffffffff16146117be57816000015194505b8773ffffffffffffffffffffffffffffffffffffffff168573ffffffffffffffffffffffffffffffffffffffff16141561183f5780838780600101985081518110611832577f4e487b7100000000000000000000000000000000000000000000000000000000600052603260045260246000fd5b6020026020010181815250505b5b80600101905061175d565b508195505050505050919050565b61186533848484612462565b505050565b6000600860009054906101000a900473ffffffffffffffffffffffffffffffffffffffff16905090565b6060600380546118a39061387a565b80601f01602080910402602001604051908101604052809291908181526020018280546118cf9061387a565b801561191c5780601f106118f15761010080835404028352916020019161191c565b820191906000526020600020905b8154815290600101906020018083116118ff57829003601f168201915b5050505050905090565b6060818310611961576040517f32c1995a00000000000000000000000000000000000000000000000000000000815260040160405180910390fd5b60008061196c612100565b90506119766122cd565b851015611988576119856122cd565b94505b80841115611994578093505b600061199f876115f6565b9050848610156119c25760008686039050818110156119bc578091505b506119c7565b600090505b60008167ffffffffffffffff811115611a09577f4e487b7100000000000000000000000000000000000000000000000000000000600052604160045260246000fd5b604051908082528060200260200182016040528015611a375781602001602082028036833780820191505090505b5090506000821415611a4f5780945050505050611b7f565b6000611a5a88611d04565b905060008160400151611a6f57816000015190505b60008990505b888114158015611a855750848714155b15611b7157611a9381612857565b9250826040015115611aa457611b66565b600073ffffffffffffffffffffffffffffffffffffffff16836000015173ffffffffffffffffffffffffffffffffffffffff1614611ae457826000015191505b8a73ffffffffffffffffffffffffffffffffffffffff168273ffffffffffffffffffffffffffffffffffffffff161415611b655780848880600101995081518110611b58577f4e487b7100000000000000000000000000000000000000000000000000000000600052603260045260246000fd5b6020026020010181815250505b5b806001019050611a75565b508583528296505050505050505b9392505050565b8060076000611b936120f8565b73ffffffffffffffffffffffffffffffffffffffff1673ffffffffffffffffffffffffffffffffffffffff16815260200190815260200160002060008473ffffffffffffffffffffffffffffffffffffffff1673ffffffffffffffffffffffffffffffffffffffff16815260200190815260200160002060006101000a81548160ff0219169083151502179055508173ffffffffffffffffffffffffffffffffffffffff16611c406120f8565b73ffffffffffffffffffffffffffffffffffffffff167f17307eab39ab6107e8899845ad3d59bd9653f200f220920489ca2b5937696c3183604051611c8591906134ce565b60405180910390a35050565b611c9c848484610d52565b60008373ffffffffffffffffffffffffffffffffffffffff163b14611cfe57611cc784848484612882565b611cfd576040517fd1a57ed600000000000000000000000000000000000000000000000000000000815260040160405180910390fd5b5b50505050565b611d0c612bc4565b611d14612bc4565b611d1c6122cd565b831080611d305750611d2c612100565b8310155b15611d3e5780915050611d69565b611d4783612857565b9050806040015115611d5c5780915050611d69565b611d65836129e2565b9150505b919050565b6060611d7982612099565b611daf576040517fa14c4b5000000000000000000000000000000000000000000000000000000000815260040160405180910390fd5b6000611db9612a02565b9050600081511415611dda5760405180602001604052806000815250611e05565b80611de484612a94565b604051602001611df592919061338a565b6040516020818303038152906040525b915050919050565b565b60606000600190506000808060009050611e27610d3b565b60108190555060118054905090505b80831015611ea0576011805480611e76577f4e487b7100000000000000000000000000000000000000000000000000000000600052603160045260246000fd5b60019003818190600052602060002001600090559055600183611e999190613717565b9250611e36565b5b6010548411611f2757611eb384611546565b91503373ffffffffffffffffffffffffffffffffffffffff168273ffffffffffffffffffffffffffffffffffffffff161415611f135760118490806001815401808255809150506001900390600052602060002001600090919091909150555b600184611f209190613717565b9350611ea1565b6011805480602002602001604051908101604052809291908181526020018280548015611f7357602002820191906000526020600020905b815481526020019060010190808311611f5f575b505050505094505050505090565b6000600760008473ffffffffffffffffffffffffffffffffffffffff1673ffffffffffffffffffffffffffffffffffffffff16815260200190815260200160002060008373ffffffffffffffffffffffffffffffffffffffff1673ffffffffffffffffffffffffffffffffffffffff16815260200190815260200160002060009054906101000a900460ff16905092915050565b61201d612468565b600073ffffffffffffffffffffffffffffffffffffffff168173ffffffffffffffffffffffffffffffffffffffff16141561208d576040517f08c379a00000000000000000000000000000000000000000000000000000000081526004016120849061352b565b60405180910390fd5b61209681612791565b50565b6000816120a46122cd565b111580156120b3575060005482105b80156120f1575060007c0100000000000000000000000000000000000000000000000000000000600460008581526020019081526020016000205416145b9050919050565b600033905090565b6000600a54905090565b600080549050600082141561214b576040517fb562e8dd00000000000000000000000000000000000000000000000000000000815260040160405180910390fd5b61215860008483856122c7565b600160406001901b178202600560008573ffffffffffffffffffffffffffffffffffffffff1673ffffffffffffffffffffffffffffffffffffffff168152602001908152602001600020600082825401925050819055506121cf836121c0600086600061240f565b6121c985612aed565b17612437565b6004600083815260200190815260200160002081905550600080838301905073ffffffffffffffffffffffffffffffffffffffff85169150828260007fddf252ad1be2c89b69c2b068fc378daa952ba7f163c4a11628f55a4df523b3ef600080a4600183015b81811461227057808360007fddf252ad1be2c89b69c2b068fc378daa952ba7f163c4a11628f55a4df523b3ef600080a4600181019050612235565b5060008214156122ac576040517f2e07630000000000000000000000000000000000000000000000000000000000815260040160405180910390fd5b8060008190555050506122c26000848385612462565b505050565b50505050565b60006001905090565b600080829050806122e56122cd565b1161236d5760005481101561236c5760006004600083815260200190815260200160002054905060007c01000000000000000000000000000000000000000000000000000000008216141561236a575b6000811415612360576004600083600190039350838152602001908152602001600020549050612335565b809250505061239f565b505b5b6040517fdf2d9b4200000000000000000000000000000000000000000000000000000000815260040160405180910390fd5b919050565b60008060006006600085815260200190815260200160002090508092508254915050915091565b600073ffffffffffffffffffffffffffffffffffffffff8316925073ffffffffffffffffffffffffffffffffffffffff821691508382148383141790509392505050565b60008060e883901c905060e8612426868684612afd565b62ffffff16901b9150509392505050565b600073ffffffffffffffffffffffffffffffffffffffff83169250814260a01b178317905092915050565b50505050565b612470612b06565b73ffffffffffffffffffffffffffffffffffffffff1661248e61186a565b73ffffffffffffffffffffffffffffffffffffffff16146124e4576040517f08c379a00000000000000000000000000000000000000000000000000000000081526004016124db9061358b565b60405180910390fd5b565b60006124f1836122d6565b90506000819050600080612504866123a4565b91509150841561256d57612520818461251b6120f8565b6123cb565b61256c57612535836125306120f8565b611f81565b61256b576040517f59c896be00000000000000000000000000000000000000000000000000000000815260040160405180910390fd5b5b5b61257b8360008860016122c7565b801561258657600082555b600160806001901b03600560008573ffffffffffffffffffffffffffffffffffffffff1673ffffffffffffffffffffffffffffffffffffffff1681526020019081526020016000206000828254019250508190555061262e836125eb8560008861240f565b7c02000000000000000000000000000000000000000000000000000000007c01000000000000000000000000000000000000000000000000000000001717612437565b600460008881526020019081526020016000208190555060007c0200000000000000000000000000000000000000000000000000000000851614156126b65760006001870190506000600460008381526020019081526020016000205414156126b45760005481146126b3578460046000838152602001908152602001600020819055505b5b505b85600073ffffffffffffffffffffffffffffffffffffffff168473ffffffffffffffffffffffffffffffffffffffff167fddf252ad1be2c89b69c2b068fc378daa952ba7f163c4a11628f55a4df523b3ef60405160405180910390a4612720836000886001612462565b600160008154809291906001019190505550505050505050565b600067ffffffffffffffff6040600560008573ffffffffffffffffffffffffffffffffffffffff1673ffffffffffffffffffffffffffffffffffffffff16815260200190815260200160002054901c169050919050565b6000600860009054906101000a900473ffffffffffffffffffffffffffffffffffffffff16905081600860006101000a81548173ffffffffffffffffffffffffffffffffffffffff021916908373ffffffffffffffffffffffffffffffffffffffff1602179055508173ffffffffffffffffffffffffffffffffffffffff168173ffffffffffffffffffffffffffffffffffffffff167f8be0079c531659141344cd1fd0a4f28419497f9722a3daafe3b4186f6b6457e060405160405180910390a35050565b61285f612bc4565b61287b6004600084815260200190815260200160002054612b0e565b9050919050565b60008373ffffffffffffffffffffffffffffffffffffffff1663150b7a026128a86120f8565b8786866040518563ffffffff1660e01b81526004016128ca9493929190613415565b602060405180830381600087803b1580156128e457600080fd5b505af192505050801561291557506040513d601f19601f820116820180604052508101906129129190612f92565b60015b61298f573d8060008114612945576040519150601f19603f3d011682016040523d82523d6000602084013e61294a565b606091505b50600081511415612987576040517fd1a57ed600000000000000000000000000000000000000000000000000000000815260040160405180910390fd5b805181602001fd5b63150b7a0260e01b7bffffffffffffffffffffffffffffffffffffffffffffffffffffffff1916817bffffffffffffffffffffffffffffffffffffffffffffffffffffffff191614915050949350505050565b6129ea612bc4565b6129fb6129f6836122d6565b612b0e565b9050919050565b606060098054612a119061387a565b80601f0160208091040260200160405190810160405280929190818152602001828054612a3d9061387a565b8015612a8a5780601f10612a5f57610100808354040283529160200191612a8a565b820191906000526020600020905b815481529060010190602001808311612a6d57829003601f168201915b5050505050905090565b606060a060405101806040526020810391506000825281835b600115612ad857600184039350600a81066030018453600a8104905080612ad357612ad8565b612aad565b50828103602084039350808452505050919050565b60006001821460e11b9050919050565b60009392505050565b600033905090565b612b16612bc4565b81816000019073ffffffffffffffffffffffffffffffffffffffff16908173ffffffffffffffffffffffffffffffffffffffff168152505060a082901c816020019067ffffffffffffffff16908167ffffffffffffffff168152505060007c01000000000000000000000000000000000000000000000000000000008316141581604001901515908115158152505060e882901c816060019062ffffff16908162ffffff1681525050919050565b6040518060800160405280600073ffffffffffffffffffffffffffffffffffffffff168152602001600067ffffffffffffffff168152602001600015158152602001600062ffffff1681525090565b6000612c26612c2184613626565b613601565b905082815260208101848484011115612c3e57600080fd5b612c49848285613838565b509392505050565b600081359050612c6081613a9a565b92915050565b60008083601f840112612c7857600080fd5b8235905067ffffffffffffffff811115612c9157600080fd5b602083019150836020820283011115612ca957600080fd5b9250929050565b600081359050612cbf81613ab1565b92915050565b600081359050612cd481613ac8565b92915050565b600081519050612ce981613ac8565b92915050565b600082601f830112612d0057600080fd5b8135612d10848260208601612c13565b91505092915050565b600081359050612d2881613adf565b92915050565b600060208284031215612d4057600080fd5b6000612d4e84828501612c51565b91505092915050565b60008060408385031215612d6a57600080fd5b6000612d7885828601612c51565b9250506020612d8985828601612c51565b9150509250929050565b600080600060608486031215612da857600080fd5b6000612db686828701612c51565b9350506020612dc786828701612c51565b9250506040612dd886828701612d19565b9150509250925092565b60008060008060808587031215612df857600080fd5b6000612e0687828801612c51565b9450506020612e1787828801612c51565b9350506040612e2887828801612d19565b925050606085013567ffffffffffffffff811115612e4557600080fd5b612e5187828801612cef565b91505092959194509250565b60008060408385031215612e7057600080fd5b6000612e7e85828601612c51565b9250506020612e8f85828601612cb0565b9150509250929050565b60008060408385031215612eac57600080fd5b6000612eba85828601612c51565b9250506020612ecb85828601612d19565b9150509250929050565b600080600060608486031215612eea57600080fd5b6000612ef886828701612c51565b9350506020612f0986828701612d19565b9250506040612f1a86828701612d19565b9150509250925092565b60008060208385031215612f3757600080fd5b600083013567ffffffffffffffff811115612f5157600080fd5b612f5d85828601612c66565b92509250509250929050565b600060208284031215612f7b57600080fd5b6000612f8984828501612cc5565b91505092915050565b600060208284031215612fa457600080fd5b6000612fb284828501612cda565b91505092915050565b600060208284031215612fcd57600080fd5b6000612fdb84828501612d19565b91505092915050565b6000612ff083836132a4565b60808301905092915050565b6000613008838361335d565b60208301905092915050565b61301d816137a1565b82525050565b61302c816137a1565b82525050565b600061303d82613677565b61304781856136bd565b935061305283613657565b8060005b8381101561308357815161306a8882612fe4565b9750613075836136a3565b925050600181019050613056565b5085935050505092915050565b600061309b82613682565b6130a581856136ce565b93506130b083613667565b8060005b838110156130e15781516130c88882612ffc565b97506130d3836136b0565b9250506001810190506130b4565b5085935050505092915050565b6130f7816137b3565b82525050565b613106816137b3565b82525050565b60006131178261368d565b61312181856136df565b9350613131818560208601613847565b61313a8161396a565b840191505092915050565b600061315082613698565b61315a81856136fb565b935061316a818560208601613847565b6131738161396a565b840191505092915050565b600061318982613698565b613193818561370c565b93506131a3818560208601613847565b80840191505092915050565b60006131bc6011836136fb565b91506131c78261397b565b602082019050919050565b60006131df6026836136fb565b91506131ea826139a4565b604082019050919050565b60006132026008836136fb565b915061320d826139f3565b602082019050919050565b6000613225600c836136fb565b915061323082613a1c565b602082019050919050565b60006132486020836136fb565b915061325382613a45565b602082019050919050565b600061326b6000836136f0565b915061327682613a6e565b600082019050919050565b600061328e6017836136fb565b915061329982613a71565b602082019050919050565b6080820160008201516132ba6000850182613014565b5060208201516132cd602085018261337b565b5060408201516132e060408501826130ee565b5060608201516132f3606085018261334e565b50505050565b60808201600082015161330f6000850182613014565b506020820151613322602085018261337b565b50604082015161333560408501826130ee565b506060820151613348606085018261334e565b50505050565b6133578161380b565b82525050565b6133668161381a565b82525050565b6133758161381a565b82525050565b61338481613824565b82525050565b6000613396828561317e565b91506133a2828461317e565b91508190509392505050565b60006133b98261325e565b9150819050919050565b60006020820190506133d86000830184613023565b92915050565b60006060820190506133f36000830186613023565b6134006020830185613023565b61340d604083018461336c565b949350505050565b600060808201905061342a6000830187613023565b6134376020830186613023565b613444604083018561336c565b8181036060830152613456818461310c565b905095945050505050565b60006040820190506134766000830185613023565b613483602083018461336c565b9392505050565b600060208201905081810360008301526134a48184613032565b905092915050565b600060208201905081810360008301526134c68184613090565b905092915050565b60006020820190506134e360008301846130fd565b92915050565b600060208201905081810360008301526135038184613145565b905092915050565b60006020820190508181036000830152613524816131af565b9050919050565b60006020820190508181036000830152613544816131d2565b9050919050565b60006020820190508181036000830152613564816131f5565b9050919050565b6000602082019050818103600083015261358481613218565b9050919050565b600060208201905081810360008301526135a48161323b565b9050919050565b600060208201905081810360008301526135c481613281565b9050919050565b60006080820190506135e060008301846132f9565b92915050565b60006020820190506135fb600083018461336c565b92915050565b600061360b61361c565b905061361782826138ac565b919050565b6000604051905090565b600067ffffffffffffffff8211156136415761364061393b565b5b61364a8261396a565b9050602081019050919050565b6000819050602082019050919050565b6000819050602082019050919050565b600081519050919050565b600081519050919050565b600081519050919050565b600081519050919050565b6000602082019050919050565b6000602082019050919050565b600082825260208201905092915050565b600082825260208201905092915050565b600082825260208201905092915050565b600081905092915050565b600082825260208201905092915050565b600081905092915050565b60006137228261381a565b915061372d8361381a565b9250827fffffffffffffffffffffffffffffffffffffffffffffffffffffffffffffffff03821115613762576137616138dd565b5b828201905092915050565b60006137788261381a565b91506137838361381a565b925082821015613796576137956138dd565b5b828203905092915050565b60006137ac826137eb565b9050919050565b60008115159050919050565b60007fffffffff0000000000000000000000000000000000000000000000000000000082169050919050565b600073ffffffffffffffffffffffffffffffffffffffff82169050919050565b600062ffffff82169050919050565b6000819050919050565b600067ffffffffffffffff82169050919050565b82818337600083830152505050565b60005b8381101561386557808201518184015260208101905061384a565b83811115613874576000848401525b50505050565b6000600282049050600182168061389257607f821691505b602082108114156138a6576138a561390c565b5b50919050565b6138b58261396a565b810181811067ffffffffffffffff821117156138d4576138d361393b565b5b80604052505050565b7f4e487b7100000000000000000000000000000000000000000000000000000000600052601160045260246000fd5b7f4e487b7100000000000000000000000000000000000000000000000000000000600052602260045260246000fd5b7f4e487b7100000000000000000000000000000000000000000000000000000000600052604160045260246000fd5b6000601f19601f8301169050919050565b7f4d696e7473206c65737320706c65617365000000000000000000000000000000600082015250565b7f4f776e61626c653a206e6577206f776e657220697320746865207a65726f206160008201527f6464726573730000000000000000000000000000000000000000000000000000602082015250565b7f736f6c64206f7574000000000000000000000000000000000000000000000000600082015250565b7f4d61784d696e74204f7665720000000000000000000000000000000000000000600082015250565b7f4f776e61626c653a2063616c6c6572206973206e6f7420746865206f776e6572600082015250565b50565b7f4e6f2046726565204d696e742041646472657373204974000000000000000000600082015250565b613aa3816137a1565b8114613aae57600080fd5b50565b613aba816137b3565b8114613ac557600080fd5b50565b613ad1816137bf565b8114613adc57600080fd5b50565b613ae88161381a565b8114613af357600080fd5b5056fea2646970667358221220b7e41da222c9dd418297a31e03de8f78fba156153d8649fccee4bc4b9042ed4c64736f6c63430008040033697066733a2f2f62616679626569626b6877367375357161686333776173687a7134737861347277736a7961706568656a7637763568376962376f7662616a6834712f6d65746164617461",
  "linkReferences": {},
  "deployedLinkReferences": {}
}