{
  "_format": "hh-sol-artifact-1",
  "contractName": "Tabenomics",
  "sourceName": "contracts/Tabenomics.sol",
  "abi": [
    {
      "inputs": [],
      "stateMutability": "nonpayable",
      "type": "constructor"
    },
    {
      "inputs": [],
      "name": "ApprovalCallerNotOwnerNorApproved",
      "type": "error"
    },
    {
      "inputs": [],
      "name": "ApprovalQueryForNonexistentToken",
      "type": "error"
    },
    {
      "inputs": [],
      "name": "BalanceQueryForZeroAddress",
      "type": "error"
    },
    {
      "inputs": [],
      "name": "InvalidQueryRange",
      "type": "error"
    },
    {
      "inputs": [],
      "name": "MintERC2309QuantityExceedsLimit",
      "type": "error"
    },
    {
      "inputs": [],
      "name": "MintToZeroAddress",
      "type": "error"
    },
    {
      "inputs": [],
      "name": "MintZeroQuantity",
      "type": "error"
    },
    {
      "inputs": [],
      "name": "OwnerQueryForNonexistentToken",
      "type": "error"
    },
    {
      "inputs": [],
      "name": "OwnershipNotInitializedForExtraData",
      "type": "error"
    },
    {
      "inputs": [],
      "name": "TransferCallerNotOwnerNorApproved",
      "type": "error"
    },
    {
      "inputs": [],
      "name": "TransferFromIncorrectOwner",
      "type": "error"
    },
    {
      "inputs": [],
      "name": "TransferToNonERC721ReceiverImplementer",
      "type": "error"
    },
    {
      "inputs": [],
      "name": "TransferToZeroAddress",
      "type": "error"
    },
    {
      "inputs": [],
      "name": "URIQueryForNonexistentToken",
      "type": "error"
    },
    {
      "anonymous": false,
      "inputs": [
        {
          "indexed": true,
          "internalType": "address",
          "name": "owner",
          "type": "address"
        },
        {
          "indexed": true,
          "internalType": "address",
          "name": "approved",
          "type": "address"
        },
        {
          "indexed": true,
          "internalType": "uint256",
          "name": "tokenId",
          "type": "uint256"
        }
      ],
      "name": "Approval",
      "type": "event"
    },
    {
      "anonymous": false,
      "inputs": [
        {
          "indexed": true,
          "internalType": "address",
          "name": "owner",
          "type": "address"
        },
        {
          "indexed": true,
          "internalType": "address",
          "name": "operator",
          "type": "address"
        },
        {
          "indexed": false,
          "internalType": "bool",
          "name": "approved",
          "type": "bool"
        }
      ],
      "name": "ApprovalForAll",
      "type": "event"
    },
    {
      "anonymous": false,
      "inputs": [
        {
          "indexed": true,
          "internalType": "uint256",
          "name": "fromTokenId",
          "type": "uint256"
        },
        {
          "indexed": false,
          "internalType": "uint256",
          "name": "toTokenId",
          "type": "uint256"
        },
        {
          "indexed": true,
          "internalType": "address",
          "name": "from",
          "type": "address"
        },
        {
          "indexed": true,
          "internalType": "address",
          "name": "to",
          "type": "address"
        }
      ],
      "name": "ConsecutiveTransfer",
      "type": "event"
    },
    {
      "anonymous": false,
      "inputs": [
        {
          "indexed": false,
          "internalType": "address",
          "name": "to",
          "type": "address"
        },
        {
          "indexed": false,
          "internalType": "uint256",
          "name": "quantity",
          "type": "uint256"
        }
      ],
      "name": "MintLog",
      "type": "event"
    },
    {
      "anonymous": false,
      "inputs": [
        {
          "indexed": true,
          "internalType": "address",
          "name": "previousOwner",
          "type": "address"
        },
        {
          "indexed": true,
          "internalType": "address",
          "name": "newOwner",
          "type": "address"
        }
      ],
      "name": "OwnershipTransferred",
      "type": "event"
    },
    {
      "anonymous": false,
      "inputs": [
        {
          "indexed": true,
          "internalType": "address",
          "name": "from",
          "type": "address"
        },
        {
          "indexed": true,
          "internalType": "address",
          "name": "to",
          "type": "address"
        },
        {
          "indexed": true,
          "internalType": "uint256",
          "name": "tokenId",
          "type": "uint256"
        }
      ],
      "name": "Transfer",
      "type": "event"
    },
    {
      "anonymous": false,
      "inputs": [
        {
          "indexed": false,
          "internalType": "address",
          "name": "from",
          "type": "address"
        },
        {
          "indexed": false,
          "internalType": "address",
          "name": "to",
          "type": "address"
        },
        {
          "indexed": false,
          "internalType": "uint256",
          "name": "tokenId",
          "type": "uint256"
        }
      ],
      "name": "TransferLog",
      "type": "event"
    },
    {
      "inputs": [
        {
          "internalType": "address",
          "name": "from",
          "type": "address"
        },
        {
          "internalType": "uint256",
          "name": "stratId",
          "type": "uint256"
        },
        {
          "internalType": "uint256",
          "name": "quantity",
          "type": "uint256"
        }
      ],
      "name": "AfterTokenTransfers",
      "outputs": [],
      "stateMutability": "nonpayable",
      "type": "function"
    },
    {
      "inputs": [
        {
          "internalType": "address",
          "name": "from",
          "type": "address"
        },
        {
          "internalType": "uint256",
          "name": "stratId",
          "type": "uint256"
        },
        {
          "internalType": "uint256",
          "name": "quantity",
          "type": "uint256"
        }
      ],
      "name": "BeforeTokenTransfers",
      "outputs": [],
      "stateMutability": "nonpayable",
      "type": "function"
    },
    {
      "inputs": [
        {
          "internalType": "address",
          "name": "to",
          "type": "address"
        },
        {
          "internalType": "uint256",
          "name": "tokenId",
          "type": "uint256"
        }
      ],
      "name": "OwnerTransfer",
      "outputs": [],
      "stateMutability": "nonpayable",
      "type": "function"
    },
    {
      "inputs": [
        {
          "internalType": "bool",
          "name": "_to",
          "type": "bool"
        }
      ],
      "name": "PriceCange",
      "outputs": [],
      "stateMutability": "nonpayable",
      "type": "function"
    },
    {
      "inputs": [
        {
          "internalType": "uint256",
          "name": "quantity",
          "type": "uint256"
        }
      ],
      "name": "UserTransfer",
      "outputs": [],
      "stateMutability": "nonpayable",
      "type": "function"
    },
    {
      "inputs": [
        {
          "internalType": "address",
          "name": "to",
          "type": "address"
        },
        {
          "internalType": "uint256",
          "name": "tokenId",
          "type": "uint256"
        }
      ],
      "name": "approve",
      "outputs": [],
      "stateMutability": "payable",
      "type": "function"
    },
    {
      "inputs": [
        {
          "internalType": "address",
          "name": "owner",
          "type": "address"
        }
      ],
      "name": "balanceOf",
      "outputs": [
        {
          "internalType": "uint256",
          "name": "",
          "type": "uint256"
        }
      ],
      "stateMutability": "view",
      "type": "function"
    },
    {
      "inputs": [],
      "name": "baseURI",
      "outputs": [
        {
          "internalType": "string",
          "name": "",
          "type": "string"
        }
      ],
      "stateMutability": "view",
      "type": "function"
    },
    {
      "inputs": [
        {
          "internalType": "uint256",
          "name": "tokenId",
          "type": "uint256"
        }
      ],
      "name": "burn",
      "outputs": [],
      "stateMutability": "nonpayable",
      "type": "function"
    },
    {
      "inputs": [],
      "name": "deposit",
      "outputs": [],
      "stateMutability": "payable",
      "type": "function"
    },
    {
      "inputs": [
        {
          "internalType": "uint256",
          "name": "tokenId",
          "type": "uint256"
        }
      ],
      "name": "explicitOwnershipOf",
      "outputs": [
        {
          "components": [
            {
              "internalType": "address",
              "name": "addr",
              "type": "address"
            },
            {
              "internalType": "uint64",
              "name": "startTimestamp",
              "type": "uint64"
            },
            {
              "internalType": "bool",
              "name": "burned",
              "type": "bool"
            },
            {
              "internalType": "uint24",
              "name": "extraData",
              "type": "uint24"
            }
          ],
          "internalType": "struct IERC721A.TokenOwnership",
          "name": "",
          "type": "tuple"
        }
      ],
      "stateMutability": "view",
      "type": "function"
    },
    {
      "inputs": [
        {
          "internalType": "uint256[]",
          "name": "tokenIds",
          "type": "uint256[]"
        }
      ],
      "name": "explicitOwnershipsOf",
      "outputs": [
        {
          "components": [
            {
              "internalType": "address",
              "name": "addr",
              "type": "address"
            },
            {
              "internalType": "uint64",
              "name": "startTimestamp",
              "type": "uint64"
            },
            {
              "internalType": "bool",
              "name": "burned",
              "type": "bool"
            },
            {
              "internalType": "uint24",
              "name": "extraData",
              "type": "uint24"
            }
          ],
          "internalType": "struct IERC721A.TokenOwnership[]",
          "name": "",
          "type": "tuple[]"
        }
      ],
      "stateMutability": "view",
      "type": "function"
    },
    {
      "inputs": [
        {
          "internalType": "uint256",
          "name": "quantity",
          "type": "uint256"
        }
      ],
      "name": "freemint",
      "outputs": [],
      "stateMutability": "nonpayable",
      "type": "function"
    },
    {
      "inputs": [
        {
          "internalType": "uint256",
          "name": "tokenId",
          "type": "uint256"
        }
      ],
      "name": "getApproved",
      "outputs": [
        {
          "internalType": "address",
          "name": "",
          "type": "address"
        }
      ],
      "stateMutability": "view",
      "type": "function"
    },
    {
      "inputs": [],
      "name": "getBalance",
      "outputs": [
        {
          "internalType": "uint256",
          "name": "",
          "type": "uint256"
        }
      ],
      "stateMutability": "view",
      "type": "function"
    },
    {
      "inputs": [
        {
          "internalType": "address",
          "name": "owner",
          "type": "address"
        },
        {
          "internalType": "address",
          "name": "operator",
          "type": "address"
        }
      ],
      "name": "isApprovedForAll",
      "outputs": [
        {
          "internalType": "bool",
          "name": "",
          "type": "bool"
        }
      ],
      "stateMutability": "view",
      "type": "function"
    },
    {
      "inputs": [
        {
          "internalType": "uint256",
          "name": "quantity",
          "type": "uint256"
        }
      ],
      "name": "mintOwner",
      "outputs": [],
      "stateMutability": "nonpayable",
      "type": "function"
    },
    {
      "inputs": [
        {
          "internalType": "uint256",
          "name": "quantity",
          "type": "uint256"
        }
      ],
      "name": "mintUser",
      "outputs": [],
      "stateMutability": "payable",
      "type": "function"
    },
    {
      "inputs": [],
      "name": "name",
      "outputs": [
        {
          "internalType": "string",
          "name": "",
          "type": "string"
        }
      ],
      "stateMutability": "view",
      "type": "function"
    },
    {
      "inputs": [],
      "name": "owner",
      "outputs": [
        {
          "internalType": "address",
          "name": "",
          "type": "address"
        }
      ],
      "stateMutability": "view",
      "type": "function"
    },
    {
      "inputs": [
        {
          "internalType": "uint256",
          "name": "tokenId",
          "type": "uint256"
        }
      ],
      "name": "ownerOf",
      "outputs": [
        {
          "internalType": "address",
          "name": "",
          "type": "address"
        }
      ],
      "stateMutability": "view",
      "type": "function"
    },
    {
      "inputs": [],
      "name": "quantity",
      "outputs": [
        {
          "internalType": "uint256",
          "name": "",
          "type": "uint256"
        }
      ],
      "stateMutability": "view",
      "type": "function"
    },
    {
      "inputs": [],
      "name": "renounceOwnership",
      "outputs": [],
      "stateMutability": "nonpayable",
      "type": "function"
    },
    {
      "inputs": [
        {
          "internalType": "address",
          "name": "from",
          "type": "address"
        },
        {
          "internalType": "address",
          "name": "to",
          "type": "address"
        },
        {
          "internalType": "uint256",
          "name": "tokenId",
          "type": "uint256"
        }
      ],
      "name": "safeTransferFrom",
      "outputs": [],
      "stateMutability": "payable",
      "type": "function"
    },
    {
      "inputs": [
        {
          "internalType": "address",
          "name": "from",
          "type": "address"
        },
        {
          "internalType": "address",
          "name": "to",
          "type": "address"
        },
        {
          "internalType": "uint256",
          "name": "tokenId",
          "type": "uint256"
        },
        {
          "internalType": "bytes",
          "name": "_data",
          "type": "bytes"
        }
      ],
      "name": "safeTransferFrom",
      "outputs": [],
      "stateMutability": "payable",
      "type": "function"
    },
    {
      "inputs": [
        {
          "internalType": "address",
          "name": "operator",
          "type": "address"
        },
        {
          "internalType": "bool",
          "name": "approved",
          "type": "bool"
        }
      ],
      "name": "setApprovalForAll",
      "outputs": [],
      "stateMutability": "nonpayable",
      "type": "function"
    },
    {
      "inputs": [
        {
          "internalType": "bytes4",
          "name": "interfaceId",
          "type": "bytes4"
        }
      ],
      "name": "supportsInterface",
      "outputs": [
        {
          "internalType": "bool",
          "name": "",
          "type": "bool"
        }
      ],
      "stateMutability": "view",
      "type": "function"
    },
    {
      "inputs": [],
      "name": "symbol",
      "outputs": [
        {
          "internalType": "string",
          "name": "",
          "type": "string"
        }
      ],
      "stateMutability": "view",
      "type": "function"
    },
    {
      "inputs": [
        {
          "internalType": "uint256",
          "name": "tokenId",
          "type": "uint256"
        }
      ],
      "name": "tokenURI",
      "outputs": [
        {
          "internalType": "string",
          "name": "",
          "type": "string"
        }
      ],
      "stateMutability": "view",
      "type": "function"
    },
    {
      "inputs": [
        {
          "internalType": "address",
          "name": "owner",
          "type": "address"
        }
      ],
      "name": "tokensOfOwner",
      "outputs": [
        {
          "internalType": "uint256[]",
          "name": "",
          "type": "uint256[]"
        }
      ],
      "stateMutability": "view",
      "type": "function"
    },
    {
      "inputs": [
        {
          "internalType": "address",
          "name": "owner",
          "type": "address"
        },
        {
          "internalType": "uint256",
          "name": "start",
          "type": "uint256"
        },
        {
          "internalType": "uint256",
          "name": "stop",
          "type": "uint256"
        }
      ],
      "name": "tokensOfOwnerIn",
      "outputs": [
        {
          "internalType": "uint256[]",
          "name": "",
          "type": "uint256[]"
        }
      ],
      "stateMutability": "view",
      "type": "function"
    },
    {
      "inputs": [],
      "name": "totalSupply",
      "outputs": [
        {
          "internalType": "uint256",
          "name": "",
          "type": "uint256"
        }
      ],
      "stateMutability": "view",
      "type": "function"
    },
    {
      "inputs": [
        {
          "internalType": "address",
          "name": "from",
          "type": "address"
        },
        {
          "internalType": "address",
          "name": "to",
          "type": "address"
        },
        {
          "internalType": "uint256",
          "name": "tokenId",
          "type": "uint256"
        }
      ],
      "name": "transferFrom",
      "outputs": [],
      "stateMutability": "payable",
      "type": "function"
    },
    {
      "inputs": [
        {
          "internalType": "address",
          "name": "newOwner",
          "type": "address"
        }
      ],
      "name": "transferOwnership",
      "outputs": [],
      "stateMutability": "nonpayable",
      "type": "function"
    },
    {
      "inputs": [],
      "name": "withdraw",
      "outputs": [],
      "stateMutability": "payable",
      "type": "function"
    }
  ],
  "bytecode": "0x60806040526040518060800160405280604b815260200162004134604b91396009908051906020019062000035929190620002b6565b5066b1a2bc2ec50000600a556000600b556000600c5573ebd831aa0343789150cdffce067479bb848c5ac8600e60006101000a81548173ffffffffffffffffffffffffffffffffffffffff021916908373ffffffffffffffffffffffffffffffffffffffff160217905550734cfafbce67942e79edb1dd67eccc271a536d202d600f60006101000a81548173ffffffffffffffffffffffffffffffffffffffff021916908373ffffffffffffffffffffffffffffffffffffffff1602179055503480156200010257600080fd5b506040518060400160405280600a81526020017f546162656e6f6d696373000000000000000000000000000000000000000000008152506040518060400160405280600381526020017f54424d0000000000000000000000000000000000000000000000000000000000815250816002908051906020019062000187929190620002b6565b508060039080519060200190620001a0929190620002b6565b50620001b1620001df60201b60201c565b6000819055505050620001d9620001cd620001e860201b60201c565b620001f060201b60201c565b620003cb565b60006001905090565b600033905090565b6000600860009054906101000a900473ffffffffffffffffffffffffffffffffffffffff16905081600860006101000a81548173ffffffffffffffffffffffffffffffffffffffff021916908373ffffffffffffffffffffffffffffffffffffffff1602179055508173ffffffffffffffffffffffffffffffffffffffff168173ffffffffffffffffffffffffffffffffffffffff167f8be0079c531659141344cd1fd0a4f28419497f9722a3daafe3b4186f6b6457e060405160405180910390a35050565b828054620002c49062000366565b90600052602060002090601f016020900481019282620002e8576000855562000334565b82601f106200030357805160ff191683800117855562000334565b8280016001018555821562000334579182015b828111156200033357825182559160200191906001019062000316565b5b50905062000343919062000347565b5090565b5b808211156200036257600081600090555060010162000348565b5090565b600060028204905060018216806200037f57607f821691505b602082108114156200039657620003956200039c565b5b50919050565b7f4e487b7100000000000000000000000000000000000000000000000000000000600052602260045260246000fd5b613d5980620003db6000396000f3fe6080604052600436106102045760003560e01c8063602fb1291161011857806395d89b41116100a0578063c23dc68f1161006f578063c23dc68f146106ff578063c87b56dd1461073c578063d0e30db014610779578063e985e9c514610783578063f2fde38b146107c057610204565b806395d89b411461065257806399a2557a1461067d578063a22cb465146106ba578063b88d4fde146106e357610204565b806370a08231116100e757806370a082311461056d578063715018a6146105aa5780638462151c146105c15780638a653939146105fe5780638da5cb5b1461062757610204565b8063602fb129146104c057806362963ca9146104e95780636352211e146105055780636c0360eb1461054257610204565b806318160ddd1161019b57806333f88d221161016a57806333f88d221461040b5780633ccfd60b1461043457806342842e0e1461043e57806342966c681461045a5780635bbb21771461048357610204565b806318160ddd1461037257806323b872dd1461039d578063311ab608146103b957806332fceb83146103e257610204565b80630fbe4fe2116101d75780630fbe4fe2146102ca57806312065fe0146102f3578063145987961461031e57806317fc45e21461034757610204565b806301ffc9a71461020957806306fdde0314610246578063081812fc14610271578063095ea7b3146102ae575b600080fd5b34801561021557600080fd5b50610230600480360381019061022b9190613064565b6107e9565b60405161023d919061360f565b60405180910390f35b34801561025257600080fd5b5061025b61087b565b604051610268919061362a565b60405180910390f35b34801561027d57600080fd5b50610298600480360381019061029391906130b6565b61090d565b6040516102a59190613504565b60405180910390f35b6102c860048036038101906102c39190612f6b565b61098c565b005b3480156102d657600080fd5b506102f160048036038101906102ec91906130b6565b610ad0565b005b3480156102ff57600080fd5b50610308610cae565b6040516103159190613767565b60405180910390f35b34801561032a57600080fd5b5061034560048036038101906103409190612fa7565b610ccd565b005b34801561035357600080fd5b5061035c610cde565b6040516103699190613767565b60405180910390f35b34801561037e57600080fd5b50610387610ce4565b6040516103949190613767565b60405180910390f35b6103b760048036038101906103b29190612e65565b610cfb565b005b3480156103c557600080fd5b506103e060048036038101906103db919061303b565b611020565b005b3480156103ee57600080fd5b50610409600480360381019061040491906130b6565b61105a565b005b34801561041757600080fd5b50610432600480360381019061042d91906130b6565b6111a8565b005b61043c6112a4565b005b61045860048036038101906104539190612e65565b611324565b005b34801561046657600080fd5b50610481600480360381019061047c91906130b6565b611344565b005b34801561048f57600080fd5b506104aa60048036038101906104a59190612ff6565b611352565b6040516104b791906135cb565b60405180910390f35b3480156104cc57600080fd5b506104e760048036038101906104e29190612f6b565b611487565b005b61050360048036038101906104fe91906130b6565b6114e7565b005b34801561051157600080fd5b5061052c600480360381019061052791906130b6565b61167f565b6040516105399190613504565b60405180910390f35b34801561054e57600080fd5b50610557611691565b604051610564919061362a565b60405180910390f35b34801561057957600080fd5b50610594600480360381019061058f9190612e00565b61171f565b6040516105a19190613767565b60405180910390f35b3480156105b657600080fd5b506105bf6117d8565b005b3480156105cd57600080fd5b506105e860048036038101906105e39190612e00565b6117ec565b6040516105f591906135ed565b60405180910390f35b34801561060a57600080fd5b5061062560048036038101906106209190612fa7565b611982565b005b34801561063357600080fd5b5061063c611993565b6040516106499190613504565b60405180910390f35b34801561065e57600080fd5b506106676119bd565b604051610674919061362a565b60405180910390f35b34801561068957600080fd5b506106a4600480360381019061069f9190612fa7565b611a4f565b6040516106b191906135ed565b60405180910390f35b3480156106c657600080fd5b506106e160048036038101906106dc9190612f2f565b611caf565b005b6106fd60048036038101906106f89190612eb4565b611dba565b005b34801561070b57600080fd5b50610726600480360381019061072191906130b6565b611e2d565b604051610733919061374c565b60405180910390f35b34801561074857600080fd5b50610763600480360381019061075e91906130b6565b611e97565b604051610770919061362a565b60405180910390f35b610781611f36565b005b34801561078f57600080fd5b506107aa60048036038101906107a59190612e29565b611f38565b6040516107b7919061360f565b60405180910390f35b3480156107cc57600080fd5b506107e760048036038101906107e29190612e00565b611fcc565b005b60006301ffc9a760e01b827bffffffffffffffffffffffffffffffffffffffffffffffffffffffff1916148061084457506380ac58cd60e01b827bffffffffffffffffffffffffffffffffffffffffffffffffffffffff1916145b806108745750635b5e139f60e01b827bffffffffffffffffffffffffffffffffffffffffffffffffffffffff1916145b9050919050565b60606002805461088a90613a55565b80601f01602080910402602001604051908101604052809291908181526020018280546108b690613a55565b80156109035780601f106108d857610100808354040283529160200191610903565b820191906000526020600020905b8154815290600101906020018083116108e657829003601f168201915b5050505050905090565b600061091882612050565b61094e576040517fcf4700e400000000000000000000000000000000000000000000000000000000815260040160405180910390fd5b6006600083815260200190815260200160002060000160009054906101000a900473ffffffffffffffffffffffffffffffffffffffff169050919050565b60006109978261167f565b90508073ffffffffffffffffffffffffffffffffffffffff166109b86120af565b73ffffffffffffffffffffffffffffffffffffffff1614610a1b576109e4816109df6120af565b611f38565b610a1a576040517fcfb3b94200000000000000000000000000000000000000000000000000000000815260040160405180910390fd5b5b826006600084815260200190815260200160002060000160006101000a81548173ffffffffffffffffffffffffffffffffffffffff021916908373ffffffffffffffffffffffffffffffffffffffff160217905550818373ffffffffffffffffffffffffffffffffffffffff168273ffffffffffffffffffffffffffffffffffffffff167f8c5be1e5ebec7d5bd14f71427d1e84f3dd0314c0f7b2291e5b200ac8c7c3b92560405160405180910390a4505050565b610ad8610ce4565b610bb81015610b1c576040517f08c379a0000000000000000000000000000000000000000000000000000000008152600401610b13906136cc565b60405180910390fd5b80610b25610ce4565b610bb8610b329190613948565b811115610b74576040517f08c379a0000000000000000000000000000000000000000000000000000000008152600401610b6b9061364c565b60405180910390fd5b338073ffffffffffffffffffffffffffffffffffffffff16600e60009054906101000a900473ffffffffffffffffffffffffffffffffffffffff1673ffffffffffffffffffffffffffffffffffffffff161480610c1e57508073ffffffffffffffffffffffffffffffffffffffff16600f60009054906101000a900473ffffffffffffffffffffffffffffffffffffffff1673ffffffffffffffffffffffffffffffffffffffff16145b610c5d576040517f08c379a0000000000000000000000000000000000000000000000000000000008152600401610c549061372c565b60405180910390fd5b610c656120b7565b50610c7033846120c1565b7fd1d3d8a67ea3222e190a25cd89ce4613287a3f3d1272268cfd5639d6bad416b33384604051610ca19291906135a2565b60405180910390a1505050565b60003373ffffffffffffffffffffffffffffffffffffffff1631905090565b610cd93384848461227e565b505050565b600d5481565b6000610cee612284565b6001546000540303905090565b6000610d068261228d565b90508373ffffffffffffffffffffffffffffffffffffffff168173ffffffffffffffffffffffffffffffffffffffff1614610d6d576040517fa114810000000000000000000000000000000000000000000000000000000000815260040160405180910390fd5b600080610d798461235b565b91509150610d8f8187610d8a6120af565b612382565b610ddb57610da486610d9f6120af565b611f38565b610dda576040517f59c896be00000000000000000000000000000000000000000000000000000000815260040160405180910390fd5b5b600073ffffffffffffffffffffffffffffffffffffffff168573ffffffffffffffffffffffffffffffffffffffff161415610e42576040517fea553b3400000000000000000000000000000000000000000000000000000000815260040160405180910390fd5b610e4f868686600161227e565b8015610e5a57600082555b600560008773ffffffffffffffffffffffffffffffffffffffff1673ffffffffffffffffffffffffffffffffffffffff168152602001908152602001600020600081546001900391905081905550600560008673ffffffffffffffffffffffffffffffffffffffff1673ffffffffffffffffffffffffffffffffffffffff1681526020019081526020016000206000815460010191905081905550610f2885610f048888876123c6565b7c0200000000000000000000000000000000000000000000000000000000176123ee565b600460008681526020019081526020016000208190555060007c020000000000000000000000000000000000000000000000000000000084161415610fb0576000600185019050600060046000838152602001908152602001600020541415610fae576000548114610fad578360046000838152602001908152602001600020819055505b5b505b838573ffffffffffffffffffffffffffffffffffffffff168773ffffffffffffffffffffffffffffffffffffffff167fddf252ad1be2c89b69c2b068fc378daa952ba7f163c4a11628f55a4df523b3ef60405160405180910390a46110188686866001612419565b505050505050565b61102861241f565b60011515811515141561104857666a94d74f430000600a81905550611057565b66b1a2bc2ec50000600a819055505b50565b600061106461249d565b90506000815190506000838210156110b1576040517f08c379a00000000000000000000000000000000000000000000000000000000081526004016110a8906136ac565b60405180910390fd5b5b808411156111a25761110c336110c6611993565b8584815181106110ff577f4e487b7100000000000000000000000000000000000000000000000000000000600052603260045260246000fd5b6020026020010151610cfb565b7f21425341546d2023146851fb583db9b7c6be5fed0d287293c85a8ede5193c6ea33611136611993565b85848151811061116f577f4e487b7100000000000000000000000000000000000000000000000000000000600052603260045260246000fd5b60200260200101516040516111869392919061351f565b60405180910390a160018161119b9190613898565b90506110b2565b50505050565b6111b061241f565b6111b8610ce4565b610bb810156111fc576040517f08c379a00000000000000000000000000000000000000000000000000000000081526004016111f3906136cc565b60405180910390fd5b80611205610ce4565b610bb86112129190613948565b811115611254576040517f08c379a000000000000000000000000000000000000000000000000000000000815260040161124b9061364c565b60405180910390fd5b61125c6120b7565b5061126733836120c1565b7fd1d3d8a67ea3222e190a25cd89ce4613287a3f3d1272268cfd5639d6bad416b333836040516112989291906135a2565b60405180910390a15050565b60006112ae611993565b73ffffffffffffffffffffffffffffffffffffffff16476040516112d1906134ef565b60006040518083038185875af1925050503d806000811461130e576040519150601f19603f3d011682016040523d82523d6000602084013e611313565b606091505b505090508061132157600080fd5b50565b61133f83838360405180602001604052806000815250611dba565b505050565b61134f81600161260f565b50565b6060600083839050905060008167ffffffffffffffff81111561139e577f4e487b7100000000000000000000000000000000000000000000000000000000600052604160045260246000fd5b6040519080825280602002602001820160405280156113d757816020015b6113c4612c96565b8152602001906001900390816113bc5790505b50905060005b82811461147b5761142c868683818110611420577f4e487b7100000000000000000000000000000000000000000000000000000000600052603260045260246000fd5b90506020020135611e2d565b828281518110611465577f4e487b7100000000000000000000000000000000000000000000000000000000600052603260045260246000fd5b60200260200101819052508060010190506113dd565b50809250505092915050565b61148f61241f565b6114a161149a611993565b8383610cfb565b7f21425341546d2023146851fb583db9b7c6be5fed0d287293c85a8ede5193c6ea6114ca611993565b83836040516114db9392919061351f565b60405180910390a15050565b6114ef610ce4565b610bb81015611533576040517f08c379a000000000000000000000000000000000000000000000000000000000815260040161152a906136cc565b60405180910390fd5b8061153c610ce4565b610bb86115499190613948565b81111561158b576040517f08c379a00000000000000000000000000000000000000000000000000000000081526004016115829061364c565b60405180910390fd5b81600310156115cf576040517f08c379a00000000000000000000000000000000000000000000000000000000081526004016115c6906136ec565b60405180910390fd5b600a54826115dd91906138ee565b34101561161f576040517f08c379a00000000000000000000000000000000000000000000000000000000081526004016116169061366c565b60405180910390fd5b6116276120b7565b50611630611f36565b6116386112a4565b61164233836120c1565b7fd1d3d8a67ea3222e190a25cd89ce4613287a3f3d1272268cfd5639d6bad416b333836040516116739291906135a2565b60405180910390a15050565b600061168a8261228d565b9050919050565b6009805461169e90613a55565b80601f01602080910402602001604051908101604052809291908181526020018280546116ca90613a55565b80156117175780601f106116ec57610100808354040283529160200191611717565b820191906000526020600020905b8154815290600101906020018083116116fa57829003601f168201915b505050505081565b60008073ffffffffffffffffffffffffffffffffffffffff168273ffffffffffffffffffffffffffffffffffffffff161415611787576040517f8f4eb60400000000000000000000000000000000000000000000000000000000815260040160405180910390fd5b67ffffffffffffffff600560008473ffffffffffffffffffffffffffffffffffffffff1673ffffffffffffffffffffffffffffffffffffffff16815260200190815260200160002054169050919050565b6117e061241f565b6117ea6000612863565b565b606060008060006117fc8561171f565b905060008167ffffffffffffffff811115611840577f4e487b7100000000000000000000000000000000000000000000000000000000600052604160045260246000fd5b60405190808252806020026020018201604052801561186e5781602001602082028036833780820191505090505b509050611879612c96565b6000611883612284565b90505b8386146119745761189681612929565b91508160400151156118a757611969565b600073ffffffffffffffffffffffffffffffffffffffff16826000015173ffffffffffffffffffffffffffffffffffffffff16146118e757816000015194505b8773ffffffffffffffffffffffffffffffffffffffff168573ffffffffffffffffffffffffffffffffffffffff161415611968578083878060010198508151811061195b577f4e487b7100000000000000000000000000000000000000000000000000000000600052603260045260246000fd5b6020026020010181815250505b5b806001019050611886565b508195505050505050919050565b61198e33848484612419565b505050565b6000600860009054906101000a900473ffffffffffffffffffffffffffffffffffffffff16905090565b6060600380546119cc90613a55565b80601f01602080910402602001604051908101604052809291908181526020018280546119f890613a55565b8015611a455780601f10611a1a57610100808354040283529160200191611a45565b820191906000526020600020905b815481529060010190602001808311611a2857829003601f168201915b5050505050905090565b6060818310611a8a576040517f32c1995a00000000000000000000000000000000000000000000000000000000815260040160405180910390fd5b600080611a956120b7565b9050611a9f612284565b851015611ab157611aae612284565b94505b80841115611abd578093505b6000611ac88761171f565b905084861015611aeb576000868603905081811015611ae5578091505b50611af0565b600090505b60008167ffffffffffffffff811115611b32577f4e487b7100000000000000000000000000000000000000000000000000000000600052604160045260246000fd5b604051908082528060200260200182016040528015611b605781602001602082028036833780820191505090505b5090506000821415611b785780945050505050611ca8565b6000611b8388611e2d565b905060008160400151611b9857816000015190505b60008990505b888114158015611bae5750848714155b15611c9a57611bbc81612929565b9250826040015115611bcd57611c8f565b600073ffffffffffffffffffffffffffffffffffffffff16836000015173ffffffffffffffffffffffffffffffffffffffff1614611c0d57826000015191505b8a73ffffffffffffffffffffffffffffffffffffffff168273ffffffffffffffffffffffffffffffffffffffff161415611c8e5780848880600101995081518110611c81577f4e487b7100000000000000000000000000000000000000000000000000000000600052603260045260246000fd5b6020026020010181815250505b5b806001019050611b9e565b508583528296505050505050505b9392505050565b8060076000611cbc6120af565b73ffffffffffffffffffffffffffffffffffffffff1673ffffffffffffffffffffffffffffffffffffffff16815260200190815260200160002060008473ffffffffffffffffffffffffffffffffffffffff1673ffffffffffffffffffffffffffffffffffffffff16815260200190815260200160002060006101000a81548160ff0219169083151502179055508173ffffffffffffffffffffffffffffffffffffffff16611d696120af565b73ffffffffffffffffffffffffffffffffffffffff167f17307eab39ab6107e8899845ad3d59bd9653f200f220920489ca2b5937696c3183604051611dae919061360f565b60405180910390a35050565b611dc5848484610cfb565b60008373ffffffffffffffffffffffffffffffffffffffff163b14611e2757611df084848484612954565b611e26576040517fd1a57ed600000000000000000000000000000000000000000000000000000000815260040160405180910390fd5b5b50505050565b611e35612c96565b611e3d612c96565b611e45612284565b831080611e595750611e556120b7565b8310155b15611e675780915050611e92565b611e7083612929565b9050806040015115611e855780915050611e92565b611e8e83612ab4565b9150505b919050565b6060611ea282612050565b611ed8576040517fa14c4b5000000000000000000000000000000000000000000000000000000000815260040160405180910390fd5b6000611ee2612ad4565b9050600081511415611f035760405180602001604052806000815250611f2e565b80611f0d84612b66565b604051602001611f1e9291906134cb565b6040516020818303038152906040525b915050919050565b565b6000600760008473ffffffffffffffffffffffffffffffffffffffff1673ffffffffffffffffffffffffffffffffffffffff16815260200190815260200160002060008373ffffffffffffffffffffffffffffffffffffffff1673ffffffffffffffffffffffffffffffffffffffff16815260200190815260200160002060009054906101000a900460ff16905092915050565b611fd461241f565b600073ffffffffffffffffffffffffffffffffffffffff168173ffffffffffffffffffffffffffffffffffffffff161415612044576040517f08c379a000000000000000000000000000000000000000000000000000000000815260040161203b9061368c565b60405180910390fd5b61204d81612863565b50565b60008161205b612284565b1115801561206a575060005482105b80156120a8575060007c0100000000000000000000000000000000000000000000000000000000600460008581526020019081526020016000205416145b9050919050565b600033905090565b6000600b54905090565b6000805490506000821415612102576040517fb562e8dd00000000000000000000000000000000000000000000000000000000815260040160405180910390fd5b61210f600084838561227e565b600160406001901b178202600560008573ffffffffffffffffffffffffffffffffffffffff1673ffffffffffffffffffffffffffffffffffffffff168152602001908152602001600020600082825401925050819055506121868361217760008660006123c6565b61218085612bbf565b176123ee565b6004600083815260200190815260200160002081905550600080838301905073ffffffffffffffffffffffffffffffffffffffff85169150828260007fddf252ad1be2c89b69c2b068fc378daa952ba7f163c4a11628f55a4df523b3ef600080a4600183015b81811461222757808360007fddf252ad1be2c89b69c2b068fc378daa952ba7f163c4a11628f55a4df523b3ef600080a46001810190506121ec565b506000821415612263576040517f2e07630000000000000000000000000000000000000000000000000000000000815260040160405180910390fd5b8060008190555050506122796000848385612419565b505050565b50505050565b60006001905090565b6000808290508061229c612284565b11612324576000548110156123235760006004600083815260200190815260200160002054905060007c010000000000000000000000000000000000000000000000000000000082161415612321575b60008114156123175760046000836001900393508381526020019081526020016000205490506122ec565b8092505050612356565b505b5b6040517fdf2d9b4200000000000000000000000000000000000000000000000000000000815260040160405180910390fd5b919050565b60008060006006600085815260200190815260200160002090508092508254915050915091565b600073ffffffffffffffffffffffffffffffffffffffff8316925073ffffffffffffffffffffffffffffffffffffffff821691508382148383141790509392505050565b60008060e883901c905060e86123dd868684612bcf565b62ffffff16901b9150509392505050565b600073ffffffffffffffffffffffffffffffffffffffff83169250814260a01b178317905092915050565b50505050565b612427612bd8565b73ffffffffffffffffffffffffffffffffffffffff16612445611993565b73ffffffffffffffffffffffffffffffffffffffff161461249b576040517f08c379a00000000000000000000000000000000000000000000000000000000081526004016124929061370c565b60405180910390fd5b565b606060006001905060008080600090506124b5610ce4565b60118190555060128054905090505b8083101561252e576012805480612504577f4e487b7100000000000000000000000000000000000000000000000000000000600052603160045260246000fd5b600190038181906000526020600020016000905590556001836125279190613898565b92506124c4565b5b60115484116125b5576125418461167f565b91503373ffffffffffffffffffffffffffffffffffffffff168273ffffffffffffffffffffffffffffffffffffffff1614156125a15760128490806001815401808255809150506001900390600052602060002001600090919091909150555b6001846125ae9190613898565b935061252f565b601280548060200260200160405190810160405280929190818152602001828054801561260157602002820191906000526020600020905b8154815260200190600101908083116125ed575b505050505094505050505090565b600061261a8361228d565b9050600081905060008061262d8661235b565b9150915084156126965761264981846126446120af565b612382565b6126955761265e836126596120af565b611f38565b612694576040517f59c896be00000000000000000000000000000000000000000000000000000000815260040160405180910390fd5b5b5b6126a483600088600161227e565b80156126af57600082555b600160806001901b03600560008573ffffffffffffffffffffffffffffffffffffffff1673ffffffffffffffffffffffffffffffffffffffff1681526020019081526020016000206000828254019250508190555061275783612714856000886123c6565b7c02000000000000000000000000000000000000000000000000000000007c010000000000000000000000000000000000000000000000000000000017176123ee565b600460008881526020019081526020016000208190555060007c0200000000000000000000000000000000000000000000000000000000851614156127df5760006001870190506000600460008381526020019081526020016000205414156127dd5760005481146127dc578460046000838152602001908152602001600020819055505b5b505b85600073ffffffffffffffffffffffffffffffffffffffff168473ffffffffffffffffffffffffffffffffffffffff167fddf252ad1be2c89b69c2b068fc378daa952ba7f163c4a11628f55a4df523b3ef60405160405180910390a4612849836000886001612419565b600160008154809291906001019190505550505050505050565b6000600860009054906101000a900473ffffffffffffffffffffffffffffffffffffffff16905081600860006101000a81548173ffffffffffffffffffffffffffffffffffffffff021916908373ffffffffffffffffffffffffffffffffffffffff1602179055508173ffffffffffffffffffffffffffffffffffffffff168173ffffffffffffffffffffffffffffffffffffffff167f8be0079c531659141344cd1fd0a4f28419497f9722a3daafe3b4186f6b6457e060405160405180910390a35050565b612931612c96565b61294d6004600084815260200190815260200160002054612be0565b9050919050565b60008373ffffffffffffffffffffffffffffffffffffffff1663150b7a0261297a6120af565b8786866040518563ffffffff1660e01b815260040161299c9493929190613556565b602060405180830381600087803b1580156129b657600080fd5b505af19250505080156129e757506040513d601f19601f820116820180604052508101906129e4919061308d565b60015b612a61573d8060008114612a17576040519150601f19603f3d011682016040523d82523d6000602084013e612a1c565b606091505b50600081511415612a59576040517fd1a57ed600000000000000000000000000000000000000000000000000000000815260040160405180910390fd5b805181602001fd5b63150b7a0260e01b7bffffffffffffffffffffffffffffffffffffffffffffffffffffffff1916817bffffffffffffffffffffffffffffffffffffffffffffffffffffffff191614915050949350505050565b612abc612c96565b612acd612ac88361228d565b612be0565b9050919050565b606060098054612ae390613a55565b80601f0160208091040260200160405190810160405280929190818152602001828054612b0f90613a55565b8015612b5c5780601f10612b3157610100808354040283529160200191612b5c565b820191906000526020600020905b815481529060010190602001808311612b3f57829003601f168201915b5050505050905090565b606060a060405101806040526020810391506000825281835b600115612baa57600184039350600a81066030018453600a8104905080612ba557612baa565b612b7f565b50828103602084039350808452505050919050565b60006001821460e11b9050919050565b60009392505050565b600033905090565b612be8612c96565b81816000019073ffffffffffffffffffffffffffffffffffffffff16908173ffffffffffffffffffffffffffffffffffffffff168152505060a082901c816020019067ffffffffffffffff16908167ffffffffffffffff168152505060007c01000000000000000000000000000000000000000000000000000000008316141581604001901515908115158152505060e882901c816060019062ffffff16908162ffffff1681525050919050565b6040518060800160405280600073ffffffffffffffffffffffffffffffffffffffff168152602001600067ffffffffffffffff168152602001600015158152602001600062ffffff1681525090565b6000612cf8612cf3846137a7565b613782565b905082815260208101848484011115612d1057600080fd5b612d1b848285613a13565b509392505050565b600081359050612d3281613cc7565b92915050565b60008083601f840112612d4a57600080fd5b8235905067ffffffffffffffff811115612d6357600080fd5b602083019150836020820283011115612d7b57600080fd5b9250929050565b600081359050612d9181613cde565b92915050565b600081359050612da681613cf5565b92915050565b600081519050612dbb81613cf5565b92915050565b600082601f830112612dd257600080fd5b8135612de2848260208601612ce5565b91505092915050565b600081359050612dfa81613d0c565b92915050565b600060208284031215612e1257600080fd5b6000612e2084828501612d23565b91505092915050565b60008060408385031215612e3c57600080fd5b6000612e4a85828601612d23565b9250506020612e5b85828601612d23565b9150509250929050565b600080600060608486031215612e7a57600080fd5b6000612e8886828701612d23565b9350506020612e9986828701612d23565b9250506040612eaa86828701612deb565b9150509250925092565b60008060008060808587031215612eca57600080fd5b6000612ed887828801612d23565b9450506020612ee987828801612d23565b9350506040612efa87828801612deb565b925050606085013567ffffffffffffffff811115612f1757600080fd5b612f2387828801612dc1565b91505092959194509250565b60008060408385031215612f4257600080fd5b6000612f5085828601612d23565b9250506020612f6185828601612d82565b9150509250929050565b60008060408385031215612f7e57600080fd5b6000612f8c85828601612d23565b9250506020612f9d85828601612deb565b9150509250929050565b600080600060608486031215612fbc57600080fd5b6000612fca86828701612d23565b9350506020612fdb86828701612deb565b9250506040612fec86828701612deb565b9150509250925092565b6000806020838503121561300957600080fd5b600083013567ffffffffffffffff81111561302357600080fd5b61302f85828601612d38565b92509250509250929050565b60006020828403121561304d57600080fd5b600061305b84828501612d82565b91505092915050565b60006020828403121561307657600080fd5b600061308484828501612d97565b91505092915050565b60006020828403121561309f57600080fd5b60006130ad84828501612dac565b91505092915050565b6000602082840312156130c857600080fd5b60006130d684828501612deb565b91505092915050565b60006130eb83836133e5565b60808301905092915050565b6000613103838361349e565b60208301905092915050565b6131188161397c565b82525050565b6131278161397c565b82525050565b6000613138826137f8565b613142818561383e565b935061314d836137d8565b8060005b8381101561317e57815161316588826130df565b975061317083613824565b925050600181019050613151565b5085935050505092915050565b600061319682613803565b6131a0818561384f565b93506131ab836137e8565b8060005b838110156131dc5781516131c388826130f7565b97506131ce83613831565b9250506001810190506131af565b5085935050505092915050565b6131f28161398e565b82525050565b6132018161398e565b82525050565b60006132128261380e565b61321c8185613860565b935061322c818560208601613a22565b61323581613b45565b840191505092915050565b600061324b82613819565b613255818561387c565b9350613265818560208601613a22565b61326e81613b45565b840191505092915050565b600061328482613819565b61328e818561388d565b935061329e818560208601613a22565b80840191505092915050565b60006132b760118361387c565b91506132c282613b56565b602082019050919050565b60006132da60108361387c565b91506132e582613b7f565b602082019050919050565b60006132fd60268361387c565b915061330882613ba8565b604082019050919050565b600061332060088361387c565b915061332b82613bf7565b602082019050919050565b600061334360088361387c565b915061334e82613c20565b602082019050919050565b6000613366600c8361387c565b915061337182613c49565b602082019050919050565b600061338960208361387c565b915061339482613c72565b602082019050919050565b60006133ac600083613871565b91506133b782613c9b565b600082019050919050565b60006133cf60178361387c565b91506133da82613c9e565b602082019050919050565b6080820160008201516133fb600085018261310f565b50602082015161340e60208501826134bc565b50604082015161342160408501826131e9565b506060820151613434606085018261348f565b50505050565b608082016000820151613450600085018261310f565b50602082015161346360208501826134bc565b50604082015161347660408501826131e9565b506060820151613489606085018261348f565b50505050565b613498816139e6565b82525050565b6134a7816139f5565b82525050565b6134b6816139f5565b82525050565b6134c5816139ff565b82525050565b60006134d78285613279565b91506134e38284613279565b91508190509392505050565b60006134fa8261339f565b9150819050919050565b6000602082019050613519600083018461311e565b92915050565b6000606082019050613534600083018661311e565b613541602083018561311e565b61354e60408301846134ad565b949350505050565b600060808201905061356b600083018761311e565b613578602083018661311e565b61358560408301856134ad565b81810360608301526135978184613207565b905095945050505050565b60006040820190506135b7600083018561311e565b6135c460208301846134ad565b9392505050565b600060208201905081810360008301526135e5818461312d565b905092915050565b60006020820190508181036000830152613607818461318b565b905092915050565b600060208201905061362460008301846131f8565b92915050565b600060208201905081810360008301526136448184613240565b905092915050565b60006020820190508181036000830152613665816132aa565b9050919050565b60006020820190508181036000830152613685816132cd565b9050919050565b600060208201905081810360008301526136a5816132f0565b9050919050565b600060208201905081810360008301526136c581613313565b9050919050565b600060208201905081810360008301526136e581613336565b9050919050565b6000602082019050818103600083015261370581613359565b9050919050565b600060208201905081810360008301526137258161337c565b9050919050565b60006020820190508181036000830152613745816133c2565b9050919050565b6000608082019050613761600083018461343a565b92915050565b600060208201905061377c60008301846134ad565b92915050565b600061378c61379d565b90506137988282613a87565b919050565b6000604051905090565b600067ffffffffffffffff8211156137c2576137c1613b16565b5b6137cb82613b45565b9050602081019050919050565b6000819050602082019050919050565b6000819050602082019050919050565b600081519050919050565b600081519050919050565b600081519050919050565b600081519050919050565b6000602082019050919050565b6000602082019050919050565b600082825260208201905092915050565b600082825260208201905092915050565b600082825260208201905092915050565b600081905092915050565b600082825260208201905092915050565b600081905092915050565b60006138a3826139f5565b91506138ae836139f5565b9250827fffffffffffffffffffffffffffffffffffffffffffffffffffffffffffffffff038211156138e3576138e2613ab8565b5b828201905092915050565b60006138f9826139f5565b9150613904836139f5565b9250817fffffffffffffffffffffffffffffffffffffffffffffffffffffffffffffffff048311821515161561393d5761393c613ab8565b5b828202905092915050565b6000613953826139f5565b915061395e836139f5565b92508282101561397157613970613ab8565b5b828203905092915050565b6000613987826139c6565b9050919050565b60008115159050919050565b60007fffffffff0000000000000000000000000000000000000000000000000000000082169050919050565b600073ffffffffffffffffffffffffffffffffffffffff82169050919050565b600062ffffff82169050919050565b6000819050919050565b600067ffffffffffffffff82169050919050565b82818337600083830152505050565b60005b83811015613a40578082015181840152602081019050613a25565b83811115613a4f576000848401525b50505050565b60006002820490506001821680613a6d57607f821691505b60208210811415613a8157613a80613ae7565b5b50919050565b613a9082613b45565b810181811067ffffffffffffffff82111715613aaf57613aae613b16565b5b80604052505050565b7f4e487b7100000000000000000000000000000000000000000000000000000000600052601160045260246000fd5b7f4e487b7100000000000000000000000000000000000000000000000000000000600052602260045260246000fd5b7f4e487b7100000000000000000000000000000000000000000000000000000000600052604160045260246000fd5b6000601f19601f8301169050919050565b7f4d696e7473206c65737320706c65617365000000000000000000000000000000600082015250565b7f4e6f7420656e6f756768206d6f6e657900000000000000000000000000000000600082015250565b7f4f776e61626c653a206e6577206f776e657220697320746865207a65726f206160008201527f6464726573730000000000000000000000000000000000000000000000000000602082015250565b7f4e4654204e6f6e73000000000000000000000000000000000000000000000000600082015250565b7f736f6c64206f7574000000000000000000000000000000000000000000000000600082015250565b7f4d61784d696e74204f7665720000000000000000000000000000000000000000600082015250565b7f4f776e61626c653a2063616c6c6572206973206e6f7420746865206f776e6572600082015250565b50565b7f4e6f2046726565204d696e742041646472657373204974000000000000000000600082015250565b613cd08161397c565b8114613cdb57600080fd5b50565b613ce78161398e565b8114613cf257600080fd5b50565b613cfe8161399a565b8114613d0957600080fd5b50565b613d15816139f5565b8114613d2057600080fd5b5056fea2646970667358221220edaaf3d3ed70a52effa66fe7ee4190d5346982d95c02098d4c5c041c3bdf864164736f6c63430008040033697066733a2f2f62616679626569626b6877367375357161686333776173687a7134737861347277736a7961706568656a7637763568376962376f7662616a6834712f6d65746164617461",
  "linkReferences": {},
  "deployedLinkReferences": {}
}