{
  "_format": "hh-sol-artifact-1",
  "contractName": "Tabenomics",
  "sourceName": "contracts/Tabenomics.sol",
  "abi": [
    {
      "inputs": [],
      "stateMutability": "nonpayable",
      "type": "constructor"
    },
    {
      "inputs": [],
      "name": "ApprovalCallerNotOwnerNorApproved",
      "type": "error"
    },
    {
      "inputs": [],
      "name": "ApprovalQueryForNonexistentToken",
      "type": "error"
    },
    {
      "inputs": [],
      "name": "BalanceQueryForZeroAddress",
      "type": "error"
    },
    {
      "inputs": [],
      "name": "InvalidQueryRange",
      "type": "error"
    },
    {
      "inputs": [],
      "name": "MintERC2309QuantityExceedsLimit",
      "type": "error"
    },
    {
      "inputs": [],
      "name": "MintToZeroAddress",
      "type": "error"
    },
    {
      "inputs": [],
      "name": "MintZeroQuantity",
      "type": "error"
    },
    {
      "inputs": [],
      "name": "OwnerQueryForNonexistentToken",
      "type": "error"
    },
    {
      "inputs": [],
      "name": "OwnershipNotInitializedForExtraData",
      "type": "error"
    },
    {
      "inputs": [],
      "name": "TransferCallerNotOwnerNorApproved",
      "type": "error"
    },
    {
      "inputs": [],
      "name": "TransferFromIncorrectOwner",
      "type": "error"
    },
    {
      "inputs": [],
      "name": "TransferToNonERC721ReceiverImplementer",
      "type": "error"
    },
    {
      "inputs": [],
      "name": "TransferToZeroAddress",
      "type": "error"
    },
    {
      "inputs": [],
      "name": "URIQueryForNonexistentToken",
      "type": "error"
    },
    {
      "anonymous": false,
      "inputs": [
        {
          "indexed": true,
          "internalType": "address",
          "name": "owner",
          "type": "address"
        },
        {
          "indexed": true,
          "internalType": "address",
          "name": "approved",
          "type": "address"
        },
        {
          "indexed": true,
          "internalType": "uint256",
          "name": "tokenId",
          "type": "uint256"
        }
      ],
      "name": "Approval",
      "type": "event"
    },
    {
      "anonymous": false,
      "inputs": [
        {
          "indexed": true,
          "internalType": "address",
          "name": "owner",
          "type": "address"
        },
        {
          "indexed": true,
          "internalType": "address",
          "name": "operator",
          "type": "address"
        },
        {
          "indexed": false,
          "internalType": "bool",
          "name": "approved",
          "type": "bool"
        }
      ],
      "name": "ApprovalForAll",
      "type": "event"
    },
    {
      "anonymous": false,
      "inputs": [
        {
          "indexed": true,
          "internalType": "uint256",
          "name": "fromTokenId",
          "type": "uint256"
        },
        {
          "indexed": false,
          "internalType": "uint256",
          "name": "toTokenId",
          "type": "uint256"
        },
        {
          "indexed": true,
          "internalType": "address",
          "name": "from",
          "type": "address"
        },
        {
          "indexed": true,
          "internalType": "address",
          "name": "to",
          "type": "address"
        }
      ],
      "name": "ConsecutiveTransfer",
      "type": "event"
    },
    {
      "anonymous": false,
      "inputs": [
        {
          "indexed": false,
          "internalType": "address",
          "name": "to",
          "type": "address"
        },
        {
          "indexed": false,
          "internalType": "uint256",
          "name": "quantity",
          "type": "uint256"
        }
      ],
      "name": "MintLog",
      "type": "event"
    },
    {
      "anonymous": false,
      "inputs": [
        {
          "indexed": true,
          "internalType": "address",
          "name": "previousOwner",
          "type": "address"
        },
        {
          "indexed": true,
          "internalType": "address",
          "name": "newOwner",
          "type": "address"
        }
      ],
      "name": "OwnershipTransferred",
      "type": "event"
    },
    {
      "anonymous": false,
      "inputs": [
        {
          "indexed": false,
          "internalType": "address",
          "name": "from",
          "type": "address"
        },
        {
          "indexed": false,
          "internalType": "address",
          "name": "receiver",
          "type": "address"
        },
        {
          "indexed": false,
          "internalType": "uint256",
          "name": "amount",
          "type": "uint256"
        }
      ],
      "name": "TokenTransfer",
      "type": "event"
    },
    {
      "anonymous": false,
      "inputs": [
        {
          "indexed": true,
          "internalType": "address",
          "name": "from",
          "type": "address"
        },
        {
          "indexed": true,
          "internalType": "address",
          "name": "to",
          "type": "address"
        },
        {
          "indexed": true,
          "internalType": "uint256",
          "name": "tokenId",
          "type": "uint256"
        }
      ],
      "name": "Transfer",
      "type": "event"
    },
    {
      "anonymous": false,
      "inputs": [
        {
          "indexed": false,
          "internalType": "address",
          "name": "from",
          "type": "address"
        },
        {
          "indexed": false,
          "internalType": "address",
          "name": "to",
          "type": "address"
        },
        {
          "indexed": false,
          "internalType": "uint256",
          "name": "tokenId",
          "type": "uint256"
        }
      ],
      "name": "TransferLog",
      "type": "event"
    },
    {
      "inputs": [],
      "name": "FirstSale",
      "outputs": [],
      "stateMutability": "nonpayable",
      "type": "function"
    },
    {
      "inputs": [
        {
          "internalType": "address",
          "name": "_to",
          "type": "address"
        },
        {
          "internalType": "uint256",
          "name": "quantity",
          "type": "uint256"
        }
      ],
      "name": "MintOwnerToCredit",
      "outputs": [],
      "stateMutability": "nonpayable",
      "type": "function"
    },
    {
      "inputs": [
        {
          "internalType": "address",
          "name": "_to",
          "type": "address"
        },
        {
          "internalType": "uint256",
          "name": "quantity",
          "type": "uint256"
        }
      ],
      "name": "MintOwnerToGive",
      "outputs": [],
      "stateMutability": "nonpayable",
      "type": "function"
    },
    {
      "inputs": [
        {
          "internalType": "uint256",
          "name": "quantity",
          "type": "uint256"
        }
      ],
      "name": "MintUser",
      "outputs": [],
      "stateMutability": "payable",
      "type": "function"
    },
    {
      "inputs": [],
      "name": "NomalSale",
      "outputs": [],
      "stateMutability": "nonpayable",
      "type": "function"
    },
    {
      "inputs": [
        {
          "internalType": "address",
          "name": "to",
          "type": "address"
        },
        {
          "internalType": "uint256",
          "name": "tokenId",
          "type": "uint256"
        }
      ],
      "name": "OwnerTransfer",
      "outputs": [],
      "stateMutability": "nonpayable",
      "type": "function"
    },
    {
      "inputs": [],
      "name": "SecondSale",
      "outputs": [],
      "stateMutability": "nonpayable",
      "type": "function"
    },
    {
      "inputs": [
        {
          "internalType": "uint256",
          "name": "quantity",
          "type": "uint256"
        }
      ],
      "name": "UserBurn",
      "outputs": [],
      "stateMutability": "nonpayable",
      "type": "function"
    },
    {
      "inputs": [
        {
          "internalType": "address",
          "name": "",
          "type": "address"
        }
      ],
      "name": "UserBurnBalance",
      "outputs": [
        {
          "internalType": "uint256",
          "name": "",
          "type": "uint256"
        }
      ],
      "stateMutability": "view",
      "type": "function"
    },
    {
      "inputs": [
        {
          "internalType": "address",
          "name": "to",
          "type": "address"
        },
        {
          "internalType": "uint256",
          "name": "quantity",
          "type": "uint256"
        }
      ],
      "name": "UserBurnReset",
      "outputs": [],
      "stateMutability": "nonpayable",
      "type": "function"
    },
    {
      "inputs": [
        {
          "internalType": "uint256[]",
          "name": "quantity",
          "type": "uint256[]"
        }
      ],
      "name": "UserBurnSelect",
      "outputs": [],
      "stateMutability": "nonpayable",
      "type": "function"
    },
    {
      "inputs": [
        {
          "internalType": "address",
          "name": "to",
          "type": "address"
        }
      ],
      "name": "UserBurnView",
      "outputs": [
        {
          "internalType": "uint256",
          "name": "",
          "type": "uint256"
        }
      ],
      "stateMutability": "view",
      "type": "function"
    },
    {
      "inputs": [
        {
          "internalType": "address",
          "name": "",
          "type": "address"
        }
      ],
      "name": "WhitelistAddressMaxmint",
      "outputs": [
        {
          "internalType": "uint256",
          "name": "",
          "type": "uint256"
        }
      ],
      "stateMutability": "view",
      "type": "function"
    },
    {
      "inputs": [
        {
          "internalType": "address",
          "name": "",
          "type": "address"
        }
      ],
      "name": "WhitelistAddressMintedBalance",
      "outputs": [
        {
          "internalType": "uint256",
          "name": "",
          "type": "uint256"
        }
      ],
      "stateMutability": "view",
      "type": "function"
    },
    {
      "inputs": [
        {
          "internalType": "address",
          "name": "",
          "type": "address"
        }
      ],
      "name": "addressMintedBalance",
      "outputs": [
        {
          "internalType": "uint256",
          "name": "",
          "type": "uint256"
        }
      ],
      "stateMutability": "view",
      "type": "function"
    },
    {
      "inputs": [
        {
          "internalType": "address",
          "name": "to",
          "type": "address"
        },
        {
          "internalType": "uint256",
          "name": "tokenId",
          "type": "uint256"
        }
      ],
      "name": "approve",
      "outputs": [],
      "stateMutability": "payable",
      "type": "function"
    },
    {
      "inputs": [
        {
          "internalType": "address",
          "name": "owner",
          "type": "address"
        }
      ],
      "name": "balanceOf",
      "outputs": [
        {
          "internalType": "uint256",
          "name": "",
          "type": "uint256"
        }
      ],
      "stateMutability": "view",
      "type": "function"
    },
    {
      "inputs": [],
      "name": "baseURI",
      "outputs": [
        {
          "internalType": "string",
          "name": "",
          "type": "string"
        }
      ],
      "stateMutability": "view",
      "type": "function"
    },
    {
      "inputs": [
        {
          "internalType": "uint256",
          "name": "tokenId",
          "type": "uint256"
        }
      ],
      "name": "burn",
      "outputs": [],
      "stateMutability": "nonpayable",
      "type": "function"
    },
    {
      "inputs": [
        {
          "internalType": "address",
          "name": "_user",
          "type": "address"
        }
      ],
      "name": "checker",
      "outputs": [
        {
          "internalType": "uint256",
          "name": "",
          "type": "uint256"
        }
      ],
      "stateMutability": "view",
      "type": "function"
    },
    {
      "inputs": [
        {
          "internalType": "string",
          "name": "uri",
          "type": "string"
        }
      ],
      "name": "chngebaseURI",
      "outputs": [],
      "stateMutability": "nonpayable",
      "type": "function"
    },
    {
      "inputs": [
        {
          "internalType": "address",
          "name": "",
          "type": "address"
        }
      ],
      "name": "confirmWhitelistAddressMaxmint",
      "outputs": [
        {
          "internalType": "uint256",
          "name": "",
          "type": "uint256"
        }
      ],
      "stateMutability": "view",
      "type": "function"
    },
    {
      "inputs": [
        {
          "internalType": "address",
          "name": "",
          "type": "address"
        }
      ],
      "name": "confirmWhitelistAddressMintedBalance",
      "outputs": [
        {
          "internalType": "uint256",
          "name": "",
          "type": "uint256"
        }
      ],
      "stateMutability": "view",
      "type": "function"
    },
    {
      "inputs": [
        {
          "internalType": "address",
          "name": "",
          "type": "address"
        }
      ],
      "name": "confirmWhitelistAddressRemainingmint",
      "outputs": [
        {
          "internalType": "uint256",
          "name": "",
          "type": "uint256"
        }
      ],
      "stateMutability": "view",
      "type": "function"
    },
    {
      "inputs": [
        {
          "internalType": "address",
          "name": "_user",
          "type": "address"
        }
      ],
      "name": "confirmisWhitelisted",
      "outputs": [
        {
          "internalType": "bool",
          "name": "",
          "type": "bool"
        }
      ],
      "stateMutability": "view",
      "type": "function"
    },
    {
      "inputs": [
        {
          "internalType": "address[]",
          "name": "_users",
          "type": "address[]"
        }
      ],
      "name": "confirmwhitelistUsers",
      "outputs": [],
      "stateMutability": "nonpayable",
      "type": "function"
    },
    {
      "inputs": [
        {
          "internalType": "uint256",
          "name": "",
          "type": "uint256"
        }
      ],
      "name": "confirmwhitelistedAddresses",
      "outputs": [
        {
          "internalType": "address",
          "name": "",
          "type": "address"
        }
      ],
      "stateMutability": "view",
      "type": "function"
    },
    {
      "inputs": [
        {
          "internalType": "uint256",
          "name": "tokenId",
          "type": "uint256"
        }
      ],
      "name": "explicitOwnershipOf",
      "outputs": [
        {
          "components": [
            {
              "internalType": "address",
              "name": "addr",
              "type": "address"
            },
            {
              "internalType": "uint64",
              "name": "startTimestamp",
              "type": "uint64"
            },
            {
              "internalType": "bool",
              "name": "burned",
              "type": "bool"
            },
            {
              "internalType": "uint24",
              "name": "extraData",
              "type": "uint24"
            }
          ],
          "internalType": "struct IERC721A.TokenOwnership",
          "name": "",
          "type": "tuple"
        }
      ],
      "stateMutability": "view",
      "type": "function"
    },
    {
      "inputs": [
        {
          "internalType": "uint256[]",
          "name": "tokenIds",
          "type": "uint256[]"
        }
      ],
      "name": "explicitOwnershipsOf",
      "outputs": [
        {
          "components": [
            {
              "internalType": "address",
              "name": "addr",
              "type": "address"
            },
            {
              "internalType": "uint64",
              "name": "startTimestamp",
              "type": "uint64"
            },
            {
              "internalType": "bool",
              "name": "burned",
              "type": "bool"
            },
            {
              "internalType": "uint24",
              "name": "extraData",
              "type": "uint24"
            }
          ],
          "internalType": "struct IERC721A.TokenOwnership[]",
          "name": "",
          "type": "tuple[]"
        }
      ],
      "stateMutability": "view",
      "type": "function"
    },
    {
      "inputs": [
        {
          "internalType": "uint256",
          "name": "quantity",
          "type": "uint256"
        }
      ],
      "name": "freemint",
      "outputs": [],
      "stateMutability": "nonpayable",
      "type": "function"
    },
    {
      "inputs": [
        {
          "internalType": "uint256",
          "name": "tokenId",
          "type": "uint256"
        }
      ],
      "name": "getApproved",
      "outputs": [
        {
          "internalType": "address",
          "name": "",
          "type": "address"
        }
      ],
      "stateMutability": "view",
      "type": "function"
    },
    {
      "inputs": [],
      "name": "getBalance",
      "outputs": [
        {
          "internalType": "uint256",
          "name": "",
          "type": "uint256"
        }
      ],
      "stateMutability": "view",
      "type": "function"
    },
    {
      "inputs": [],
      "name": "getTime",
      "outputs": [
        {
          "internalType": "uint256",
          "name": "",
          "type": "uint256"
        }
      ],
      "stateMutability": "view",
      "type": "function"
    },
    {
      "inputs": [
        {
          "internalType": "address",
          "name": "owner",
          "type": "address"
        },
        {
          "internalType": "address",
          "name": "operator",
          "type": "address"
        }
      ],
      "name": "isApprovedForAll",
      "outputs": [
        {
          "internalType": "bool",
          "name": "",
          "type": "bool"
        }
      ],
      "stateMutability": "view",
      "type": "function"
    },
    {
      "inputs": [
        {
          "internalType": "address",
          "name": "_user",
          "type": "address"
        }
      ],
      "name": "isWhitelisted",
      "outputs": [
        {
          "internalType": "bool",
          "name": "",
          "type": "bool"
        }
      ],
      "stateMutability": "view",
      "type": "function"
    },
    {
      "inputs": [
        {
          "internalType": "address",
          "name": "_user",
          "type": "address"
        }
      ],
      "name": "isWhitelistedonly",
      "outputs": [
        {
          "internalType": "bool",
          "name": "",
          "type": "bool"
        }
      ],
      "stateMutability": "view",
      "type": "function"
    },
    {
      "inputs": [],
      "name": "name",
      "outputs": [
        {
          "internalType": "string",
          "name": "",
          "type": "string"
        }
      ],
      "stateMutability": "view",
      "type": "function"
    },
    {
      "inputs": [],
      "name": "onlyWhitelisted",
      "outputs": [
        {
          "internalType": "bool",
          "name": "",
          "type": "bool"
        }
      ],
      "stateMutability": "view",
      "type": "function"
    },
    {
      "inputs": [],
      "name": "onlyconfirmWhitelisted",
      "outputs": [
        {
          "internalType": "bool",
          "name": "",
          "type": "bool"
        }
      ],
      "stateMutability": "view",
      "type": "function"
    },
    {
      "inputs": [],
      "name": "owner",
      "outputs": [
        {
          "internalType": "address",
          "name": "",
          "type": "address"
        }
      ],
      "stateMutability": "view",
      "type": "function"
    },
    {
      "inputs": [
        {
          "internalType": "uint256",
          "name": "tokenId",
          "type": "uint256"
        }
      ],
      "name": "ownerOf",
      "outputs": [
        {
          "internalType": "address",
          "name": "",
          "type": "address"
        }
      ],
      "stateMutability": "view",
      "type": "function"
    },
    {
      "inputs": [],
      "name": "renounceOwnership",
      "outputs": [],
      "stateMutability": "nonpayable",
      "type": "function"
    },
    {
      "inputs": [
        {
          "internalType": "address",
          "name": "from",
          "type": "address"
        },
        {
          "internalType": "address",
          "name": "to",
          "type": "address"
        },
        {
          "internalType": "uint256",
          "name": "tokenId",
          "type": "uint256"
        }
      ],
      "name": "safeTransferFrom",
      "outputs": [],
      "stateMutability": "payable",
      "type": "function"
    },
    {
      "inputs": [
        {
          "internalType": "address",
          "name": "from",
          "type": "address"
        },
        {
          "internalType": "address",
          "name": "to",
          "type": "address"
        },
        {
          "internalType": "uint256",
          "name": "tokenId",
          "type": "uint256"
        },
        {
          "internalType": "bytes",
          "name": "_data",
          "type": "bytes"
        }
      ],
      "name": "safeTransferFrom",
      "outputs": [],
      "stateMutability": "payable",
      "type": "function"
    },
    {
      "inputs": [],
      "name": "saleFinish",
      "outputs": [
        {
          "internalType": "uint256",
          "name": "",
          "type": "uint256"
        }
      ],
      "stateMutability": "view",
      "type": "function"
    },
    {
      "inputs": [],
      "name": "saleStartTime1st",
      "outputs": [
        {
          "internalType": "uint256",
          "name": "",
          "type": "uint256"
        }
      ],
      "stateMutability": "view",
      "type": "function"
    },
    {
      "inputs": [],
      "name": "saleStartTime2nd",
      "outputs": [
        {
          "internalType": "uint256",
          "name": "",
          "type": "uint256"
        }
      ],
      "stateMutability": "view",
      "type": "function"
    },
    {
      "inputs": [],
      "name": "saleStartTimePublic",
      "outputs": [
        {
          "internalType": "uint256",
          "name": "",
          "type": "uint256"
        }
      ],
      "stateMutability": "view",
      "type": "function"
    },
    {
      "inputs": [
        {
          "internalType": "address",
          "name": "operator",
          "type": "address"
        },
        {
          "internalType": "bool",
          "name": "approved",
          "type": "bool"
        }
      ],
      "name": "setApprovalForAll",
      "outputs": [],
      "stateMutability": "nonpayable",
      "type": "function"
    },
    {
      "inputs": [
        {
          "internalType": "bytes4",
          "name": "interfaceId",
          "type": "bytes4"
        }
      ],
      "name": "supportsInterface",
      "outputs": [
        {
          "internalType": "bool",
          "name": "",
          "type": "bool"
        }
      ],
      "stateMutability": "view",
      "type": "function"
    },
    {
      "inputs": [],
      "name": "symbol",
      "outputs": [
        {
          "internalType": "string",
          "name": "",
          "type": "string"
        }
      ],
      "stateMutability": "view",
      "type": "function"
    },
    {
      "inputs": [
        {
          "internalType": "uint256",
          "name": "tokenId",
          "type": "uint256"
        }
      ],
      "name": "tokenURI",
      "outputs": [
        {
          "internalType": "string",
          "name": "",
          "type": "string"
        }
      ],
      "stateMutability": "view",
      "type": "function"
    },
    {
      "inputs": [
        {
          "internalType": "address",
          "name": "owner",
          "type": "address"
        }
      ],
      "name": "tokensOfOwner",
      "outputs": [
        {
          "internalType": "uint256[]",
          "name": "",
          "type": "uint256[]"
        }
      ],
      "stateMutability": "view",
      "type": "function"
    },
    {
      "inputs": [
        {
          "internalType": "address",
          "name": "owner",
          "type": "address"
        },
        {
          "internalType": "uint256",
          "name": "start",
          "type": "uint256"
        },
        {
          "internalType": "uint256",
          "name": "stop",
          "type": "uint256"
        }
      ],
      "name": "tokensOfOwnerIn",
      "outputs": [
        {
          "internalType": "uint256[]",
          "name": "",
          "type": "uint256[]"
        }
      ],
      "stateMutability": "view",
      "type": "function"
    },
    {
      "inputs": [],
      "name": "totalSupply",
      "outputs": [
        {
          "internalType": "uint256",
          "name": "",
          "type": "uint256"
        }
      ],
      "stateMutability": "view",
      "type": "function"
    },
    {
      "inputs": [
        {
          "internalType": "address",
          "name": "from",
          "type": "address"
        },
        {
          "internalType": "address",
          "name": "to",
          "type": "address"
        },
        {
          "internalType": "uint256",
          "name": "tokenId",
          "type": "uint256"
        }
      ],
      "name": "transferFrom",
      "outputs": [],
      "stateMutability": "payable",
      "type": "function"
    },
    {
      "inputs": [
        {
          "internalType": "address",
          "name": "newOwner",
          "type": "address"
        }
      ],
      "name": "transferOwnership",
      "outputs": [],
      "stateMutability": "nonpayable",
      "type": "function"
    },
    {
      "inputs": [],
      "name": "viewOGaddress",
      "outputs": [
        {
          "internalType": "address[]",
          "name": "",
          "type": "address[]"
        }
      ],
      "stateMutability": "view",
      "type": "function"
    },
    {
      "inputs": [],
      "name": "viewWLaddress",
      "outputs": [
        {
          "internalType": "address[]",
          "name": "",
          "type": "address[]"
        }
      ],
      "stateMutability": "view",
      "type": "function"
    },
    {
      "inputs": [
        {
          "internalType": "address[]",
          "name": "_users",
          "type": "address[]"
        }
      ],
      "name": "whitelistUsers",
      "outputs": [],
      "stateMutability": "nonpayable",
      "type": "function"
    },
    {
      "inputs": [
        {
          "internalType": "uint256",
          "name": "",
          "type": "uint256"
        }
      ],
      "name": "whitelistedAddresses",
      "outputs": [
        {
          "internalType": "address",
          "name": "",
          "type": "address"
        }
      ],
      "stateMutability": "view",
      "type": "function"
    },
    {
      "inputs": [],
      "name": "withdraw",
      "outputs": [],
      "stateMutability": "payable",
      "type": "function"
    }
  ],
  "bytecode": "0x60806040526040518060800160405280604b815260200162006619604b9139600990816200002e919062000566565b506000600a556000600b5573ebd831aa0343789150cdffce067479bb848c5ac8600c60006101000a81548173ffffffffffffffffffffffffffffffffffffffff021916908373ffffffffffffffffffffffffffffffffffffffff160217905550734cfafbce67942e79edb1dd67eccc271a536d202d600d60006101000a81548173ffffffffffffffffffffffffffffffffffffffff021916908373ffffffffffffffffffffffffffffffffffffffff1602179055506363da5440600e556363da5698600f556363da58f06010556363da5b486011556000601660006101000a81548160ff0219169083151502179055506000601660016101000a81548160ff0219169083151502179055503480156200014657600080fd5b506040518060400160405280600a81526020017f546162656e6f6d696373000000000000000000000000000000000000000000008152506040518060400160405280600381526020017f54424d00000000000000000000000000000000000000000000000000000000008152508160029081620001c4919062000566565b508060039081620001d6919062000566565b50620001e76200021560201b60201c565b60008190555050506200020f620002036200021e60201b60201c565b6200022660201b60201c565b6200064d565b60006001905090565b600033905090565b6000600860009054906101000a900473ffffffffffffffffffffffffffffffffffffffff16905081600860006101000a81548173ffffffffffffffffffffffffffffffffffffffff021916908373ffffffffffffffffffffffffffffffffffffffff1602179055508173ffffffffffffffffffffffffffffffffffffffff168173ffffffffffffffffffffffffffffffffffffffff167f8be0079c531659141344cd1fd0a4f28419497f9722a3daafe3b4186f6b6457e060405160405180910390a35050565b600081519050919050565b7f4e487b7100000000000000000000000000000000000000000000000000000000600052604160045260246000fd5b7f4e487b7100000000000000000000000000000000000000000000000000000000600052602260045260246000fd5b600060028204905060018216806200036e57607f821691505b60208210810362000384576200038362000326565b5b50919050565b60008190508160005260206000209050919050565b60006020601f8301049050919050565b600082821b905092915050565b600060088302620003ee7fffffffffffffffffffffffffffffffffffffffffffffffffffffffffffffffff82620003af565b620003fa8683620003af565b95508019841693508086168417925050509392505050565b6000819050919050565b6000819050919050565b600062000447620004416200043b8462000412565b6200041c565b62000412565b9050919050565b6000819050919050565b620004638362000426565b6200047b62000472826200044e565b848454620003bc565b825550505050565b600090565b6200049262000483565b6200049f81848462000458565b505050565b5b81811015620004c757620004bb60008262000488565b600181019050620004a5565b5050565b601f8211156200051657620004e0816200038a565b620004eb846200039f565b81016020851015620004fb578190505b620005136200050a856200039f565b830182620004a4565b50505b505050565b600082821c905092915050565b60006200053b600019846008026200051b565b1980831691505092915050565b600062000556838362000528565b9150826002028217905092915050565b6200057182620002ec565b67ffffffffffffffff8111156200058d576200058c620002f7565b5b62000599825462000355565b620005a6828285620004cb565b600060209050601f831160018114620005de5760008415620005c9578287015190505b620005d5858262000548565b86555062000645565b601f198416620005ee866200038a565b60005b828110156200061857848901518255600182019150602085019450602081019050620005f1565b8683101562000638578489015162000634601f89168262000528565b8355505b6001600288020188555050505b505050505050565b615fbc806200065d6000396000f3fe6080604052600436106103ad5760003560e01c80635f13341e116101e7578063a22cb4651161010d578063c87b56dd116100a0578063e985e9c51161006f578063e985e9c514610e50578063edec5f2714610e8d578063f1553e9914610eb6578063f2fde38b14610ecd576103ad565b8063c87b56dd14610d84578063ce9ea7a014610dc1578063dc8924e314610dfe578063e0505b4a14610e27576103ad565b8063bf33fe07116100dc578063bf33fe0714610ccc578063c03516c314610cf5578063c23dc68f14610d1e578063c6992d8f14610d5b576103ad565b8063a22cb46514610c1f578063b3e8c8d214610c48578063b88d4fde14610c73578063ba4e5c4914610c8f576103ad565b80638462151c1161018557806399a2557a1161015457806399a2557a14610b3d5780639c70b51214610b7a5780639ecc40a814610ba55780639fe93e5314610be2576103ad565b80638462151c14610a7f5780638520593314610abc5780638da5cb5b14610ae757806395d89b4114610b12576103ad565b80636c0360eb116101c15780636c0360eb146109d557806370a0823114610a00578063715018a614610a3d5780637c5ba23514610a54576103ad565b80635f13341e14610958578063602fb1291461096f5780636352211e14610998576103ad565b80632ccfc6b6116102d75780634b45e87a1161026a5780635a650257116102395780635a650257146108645780635bbb2177146108a15780635dec6b17146108de5780635e5c78a41461091b576103ad565b80634b45e87a1461078257806350f04664146107bf578063557ed1ba146107fc5780635778742b14610827576103ad565b806342842e0e116102a657806342842e0e146106f657806342966c681461071257806344d27c731461073b578063483baa5714610757576103ad565b80632ccfc6b614610659578063369ae7e5146106845780633af32abf146106af5780633ccfd60b146106ec576103ad565b80630bbd35111161034f57806318160ddd1161031e57806318160ddd146105ac57806318cae269146105d757806323b872dd146106145780632928301914610630576103ad565b80630bbd3511146105045780630fbe4fe21461052f57806310c08c981461055857806312065fe014610581576103ad565b806306fdde031161038b57806306fdde0314610443578063081812fc1461046e57806308b28fa3146104ab578063095ea7b3146104e8576103ad565b8063016c683c146103b257806301ffc9a7146103ef5780630521c6f01461042c575b600080fd5b3480156103be57600080fd5b506103d960048036038101906103d4919061485b565b610ef6565b6040516103e691906148a1565b60405180910390f35b3480156103fb57600080fd5b5061041660048036038101906104119190614914565b610fac565b604051610423919061495c565b60405180910390f35b34801561043857600080fd5b5061044161103e565b005b34801561044f57600080fd5b5061045861107e565b6040516104659190614a07565b60405180910390f35b34801561047a57600080fd5b5061049560048036038101906104909190614a55565b611110565b6040516104a29190614a91565b60405180910390f35b3480156104b757600080fd5b506104d260048036038101906104cd919061485b565b61118f565b6040516104df91906148a1565b60405180910390f35b61050260048036038101906104fd9190614aac565b6111a7565b005b34801561051057600080fd5b506105196112eb565b60405161052691906148a1565b60405180910390f35b34801561053b57600080fd5b5061055660048036038101906105519190614a55565b6112f1565b005b34801561056457600080fd5b5061057f600480360381019061057a9190614a55565b6114cf565b005b34801561058d57600080fd5b506105966115c3565b6040516105a391906148a1565b60405180910390f35b3480156105b857600080fd5b506105c16115e2565b6040516105ce91906148a1565b60405180910390f35b3480156105e357600080fd5b506105fe60048036038101906105f9919061485b565b6115f9565b60405161060b91906148a1565b60405180910390f35b61062e60048036038101906106299190614aec565b611611565b005b34801561063c57600080fd5b5061065760048036038101906106529190614aac565b611933565b005b34801561066557600080fd5b5061066e611ac1565b60405161067b9190614bfd565b60405180910390f35b34801561069057600080fd5b50610699611b4f565b6040516106a691906148a1565b60405180910390f35b3480156106bb57600080fd5b506106d660048036038101906106d1919061485b565b611b55565b6040516106e3919061495c565b60405180910390f35b6106f4611c78565b005b610710600480360381019061070b9190614aec565b611cf8565b005b34801561071e57600080fd5b5061073960048036038101906107349190614a55565b611d18565b005b61075560048036038101906107509190614a55565b611d26565b005b34801561076357600080fd5b5061076c61248b565b604051610779919061495c565b60405180910390f35b34801561078e57600080fd5b506107a960048036038101906107a4919061485b565b61249e565b6040516107b6919061495c565b60405180910390f35b3480156107cb57600080fd5b506107e660048036038101906107e1919061485b565b61254c565b6040516107f391906148a1565b60405180910390f35b34801561080857600080fd5b50610811612564565b60405161081e91906148a1565b60405180910390f35b34801561083357600080fd5b5061084e6004803603810190610849919061485b565b61256c565b60405161085b91906148a1565b60405180910390f35b34801561087057600080fd5b5061088b6004803603810190610886919061485b565b612584565b60405161089891906148a1565b60405180910390f35b3480156108ad57600080fd5b506108c860048036038101906108c39190614c84565b61259c565b6040516108d59190614e25565b60405180910390f35b3480156108ea57600080fd5b506109056004803603810190610900919061485b565b61265f565b604051610912919061495c565b60405180910390f35b34801561092757600080fd5b50610942600480360381019061093d9190614a55565b61270d565b60405161094f9190614a91565b60405180910390f35b34801561096457600080fd5b5061096d61274c565b005b34801561097b57600080fd5b5061099660048036038101906109919190614aac565b61278c565b005b3480156109a457600080fd5b506109bf60048036038101906109ba9190614a55565b6127ec565b6040516109cc9190614a91565b60405180910390f35b3480156109e157600080fd5b506109ea6127fe565b6040516109f79190614a07565b60405180910390f35b348015610a0c57600080fd5b50610a276004803603810190610a22919061485b565b61288c565b604051610a3491906148a1565b60405180910390f35b348015610a4957600080fd5b50610a52612944565b005b348015610a6057600080fd5b50610a69612958565b604051610a769190614bfd565b60405180910390f35b348015610a8b57600080fd5b50610aa66004803603810190610aa1919061485b565b6129e6565b604051610ab39190614f05565b60405180910390f35b348015610ac857600080fd5b50610ad1612b29565b604051610ade91906148a1565b60405180910390f35b348015610af357600080fd5b50610afc612b2f565b604051610b099190614a91565b60405180910390f35b348015610b1e57600080fd5b50610b27612b59565b604051610b349190614a07565b60405180910390f35b348015610b4957600080fd5b50610b646004803603810190610b5f9190614f27565b612beb565b604051610b719190614f05565b60405180910390f35b348015610b8657600080fd5b50610b8f612df7565b604051610b9c919061495c565b60405180910390f35b348015610bb157600080fd5b50610bcc6004803603810190610bc7919061485b565b612e0a565b604051610bd991906148a1565b60405180910390f35b348015610bee57600080fd5b50610c096004803603810190610c04919061485b565b612e22565b604051610c1691906148a1565b60405180910390f35b348015610c2b57600080fd5b50610c466004803603810190610c419190614fa6565b612e3a565b005b348015610c5457600080fd5b50610c5d612f45565b604051610c6a91906148a1565b60405180910390f35b610c8d6004803603810190610c889190615116565b612f4b565b005b348015610c9b57600080fd5b50610cb66004803603810190610cb19190614a55565b612fbe565b604051610cc39190614a91565b60405180910390f35b348015610cd857600080fd5b50610cf36004803603810190610cee91906151ef565b612ffd565b005b348015610d0157600080fd5b50610d1c6004803603810190610d1791906152dd565b6130e2565b005b348015610d2a57600080fd5b50610d456004803603810190610d409190614a55565b6130fd565b604051610d52919061537b565b60405180910390f35b348015610d6757600080fd5b50610d826004803603810190610d7d9190615459565b613167565b005b348015610d9057600080fd5b50610dab6004803603810190610da69190614a55565b613321565b604051610db89190614a07565b60405180910390f35b348015610dcd57600080fd5b50610de86004803603810190610de3919061485b565b6133bf565b604051610df591906148a1565b60405180910390f35b348015610e0a57600080fd5b50610e256004803603810190610e209190614aac565b613408565b005b348015610e3357600080fd5b50610e4e6004803603810190610e499190614aac565b613505565b005b348015610e5c57600080fd5b50610e776004803603810190610e7291906154a2565b61359f565b604051610e84919061495c565b60405180910390f35b348015610e9957600080fd5b50610eb46004803603810190610eaf91906151ef565b613633565b005b348015610ec257600080fd5b50610ecb613718565b005b348015610ed957600080fd5b50610ef46004803603810190610eef919061485b565b613758565b005b60008060009050601860008473ffffffffffffffffffffffffffffffffffffffff1673ffffffffffffffffffffffffffffffffffffffff1681526020019081526020016000205481610f489190615511565b9050600a601760008573ffffffffffffffffffffffffffffffffffffffff1673ffffffffffffffffffffffffffffffffffffffff16815260200190815260200160002054610f969190615545565b81610fa19190615511565b905080915050919050565b60006301ffc9a760e01b827bffffffffffffffffffffffffffffffffffffffffffffffffffffffff1916148061100757506380ac58cd60e01b827bffffffffffffffffffffffffffffffffffffffffffffffffffffffff1916145b806110375750635b5e139f60e01b827bffffffffffffffffffffffffffffffffffffffffffffffffffffffff1916145b9050919050565b6110466137db565b6000601660006101000a81548160ff0219169083151502179055506000601660016101000a81548160ff021916908315150217905550565b60606002805461108d906155b6565b80601f01602080910402602001604051908101604052809291908181526020018280546110b9906155b6565b80156111065780601f106110db57610100808354040283529160200191611106565b820191906000526020600020905b8154815290600101906020018083116110e957829003601f168201915b5050505050905090565b600061111b82613859565b611151576040517fcf4700e400000000000000000000000000000000000000000000000000000000815260040160405180910390fd5b6006600083815260200190815260200160002060000160009054906101000a900473ffffffffffffffffffffffffffffffffffffffff169050919050565b60176020528060005260406000206000915090505481565b60006111b2826127ec565b90508073ffffffffffffffffffffffffffffffffffffffff166111d36138b8565b73ffffffffffffffffffffffffffffffffffffffff1614611236576111ff816111fa6138b8565b61359f565b611235576040517fcfb3b94200000000000000000000000000000000000000000000000000000000815260040160405180910390fd5b5b826006600084815260200190815260200160002060000160006101000a81548173ffffffffffffffffffffffffffffffffffffffff021916908373ffffffffffffffffffffffffffffffffffffffff160217905550818373ffffffffffffffffffffffffffffffffffffffff168273ffffffffffffffffffffffffffffffffffffffff167f8c5be1e5ebec7d5bd14f71427d1e84f3dd0314c0f7b2291e5b200ac8c7c3b92560405160405180910390a4505050565b60115481565b6112f96115e2565b610bb8101561133d576040517f08c379a000000000000000000000000000000000000000000000000000000000815260040161133490615633565b60405180910390fd5b806113466115e2565b610bb86113539190615653565b811115611395576040517f08c379a000000000000000000000000000000000000000000000000000000000815260040161138c906156d3565b60405180910390fd5b338073ffffffffffffffffffffffffffffffffffffffff16600c60009054906101000a900473ffffffffffffffffffffffffffffffffffffffff1673ffffffffffffffffffffffffffffffffffffffff16148061143f57508073ffffffffffffffffffffffffffffffffffffffff16600d60009054906101000a900473ffffffffffffffffffffffffffffffffffffffff1673ffffffffffffffffffffffffffffffffffffffff16145b61147e576040517f08c379a00000000000000000000000000000000000000000000000000000000081526004016114759061573f565b60405180910390fd5b6114866138c0565b5061149133846138ca565b7fd1d3d8a67ea3222e190a25cd89ce4613287a3f3d1272268cfd5639d6bad416b333846040516114c292919061575f565b60405180910390a1505050565b60006114d96138e8565b9050600081519050600083821015611526576040517f08c379a000000000000000000000000000000000000000000000000000000000815260040161151d906157d4565b60405180910390fd5b5b808411156115bd57611554838281518110611545576115446157f4565b5b60200260200101516001613a33565b601d60003373ffffffffffffffffffffffffffffffffffffffff1673ffffffffffffffffffffffffffffffffffffffff16815260200190815260200160002060008154809291906115a490615823565b91905055506001816115b69190615511565b9050611527565b50505050565b60003373ffffffffffffffffffffffffffffffffffffffff1631905090565b60006115ec613c85565b6001546000540303905090565b601c6020528060005260406000206000915090505481565b600061161c82613c8e565b90508373ffffffffffffffffffffffffffffffffffffffff168173ffffffffffffffffffffffffffffffffffffffff1614611683576040517fa114810000000000000000000000000000000000000000000000000000000000815260040160405180910390fd5b60008061168f84613d5a565b915091506116a581876116a06138b8565b613d81565b6116f1576116ba866116b56138b8565b61359f565b6116f0576040517f59c896be00000000000000000000000000000000000000000000000000000000815260040160405180910390fd5b5b600073ffffffffffffffffffffffffffffffffffffffff168573ffffffffffffffffffffffffffffffffffffffff1603611757576040517fea553b3400000000000000000000000000000000000000000000000000000000815260040160405180910390fd5b6117648686866001613dc5565b801561176f57600082555b600560008773ffffffffffffffffffffffffffffffffffffffff1673ffffffffffffffffffffffffffffffffffffffff168152602001908152602001600020600081546001900391905081905550600560008673ffffffffffffffffffffffffffffffffffffffff1673ffffffffffffffffffffffffffffffffffffffff168152602001908152602001600020600081546001019190508190555061183d85611819888887613dcb565b7c020000000000000000000000000000000000000000000000000000000017613df3565b600460008681526020019081526020016000208190555060007c02000000000000000000000000000000000000000000000000000000008416036118c357600060018501905060006004600083815260200190815260200160002054036118c15760005481146118c0578360046000838152602001908152602001600020819055505b5b505b838573ffffffffffffffffffffffffffffffffffffffff168773ffffffffffffffffffffffffffffffffffffffff167fddf252ad1be2c89b69c2b068fc378daa952ba7f163c4a11628f55a4df523b3ef60405160405180910390a461192b8686866001613e1e565b505050505050565b61193b6137db565b6119436115e2565b610bb81015611987576040517f08c379a000000000000000000000000000000000000000000000000000000000815260040161197e90615633565b60405180910390fd5b806119906115e2565b610bb861199d9190615653565b8111156119df576040517f08c379a00000000000000000000000000000000000000000000000000000000081526004016119d6906156d3565b60405180910390fd5b6119e7612b2f565b73ffffffffffffffffffffffffffffffffffffffff168373ffffffffffffffffffffffffffffffffffffffff1614611a705781601c60008573ffffffffffffffffffffffffffffffffffffffff1673ffffffffffffffffffffffffffffffffffffffff1681526020019081526020016000206000828254611a689190615511565b925050819055505b611a786138c0565b50611a8383836138ca565b7fd1d3d8a67ea3222e190a25cd89ce4613287a3f3d1272268cfd5639d6bad416b38383604051611ab492919061575f565b60405180910390a1505050565b60606015805480602002602001604051908101604052809291908181526020018280548015611b4557602002820191906000526020600020905b8160009054906101000a900473ffffffffffffffffffffffffffffffffffffffff1673ffffffffffffffffffffffffffffffffffffffff1681526020019060010190808311611afb575b5050505050905090565b600e5481565b600080600090505b601480549050811015611c6d578273ffffffffffffffffffffffffffffffffffffffff1660148281548110611b9557611b946157f4565b5b9060005260206000200160009054906101000a900473ffffffffffffffffffffffffffffffffffffffff1673ffffffffffffffffffffffffffffffffffffffff161480611c4b57508273ffffffffffffffffffffffffffffffffffffffff1660158281548110611c0857611c076157f4565b5b9060005260206000200160009054906101000a900473ffffffffffffffffffffffffffffffffffffffff1673ffffffffffffffffffffffffffffffffffffffff16145b15611c5a576001915050611c73565b8080611c6590615823565b915050611b5d565b50600090505b919050565b6000611c82612b2f565b73ffffffffffffffffffffffffffffffffffffffff1647604051611ca59061589c565b60006040518083038185875af1925050503d8060008114611ce2576040519150601f19603f3d011682016040523d82523d6000602084013e611ce7565b606091505b5050905080611cf557600080fd5b50565b611d1383838360405180602001604052806000815250612f4b565b505050565b611d23816001613a33565b50565b611d2e6115e2565b610bb81015611d72576040517f08c379a0000000000000000000000000000000000000000000000000000000008152600401611d6990615633565b60405180910390fd5b80611d7b6115e2565b610bb8611d889190615653565b811115611dca576040517f08c379a0000000000000000000000000000000000000000000000000000000008152600401611dc1906156d3565b60405180910390fd5b60011515601660009054906101000a900460ff1615151480611dfc5750600e544210158015611dfb5750600f544211155b5b15611fde57667c58508723800082611e149190615545565b341015611e56576040517f08c379a0000000000000000000000000000000000000000000000000000000008152600401611e4d906158fd565b60405180910390fd5b611e5f3361265f565b611e9e576040517f08c379a0000000000000000000000000000000000000000000000000000000008152600401611e9590615969565b60405180910390fd5b6000601860003373ffffffffffffffffffffffffffffffffffffffff1673ffffffffffffffffffffffffffffffffffffffff168152602001908152602001600020549050611eeb33613e24565b6000601a60003373ffffffffffffffffffffffffffffffffffffffff1673ffffffffffffffffffffffffffffffffffffffff168152602001908152602001600020549050808483611f3c9190615511565b1115611f7d576040517f08c379a0000000000000000000000000000000000000000000000000000000008152600401611f74906159d5565b60405180910390fd5b8382611f899190615511565b81611f949190615653565b601b60003373ffffffffffffffffffffffffffffffffffffffff1673ffffffffffffffffffffffffffffffffffffffff16815260200190815260200160002081905550505061229d565b60011515601660019054906101000a900460ff16151514806120105750600f54421015801561200f57506010544211155b5b1561219857667c585087238000826120289190615545565b34101561206a576040517f08c379a0000000000000000000000000000000000000000000000000000000008152600401612061906158fd565b60405180910390fd5b61207333611b55565b6120b2576040517f08c379a00000000000000000000000000000000000000000000000000000000081526004016120a990615a41565b60405180910390fd5b6000601760003373ffffffffffffffffffffffffffffffffffffffff1673ffffffffffffffffffffffffffffffffffffffff1681526020019081526020016000205490506120ff33613f12565b6000601960003373ffffffffffffffffffffffffffffffffffffffff1673ffffffffffffffffffffffffffffffffffffffff1681526020019081526020016000205490508084836121509190615511565b1115612191576040517f08c379a0000000000000000000000000000000000000000000000000000000008152600401612188906159d5565b60405180910390fd5b505061229c565b60105442101580156121ac57506011544211155b1561229b57668e1bc9bf040000826121c49190615545565b341015612206576040517f08c379a00000000000000000000000000000000000000000000000000000000081526004016121fd906158fd565b60405180910390fd5b6000601c60003373ffffffffffffffffffffffffffffffffffffffff1673ffffffffffffffffffffffffffffffffffffffff168152602001908152602001600020549050600383826122589190615511565b1115612299576040517f08c379a0000000000000000000000000000000000000000000000000000000008152600401612290906159d5565b60405180910390fd5b505b5b5b6122a56138c0565b506122b033836138ca565b6122b8611c78565b60011515601660009054906101000a900460ff16151514806122ea5750600e5442101580156122e95750600f544211155b5b1561234a5781601860003373ffffffffffffffffffffffffffffffffffffffff1673ffffffffffffffffffffffffffffffffffffffff168152602001908152602001600020600082825461233e9190615511565b9250508190555061244e565b60011515601660019054906101000a900460ff161515148061237c5750600f54421015801561237b57506010544211155b5b156123dc5781601760003373ffffffffffffffffffffffffffffffffffffffff1673ffffffffffffffffffffffffffffffffffffffff16815260200190815260200160002060008282546123d09190615511565b9250508190555061244d565b60105442101580156123f057506011544211155b1561244c5781601c60003373ffffffffffffffffffffffffffffffffffffffff1673ffffffffffffffffffffffffffffffffffffffff16815260200190815260200160002060008282546124449190615511565b925050819055505b5b5b7fd1d3d8a67ea3222e190a25cd89ce4613287a3f3d1272268cfd5639d6bad416b3338360405161247f92919061575f565b60405180910390a15050565b601660009054906101000a900460ff1681565b600080600090505b601480549050811015612541578273ffffffffffffffffffffffffffffffffffffffff16601482815481106124de576124dd6157f4565b5b9060005260206000200160009054906101000a900473ffffffffffffffffffffffffffffffffffffffff1673ffffffffffffffffffffffffffffffffffffffff160361252e576001915050612547565b808061253990615823565b9150506124a6565b50600090505b919050565b60186020528060005260406000206000915090505481565b600042905090565b60196020528060005260406000206000915090505481565b601a6020528060005260406000206000915090505481565b6060600083839050905060008167ffffffffffffffff8111156125c2576125c1614feb565b5b6040519080825280602002602001820160405280156125fb57816020015b6125e86146bc565b8152602001906001900390816125e05790505b50905060005b8281146126535761262a86868381811061261e5761261d6157f4565b5b905060200201356130fd565b82828151811061263d5761263c6157f4565b5b6020026020010181905250806001019050612601565b50809250505092915050565b600080600090505b601580549050811015612702578273ffffffffffffffffffffffffffffffffffffffff166015828154811061269f5761269e6157f4565b5b9060005260206000200160009054906101000a900473ffffffffffffffffffffffffffffffffffffffff1673ffffffffffffffffffffffffffffffffffffffff16036126ef576001915050612708565b80806126fa90615823565b915050612667565b50600090505b919050565b6015818154811061271d57600080fd5b906000526020600020016000915054906101000a900473ffffffffffffffffffffffffffffffffffffffff1681565b6127546137db565b6000601660006101000a81548160ff0219169083151502179055506001601660016101000a81548160ff021916908315150217905550565b6127946137db565b6127a661279f612b2f565b8383611611565b7f21425341546d2023146851fb583db9b7c6be5fed0d287293c85a8ede5193c6ea6127cf612b2f565b83836040516127e093929190615a61565b60405180910390a15050565b60006127f782613c8e565b9050919050565b6009805461280b906155b6565b80601f0160208091040260200160405190810160405280929190818152602001828054612837906155b6565b80156128845780601f1061285957610100808354040283529160200191612884565b820191906000526020600020905b81548152906001019060200180831161286757829003601f168201915b505050505081565b60008073ffffffffffffffffffffffffffffffffffffffff168273ffffffffffffffffffffffffffffffffffffffff16036128f3576040517f8f4eb60400000000000000000000000000000000000000000000000000000000815260040160405180910390fd5b67ffffffffffffffff600560008473ffffffffffffffffffffffffffffffffffffffff1673ffffffffffffffffffffffffffffffffffffffff16815260200190815260200160002054169050919050565b61294c6137db565b612956600061404a565b565b606060148054806020026020016040519081016040528092919081815260200182805480156129dc57602002820191906000526020600020905b8160009054906101000a900473ffffffffffffffffffffffffffffffffffffffff1673ffffffffffffffffffffffffffffffffffffffff1681526020019060010190808311612992575b5050505050905090565b606060008060006129f68561288c565b905060008167ffffffffffffffff811115612a1457612a13614feb565b5b604051908082528060200260200182016040528015612a425781602001602082028036833780820191505090505b509050612a4d6146bc565b6000612a57613c85565b90505b838614612b1b57612a6a81614110565b91508160400151612b1057600073ffffffffffffffffffffffffffffffffffffffff16826000015173ffffffffffffffffffffffffffffffffffffffff1614612ab557816000015194505b8773ffffffffffffffffffffffffffffffffffffffff168573ffffffffffffffffffffffffffffffffffffffff1603612b0f5780838780600101985081518110612b0257612b016157f4565b5b6020026020010181815250505b5b806001019050612a5a565b508195505050505050919050565b60105481565b6000600860009054906101000a900473ffffffffffffffffffffffffffffffffffffffff16905090565b606060038054612b68906155b6565b80601f0160208091040260200160405190810160405280929190818152602001828054612b94906155b6565b8015612be15780601f10612bb657610100808354040283529160200191612be1565b820191906000526020600020905b815481529060010190602001808311612bc457829003601f168201915b5050505050905090565b6060818310612c26576040517f32c1995a00000000000000000000000000000000000000000000000000000000815260040160405180910390fd5b600080612c316138c0565b9050612c3b613c85565b851015612c4d57612c4a613c85565b94505b80841115612c59578093505b6000612c648761288c565b905084861015612c87576000868603905081811015612c81578091505b50612c8c565b600090505b60008167ffffffffffffffff811115612ca857612ca7614feb565b5b604051908082528060200260200182016040528015612cd65781602001602082028036833780820191505090505b50905060008203612ced5780945050505050612df0565b6000612cf8886130fd565b905060008160400151612d0d57816000015190505b60008990505b888114158015612d235750848714155b15612de257612d3181614110565b92508260400151612dd757600073ffffffffffffffffffffffffffffffffffffffff16836000015173ffffffffffffffffffffffffffffffffffffffff1614612d7c57826000015191505b8a73ffffffffffffffffffffffffffffffffffffffff168273ffffffffffffffffffffffffffffffffffffffff1603612dd65780848880600101995081518110612dc957612dc86157f4565b5b6020026020010181815250505b5b806001019050612d13565b508583528296505050505050505b9392505050565b601660019054906101000a900460ff1681565b601d6020528060005260406000206000915090505481565b601b6020528060005260406000206000915090505481565b8060076000612e476138b8565b73ffffffffffffffffffffffffffffffffffffffff1673ffffffffffffffffffffffffffffffffffffffff16815260200190815260200160002060008473ffffffffffffffffffffffffffffffffffffffff1673ffffffffffffffffffffffffffffffffffffffff16815260200190815260200160002060006101000a81548160ff0219169083151502179055508173ffffffffffffffffffffffffffffffffffffffff16612ef46138b8565b73ffffffffffffffffffffffffffffffffffffffff167f17307eab39ab6107e8899845ad3d59bd9653f200f220920489ca2b5937696c3183604051612f39919061495c565b60405180910390a35050565b600f5481565b612f56848484611611565b60008373ffffffffffffffffffffffffffffffffffffffff163b14612fb857612f818484848461413b565b612fb7576040517fd1a57ed600000000000000000000000000000000000000000000000000000000815260040160405180910390fd5b5b50505050565b60148181548110612fce57600080fd5b906000526020600020016000915054906101000a900473ffffffffffffffffffffffffffffffffffffffff1681565b6130056137db565b60156000613013919061470b565b81816015919061302492919061472c565b5060005b6015805490508110156130dd576002601a60006015848154811061304f5761304e6157f4565b5b9060005260206000200160009054906101000a900473ffffffffffffffffffffffffffffffffffffffff1673ffffffffffffffffffffffffffffffffffffffff1673ffffffffffffffffffffffffffffffffffffffff16815260200190815260200160002060008282546130c39190615511565b9250508190555080806130d590615823565b915050613028565b505050565b6130ea6137db565b80600990816130f99190615c44565b5050565b6131056146bc565b61310d6146bc565b613115613c85565b83108061312957506131256138c0565b8310155b156131375780915050613162565b61314083614110565b90508060400151156131555780915050613162565b61315e8361428b565b9150505b919050565b60006131716138e8565b9050600081519050600083519050808210156131c2576040517f08c379a00000000000000000000000000000000000000000000000000000000081526004016131b9906157d4565b60405180910390fd5b60005b81811015613281576000805b8481101561322c578581815181106131ec576131eb6157f4565b5b6020026020010151878481518110613207576132066157f4565b5b60200260200101510361321957600191505b808061322490615823565b9150506131d1565b508061326d576040517f08c379a0000000000000000000000000000000000000000000000000000000008152600401613264906157d4565b60405180910390fd5b50808061327990615823565b9150506131c5565b5060005b8181101561331a576132b28582815181106132a3576132a26157f4565b5b60200260200101516001613a33565b601d60003373ffffffffffffffffffffffffffffffffffffffff1673ffffffffffffffffffffffffffffffffffffffff168152602001908152602001600020600081548092919061330290615823565b9190505550808061331290615823565b915050613285565b5050505050565b606061332c82613859565b613362576040517fa14c4b5000000000000000000000000000000000000000000000000000000000815260040160405180910390fd5b600061336c6142ab565b9050600081510361338c57604051806020016040528060008152506133b7565b806133968461433d565b6040516020016133a7929190615d52565b6040516020818303038152906040525b915050919050565b6000601d60008373ffffffffffffffffffffffffffffffffffffffff1673ffffffffffffffffffffffffffffffffffffffff168152602001908152602001600020549050919050565b6134106137db565b6134186115e2565b610bb8101561345c576040517f08c379a000000000000000000000000000000000000000000000000000000000815260040161345390615633565b60405180910390fd5b806134656115e2565b610bb86134729190615653565b8111156134b4576040517f08c379a00000000000000000000000000000000000000000000000000000000081526004016134ab906156d3565b60405180910390fd5b6134bc6138c0565b506134c783836138ca565b7fd1d3d8a67ea3222e190a25cd89ce4613287a3f3d1272268cfd5639d6bad416b383836040516134f892919061575f565b60405180910390a1505050565b61350d6137db565b80601d60008473ffffffffffffffffffffffffffffffffffffffff1673ffffffffffffffffffffffffffffffffffffffff168152602001908152602001600020546135589190615653565b601d60008473ffffffffffffffffffffffffffffffffffffffff1673ffffffffffffffffffffffffffffffffffffffff168152602001908152602001600020819055505050565b6000600760008473ffffffffffffffffffffffffffffffffffffffff1673ffffffffffffffffffffffffffffffffffffffff16815260200190815260200160002060008373ffffffffffffffffffffffffffffffffffffffff1673ffffffffffffffffffffffffffffffffffffffff16815260200190815260200160002060009054906101000a900460ff16905092915050565b61363b6137db565b60146000613649919061470b565b81816014919061365a92919061472c565b5060005b6014805490508110156137135760036019600060148481548110613685576136846157f4565b5b9060005260206000200160009054906101000a900473ffffffffffffffffffffffffffffffffffffffff1673ffffffffffffffffffffffffffffffffffffffff1673ffffffffffffffffffffffffffffffffffffffff16815260200190815260200160002060008282546136f99190615511565b92505081905550808061370b90615823565b91505061365e565b505050565b6137206137db565b6001601660006101000a81548160ff0219169083151502179055506000601660016101000a81548160ff021916908315150217905550565b6137606137db565b600073ffffffffffffffffffffffffffffffffffffffff168173ffffffffffffffffffffffffffffffffffffffff16036137cf576040517f08c379a00000000000000000000000000000000000000000000000000000000081526004016137c690615de8565b60405180910390fd5b6137d88161404a565b50565b6137e361438d565b73ffffffffffffffffffffffffffffffffffffffff16613801612b2f565b73ffffffffffffffffffffffffffffffffffffffff1614613857576040517f08c379a000000000000000000000000000000000000000000000000000000000815260040161384e90615e54565b60405180910390fd5b565b600081613864613c85565b11158015613873575060005482105b80156138b1575060007c0100000000000000000000000000000000000000000000000000000000600460008581526020019081526020016000205416145b9050919050565b600033905090565b6000600a54905090565b6138e4828260405180602001604052806000815250614395565b5050565b606060006001905060008080600090506139006115e2565b60128190555060138054905090505b8083101561395357601380548061392957613928615e74565b5b6001900381819060005260206000200160009055905560018361394c9190615511565b925061390f565b5b60125484116139d957613966846127ec565b91503373ffffffffffffffffffffffffffffffffffffffff168273ffffffffffffffffffffffffffffffffffffffff16036139c55760138490806001815401808255809150506001900390600052602060002001600090919091909150555b6001846139d29190615511565b9350613954565b6013805480602002602001604051908101604052809291908181526020018280548015613a2557602002820191906000526020600020905b815481526020019060010190808311613a11575b505050505094505050505090565b6000613a3e83613c8e565b90506000819050600080613a5186613d5a565b915091508415613aba57613a6d8184613a686138b8565b613d81565b613ab957613a8283613a7d6138b8565b61359f565b613ab8576040517f59c896be00000000000000000000000000000000000000000000000000000000815260040160405180910390fd5b5b5b613ac8836000886001613dc5565b8015613ad357600082555b600160806001901b03600560008573ffffffffffffffffffffffffffffffffffffffff1673ffffffffffffffffffffffffffffffffffffffff16815260200190815260200160002060008282540192505081905550613b7b83613b3885600088613dcb565b7c02000000000000000000000000000000000000000000000000000000007c01000000000000000000000000000000000000000000000000000000001717613df3565b600460008881526020019081526020016000208190555060007c0200000000000000000000000000000000000000000000000000000000851603613c015760006001870190506000600460008381526020019081526020016000205403613bff576000548114613bfe578460046000838152602001908152602001600020819055505b5b505b85600073ffffffffffffffffffffffffffffffffffffffff168473ffffffffffffffffffffffffffffffffffffffff167fddf252ad1be2c89b69c2b068fc378daa952ba7f163c4a11628f55a4df523b3ef60405160405180910390a4613c6b836000886001613e1e565b600160008154809291906001019190505550505050505050565b60006001905090565b60008082905080613c9d613c85565b11613d2357600054811015613d225760006004600083815260200190815260200160002054905060007c0100000000000000000000000000000000000000000000000000000000821603613d20575b60008103613d16576004600083600190039350838152602001908152602001600020549050613cec565b8092505050613d55565b505b5b6040517fdf2d9b4200000000000000000000000000000000000000000000000000000000815260040160405180910390fd5b919050565b60008060006006600085815260200190815260200160002090508092508254915050915091565b600073ffffffffffffffffffffffffffffffffffffffff8316925073ffffffffffffffffffffffffffffffffffffffff821691508382148383141790509392505050565b50505050565b60008060e883901c905060e8613de2868684614432565b62ffffff16901b9150509392505050565b600073ffffffffffffffffffffffffffffffffffffffff83169250814260a01b178317905092915050565b50505050565b6000805b601580549050811015613ec9578273ffffffffffffffffffffffffffffffffffffffff1660158281548110613e6057613e5f6157f4565b5b9060005260206000200160009054906101000a900473ffffffffffffffffffffffffffffffffffffffff1673ffffffffffffffffffffffffffffffffffffffff1603613eb657600282613eb39190615511565b91505b8080613ec190615823565b915050613e28565b5080601a60008473ffffffffffffffffffffffffffffffffffffffff1673ffffffffffffffffffffffffffffffffffffffff168152602001908152602001600020819055505050565b6000805b601480549050811015613fb7578273ffffffffffffffffffffffffffffffffffffffff1660148281548110613f4e57613f4d6157f4565b5b9060005260206000200160009054906101000a900473ffffffffffffffffffffffffffffffffffffffff1673ffffffffffffffffffffffffffffffffffffffff1603613fa457600382613fa19190615511565b91505b8080613faf90615823565b915050613f16565b50601b60008373ffffffffffffffffffffffffffffffffffffffff1673ffffffffffffffffffffffffffffffffffffffff16815260200190815260200160002054816140039190615511565b601960008473ffffffffffffffffffffffffffffffffffffffff1673ffffffffffffffffffffffffffffffffffffffff168152602001908152602001600020819055505050565b6000600860009054906101000a900473ffffffffffffffffffffffffffffffffffffffff16905081600860006101000a81548173ffffffffffffffffffffffffffffffffffffffff021916908373ffffffffffffffffffffffffffffffffffffffff1602179055508173ffffffffffffffffffffffffffffffffffffffff168173ffffffffffffffffffffffffffffffffffffffff167f8be0079c531659141344cd1fd0a4f28419497f9722a3daafe3b4186f6b6457e060405160405180910390a35050565b6141186146bc565b614134600460008481526020019081526020016000205461443b565b9050919050565b60008373ffffffffffffffffffffffffffffffffffffffff1663150b7a026141616138b8565b8786866040518563ffffffff1660e01b81526004016141839493929190615ef8565b6020604051808303816000875af19250505080156141bf57506040513d601f19601f820116820180604052508101906141bc9190615f59565b60015b614238573d80600081146141ef576040519150601f19603f3d011682016040523d82523d6000602084013e6141f4565b606091505b506000815103614230576040517fd1a57ed600000000000000000000000000000000000000000000000000000000815260040160405180910390fd5b805181602001fd5b63150b7a0260e01b7bffffffffffffffffffffffffffffffffffffffffffffffffffffffff1916817bffffffffffffffffffffffffffffffffffffffffffffffffffffffff191614915050949350505050565b6142936146bc565b6142a461429f83613c8e565b61443b565b9050919050565b6060600980546142ba906155b6565b80601f01602080910402602001604051908101604052809291908181526020018280546142e6906155b6565b80156143335780601f1061430857610100808354040283529160200191614333565b820191906000526020600020905b81548152906001019060200180831161431657829003601f168201915b5050505050905090565b606060a060405101806040526020810391506000825281835b60011561437857600184039350600a81066030018453600a8104905080614356575b50828103602084039350808452505050919050565b600033905090565b61439f83836144f1565b60008373ffffffffffffffffffffffffffffffffffffffff163b1461442d57600080549050600083820390505b6143df600086838060010194508661413b565b614415576040517fd1a57ed600000000000000000000000000000000000000000000000000000000815260040160405180910390fd5b8181106143cc57816000541461442a57600080fd5b50505b505050565b60009392505050565b6144436146bc565b81816000019073ffffffffffffffffffffffffffffffffffffffff16908173ffffffffffffffffffffffffffffffffffffffff168152505060a082901c816020019067ffffffffffffffff16908167ffffffffffffffff168152505060007c01000000000000000000000000000000000000000000000000000000008316141581604001901515908115158152505060e882901c816060019062ffffff16908162ffffff1681525050919050565b60008054905060008203614531576040517fb562e8dd00000000000000000000000000000000000000000000000000000000815260040160405180910390fd5b61453e6000848385613dc5565b600160406001901b178202600560008573ffffffffffffffffffffffffffffffffffffffff1673ffffffffffffffffffffffffffffffffffffffff168152602001908152602001600020600082825401925050819055506145b5836145a66000866000613dcb565b6145af856146ac565b17613df3565b6004600083815260200190815260200160002081905550600080838301905073ffffffffffffffffffffffffffffffffffffffff85169150828260007fddf252ad1be2c89b69c2b068fc378daa952ba7f163c4a11628f55a4df523b3ef600080a4600183015b81811461465657808360007fddf252ad1be2c89b69c2b068fc378daa952ba7f163c4a11628f55a4df523b3ef600080a460018101905061461b565b5060008203614691576040517f2e07630000000000000000000000000000000000000000000000000000000000815260040160405180910390fd5b8060008190555050506146a76000848385613e1e565b505050565b60006001821460e11b9050919050565b6040518060800160405280600073ffffffffffffffffffffffffffffffffffffffff168152602001600067ffffffffffffffff168152602001600015158152602001600062ffffff1681525090565b508054600082559060005260206000209081019061472991906147cc565b50565b8280548282559060005260206000209081019282156147bb579160200282015b828111156147ba57823573ffffffffffffffffffffffffffffffffffffffff168260006101000a81548173ffffffffffffffffffffffffffffffffffffffff021916908373ffffffffffffffffffffffffffffffffffffffff1602179055509160200191906001019061474c565b5b5090506147c891906147cc565b5090565b5b808211156147e55760008160009055506001016147cd565b5090565b6000604051905090565b600080fd5b600080fd5b600073ffffffffffffffffffffffffffffffffffffffff82169050919050565b6000614828826147fd565b9050919050565b6148388161481d565b811461484357600080fd5b50565b6000813590506148558161482f565b92915050565b600060208284031215614871576148706147f3565b5b600061487f84828501614846565b91505092915050565b6000819050919050565b61489b81614888565b82525050565b60006020820190506148b66000830184614892565b92915050565b60007fffffffff0000000000000000000000000000000000000000000000000000000082169050919050565b6148f1816148bc565b81146148fc57600080fd5b50565b60008135905061490e816148e8565b92915050565b60006020828403121561492a576149296147f3565b5b6000614938848285016148ff565b91505092915050565b60008115159050919050565b61495681614941565b82525050565b6000602082019050614971600083018461494d565b92915050565b600081519050919050565b600082825260208201905092915050565b60005b838110156149b1578082015181840152602081019050614996565b60008484015250505050565b6000601f19601f8301169050919050565b60006149d982614977565b6149e38185614982565b93506149f3818560208601614993565b6149fc816149bd565b840191505092915050565b60006020820190508181036000830152614a2181846149ce565b905092915050565b614a3281614888565b8114614a3d57600080fd5b50565b600081359050614a4f81614a29565b92915050565b600060208284031215614a6b57614a6a6147f3565b5b6000614a7984828501614a40565b91505092915050565b614a8b8161481d565b82525050565b6000602082019050614aa66000830184614a82565b92915050565b60008060408385031215614ac357614ac26147f3565b5b6000614ad185828601614846565b9250506020614ae285828601614a40565b9150509250929050565b600080600060608486031215614b0557614b046147f3565b5b6000614b1386828701614846565b9350506020614b2486828701614846565b9250506040614b3586828701614a40565b9150509250925092565b600081519050919050565b600082825260208201905092915050565b6000819050602082019050919050565b614b748161481d565b82525050565b6000614b868383614b6b565b60208301905092915050565b6000602082019050919050565b6000614baa82614b3f565b614bb48185614b4a565b9350614bbf83614b5b565b8060005b83811015614bf0578151614bd78882614b7a565b9750614be283614b92565b925050600181019050614bc3565b5085935050505092915050565b60006020820190508181036000830152614c178184614b9f565b905092915050565b600080fd5b600080fd5b600080fd5b60008083601f840112614c4457614c43614c1f565b5b8235905067ffffffffffffffff811115614c6157614c60614c24565b5b602083019150836020820283011115614c7d57614c7c614c29565b5b9250929050565b60008060208385031215614c9b57614c9a6147f3565b5b600083013567ffffffffffffffff811115614cb957614cb86147f8565b5b614cc585828601614c2e565b92509250509250929050565b600081519050919050565b600082825260208201905092915050565b6000819050602082019050919050565b600067ffffffffffffffff82169050919050565b614d1a81614cfd565b82525050565b614d2981614941565b82525050565b600062ffffff82169050919050565b614d4781614d2f565b82525050565b608082016000820151614d636000850182614b6b565b506020820151614d766020850182614d11565b506040820151614d896040850182614d20565b506060820151614d9c6060850182614d3e565b50505050565b6000614dae8383614d4d565b60808301905092915050565b6000602082019050919050565b6000614dd282614cd1565b614ddc8185614cdc565b9350614de783614ced565b8060005b83811015614e18578151614dff8882614da2565b9750614e0a83614dba565b925050600181019050614deb565b5085935050505092915050565b60006020820190508181036000830152614e3f8184614dc7565b905092915050565b600081519050919050565b600082825260208201905092915050565b6000819050602082019050919050565b614e7c81614888565b82525050565b6000614e8e8383614e73565b60208301905092915050565b6000602082019050919050565b6000614eb282614e47565b614ebc8185614e52565b9350614ec783614e63565b8060005b83811015614ef8578151614edf8882614e82565b9750614eea83614e9a565b925050600181019050614ecb565b5085935050505092915050565b60006020820190508181036000830152614f1f8184614ea7565b905092915050565b600080600060608486031215614f4057614f3f6147f3565b5b6000614f4e86828701614846565b9350506020614f5f86828701614a40565b9250506040614f7086828701614a40565b9150509250925092565b614f8381614941565b8114614f8e57600080fd5b50565b600081359050614fa081614f7a565b92915050565b60008060408385031215614fbd57614fbc6147f3565b5b6000614fcb85828601614846565b9250506020614fdc85828601614f91565b9150509250929050565b600080fd5b7f4e487b7100000000000000000000000000000000000000000000000000000000600052604160045260246000fd5b615023826149bd565b810181811067ffffffffffffffff8211171561504257615041614feb565b5b80604052505050565b60006150556147e9565b9050615061828261501a565b919050565b600067ffffffffffffffff82111561508157615080614feb565b5b61508a826149bd565b9050602081019050919050565b82818337600083830152505050565b60006150b96150b484615066565b61504b565b9050828152602081018484840111156150d5576150d4614fe6565b5b6150e0848285615097565b509392505050565b600082601f8301126150fd576150fc614c1f565b5b813561510d8482602086016150a6565b91505092915050565b600080600080608085870312156151305761512f6147f3565b5b600061513e87828801614846565b945050602061514f87828801614846565b935050604061516087828801614a40565b925050606085013567ffffffffffffffff811115615181576151806147f8565b5b61518d878288016150e8565b91505092959194509250565b60008083601f8401126151af576151ae614c1f565b5b8235905067ffffffffffffffff8111156151cc576151cb614c24565b5b6020830191508360208202830111156151e8576151e7614c29565b5b9250929050565b60008060208385031215615206576152056147f3565b5b600083013567ffffffffffffffff811115615224576152236147f8565b5b61523085828601615199565b92509250509250929050565b600067ffffffffffffffff82111561525757615256614feb565b5b615260826149bd565b9050602081019050919050565b600061528061527b8461523c565b61504b565b90508281526020810184848401111561529c5761529b614fe6565b5b6152a7848285615097565b509392505050565b600082601f8301126152c4576152c3614c1f565b5b81356152d484826020860161526d565b91505092915050565b6000602082840312156152f3576152f26147f3565b5b600082013567ffffffffffffffff811115615311576153106147f8565b5b61531d848285016152af565b91505092915050565b60808201600082015161533c6000850182614b6b565b50602082015161534f6020850182614d11565b5060408201516153626040850182614d20565b5060608201516153756060850182614d3e565b50505050565b60006080820190506153906000830184615326565b92915050565b600067ffffffffffffffff8211156153b1576153b0614feb565b5b602082029050602081019050919050565b60006153d56153d084615396565b61504b565b905080838252602082019050602084028301858111156153f8576153f7614c29565b5b835b81811015615421578061540d8882614a40565b8452602084019350506020810190506153fa565b5050509392505050565b600082601f8301126154405761543f614c1f565b5b81356154508482602086016153c2565b91505092915050565b60006020828403121561546f5761546e6147f3565b5b600082013567ffffffffffffffff81111561548d5761548c6147f8565b5b6154998482850161542b565b91505092915050565b600080604083850312156154b9576154b86147f3565b5b60006154c785828601614846565b92505060206154d885828601614846565b9150509250929050565b7f4e487b7100000000000000000000000000000000000000000000000000000000600052601160045260246000fd5b600061551c82614888565b915061552783614888565b925082820190508082111561553f5761553e6154e2565b5b92915050565b600061555082614888565b915061555b83614888565b925082820261556981614888565b915082820484148315176155805761557f6154e2565b5b5092915050565b7f4e487b7100000000000000000000000000000000000000000000000000000000600052602260045260246000fd5b600060028204905060018216806155ce57607f821691505b6020821081036155e1576155e0615587565b5b50919050565b7f736f6c64206f7574000000000000000000000000000000000000000000000000600082015250565b600061561d600883614982565b9150615628826155e7565b602082019050919050565b6000602082019050818103600083015261564c81615610565b9050919050565b600061565e82614888565b915061566983614888565b9250828203905081811115615681576156806154e2565b5b92915050565b7f4d696e7473206c65737320706c65617365000000000000000000000000000000600082015250565b60006156bd601183614982565b91506156c882615687565b602082019050919050565b600060208201905081810360008301526156ec816156b0565b9050919050565b7f4e6f2046726565204d696e742041646472657373204974000000000000000000600082015250565b6000615729601783614982565b9150615734826156f3565b602082019050919050565b600060208201905081810360008301526157588161571c565b9050919050565b60006040820190506157746000830185614a82565b6157816020830184614892565b9392505050565b7f4e4654204e6f6e73000000000000000000000000000000000000000000000000600082015250565b60006157be600883614982565b91506157c982615788565b602082019050919050565b600060208201905081810360008301526157ed816157b1565b9050919050565b7f4e487b7100000000000000000000000000000000000000000000000000000000600052603260045260246000fd5b600061582e82614888565b91507fffffffffffffffffffffffffffffffffffffffffffffffffffffffffffffffff82036158605761585f6154e2565b5b600182019050919050565b600081905092915050565b50565b600061588660008361586b565b915061589182615876565b600082019050919050565b60006158a782615879565b9150819050919050565b7f4e6f7420656e6f756768206d6f6e657900000000000000000000000000000000600082015250565b60006158e7601083614982565b91506158f2826158b1565b602082019050919050565b60006020820190508181036000830152615916816158da565b9050919050565b7f75736572206973206e6f74204f47000000000000000000000000000000000000600082015250565b6000615953600e83614982565b915061595e8261591d565b602082019050919050565b6000602082019050818103600083015261598281615946565b9050919050565b7f4d61784d696e74204f7665720000000000000000000000000000000000000000600082015250565b60006159bf600c83614982565b91506159ca82615989565b602082019050919050565b600060208201905081810360008301526159ee816159b2565b9050919050565b7f75736572206973206e6f7420574c000000000000000000000000000000000000600082015250565b6000615a2b600e83614982565b9150615a36826159f5565b602082019050919050565b60006020820190508181036000830152615a5a81615a1e565b9050919050565b6000606082019050615a766000830186614a82565b615a836020830185614a82565b615a906040830184614892565b949350505050565b60008190508160005260206000209050919050565b60006020601f8301049050919050565b600082821b905092915050565b600060088302615afa7fffffffffffffffffffffffffffffffffffffffffffffffffffffffffffffffff82615abd565b615b048683615abd565b95508019841693508086168417925050509392505050565b6000819050919050565b6000615b41615b3c615b3784614888565b615b1c565b614888565b9050919050565b6000819050919050565b615b5b83615b26565b615b6f615b6782615b48565b848454615aca565b825550505050565b600090565b615b84615b77565b615b8f818484615b52565b505050565b5b81811015615bb357615ba8600082615b7c565b600181019050615b95565b5050565b601f821115615bf857615bc981615a98565b615bd284615aad565b81016020851015615be1578190505b615bf5615bed85615aad565b830182615b94565b50505b505050565b600082821c905092915050565b6000615c1b60001984600802615bfd565b1980831691505092915050565b6000615c348383615c0a565b9150826002028217905092915050565b615c4d82614977565b67ffffffffffffffff811115615c6657615c65614feb565b5b615c7082546155b6565b615c7b828285615bb7565b600060209050601f831160018114615cae5760008415615c9c578287015190505b615ca68582615c28565b865550615d0e565b601f198416615cbc86615a98565b60005b82811015615ce457848901518255600182019150602085019450602081019050615cbf565b86831015615d015784890151615cfd601f891682615c0a565b8355505b6001600288020188555050505b505050505050565b600081905092915050565b6000615d2c82614977565b615d368185615d16565b9350615d46818560208601614993565b80840191505092915050565b6000615d5e8285615d21565b9150615d6a8284615d21565b91508190509392505050565b7f4f776e61626c653a206e6577206f776e657220697320746865207a65726f206160008201527f6464726573730000000000000000000000000000000000000000000000000000602082015250565b6000615dd2602683614982565b9150615ddd82615d76565b604082019050919050565b60006020820190508181036000830152615e0181615dc5565b9050919050565b7f4f776e61626c653a2063616c6c6572206973206e6f7420746865206f776e6572600082015250565b6000615e3e602083614982565b9150615e4982615e08565b602082019050919050565b60006020820190508181036000830152615e6d81615e31565b9050919050565b7f4e487b7100000000000000000000000000000000000000000000000000000000600052603160045260246000fd5b600081519050919050565b600082825260208201905092915050565b6000615eca82615ea3565b615ed48185615eae565b9350615ee4818560208601614993565b615eed816149bd565b840191505092915050565b6000608082019050615f0d6000830187614a82565b615f1a6020830186614a82565b615f276040830185614892565b8181036060830152615f398184615ebf565b905095945050505050565b600081519050615f53816148e8565b92915050565b600060208284031215615f6f57615f6e6147f3565b5b6000615f7d84828501615f44565b9150509291505056fea2646970667358221220d9a72bf86c1d2c4965fb6c858d53df632a09198d17e8305dafb5701e66d359ee64736f6c63430008110033697066733a2f2f62616679626569626b6877367375357161686333776173687a7134737861347277736a7961706568656a7637763568376962376f7662616a6834712f6d65746164617461",
  "linkReferences": {},
  "deployedLinkReferences": {}
}