{
  "_format": "hh-sol-artifact-1",
  "contractName": "Tabenomics",
  "sourceName": "contracts/Tabenomics.sol",
  "abi": [
    {
      "inputs": [],
      "stateMutability": "nonpayable",
      "type": "constructor"
    },
    {
      "inputs": [],
      "name": "ApprovalCallerNotOwnerNorApproved",
      "type": "error"
    },
    {
      "inputs": [],
      "name": "ApprovalQueryForNonexistentToken",
      "type": "error"
    },
    {
      "inputs": [],
      "name": "BalanceQueryForZeroAddress",
      "type": "error"
    },
    {
      "inputs": [],
      "name": "InvalidQueryRange",
      "type": "error"
    },
    {
      "inputs": [],
      "name": "MintERC2309QuantityExceedsLimit",
      "type": "error"
    },
    {
      "inputs": [],
      "name": "MintToZeroAddress",
      "type": "error"
    },
    {
      "inputs": [],
      "name": "MintZeroQuantity",
      "type": "error"
    },
    {
      "inputs": [],
      "name": "OwnerQueryForNonexistentToken",
      "type": "error"
    },
    {
      "inputs": [],
      "name": "OwnershipNotInitializedForExtraData",
      "type": "error"
    },
    {
      "inputs": [],
      "name": "TransferCallerNotOwnerNorApproved",
      "type": "error"
    },
    {
      "inputs": [],
      "name": "TransferFromIncorrectOwner",
      "type": "error"
    },
    {
      "inputs": [],
      "name": "TransferToNonERC721ReceiverImplementer",
      "type": "error"
    },
    {
      "inputs": [],
      "name": "TransferToZeroAddress",
      "type": "error"
    },
    {
      "inputs": [],
      "name": "URIQueryForNonexistentToken",
      "type": "error"
    },
    {
      "anonymous": false,
      "inputs": [
        {
          "indexed": true,
          "internalType": "address",
          "name": "owner",
          "type": "address"
        },
        {
          "indexed": true,
          "internalType": "address",
          "name": "approved",
          "type": "address"
        },
        {
          "indexed": true,
          "internalType": "uint256",
          "name": "tokenId",
          "type": "uint256"
        }
      ],
      "name": "Approval",
      "type": "event"
    },
    {
      "anonymous": false,
      "inputs": [
        {
          "indexed": true,
          "internalType": "address",
          "name": "owner",
          "type": "address"
        },
        {
          "indexed": true,
          "internalType": "address",
          "name": "operator",
          "type": "address"
        },
        {
          "indexed": false,
          "internalType": "bool",
          "name": "approved",
          "type": "bool"
        }
      ],
      "name": "ApprovalForAll",
      "type": "event"
    },
    {
      "anonymous": false,
      "inputs": [
        {
          "indexed": true,
          "internalType": "uint256",
          "name": "fromTokenId",
          "type": "uint256"
        },
        {
          "indexed": false,
          "internalType": "uint256",
          "name": "toTokenId",
          "type": "uint256"
        },
        {
          "indexed": true,
          "internalType": "address",
          "name": "from",
          "type": "address"
        },
        {
          "indexed": true,
          "internalType": "address",
          "name": "to",
          "type": "address"
        }
      ],
      "name": "ConsecutiveTransfer",
      "type": "event"
    },
    {
      "anonymous": false,
      "inputs": [
        {
          "indexed": false,
          "internalType": "address",
          "name": "to",
          "type": "address"
        },
        {
          "indexed": false,
          "internalType": "uint256",
          "name": "quantity",
          "type": "uint256"
        }
      ],
      "name": "MintLog",
      "type": "event"
    },
    {
      "anonymous": false,
      "inputs": [
        {
          "indexed": true,
          "internalType": "address",
          "name": "previousOwner",
          "type": "address"
        },
        {
          "indexed": true,
          "internalType": "address",
          "name": "newOwner",
          "type": "address"
        }
      ],
      "name": "OwnershipTransferred",
      "type": "event"
    },
    {
      "anonymous": false,
      "inputs": [
        {
          "indexed": false,
          "internalType": "address",
          "name": "from",
          "type": "address"
        },
        {
          "indexed": false,
          "internalType": "address",
          "name": "receiver",
          "type": "address"
        },
        {
          "indexed": false,
          "internalType": "uint256",
          "name": "amount",
          "type": "uint256"
        }
      ],
      "name": "TokenTransfer",
      "type": "event"
    },
    {
      "anonymous": false,
      "inputs": [
        {
          "indexed": true,
          "internalType": "address",
          "name": "from",
          "type": "address"
        },
        {
          "indexed": true,
          "internalType": "address",
          "name": "to",
          "type": "address"
        },
        {
          "indexed": true,
          "internalType": "uint256",
          "name": "tokenId",
          "type": "uint256"
        }
      ],
      "name": "Transfer",
      "type": "event"
    },
    {
      "anonymous": false,
      "inputs": [
        {
          "indexed": false,
          "internalType": "address",
          "name": "from",
          "type": "address"
        },
        {
          "indexed": false,
          "internalType": "address",
          "name": "to",
          "type": "address"
        },
        {
          "indexed": false,
          "internalType": "uint256",
          "name": "tokenId",
          "type": "uint256"
        }
      ],
      "name": "TransferLog",
      "type": "event"
    },
    {
      "inputs": [
        {
          "internalType": "address",
          "name": "from",
          "type": "address"
        },
        {
          "internalType": "uint256",
          "name": "stratId",
          "type": "uint256"
        },
        {
          "internalType": "uint256",
          "name": "quantity",
          "type": "uint256"
        }
      ],
      "name": "AfterTokenTransfers",
      "outputs": [],
      "stateMutability": "nonpayable",
      "type": "function"
    },
    {
      "inputs": [
        {
          "internalType": "address",
          "name": "from",
          "type": "address"
        },
        {
          "internalType": "uint256",
          "name": "stratId",
          "type": "uint256"
        },
        {
          "internalType": "uint256",
          "name": "quantity",
          "type": "uint256"
        }
      ],
      "name": "BeforeTokenTransfers",
      "outputs": [],
      "stateMutability": "nonpayable",
      "type": "function"
    },
    {
      "inputs": [
        {
          "internalType": "address",
          "name": "_to",
          "type": "address"
        },
        {
          "internalType": "uint256",
          "name": "quantity",
          "type": "uint256"
        }
      ],
      "name": "MintOwnerToCredit",
      "outputs": [],
      "stateMutability": "nonpayable",
      "type": "function"
    },
    {
      "inputs": [
        {
          "internalType": "address",
          "name": "_to",
          "type": "address"
        },
        {
          "internalType": "uint256",
          "name": "quantity",
          "type": "uint256"
        }
      ],
      "name": "MintOwnerToGive",
      "outputs": [],
      "stateMutability": "nonpayable",
      "type": "function"
    },
    {
      "inputs": [
        {
          "internalType": "uint256",
          "name": "quantity",
          "type": "uint256"
        }
      ],
      "name": "MintUser",
      "outputs": [],
      "stateMutability": "payable",
      "type": "function"
    },
    {
      "inputs": [
        {
          "internalType": "address",
          "name": "to",
          "type": "address"
        },
        {
          "internalType": "uint256",
          "name": "tokenId",
          "type": "uint256"
        }
      ],
      "name": "OwnerTransfer",
      "outputs": [],
      "stateMutability": "nonpayable",
      "type": "function"
    },
    {
      "inputs": [
        {
          "internalType": "bool",
          "name": "sale",
          "type": "bool"
        }
      ],
      "name": "PriceCange",
      "outputs": [],
      "stateMutability": "nonpayable",
      "type": "function"
    },
    {
      "inputs": [
        {
          "internalType": "uint256",
          "name": "quantity",
          "type": "uint256"
        }
      ],
      "name": "UserTransfer",
      "outputs": [],
      "stateMutability": "nonpayable",
      "type": "function"
    },
    {
      "inputs": [
        {
          "internalType": "address",
          "name": "",
          "type": "address"
        }
      ],
      "name": "WhitelistAddressMintedBalance",
      "outputs": [
        {
          "internalType": "uint256",
          "name": "",
          "type": "uint256"
        }
      ],
      "stateMutability": "view",
      "type": "function"
    },
    {
      "inputs": [
        {
          "internalType": "address",
          "name": "",
          "type": "address"
        }
      ],
      "name": "addressMintedBalance",
      "outputs": [
        {
          "internalType": "uint256",
          "name": "",
          "type": "uint256"
        }
      ],
      "stateMutability": "view",
      "type": "function"
    },
    {
      "inputs": [
        {
          "internalType": "address",
          "name": "to",
          "type": "address"
        },
        {
          "internalType": "uint256",
          "name": "tokenId",
          "type": "uint256"
        }
      ],
      "name": "approve",
      "outputs": [],
      "stateMutability": "payable",
      "type": "function"
    },
    {
      "inputs": [
        {
          "internalType": "address",
          "name": "owner",
          "type": "address"
        }
      ],
      "name": "balanceOf",
      "outputs": [
        {
          "internalType": "uint256",
          "name": "",
          "type": "uint256"
        }
      ],
      "stateMutability": "view",
      "type": "function"
    },
    {
      "inputs": [],
      "name": "baseURI",
      "outputs": [
        {
          "internalType": "string",
          "name": "",
          "type": "string"
        }
      ],
      "stateMutability": "view",
      "type": "function"
    },
    {
      "inputs": [
        {
          "internalType": "uint256",
          "name": "tokenId",
          "type": "uint256"
        }
      ],
      "name": "burn",
      "outputs": [],
      "stateMutability": "nonpayable",
      "type": "function"
    },
    {
      "inputs": [
        {
          "internalType": "string",
          "name": "uri",
          "type": "string"
        }
      ],
      "name": "chngebaseURI",
      "outputs": [],
      "stateMutability": "nonpayable",
      "type": "function"
    },
    {
      "inputs": [
        {
          "internalType": "uint256",
          "name": "tokenId",
          "type": "uint256"
        }
      ],
      "name": "explicitOwnershipOf",
      "outputs": [
        {
          "components": [
            {
              "internalType": "address",
              "name": "addr",
              "type": "address"
            },
            {
              "internalType": "uint64",
              "name": "startTimestamp",
              "type": "uint64"
            },
            {
              "internalType": "bool",
              "name": "burned",
              "type": "bool"
            },
            {
              "internalType": "uint24",
              "name": "extraData",
              "type": "uint24"
            }
          ],
          "internalType": "struct IERC721A.TokenOwnership",
          "name": "",
          "type": "tuple"
        }
      ],
      "stateMutability": "view",
      "type": "function"
    },
    {
      "inputs": [
        {
          "internalType": "uint256[]",
          "name": "tokenIds",
          "type": "uint256[]"
        }
      ],
      "name": "explicitOwnershipsOf",
      "outputs": [
        {
          "components": [
            {
              "internalType": "address",
              "name": "addr",
              "type": "address"
            },
            {
              "internalType": "uint64",
              "name": "startTimestamp",
              "type": "uint64"
            },
            {
              "internalType": "bool",
              "name": "burned",
              "type": "bool"
            },
            {
              "internalType": "uint24",
              "name": "extraData",
              "type": "uint24"
            }
          ],
          "internalType": "struct IERC721A.TokenOwnership[]",
          "name": "",
          "type": "tuple[]"
        }
      ],
      "stateMutability": "view",
      "type": "function"
    },
    {
      "inputs": [
        {
          "internalType": "uint256",
          "name": "quantity",
          "type": "uint256"
        }
      ],
      "name": "freemint",
      "outputs": [],
      "stateMutability": "nonpayable",
      "type": "function"
    },
    {
      "inputs": [
        {
          "internalType": "uint256",
          "name": "tokenId",
          "type": "uint256"
        }
      ],
      "name": "getApproved",
      "outputs": [
        {
          "internalType": "address",
          "name": "",
          "type": "address"
        }
      ],
      "stateMutability": "view",
      "type": "function"
    },
    {
      "inputs": [],
      "name": "getBalance",
      "outputs": [
        {
          "internalType": "uint256",
          "name": "",
          "type": "uint256"
        }
      ],
      "stateMutability": "view",
      "type": "function"
    },
    {
      "inputs": [
        {
          "internalType": "address",
          "name": "owner",
          "type": "address"
        },
        {
          "internalType": "address",
          "name": "operator",
          "type": "address"
        }
      ],
      "name": "isApprovedForAll",
      "outputs": [
        {
          "internalType": "bool",
          "name": "",
          "type": "bool"
        }
      ],
      "stateMutability": "view",
      "type": "function"
    },
    {
      "inputs": [
        {
          "internalType": "address",
          "name": "_user",
          "type": "address"
        }
      ],
      "name": "isWhitelisted",
      "outputs": [
        {
          "internalType": "bool",
          "name": "",
          "type": "bool"
        }
      ],
      "stateMutability": "view",
      "type": "function"
    },
    {
      "inputs": [],
      "name": "name",
      "outputs": [
        {
          "internalType": "string",
          "name": "",
          "type": "string"
        }
      ],
      "stateMutability": "view",
      "type": "function"
    },
    {
      "inputs": [],
      "name": "onlyWhitelisted",
      "outputs": [
        {
          "internalType": "bool",
          "name": "",
          "type": "bool"
        }
      ],
      "stateMutability": "view",
      "type": "function"
    },
    {
      "inputs": [],
      "name": "owner",
      "outputs": [
        {
          "internalType": "address",
          "name": "",
          "type": "address"
        }
      ],
      "stateMutability": "view",
      "type": "function"
    },
    {
      "inputs": [
        {
          "internalType": "uint256",
          "name": "tokenId",
          "type": "uint256"
        }
      ],
      "name": "ownerOf",
      "outputs": [
        {
          "internalType": "address",
          "name": "",
          "type": "address"
        }
      ],
      "stateMutability": "view",
      "type": "function"
    },
    {
      "inputs": [],
      "name": "renounceOwnership",
      "outputs": [],
      "stateMutability": "nonpayable",
      "type": "function"
    },
    {
      "inputs": [
        {
          "internalType": "address",
          "name": "from",
          "type": "address"
        },
        {
          "internalType": "address",
          "name": "to",
          "type": "address"
        },
        {
          "internalType": "uint256",
          "name": "tokenId",
          "type": "uint256"
        }
      ],
      "name": "safeTransferFrom",
      "outputs": [],
      "stateMutability": "payable",
      "type": "function"
    },
    {
      "inputs": [
        {
          "internalType": "address",
          "name": "from",
          "type": "address"
        },
        {
          "internalType": "address",
          "name": "to",
          "type": "address"
        },
        {
          "internalType": "uint256",
          "name": "tokenId",
          "type": "uint256"
        },
        {
          "internalType": "bytes",
          "name": "_data",
          "type": "bytes"
        }
      ],
      "name": "safeTransferFrom",
      "outputs": [],
      "stateMutability": "payable",
      "type": "function"
    },
    {
      "inputs": [
        {
          "internalType": "address",
          "name": "operator",
          "type": "address"
        },
        {
          "internalType": "bool",
          "name": "approved",
          "type": "bool"
        }
      ],
      "name": "setApprovalForAll",
      "outputs": [],
      "stateMutability": "nonpayable",
      "type": "function"
    },
    {
      "inputs": [
        {
          "internalType": "bytes4",
          "name": "interfaceId",
          "type": "bytes4"
        }
      ],
      "name": "supportsInterface",
      "outputs": [
        {
          "internalType": "bool",
          "name": "",
          "type": "bool"
        }
      ],
      "stateMutability": "view",
      "type": "function"
    },
    {
      "inputs": [],
      "name": "symbol",
      "outputs": [
        {
          "internalType": "string",
          "name": "",
          "type": "string"
        }
      ],
      "stateMutability": "view",
      "type": "function"
    },
    {
      "inputs": [
        {
          "internalType": "uint256",
          "name": "tokenId",
          "type": "uint256"
        }
      ],
      "name": "tokenURI",
      "outputs": [
        {
          "internalType": "string",
          "name": "",
          "type": "string"
        }
      ],
      "stateMutability": "view",
      "type": "function"
    },
    {
      "inputs": [
        {
          "internalType": "address",
          "name": "owner",
          "type": "address"
        }
      ],
      "name": "tokensOfOwner",
      "outputs": [
        {
          "internalType": "uint256[]",
          "name": "",
          "type": "uint256[]"
        }
      ],
      "stateMutability": "view",
      "type": "function"
    },
    {
      "inputs": [
        {
          "internalType": "address",
          "name": "owner",
          "type": "address"
        },
        {
          "internalType": "uint256",
          "name": "start",
          "type": "uint256"
        },
        {
          "internalType": "uint256",
          "name": "stop",
          "type": "uint256"
        }
      ],
      "name": "tokensOfOwnerIn",
      "outputs": [
        {
          "internalType": "uint256[]",
          "name": "",
          "type": "uint256[]"
        }
      ],
      "stateMutability": "view",
      "type": "function"
    },
    {
      "inputs": [],
      "name": "totalSupply",
      "outputs": [
        {
          "internalType": "uint256",
          "name": "",
          "type": "uint256"
        }
      ],
      "stateMutability": "view",
      "type": "function"
    },
    {
      "inputs": [
        {
          "internalType": "address",
          "name": "from",
          "type": "address"
        },
        {
          "internalType": "address",
          "name": "to",
          "type": "address"
        },
        {
          "internalType": "uint256",
          "name": "tokenId",
          "type": "uint256"
        }
      ],
      "name": "transferFrom",
      "outputs": [],
      "stateMutability": "payable",
      "type": "function"
    },
    {
      "inputs": [
        {
          "internalType": "address",
          "name": "newOwner",
          "type": "address"
        }
      ],
      "name": "transferOwnership",
      "outputs": [],
      "stateMutability": "nonpayable",
      "type": "function"
    },
    {
      "inputs": [],
      "name": "viewsale",
      "outputs": [
        {
          "internalType": "bool",
          "name": "",
          "type": "bool"
        }
      ],
      "stateMutability": "view",
      "type": "function"
    },
    {
      "inputs": [
        {
          "internalType": "address[]",
          "name": "_users",
          "type": "address[]"
        }
      ],
      "name": "whitelistUsers",
      "outputs": [],
      "stateMutability": "nonpayable",
      "type": "function"
    },
    {
      "inputs": [
        {
          "internalType": "uint256",
          "name": "",
          "type": "uint256"
        }
      ],
      "name": "whitelistedAddresses",
      "outputs": [
        {
          "internalType": "address",
          "name": "",
          "type": "address"
        }
      ],
      "stateMutability": "view",
      "type": "function"
    },
    {
      "inputs": [],
      "name": "withdraw",
      "outputs": [],
      "stateMutability": "payable",
      "type": "function"
    }
  ],
  "bytecode": "0x60806040526040518060800160405280604b815260200162004f2d604b9139600990816200002e919062000536565b5066b1a2bc2ec50000600a556000600b556000600c5573ebd831aa0343789150cdffce067479bb848c5ac8600d60006101000a81548173ffffffffffffffffffffffffffffffffffffffff021916908373ffffffffffffffffffffffffffffffffffffffff160217905550734cfafbce67942e79edb1dd67eccc271a536d202d600e60006101000a81548173ffffffffffffffffffffffffffffffffffffffff021916908373ffffffffffffffffffffffffffffffffffffffff1602179055506000601260006101000a81548160ff0219169083151502179055503480156200011657600080fd5b506040518060400160405280600a81526020017f546162656e6f6d696373000000000000000000000000000000000000000000008152506040518060400160405280600381526020017f54424d0000000000000000000000000000000000000000000000000000000000815250816002908162000194919062000536565b508060039081620001a6919062000536565b50620001b7620001e560201b60201c565b6000819055505050620001df620001d3620001ee60201b60201c565b620001f660201b60201c565b6200061d565b60006001905090565b600033905090565b6000600860009054906101000a900473ffffffffffffffffffffffffffffffffffffffff16905081600860006101000a81548173ffffffffffffffffffffffffffffffffffffffff021916908373ffffffffffffffffffffffffffffffffffffffff1602179055508173ffffffffffffffffffffffffffffffffffffffff168173ffffffffffffffffffffffffffffffffffffffff167f8be0079c531659141344cd1fd0a4f28419497f9722a3daafe3b4186f6b6457e060405160405180910390a35050565b600081519050919050565b7f4e487b7100000000000000000000000000000000000000000000000000000000600052604160045260246000fd5b7f4e487b7100000000000000000000000000000000000000000000000000000000600052602260045260246000fd5b600060028204905060018216806200033e57607f821691505b602082108103620003545762000353620002f6565b5b50919050565b60008190508160005260206000209050919050565b60006020601f8301049050919050565b600082821b905092915050565b600060088302620003be7fffffffffffffffffffffffffffffffffffffffffffffffffffffffffffffffff826200037f565b620003ca86836200037f565b95508019841693508086168417925050509392505050565b6000819050919050565b6000819050919050565b600062000417620004116200040b84620003e2565b620003ec565b620003e2565b9050919050565b6000819050919050565b6200043383620003f6565b6200044b62000442826200041e565b8484546200038c565b825550505050565b600090565b6200046262000453565b6200046f81848462000428565b505050565b5b8181101562000497576200048b60008262000458565b60018101905062000475565b5050565b601f821115620004e657620004b0816200035a565b620004bb846200036f565b81016020851015620004cb578190505b620004e3620004da856200036f565b83018262000474565b50505b505050565b600082821c905092915050565b60006200050b60001984600802620004eb565b1980831691505092915050565b6000620005268383620004f8565b9150826002028217905092915050565b6200054182620002bc565b67ffffffffffffffff8111156200055d576200055c620002c7565b5b62000569825462000325565b620005768282856200049b565b600060209050601f831160018114620005ae576000841562000599578287015190505b620005a5858262000518565b86555062000615565b601f198416620005be866200035a565b60005b82811015620005e857848901518255600182019150602085019450602081019050620005c1565b8683101562000608578489015162000604601f891682620004f8565b8355505b6001600288020188555050505b505050505050565b614900806200062d6000396000f3fe6080604052600436106102515760003560e01c80636352211e11610139578063a22cb465116100b6578063c87b56dd1161007a578063c87b56dd146108a6578063cd7b63d3146108e3578063dc8924e31461090e578063e985e9c514610937578063edec5f2714610974578063f2fde38b1461099d57610251565b8063a22cb465146107be578063b88d4fde146107e7578063ba4e5c4914610803578063c03516c314610840578063c23dc68f1461086957610251565b80638a653939116100fd5780638a653939146106d75780638da5cb5b1461070057806395d89b411461072b57806399a2557a146107565780639c70b5121461079357610251565b80636352211e146105de5780636c0360eb1461061b57806370a0823114610646578063715018a6146106835780638462151c1461069a57610251565b806323b872dd116101d25780633ccfd60b116101965780633ccfd60b1461050d57806342842e0e1461051757806342966c681461053357806344d27c731461055c5780635bbb217714610578578063602fb129146105b557610251565b806323b872dd146104395780632928301914610455578063311ab6081461047e57806332fceb83146104a75780633af32abf146104d057610251565b80630fbe4fe2116102195780630fbe4fe21461035457806312065fe01461037d57806314598796146103a857806318160ddd146103d157806318cae269146103fc57610251565b806301ffc9a71461025657806306fdde0314610293578063081812fc146102be57806308b28fa3146102fb578063095ea7b314610338575b600080fd5b34801561026257600080fd5b5061027d600480360381019061027891906133b5565b6109c6565b60405161028a91906133fd565b60405180910390f35b34801561029f57600080fd5b506102a8610a58565b6040516102b591906134a8565b60405180910390f35b3480156102ca57600080fd5b506102e560048036038101906102e09190613500565b610aea565b6040516102f2919061356e565b60405180910390f35b34801561030757600080fd5b50610322600480360381019061031d91906135b5565b610b69565b60405161032f91906135f1565b60405180910390f35b610352600480360381019061034d919061360c565b610b81565b005b34801561036057600080fd5b5061037b60048036038101906103769190613500565b610cc5565b005b34801561038957600080fd5b50610392610ea3565b60405161039f91906135f1565b60405180910390f35b3480156103b457600080fd5b506103cf60048036038101906103ca919061364c565b610ec2565b005b3480156103dd57600080fd5b506103e6610ed3565b6040516103f391906135f1565b60405180910390f35b34801561040857600080fd5b50610423600480360381019061041e91906135b5565b610eea565b60405161043091906135f1565b60405180910390f35b610453600480360381019061044e919061369f565b610f02565b005b34801561046157600080fd5b5061047c6004803603810190610477919061360c565b611224565b005b34801561048a57600080fd5b506104a560048036038101906104a0919061371e565b6113b2565b005b3480156104b357600080fd5b506104ce60048036038101906104c99190613500565b61141f565b005b3480156104dc57600080fd5b506104f760048036038101906104f291906135b5565b611521565b60405161050491906133fd565b60405180910390f35b6105156115cf565b005b610531600480360381019061052c919061369f565b61164f565b005b34801561053f57600080fd5b5061055a60048036038101906105559190613500565b61166f565b005b61057660048036038101906105719190613500565b61167d565b005b34801561058457600080fd5b5061059f600480360381019061059a91906137b0565b611a27565b6040516105ac9190613960565b60405180910390f35b3480156105c157600080fd5b506105dc60048036038101906105d7919061360c565b611aea565b005b3480156105ea57600080fd5b5061060560048036038101906106009190613500565b611b4a565b604051610612919061356e565b60405180910390f35b34801561062757600080fd5b50610630611b5c565b60405161063d91906134a8565b60405180910390f35b34801561065257600080fd5b5061066d600480360381019061066891906135b5565b611bea565b60405161067a91906135f1565b60405180910390f35b34801561068f57600080fd5b50610698611ca2565b005b3480156106a657600080fd5b506106c160048036038101906106bc91906135b5565b611cb6565b6040516106ce9190613a40565b60405180910390f35b3480156106e357600080fd5b506106fe60048036038101906106f9919061364c565b611df9565b005b34801561070c57600080fd5b50610715611e0a565b604051610722919061356e565b60405180910390f35b34801561073757600080fd5b50610740611e34565b60405161074d91906134a8565b60405180910390f35b34801561076257600080fd5b5061077d6004803603810190610778919061364c565b611ec6565b60405161078a9190613a40565b60405180910390f35b34801561079f57600080fd5b506107a86120d2565b6040516107b591906133fd565b60405180910390f35b3480156107ca57600080fd5b506107e560048036038101906107e09190613a62565b6120e5565b005b61080160048036038101906107fc9190613bd2565b6121f0565b005b34801561080f57600080fd5b5061082a60048036038101906108259190613500565b612263565b604051610837919061356e565b60405180910390f35b34801561084c57600080fd5b5061086760048036038101906108629190613cf6565b6122a2565b005b34801561087557600080fd5b50610890600480360381019061088b9190613500565b6122bd565b60405161089d9190613d94565b60405180910390f35b3480156108b257600080fd5b506108cd60048036038101906108c89190613500565b612327565b6040516108da91906134a8565b60405180910390f35b3480156108ef57600080fd5b506108f86123c5565b60405161090591906133fd565b60405180910390f35b34801561091a57600080fd5b506109356004803603810190610930919061360c565b6123dc565b005b34801561094357600080fd5b5061095e60048036038101906109599190613daf565b6124d9565b60405161096b91906133fd565b60405180910390f35b34801561098057600080fd5b5061099b60048036038101906109969190613e45565b61256d565b005b3480156109a957600080fd5b506109c460048036038101906109bf91906135b5565b612599565b005b60006301ffc9a760e01b827bffffffffffffffffffffffffffffffffffffffffffffffffffffffff19161480610a2157506380ac58cd60e01b827bffffffffffffffffffffffffffffffffffffffffffffffffffffffff1916145b80610a515750635b5e139f60e01b827bffffffffffffffffffffffffffffffffffffffffffffffffffffffff1916145b9050919050565b606060028054610a6790613ec1565b80601f0160208091040260200160405190810160405280929190818152602001828054610a9390613ec1565b8015610ae05780601f10610ab557610100808354040283529160200191610ae0565b820191906000526020600020905b815481529060010190602001808311610ac357829003601f168201915b5050505050905090565b6000610af58261261c565b610b2b576040517fcf4700e400000000000000000000000000000000000000000000000000000000815260040160405180910390fd5b6006600083815260200190815260200160002060000160009054906101000a900473ffffffffffffffffffffffffffffffffffffffff169050919050565b60136020528060005260406000206000915090505481565b6000610b8c82611b4a565b90508073ffffffffffffffffffffffffffffffffffffffff16610bad61267b565b73ffffffffffffffffffffffffffffffffffffffff1614610c1057610bd981610bd461267b565b6124d9565b610c0f576040517fcfb3b94200000000000000000000000000000000000000000000000000000000815260040160405180910390fd5b5b826006600084815260200190815260200160002060000160006101000a81548173ffffffffffffffffffffffffffffffffffffffff021916908373ffffffffffffffffffffffffffffffffffffffff160217905550818373ffffffffffffffffffffffffffffffffffffffff168273ffffffffffffffffffffffffffffffffffffffff167f8c5be1e5ebec7d5bd14f71427d1e84f3dd0314c0f7b2291e5b200ac8c7c3b92560405160405180910390a4505050565b610ccd610ed3565b610bb81015610d11576040517f08c379a0000000000000000000000000000000000000000000000000000000008152600401610d0890613f3e565b60405180910390fd5b80610d1a610ed3565b610bb8610d279190613f8d565b811115610d69576040517f08c379a0000000000000000000000000000000000000000000000000000000008152600401610d609061400d565b60405180910390fd5b338073ffffffffffffffffffffffffffffffffffffffff16600d60009054906101000a900473ffffffffffffffffffffffffffffffffffffffff1673ffffffffffffffffffffffffffffffffffffffff161480610e1357508073ffffffffffffffffffffffffffffffffffffffff16600e60009054906101000a900473ffffffffffffffffffffffffffffffffffffffff1673ffffffffffffffffffffffffffffffffffffffff16145b610e52576040517f08c379a0000000000000000000000000000000000000000000000000000000008152600401610e4990614079565b60405180910390fd5b610e5a612683565b50610e65338461268d565b7fd1d3d8a67ea3222e190a25cd89ce4613287a3f3d1272268cfd5639d6bad416b33384604051610e96929190614099565b60405180910390a1505050565b60003373ffffffffffffffffffffffffffffffffffffffff1631905090565b610ece33848484612848565b505050565b6000610edd61284e565b6001546000540303905090565b60146020528060005260406000206000915090505481565b6000610f0d82612857565b90508373ffffffffffffffffffffffffffffffffffffffff168173ffffffffffffffffffffffffffffffffffffffff1614610f74576040517fa114810000000000000000000000000000000000000000000000000000000000815260040160405180910390fd5b600080610f8084612923565b91509150610f968187610f9161267b565b61294a565b610fe257610fab86610fa661267b565b6124d9565b610fe1576040517f59c896be00000000000000000000000000000000000000000000000000000000815260040160405180910390fd5b5b600073ffffffffffffffffffffffffffffffffffffffff168573ffffffffffffffffffffffffffffffffffffffff1603611048576040517fea553b3400000000000000000000000000000000000000000000000000000000815260040160405180910390fd5b6110558686866001612848565b801561106057600082555b600560008773ffffffffffffffffffffffffffffffffffffffff1673ffffffffffffffffffffffffffffffffffffffff168152602001908152602001600020600081546001900391905081905550600560008673ffffffffffffffffffffffffffffffffffffffff1673ffffffffffffffffffffffffffffffffffffffff168152602001908152602001600020600081546001019190508190555061112e8561110a88888761298e565b7c0200000000000000000000000000000000000000000000000000000000176129b6565b600460008681526020019081526020016000208190555060007c02000000000000000000000000000000000000000000000000000000008416036111b457600060018501905060006004600083815260200190815260200160002054036111b25760005481146111b1578360046000838152602001908152602001600020819055505b5b505b838573ffffffffffffffffffffffffffffffffffffffff168773ffffffffffffffffffffffffffffffffffffffff167fddf252ad1be2c89b69c2b068fc378daa952ba7f163c4a11628f55a4df523b3ef60405160405180910390a461121c86868660016129e1565b505050505050565b61122c6129e7565b611234610ed3565b610bb81015611278576040517f08c379a000000000000000000000000000000000000000000000000000000000815260040161126f90613f3e565b60405180910390fd5b80611281610ed3565b610bb861128e9190613f8d565b8111156112d0576040517f08c379a00000000000000000000000000000000000000000000000000000000081526004016112c79061400d565b60405180910390fd5b6112d8611e0a565b73ffffffffffffffffffffffffffffffffffffffff168373ffffffffffffffffffffffffffffffffffffffff16146113615781601460008573ffffffffffffffffffffffffffffffffffffffff1673ffffffffffffffffffffffffffffffffffffffff168152602001908152602001600020600082825461135991906140c2565b925050819055505b611369612683565b50611374838361268d565b7fd1d3d8a67ea3222e190a25cd89ce4613287a3f3d1272268cfd5639d6bad416b383836040516113a5929190614099565b60405180910390a1505050565b6113ba6129e7565b60011515811515036113f357666a94d74f430000600a8190555080601260006101000a81548160ff02191690831515021790555061141c565b66b1a2bc2ec50000600a8190555080601260006101000a81548160ff0219169083151502179055505b50565b6000611429612a65565b9050600081519050600083821015611476576040517f08c379a000000000000000000000000000000000000000000000000000000000815260040161146d90614142565b60405180910390fd5b5b8084111561151b576114ab3361148b611e0a565b85848151811061149e5761149d614162565b5b6020026020010151610f02565b7f21425341546d2023146851fb583db9b7c6be5fed0d287293c85a8ede5193c6ea336114d5611e0a565b8584815181106114e8576114e7614162565b5b60200260200101516040516114ff93929190614191565b60405180910390a160018161151491906140c2565b9050611477565b50505050565b600080600090505b6011805490508110156115c4578273ffffffffffffffffffffffffffffffffffffffff166011828154811061156157611560614162565b5b9060005260206000200160009054906101000a900473ffffffffffffffffffffffffffffffffffffffff1673ffffffffffffffffffffffffffffffffffffffff16036115b15760019150506115ca565b80806115bc906141c8565b915050611529565b50600090505b919050565b60006115d9611e0a565b73ffffffffffffffffffffffffffffffffffffffff16476040516115fc90614241565b60006040518083038185875af1925050503d8060008114611639576040519150601f19603f3d011682016040523d82523d6000602084013e61163e565b606091505b505090508061164c57600080fd5b50565b61166a838383604051806020016040528060008152506121f0565b505050565b61167a816001612bb0565b50565b611685610ed3565b610bb810156116c9576040517f08c379a00000000000000000000000000000000000000000000000000000000081526004016116c090613f3e565b60405180910390fd5b806116d2610ed3565b610bb86116df9190613f8d565b811115611721576040517f08c379a00000000000000000000000000000000000000000000000000000000081526004016117189061400d565b60405180910390fd5b600a548261172f9190614256565b341015611771576040517f08c379a0000000000000000000000000000000000000000000000000000000008152600401611768906142e4565b60405180910390fd5b60011515601260009054906101000a900460ff1615150361186d5761179533611521565b6117d4576040517f08c379a00000000000000000000000000000000000000000000000000000000081526004016117cb90614350565b60405180910390fd5b6000601360003373ffffffffffffffffffffffffffffffffffffffff1673ffffffffffffffffffffffffffffffffffffffff1681526020019081526020016000205490506003838261182691906140c2565b1115611867576040517f08c379a000000000000000000000000000000000000000000000000000000000815260040161185e906143bc565b60405180910390fd5b50611902565b6000601460003373ffffffffffffffffffffffffffffffffffffffff1673ffffffffffffffffffffffffffffffffffffffff168152602001908152602001600020549050600383826118bf91906140c2565b1115611900576040517f08c379a00000000000000000000000000000000000000000000000000000000081526004016118f7906143bc565b60405180910390fd5b505b61190a612683565b50611915338361268d565b61191d6115cf565b60011515601260009054906101000a900460ff161515146119935781601460003373ffffffffffffffffffffffffffffffffffffffff1673ffffffffffffffffffffffffffffffffffffffff168152602001908152602001600020600082825461198791906140c2565b925050819055506119ea565b81601360003373ffffffffffffffffffffffffffffffffffffffff1673ffffffffffffffffffffffffffffffffffffffff16815260200190815260200160002060008282546119e291906140c2565b925050819055505b7fd1d3d8a67ea3222e190a25cd89ce4613287a3f3d1272268cfd5639d6bad416b33383604051611a1b929190614099565b60405180910390a15050565b6060600083839050905060008167ffffffffffffffff811115611a4d57611a4c613aa7565b5b604051908082528060200260200182016040528015611a8657816020015b611a7361321c565b815260200190600190039081611a6b5790505b50905060005b828114611ade57611ab5868683818110611aa957611aa8614162565b5b905060200201356122bd565b828281518110611ac857611ac7614162565b5b6020026020010181905250806001019050611a8c565b50809250505092915050565b611af26129e7565b611b04611afd611e0a565b8383610f02565b7f21425341546d2023146851fb583db9b7c6be5fed0d287293c85a8ede5193c6ea611b2d611e0a565b8383604051611b3e93929190614191565b60405180910390a15050565b6000611b5582612857565b9050919050565b60098054611b6990613ec1565b80601f0160208091040260200160405190810160405280929190818152602001828054611b9590613ec1565b8015611be25780601f10611bb757610100808354040283529160200191611be2565b820191906000526020600020905b815481529060010190602001808311611bc557829003601f168201915b505050505081565b60008073ffffffffffffffffffffffffffffffffffffffff168273ffffffffffffffffffffffffffffffffffffffff1603611c51576040517f8f4eb60400000000000000000000000000000000000000000000000000000000815260040160405180910390fd5b67ffffffffffffffff600560008473ffffffffffffffffffffffffffffffffffffffff1673ffffffffffffffffffffffffffffffffffffffff16815260200190815260200160002054169050919050565b611caa6129e7565b611cb46000612e02565b565b60606000806000611cc685611bea565b905060008167ffffffffffffffff811115611ce457611ce3613aa7565b5b604051908082528060200260200182016040528015611d125781602001602082028036833780820191505090505b509050611d1d61321c565b6000611d2761284e565b90505b838614611deb57611d3a81612ec8565b91508160400151611de057600073ffffffffffffffffffffffffffffffffffffffff16826000015173ffffffffffffffffffffffffffffffffffffffff1614611d8557816000015194505b8773ffffffffffffffffffffffffffffffffffffffff168573ffffffffffffffffffffffffffffffffffffffff1603611ddf5780838780600101985081518110611dd257611dd1614162565b5b6020026020010181815250505b5b806001019050611d2a565b508195505050505050919050565b611e05338484846129e1565b505050565b6000600860009054906101000a900473ffffffffffffffffffffffffffffffffffffffff16905090565b606060038054611e4390613ec1565b80601f0160208091040260200160405190810160405280929190818152602001828054611e6f90613ec1565b8015611ebc5780601f10611e9157610100808354040283529160200191611ebc565b820191906000526020600020905b815481529060010190602001808311611e9f57829003601f168201915b5050505050905090565b6060818310611f01576040517f32c1995a00000000000000000000000000000000000000000000000000000000815260040160405180910390fd5b600080611f0c612683565b9050611f1661284e565b851015611f2857611f2561284e565b94505b80841115611f34578093505b6000611f3f87611bea565b905084861015611f62576000868603905081811015611f5c578091505b50611f67565b600090505b60008167ffffffffffffffff811115611f8357611f82613aa7565b5b604051908082528060200260200182016040528015611fb15781602001602082028036833780820191505090505b50905060008203611fc857809450505050506120cb565b6000611fd3886122bd565b905060008160400151611fe857816000015190505b60008990505b888114158015611ffe5750848714155b156120bd5761200c81612ec8565b925082604001516120b257600073ffffffffffffffffffffffffffffffffffffffff16836000015173ffffffffffffffffffffffffffffffffffffffff161461205757826000015191505b8a73ffffffffffffffffffffffffffffffffffffffff168273ffffffffffffffffffffffffffffffffffffffff16036120b157808488806001019950815181106120a4576120a3614162565b5b6020026020010181815250505b5b806001019050611fee565b508583528296505050505050505b9392505050565b601260009054906101000a900460ff1681565b80600760006120f261267b565b73ffffffffffffffffffffffffffffffffffffffff1673ffffffffffffffffffffffffffffffffffffffff16815260200190815260200160002060008473ffffffffffffffffffffffffffffffffffffffff1673ffffffffffffffffffffffffffffffffffffffff16815260200190815260200160002060006101000a81548160ff0219169083151502179055508173ffffffffffffffffffffffffffffffffffffffff1661219f61267b565b73ffffffffffffffffffffffffffffffffffffffff167f17307eab39ab6107e8899845ad3d59bd9653f200f220920489ca2b5937696c31836040516121e491906133fd565b60405180910390a35050565b6121fb848484610f02565b60008373ffffffffffffffffffffffffffffffffffffffff163b1461225d5761222684848484612ef3565b61225c576040517fd1a57ed600000000000000000000000000000000000000000000000000000000815260040160405180910390fd5b5b50505050565b6011818154811061227357600080fd5b906000526020600020016000915054906101000a900473ffffffffffffffffffffffffffffffffffffffff1681565b6122aa6129e7565b80600990816122b99190614588565b5050565b6122c561321c565b6122cd61321c565b6122d561284e565b8310806122e957506122e5612683565b8310155b156122f75780915050612322565b61230083612ec8565b90508060400151156123155780915050612322565b61231e83613043565b9150505b919050565b60606123328261261c565b612368576040517fa14c4b5000000000000000000000000000000000000000000000000000000000815260040160405180910390fd5b6000612372613063565b9050600081510361239257604051806020016040528060008152506123bd565b8061239c846130f5565b6040516020016123ad929190614696565b6040516020818303038152906040525b915050919050565b6000601260009054906101000a900460ff16905090565b6123e46129e7565b6123ec610ed3565b610bb81015612430576040517f08c379a000000000000000000000000000000000000000000000000000000000815260040161242790613f3e565b60405180910390fd5b80612439610ed3565b610bb86124469190613f8d565b811115612488576040517f08c379a000000000000000000000000000000000000000000000000000000000815260040161247f9061400d565b60405180910390fd5b612490612683565b5061249b838361268d565b7fd1d3d8a67ea3222e190a25cd89ce4613287a3f3d1272268cfd5639d6bad416b383836040516124cc929190614099565b60405180910390a1505050565b6000600760008473ffffffffffffffffffffffffffffffffffffffff1673ffffffffffffffffffffffffffffffffffffffff16815260200190815260200160002060008373ffffffffffffffffffffffffffffffffffffffff1673ffffffffffffffffffffffffffffffffffffffff16815260200190815260200160002060009054906101000a900460ff16905092915050565b6125756129e7565b60116000612583919061326b565b81816011919061259492919061328c565b505050565b6125a16129e7565b600073ffffffffffffffffffffffffffffffffffffffff168173ffffffffffffffffffffffffffffffffffffffff1603612610576040517f08c379a00000000000000000000000000000000000000000000000000000000081526004016126079061472c565b60405180910390fd5b61261981612e02565b50565b60008161262761284e565b11158015612636575060005482105b8015612674575060007c0100000000000000000000000000000000000000000000000000000000600460008581526020019081526020016000205416145b9050919050565b600033905090565b6000600b54905090565b600080549050600082036126cd576040517fb562e8dd00000000000000000000000000000000000000000000000000000000815260040160405180910390fd5b6126da6000848385612848565b600160406001901b178202600560008573ffffffffffffffffffffffffffffffffffffffff1673ffffffffffffffffffffffffffffffffffffffff1681526020019081526020016000206000828254019250508190555061275183612742600086600061298e565b61274b85613145565b176129b6565b6004600083815260200190815260200160002081905550600080838301905073ffffffffffffffffffffffffffffffffffffffff85169150828260007fddf252ad1be2c89b69c2b068fc378daa952ba7f163c4a11628f55a4df523b3ef600080a4600183015b8181146127f257808360007fddf252ad1be2c89b69c2b068fc378daa952ba7f163c4a11628f55a4df523b3ef600080a46001810190506127b7565b506000820361282d576040517f2e07630000000000000000000000000000000000000000000000000000000000815260040160405180910390fd5b80600081905550505061284360008483856129e1565b505050565b50505050565b60006001905090565b6000808290508061286661284e565b116128ec576000548110156128eb5760006004600083815260200190815260200160002054905060007c01000000000000000000000000000000000000000000000000000000008216036128e9575b600081036128df5760046000836001900393508381526020019081526020016000205490506128b5565b809250505061291e565b505b5b6040517fdf2d9b4200000000000000000000000000000000000000000000000000000000815260040160405180910390fd5b919050565b60008060006006600085815260200190815260200160002090508092508254915050915091565b600073ffffffffffffffffffffffffffffffffffffffff8316925073ffffffffffffffffffffffffffffffffffffffff821691508382148383141790509392505050565b60008060e883901c905060e86129a5868684613155565b62ffffff16901b9150509392505050565b600073ffffffffffffffffffffffffffffffffffffffff83169250814260a01b178317905092915050565b50505050565b6129ef61315e565b73ffffffffffffffffffffffffffffffffffffffff16612a0d611e0a565b73ffffffffffffffffffffffffffffffffffffffff1614612a63576040517f08c379a0000000000000000000000000000000000000000000000000000000008152600401612a5a90614798565b60405180910390fd5b565b60606000600190506000808060009050612a7d610ed3565b600f8190555060108054905090505b80831015612ad0576010805480612aa657612aa56147b8565b5b60019003818190600052602060002001600090559055600183612ac991906140c2565b9250612a8c565b5b600f548411612b5657612ae384611b4a565b91503373ffffffffffffffffffffffffffffffffffffffff168273ffffffffffffffffffffffffffffffffffffffff1603612b425760108490806001815401808255809150506001900390600052602060002001600090919091909150555b600184612b4f91906140c2565b9350612ad1565b6010805480602002602001604051908101604052809291908181526020018280548015612ba257602002820191906000526020600020905b815481526020019060010190808311612b8e575b505050505094505050505090565b6000612bbb83612857565b90506000819050600080612bce86612923565b915091508415612c3757612bea8184612be561267b565b61294a565b612c3657612bff83612bfa61267b565b6124d9565b612c35576040517f59c896be00000000000000000000000000000000000000000000000000000000815260040160405180910390fd5b5b5b612c45836000886001612848565b8015612c5057600082555b600160806001901b03600560008573ffffffffffffffffffffffffffffffffffffffff1673ffffffffffffffffffffffffffffffffffffffff16815260200190815260200160002060008282540192505081905550612cf883612cb58560008861298e565b7c02000000000000000000000000000000000000000000000000000000007c010000000000000000000000000000000000000000000000000000000017176129b6565b600460008881526020019081526020016000208190555060007c0200000000000000000000000000000000000000000000000000000000851603612d7e5760006001870190506000600460008381526020019081526020016000205403612d7c576000548114612d7b578460046000838152602001908152602001600020819055505b5b505b85600073ffffffffffffffffffffffffffffffffffffffff168473ffffffffffffffffffffffffffffffffffffffff167fddf252ad1be2c89b69c2b068fc378daa952ba7f163c4a11628f55a4df523b3ef60405160405180910390a4612de88360008860016129e1565b600160008154809291906001019190505550505050505050565b6000600860009054906101000a900473ffffffffffffffffffffffffffffffffffffffff16905081600860006101000a81548173ffffffffffffffffffffffffffffffffffffffff021916908373ffffffffffffffffffffffffffffffffffffffff1602179055508173ffffffffffffffffffffffffffffffffffffffff168173ffffffffffffffffffffffffffffffffffffffff167f8be0079c531659141344cd1fd0a4f28419497f9722a3daafe3b4186f6b6457e060405160405180910390a35050565b612ed061321c565b612eec6004600084815260200190815260200160002054613166565b9050919050565b60008373ffffffffffffffffffffffffffffffffffffffff1663150b7a02612f1961267b565b8786866040518563ffffffff1660e01b8152600401612f3b949392919061483c565b6020604051808303816000875af1925050508015612f7757506040513d601f19601f82011682018060405250810190612f74919061489d565b60015b612ff0573d8060008114612fa7576040519150601f19603f3d011682016040523d82523d6000602084013e612fac565b606091505b506000815103612fe8576040517fd1a57ed600000000000000000000000000000000000000000000000000000000815260040160405180910390fd5b805181602001fd5b63150b7a0260e01b7bffffffffffffffffffffffffffffffffffffffffffffffffffffffff1916817bffffffffffffffffffffffffffffffffffffffffffffffffffffffff191614915050949350505050565b61304b61321c565b61305c61305783612857565b613166565b9050919050565b60606009805461307290613ec1565b80601f016020809104026020016040519081016040528092919081815260200182805461309e90613ec1565b80156130eb5780601f106130c0576101008083540402835291602001916130eb565b820191906000526020600020905b8154815290600101906020018083116130ce57829003601f168201915b5050505050905090565b606060a060405101806040526020810391506000825281835b60011561313057600184039350600a81066030018453600a810490508061310e575b50828103602084039350808452505050919050565b60006001821460e11b9050919050565b60009392505050565b600033905090565b61316e61321c565b81816000019073ffffffffffffffffffffffffffffffffffffffff16908173ffffffffffffffffffffffffffffffffffffffff168152505060a082901c816020019067ffffffffffffffff16908167ffffffffffffffff168152505060007c01000000000000000000000000000000000000000000000000000000008316141581604001901515908115158152505060e882901c816060019062ffffff16908162ffffff1681525050919050565b6040518060800160405280600073ffffffffffffffffffffffffffffffffffffffff168152602001600067ffffffffffffffff168152602001600015158152602001600062ffffff1681525090565b5080546000825590600052602060002090810190613289919061332c565b50565b82805482825590600052602060002090810192821561331b579160200282015b8281111561331a57823573ffffffffffffffffffffffffffffffffffffffff168260006101000a81548173ffffffffffffffffffffffffffffffffffffffff021916908373ffffffffffffffffffffffffffffffffffffffff160217905550916020019190600101906132ac565b5b509050613328919061332c565b5090565b5b8082111561334557600081600090555060010161332d565b5090565b6000604051905090565b600080fd5b600080fd5b60007fffffffff0000000000000000000000000000000000000000000000000000000082169050919050565b6133928161335d565b811461339d57600080fd5b50565b6000813590506133af81613389565b92915050565b6000602082840312156133cb576133ca613353565b5b60006133d9848285016133a0565b91505092915050565b60008115159050919050565b6133f7816133e2565b82525050565b600060208201905061341260008301846133ee565b92915050565b600081519050919050565b600082825260208201905092915050565b60005b83811015613452578082015181840152602081019050613437565b60008484015250505050565b6000601f19601f8301169050919050565b600061347a82613418565b6134848185613423565b9350613494818560208601613434565b61349d8161345e565b840191505092915050565b600060208201905081810360008301526134c2818461346f565b905092915050565b6000819050919050565b6134dd816134ca565b81146134e857600080fd5b50565b6000813590506134fa816134d4565b92915050565b60006020828403121561351657613515613353565b5b6000613524848285016134eb565b91505092915050565b600073ffffffffffffffffffffffffffffffffffffffff82169050919050565b60006135588261352d565b9050919050565b6135688161354d565b82525050565b6000602082019050613583600083018461355f565b92915050565b6135928161354d565b811461359d57600080fd5b50565b6000813590506135af81613589565b92915050565b6000602082840312156135cb576135ca613353565b5b60006135d9848285016135a0565b91505092915050565b6135eb816134ca565b82525050565b600060208201905061360660008301846135e2565b92915050565b6000806040838503121561362357613622613353565b5b6000613631858286016135a0565b9250506020613642858286016134eb565b9150509250929050565b60008060006060848603121561366557613664613353565b5b6000613673868287016135a0565b9350506020613684868287016134eb565b9250506040613695868287016134eb565b9150509250925092565b6000806000606084860312156136b8576136b7613353565b5b60006136c6868287016135a0565b93505060206136d7868287016135a0565b92505060406136e8868287016134eb565b9150509250925092565b6136fb816133e2565b811461370657600080fd5b50565b600081359050613718816136f2565b92915050565b60006020828403121561373457613733613353565b5b600061374284828501613709565b91505092915050565b600080fd5b600080fd5b600080fd5b60008083601f8401126137705761376f61374b565b5b8235905067ffffffffffffffff81111561378d5761378c613750565b5b6020830191508360208202830111156137a9576137a8613755565b5b9250929050565b600080602083850312156137c7576137c6613353565b5b600083013567ffffffffffffffff8111156137e5576137e4613358565b5b6137f18582860161375a565b92509250509250929050565b600081519050919050565b600082825260208201905092915050565b6000819050602082019050919050565b6138328161354d565b82525050565b600067ffffffffffffffff82169050919050565b61385581613838565b82525050565b613864816133e2565b82525050565b600062ffffff82169050919050565b6138828161386a565b82525050565b60808201600082015161389e6000850182613829565b5060208201516138b1602085018261384c565b5060408201516138c4604085018261385b565b5060608201516138d76060850182613879565b50505050565b60006138e98383613888565b60808301905092915050565b6000602082019050919050565b600061390d826137fd565b6139178185613808565b935061392283613819565b8060005b8381101561395357815161393a88826138dd565b9750613945836138f5565b925050600181019050613926565b5085935050505092915050565b6000602082019050818103600083015261397a8184613902565b905092915050565b600081519050919050565b600082825260208201905092915050565b6000819050602082019050919050565b6139b7816134ca565b82525050565b60006139c983836139ae565b60208301905092915050565b6000602082019050919050565b60006139ed82613982565b6139f7818561398d565b9350613a028361399e565b8060005b83811015613a33578151613a1a88826139bd565b9750613a25836139d5565b925050600181019050613a06565b5085935050505092915050565b60006020820190508181036000830152613a5a81846139e2565b905092915050565b60008060408385031215613a7957613a78613353565b5b6000613a87858286016135a0565b9250506020613a9885828601613709565b9150509250929050565b600080fd5b7f4e487b7100000000000000000000000000000000000000000000000000000000600052604160045260246000fd5b613adf8261345e565b810181811067ffffffffffffffff82111715613afe57613afd613aa7565b5b80604052505050565b6000613b11613349565b9050613b1d8282613ad6565b919050565b600067ffffffffffffffff821115613b3d57613b3c613aa7565b5b613b468261345e565b9050602081019050919050565b82818337600083830152505050565b6000613b75613b7084613b22565b613b07565b905082815260208101848484011115613b9157613b90613aa2565b5b613b9c848285613b53565b509392505050565b600082601f830112613bb957613bb861374b565b5b8135613bc9848260208601613b62565b91505092915050565b60008060008060808587031215613bec57613beb613353565b5b6000613bfa878288016135a0565b9450506020613c0b878288016135a0565b9350506040613c1c878288016134eb565b925050606085013567ffffffffffffffff811115613c3d57613c3c613358565b5b613c4987828801613ba4565b91505092959194509250565b600067ffffffffffffffff821115613c7057613c6f613aa7565b5b613c798261345e565b9050602081019050919050565b6000613c99613c9484613c55565b613b07565b905082815260208101848484011115613cb557613cb4613aa2565b5b613cc0848285613b53565b509392505050565b600082601f830112613cdd57613cdc61374b565b5b8135613ced848260208601613c86565b91505092915050565b600060208284031215613d0c57613d0b613353565b5b600082013567ffffffffffffffff811115613d2a57613d29613358565b5b613d3684828501613cc8565b91505092915050565b608082016000820151613d556000850182613829565b506020820151613d68602085018261384c565b506040820151613d7b604085018261385b565b506060820151613d8e6060850182613879565b50505050565b6000608082019050613da96000830184613d3f565b92915050565b60008060408385031215613dc657613dc5613353565b5b6000613dd4858286016135a0565b9250506020613de5858286016135a0565b9150509250929050565b60008083601f840112613e0557613e0461374b565b5b8235905067ffffffffffffffff811115613e2257613e21613750565b5b602083019150836020820283011115613e3e57613e3d613755565b5b9250929050565b60008060208385031215613e5c57613e5b613353565b5b600083013567ffffffffffffffff811115613e7a57613e79613358565b5b613e8685828601613def565b92509250509250929050565b7f4e487b7100000000000000000000000000000000000000000000000000000000600052602260045260246000fd5b60006002820490506001821680613ed957607f821691505b602082108103613eec57613eeb613e92565b5b50919050565b7f736f6c64206f7574000000000000000000000000000000000000000000000000600082015250565b6000613f28600883613423565b9150613f3382613ef2565b602082019050919050565b60006020820190508181036000830152613f5781613f1b565b9050919050565b7f4e487b7100000000000000000000000000000000000000000000000000000000600052601160045260246000fd5b6000613f98826134ca565b9150613fa3836134ca565b9250828203905081811115613fbb57613fba613f5e565b5b92915050565b7f4d696e7473206c65737320706c65617365000000000000000000000000000000600082015250565b6000613ff7601183613423565b915061400282613fc1565b602082019050919050565b6000602082019050818103600083015261402681613fea565b9050919050565b7f4e6f2046726565204d696e742041646472657373204974000000000000000000600082015250565b6000614063601783613423565b915061406e8261402d565b602082019050919050565b6000602082019050818103600083015261409281614056565b9050919050565b60006040820190506140ae600083018561355f565b6140bb60208301846135e2565b9392505050565b60006140cd826134ca565b91506140d8836134ca565b92508282019050808211156140f0576140ef613f5e565b5b92915050565b7f4e4654204e6f6e73000000000000000000000000000000000000000000000000600082015250565b600061412c600883613423565b9150614137826140f6565b602082019050919050565b6000602082019050818103600083015261415b8161411f565b9050919050565b7f4e487b7100000000000000000000000000000000000000000000000000000000600052603260045260246000fd5b60006060820190506141a6600083018661355f565b6141b3602083018561355f565b6141c060408301846135e2565b949350505050565b60006141d3826134ca565b91507fffffffffffffffffffffffffffffffffffffffffffffffffffffffffffffffff820361420557614204613f5e565b5b600182019050919050565b600081905092915050565b50565b600061422b600083614210565b91506142368261421b565b600082019050919050565b600061424c8261421e565b9150819050919050565b6000614261826134ca565b915061426c836134ca565b925082820261427a816134ca565b9150828204841483151761429157614290613f5e565b5b5092915050565b7f4e6f7420656e6f756768206d6f6e657900000000000000000000000000000000600082015250565b60006142ce601083613423565b91506142d982614298565b602082019050919050565b600060208201905081810360008301526142fd816142c1565b9050919050565b7f75736572206973206e6f742077686974656c6973746564000000000000000000600082015250565b600061433a601783613423565b915061434582614304565b602082019050919050565b600060208201905081810360008301526143698161432d565b9050919050565b7f4d61784d696e74204f7665720000000000000000000000000000000000000000600082015250565b60006143a6600c83613423565b91506143b182614370565b602082019050919050565b600060208201905081810360008301526143d581614399565b9050919050565b60008190508160005260206000209050919050565b60006020601f8301049050919050565b600082821b905092915050565b60006008830261443e7fffffffffffffffffffffffffffffffffffffffffffffffffffffffffffffffff82614401565b6144488683614401565b95508019841693508086168417925050509392505050565b6000819050919050565b600061448561448061447b846134ca565b614460565b6134ca565b9050919050565b6000819050919050565b61449f8361446a565b6144b36144ab8261448c565b84845461440e565b825550505050565b600090565b6144c86144bb565b6144d3818484614496565b505050565b5b818110156144f7576144ec6000826144c0565b6001810190506144d9565b5050565b601f82111561453c5761450d816143dc565b614516846143f1565b81016020851015614525578190505b614539614531856143f1565b8301826144d8565b50505b505050565b600082821c905092915050565b600061455f60001984600802614541565b1980831691505092915050565b6000614578838361454e565b9150826002028217905092915050565b61459182613418565b67ffffffffffffffff8111156145aa576145a9613aa7565b5b6145b48254613ec1565b6145bf8282856144fb565b600060209050601f8311600181146145f257600084156145e0578287015190505b6145ea858261456c565b865550614652565b601f198416614600866143dc565b60005b8281101561462857848901518255600182019150602085019450602081019050614603565b868310156146455784890151614641601f89168261454e565b8355505b6001600288020188555050505b505050505050565b600081905092915050565b600061467082613418565b61467a818561465a565b935061468a818560208601613434565b80840191505092915050565b60006146a28285614665565b91506146ae8284614665565b91508190509392505050565b7f4f776e61626c653a206e6577206f776e657220697320746865207a65726f206160008201527f6464726573730000000000000000000000000000000000000000000000000000602082015250565b6000614716602683613423565b9150614721826146ba565b604082019050919050565b6000602082019050818103600083015261474581614709565b9050919050565b7f4f776e61626c653a2063616c6c6572206973206e6f7420746865206f776e6572600082015250565b6000614782602083613423565b915061478d8261474c565b602082019050919050565b600060208201905081810360008301526147b181614775565b9050919050565b7f4e487b7100000000000000000000000000000000000000000000000000000000600052603160045260246000fd5b600081519050919050565b600082825260208201905092915050565b600061480e826147e7565b61481881856147f2565b9350614828818560208601613434565b6148318161345e565b840191505092915050565b6000608082019050614851600083018761355f565b61485e602083018661355f565b61486b60408301856135e2565b818103606083015261487d8184614803565b905095945050505050565b60008151905061489781613389565b92915050565b6000602082840312156148b3576148b2613353565b5b60006148c184828501614888565b9150509291505056fea2646970667358221220ca500f2a1f216e26a93d37217d98e7e4d3481aea83995c57113e7b7acf929d3064736f6c63430008110033697066733a2f2f62616679626569626b6877367375357161686333776173687a7134737861347277736a7961706568656a7637763568376962376f7662616a6834712f6d65746164617461",
  "linkReferences": {},
  "deployedLinkReferences": {}
}